:020000040800F2
:10000000A0A300209D01000885880008716A0008EF
:10001000C9820008FF0F000809DA0008000000008C
:1000200000000000000000000000000043BA0008CB
:100030002B180008000000002DA100085FCC00086C
:10004000B7010008B7010008B7010008B7010008B0
:10005000B7010008B7010008D91D00080F1E0008ED
:10006000191E0008231E00082D1E0008B7010008F5
:10007000B7010008B7010008B7010008B701000880
:10008000B7010008B7010008B7010008B701000870
:10009000B7010008B7010008B7010008371E0008C3
:1000A000BDCD0008D5CD0008B7010008B701000894
:1000B000B7010008B7010008B7010008B701000840
:1000C000B7010008B7010008B7010008B701000830
:1000D000B7010008B7010008B7010008EDD9000812
:1000E000E31D0008B7010008B7010008B7010008C8
:1000F000B7010008B7010008B7010008B701000800
:10010000B7010008B7010008B7010008B7010008EF
:10011000B7010008B7010008EDCD000891CE000836
:10012000B7010008B7010008B7010008B7010008CF
:10013000B7010008B7010008B7010008B7010008BF
:1001400089100008B7010008B7010008B7010008CE
:10015000B7010008B7010008B7010008B70100089F
:10016000B7010008B7010008B7010008B70100088F
:10017000B7010008B7010008B7010008000000003F
:10018000B7010008B7010008DFF80CD000F0F2F961
:1001900000480047D5E50008A0A300200648804796
:1001A00006480047FEE7FEE7FEE7FEE7FEE7FEE75C
:1001B000FEE7FEE7FEE7FEE7A1CD000889010008A3
:1001C0002DE9F05F0546002092469B46884606468C
:1001D000814640241BE0284641464746224600F01F
:1001E0005CF953465A46C01A914110D3114618463D
:1001F000224600F043F92D1A67EB01084F462246CC
:100200000120002100F03AF917EB00094E41201EB1
:10021000A4F10104DFDC484631462A464346BDE8E6
:10022000F09F40EA01039B0703D009E008C9121FB1
:1002300008C0042AFAD203E011F8013B00F8013BA0
:10024000521EF9D27047D2B201E000F8012B491ECC
:10025000FBD270470022F6E710B513460A46044663
:100260001946FFF7F0FF204610BD30B504460020C8
:10027000034600E05B1C934203D2E05CCD5C401B74
:10028000F8D030BD2DE9FE4F81EA030404F00044AC
:1002900021F0004100944FF0000B23F0004350EA9E
:1002A00001045ED052EA03045BD0C3F30A54C1F3E5
:1002B0000A552C44A4F2F3340194A0FB0254C1F378
:1002C000130141F48011C3F3130343F4801301FBC2
:1002D000024400FB034E840A970A44EA815447EA29
:1002E0008357A4FB076802958D0A05FB07854FEA33
:1002F000932C04FB0C542705029D4FEA065847EA4D
:100300001637B5EB08056EEB070C870E920E47EA21
:10031000811742EA8312A7FB0201B6EB0B0164EBE3
:1003200000042B0D43EA0C335E1844EB1C50DA46F4
:100330005146E7FB0201C5F313044FEA0B3343EACE
:1003400014534FEA0432019C43EA0603A4F10C045F
:100350000294009CCDE900B400F0BEF803B0BDE803
:10036000F08F00200146F9E70EB5C10F80EAE0707A
:100370000844CA07002140F233438DE80E000A46C4
:100380000B4600F0A9F803B000BD70B5C1F30A52E6
:1003900001F000450024C1F3130140F2FF3341F4A2
:1003A00080119A4201DA002070BD40F233439A4234
:1003B000A2F2334203DC524200F06FF800E09040BA
:1003C0002C43F1D0404270BD00F0004230F00040BC
:1003D0000AD0C10D01F56071C0F3160042EA015167
:1003E000C2084007114370470020014670470000D3
:1003F00030B5041E71F1000404DB4FF000444042AC
:1004000064EB0101141E73F1000405DB1C464FF080
:100410000043524263EB04038B4208BF824230BD6B
:1004200030B5041E71F1000404DB4FF0004440427B
:1004300064EB0101141E73F1000405DB1C464FF050
:100440000043524263EB0403994208BF904230BD1F
:1004500030B50B46014600202022012409E021FA94
:1004600002F59D4205D303FA02F5491B04FA02F591
:100470002844151EA2F10102F1DC30BD202A04DB64
:10048000203A00FA02F1002070479140C2F12003A7
:1004900020FA03F3194390407047202A04DB203AE6
:1004A00021FA02F00021704721FA02F3D040C2F194
:1004B0002002914008431946704710B5141E73F18D
:1004C000000408DA401C41F1000192185B411A4314
:1004D00001D120F0010010BD2DE9F04D92469B4660
:1004E00011B1B1FA81F202E0B0FA80F22032904606
:1004F000FFF7C4FF04460F4640EA0A0041EA0B0139
:1005000053465A46084313D0114653EA010019D006
:10051000C8F140025046FFF7C0FF05460E46504660
:1005200059464246FFF7AAFF084305D0012004E0E0
:1005300020463946BDE8F08D0020054346EAE076C6
:100540002C4337430A986305E40AA0EB0800002215
:10055000FD0A44EA47540A3002D500200146E9E783
:10056000010510196941DDE9084500196941BDE837
:10057000F04DA2E7064C074D06E0E06840F00103AD
:1005800094E8070098471034AC42F6D3FFF700FE1A
:1005900088010108A801010870B58C1810F8015BEA
:1005A00015F0070301D110F8013B2A1106D110F80C
:1005B000012B03E010F8016B01F8016B5B1EF9D110
:1005C0002B0705D40023521E0DD401F8013BFAE796
:1005D00010F8013BCB1A921C03E013F8015B01F801
:1005E000015B521EF9D5A142D8D3002070BD70B571
:1005F0000546AC6B206C00F0500050BB206C40F402
:10060000007020642068806800F04050E8B9207EC7
:10061000D8B92068C06A00F4700020B120688068F2
:1006200000F4806088B92068406820F020002168CC
:100630004860206C20F480702064206C00F48050AE
:1006400018B9206C40F0010020642046A16C884756
:100650000BE0206C00F0100018B12046616D884757
:1006600003E0A06BC16C2846884770BD70B5054695
:10067000AC6B40202064606C40F004006064204655
:10068000616D884770BD70B50446A56B2846E96C5E
:10069000884770BD55494A6822F440324A604A682A
:1006A00043681A434A600268526822F48072036801
:1006B0005A6002685368026943EA022203685A607A
:1006C0000268526822F0407203685A6002685268F9
:1006D00083681A4303685A600268926822F40062D1
:1006E00003689A6002689268C3681A4303689A6054
:1006F0003F4B826A9A4218D00268926822F0706278
:1007000003689A6002689268836A1A4303689A6071
:100710000268926822F0405203689A600268926808
:10072000C36A1A4303689A600BE00268926822F079
:10073000706203689A600268926822F0405203680F
:100740009A600268926822F0020203689A60026866
:100750009368027E43EA420203689A602022125C98
:10076000A2B10268526842F4006203685A600268EB
:10077000526822F4604203685A6002685368426A11
:10078000521E43EA423203685A6005E0026852682A
:1007900022F4006203685A600268D26A22F470028E
:1007A0000368DA620268D36A828B521E43EA0252FD
:1007B0000368DA620268926822F4007203689A6041
:1007C0000268936890F8302043EA422203689A60F6
:1007D0000268926822F4806203689A6002689368F3
:1007E000426943EA822203689A607047002301400D
:1007F0000100000F00B53948B0F93602002804DDC9
:100800003648D0F83802002809DB3448B0F93602FF
:1008100000280ADA3148D0F83802002805DD3048CF
:100820000088401C2E49088044E02C48B0F836026D
:1008300098B92A48B0F93002002803DB2748B0F9FC
:10084000300203E02548B0F93002C043B0F5FA7F2A
:1008500003DA0020224908802CE02048D0F8380232
:10086000002803DB1D48D0F8380203E01B48D0F80D
:100870003802C0431949B1F93612002903DB174980
:10088000B1F9361203E01549B1F93612C943401ADD
:10089000B0F5FA7F05DD12480088401C1049088039
:1008A00008E00F480088002804DD0D480088401E3D
:1008B0000B4908800A480088B0F5FA6F0DDD00206A
:1008C000074908800121054880F84812002180F876
:1008D0004C124FF4802006F075FE00BDEC7E002027
:1008E0001E01002070B505460C46002C01DA60425E
:1008F00004B225B94FF4806006F064FEA1E05148CF
:10090000807AA84215D141F29410844204DA43F669
:1009100090404D49086203E043F6D0404A490862DE
:1009200042F2D000484988634863C863084684633C
:1009300087E04448C07AA84215D141F2941084421D
:1009400004DA43F29C004049086203E043F2DC0011
:100950003D49086242F2D0003B4988634863C8635E
:10096000084684636DE037488079A84215D141F28A
:100970009410844204DA43F60C103349086203E011
:1009800043F60C503049086242F2D0002E49886389
:100990004863C8630846C46353E02A48C079A84244
:1009A00015D141F29410844204DA4FF4675026497D
:1009B000086203E04FF477502349086242F2D00006
:1009C000214988634863C8630846C46339E01D4809
:1009D000007AA84215D141F29410844204DA43F21D
:1009E000C9001949086203E043F2CD0016490862C4
:1009F00042F2D000144988634863C86308464463E0
:100A00001FE01048407AA84215D141F29410844268
:100A100004DA43F609400C49086203E043F60D404E
:100A20000949086242F2D000074988634863C863F5
:100A30000846446305E0072D03D14FF4806006F0BB
:100A4000C1FD70BD0C8500200000014000B5394893
:100A5000B0F9A602002804DD3648D0F8A802002824
:100A600009DB3448B0F9A60200280ADA3148D0F888
:100A7000A802002805DD30480088401C2E49088067
:100A800044E02C48B0F8A60298B92A48B0F9A00270
:100A9000002803DB2748B0F9A00203E02548B0F99D
:100AA000A002C043B0F5FA7F03DA00202249088093
:100AB0002CE02048D0F8A802002803DB1D48D0F81D
:100AC000A80203E01B48D0F8A802C0431949B1F9B5
:100AD000A612002903DB1749B1F9A61203E0154954
:100AE000B1F9A612C943401AB0F5FA7F05DD1248E4
:100AF0000088401C1049088008E00F480088002842
:100B000004DD0D480088401E0B4908800A48008813
:100B1000B0F5FA6F0DDD0020074908800121054876
:100B200080F8B812002180F8BC124FF4002006F0C3
:100B300049FD00BDEC7E00202001002070B5054677
:100B40000C46002C01DA604204B225B94FF4004093
:100B500006F038FDBBE05E48007FA84219D141F2A3
:100B60009410844204DA43F690405A49086003E046
:100B700043F6D0405749086042F2D0005549183139
:100B80000860091F086053491C310860081F046091
:100B90009DE04F48407FA84219D141F29410844211
:100BA00004DA43F29C004B49086003E043F2DC00A6
:100BB0004849086042F2D000464918310860091FD0
:100BC000086044491C310860081F04607FE0404809
:100BD000007EA84219D141F29410844204DA43F60F
:100BE0000C103C49086003E043F60C50394908609A
:100BF00042F2D000374918310860091F08603549B2
:100C00001C3108600846046061E03148407EA8421B
:100C100019D141F29410844204DA4FF467502D49FF
:100C2000086003E04FF477502A49086042F2D00090
:100C3000284918310860091F086026491C310860DE
:100C40000846046043E02248807EA8421AD141F25F
:100C50009410844204DA43F2C9001E49086003E09C
:100C600043F2CD001B49086042F2D0001949183107
:100C70000860091F086017491C31086015481430C6
:100C8000046024E01248C07EA8421AD141F29410B8
:100C9000844204DA43F609400E49086003E043F653
:100CA0000D400C49086042F2D0000A491831086032
:100CB000091F086007491C310860064814300460A9
:100CC00005E0072D03D14FF4004006F07BFC70BD1A
:100CD0000C8500202004014000B52448B0F84402EF
:100CE000002841D0214890F94A02401CE0B11F4839
:100CF00090F84A02012817D01D480078401C1C4972
:100D00000870084600780A282EDD0A2008700021A5
:100D1000164880F84C124FF4005006F053FC0121A5
:100D2000124880F848121FE01048B0F93012D0F88D
:100D30003802081A06D40D48B0F93012D0F838023B
:100D4000081A06E00948B0F93012D0F83802081A3B
:100D5000C043142808DA06480078002804DD044857
:100D60000078401E0249087000BD0000EC7E0020A3
:100D70001B01002000B52448B0F8B402002841D07F
:100D8000214890F9BA02401CE0B11F4890F8BA021D
:100D9000012817D01D480078401C1C4908700846DF
:100DA00000780A282EDD4FF4804006F00BFC0A2064
:100DB000164908700021144880F8BC12012180F8FF
:100DC000B8121FE01048B0F9A012D0F8A802081A13
:100DD00006D40D48B0F9A012D0F8A802081A06E00F
:100DE0000948B0F9A012D0F8A802081AC043142884
:100DF00008DA06480078002804DD04480078401E20
:100E00000249087000BD0000EC7E00201C0100209B
:100E100010B5052001F0AAF9002842D15748B0F8D2
:100E20004402E8B3554890ED960AF3EE040AB4EE96
:100E3000E00AF1EE10FA05D251480088401C5049F2
:100E4000088004E04F480088401C4E4908804C4808
:100E50000088B0F5FA6F0EDD4FF4001006F0B2FB1B
:100E60004FF4FA60464908800121444880F848124E
:100E7000002180F84C1243480088B0F5FA7F22DD4B
:100E80004FF4FA703F4908804FF4005006F09AFB87
:100E900001213A4880F84812002180F84C1212E0F3
:100EA000FFE737480088002804DD35480088401EE9
:100EB0003349088033480088002804DD3148008821
:100EC000401E30490880062001F050F9F0BB2B4845
:100ED000B0F8B402D0B3294890EDB20AF3EE040A98
:100EE000B4EEE00AF1EE10FA05D227480088401C63
:100EF0002549088004E025480088401C23490880D3
:100F000021480088B0F5FA6F0EDD4FF4800006F03E
:100F100059FB4FF4FA601C4908800121174880F8FA
:100F2000B812002180F8BC1218480088B0F5FA7F8A
:100F300023DD4FF4804006F045FB4FF4FA7013496F
:100F4000088001210D4880F8B81200E003E000217C
:100F500080F8BC1211E00C480088002804DD0A4823
:100F60000088401E0849088008480088002804DDE1
:100F700006480088401E0549088010BDEC7E002010
:100F80001201002016010020140100201801002089
:100F900030B50446B0EE401A0023002521E0B7EE3C
:100FA000000A31EE400ABCEEC00A10EE103A15E01D
:100FB000581E04EB800090ED000A04EB8300D0ED96
:100FC000000AB4EEE00AF1EE10FA06DD04EB83014C
:100FD0005A1E04EB82000DF0C7FF5B1EAB42E7D840
:100FE0006D1CB7EE000A71EE400A00EE105AB8EE22
:100FF000400AF4EEC00AF1EE10FAD0DC30BD00BFBA
:10100000FEE700002DE9F04705460E4617469946D3
:10101000DDF8208000241A48006B056040F6FF7060
:101020001749096B48601648006B86601448006BCE
:10103000C7601348006BC0F8108000BF07E019F8C4
:1010400004100F48006B14300155601C84B24445F5
:10105000F5DB14210A4802F029F850B1094841682B
:101060000748006B00692F2202EBC00008440549C5
:101070004860032C02D10120BDE8F0870020FBE787
:101080001C3900204886002010B5024801F0ECFC15
:1010900010BD00001C3900202DE9F04104460D462A
:1010A000002700260DB9666B00E0A66B206800F5EE
:1010B000D87000EB0510006800F00400B060B06864
:1010C00058B9206800F5D87000EB0510006840F2B0
:1010D000FF7101EA505030600AE0206800F5D870D6
:1010E00000EB051000686FF0604101EAD00070600D
:1010F000206800F5D87000EB0510006800F00200D1
:10110000F060206800F5D87000EB0510406800F032
:101110000F0030613562206800F5D87000EB0510D3
:101120004068C0F30720F061206800F5D87000EB3C
:10113000051080683075206800F5D87000EB051048
:101140008068010A7175206800F5D87000EB051001
:101150008068010CB175206800F5D87000EB0510AF
:101160008068000EF075206800F5D87000EB05105F
:10117000C0683076206800F5D87000EB0510C068B4
:10118000010A7176206800F5D87000EB0510C06880
:10119000010CB176206800F5D87000EB0510C0682E
:1011A000000EF0761DB920202168C86008E02020DC
:1011B000216808612068406920F05000216848617A
:1011C00094F83C70222F01D0322F05D1206840695D
:1011D00020F40F4021684861CDB994F83C004228C2
:1011E00004D0622806D072280CD107E0122084F8BF
:1011F0003C000BE0322084F83C0007E0522084F8E9
:101200003C0003E0012084F83C0000BF19E094F8A2
:101210003C00522804D0622806D072280CD107E086
:10122000122084F83C000BE0222084F83C0007E008
:10123000422084F83C0003E0012084F83C0000BF19
:1012400000BF204601F0FEFE0020BDE8F08110B591
:1012500004462068406920F001002168486194F844
:101260003C00122805D12068406920F40F40216815
:10127000486194F83C00422804D0522806D07228D5
:101280000CD107E0222084F83C000BE0322084F8E7
:101290003C0007E0622084F83C0003E0012084F871
:1012A0003C0000BF00BF204602F05CF8002010BDEB
:1012B0003EB5044655201949087066201849087043
:1012C000882018490870992017490870174818494C
:1012D0000860112017490870222048703320887058
:1012E0004420C870002101221348124BCDE901218E
:1012F00000900222110311480CF002FF10480178FF
:101300000E480BF09FFA0F20A0600E480068606046
:10131000002120460BF020FB3EBD0000C90E00203E
:10132000CA0E0020CB0E0020CC0E00204433221128
:10133000D00E002004860020B48500205433002005
:10134000081900202419002030B40A46016B51F816
:101350002210C1F30741446B4FF0FF3324F81230E1
:101360000122431883F83820026C30BC10472DE965
:10137000F04FDDE90A48099E4FF0FF3C3FE0A51A17
:10138000EDB2002D03D00F7807FA05F700E00F78D3
:1013900007F0FF0902D0C4F1080501E0C2F1080519
:1013A000EDB2854200D9054604EB050A4FF0FF0B6C
:1013B0000BFA0AF7C4F108042BFA04FB47EA0B07FF
:1013C00029EA070934783C4044EA090434702A4485
:1013D000D2B2072A05D900220BB1644600E00124ED
:1013E00021440AF0FF04072C07D90024B8F1000FAC
:1013F00001D0674600E001273E44401BC0B20028F0
:10140000BDD1BDE8F08F000010B50446C4EBC400A8
:10141000C24901EB0010B0F92210C4EBC400BF4A6E
:1014200002EB0010408E81427EDDC4EBC400114609
:1014300001EB0010808F401C81B2C4EBC40002EBB2
:1014400000108187C4EBC400114601EB0010B0F915
:101450002210C4EBC40002EB0010808E81427CDDC0
:10146000C4EBC400114601EB0010C08F401C81B2D8
:10147000C4EBC40002EB0010C187C4EBC4001146EA
:1014800001EB0010C18FC4EBC40002EB0010B0F8F8
:101490004600814214DD20460BF0CCF8012101FA10
:1014A00004F006F08FF80120C4EBC4019B4A02EB64
:1014B000011108760021C4EBC40002EB0010C187C3
:1014C000C4EBC400954901EB0010B0F92210C4EB45
:1014D000C400924A02EB0010C08E81427BDDC4EB57
:1014E000C400114601EB0010B0F84000401C81B26E
:1014F000C4EBC40002EB0010A0F84010C4EBC40021
:10150000114601EB0010B0F84010C4EBC40002EB30
:101510000010B0F84800814217DD20460BF08AF831
:10152000012101FA04F000E09EE006F04BF80120F2
:10153000C4EBC401794A02EB011108760021C4EB27
:10154000C40002EB0010A0F84010C4EBC4007349C3
:1015500001EB0010B0F9221000E06FE0C4EBC40012
:101560006E4A02EB0010008F814235DDC4EBC400EF
:10157000114601EB0010B0F84200401C81B2C4EBF0
:10158000C40002EB0010A0F84210C4EBC4001146E6
:1015900001EB0010B0F84210C4EBC40002EB0010E5
:1015A000B0F84A00814215DD20460BF043F80121D6
:1015B00001FA04F006F006F80120C4EBC401574A12
:1015C00002EB011108760021C4EBC40002EB00100D
:1015D000A0F84210A1E018E0C4EBC4004F4901EBB1
:1015E0000010B0F8420000280EDDC4EBC40001EB8F
:1015F0000010B0F84200401E81B2C4EBC400474A5C
:1016000002EB0010A0F8421087E0C4EBC40043498D
:1016100001EB0010B0F8400000287EDDC4EBC400F0
:1016200001EB0010B0F84000401E81B2C4EBC400D2
:101630003A4A02EB0010A0F840106EE0C4EBC40080
:10164000364901EB0010C08F002866DDC4EBC400F2
:1016500001EB0010C08F401E81B2C4EBC4002F4AC2
:1016600002EB0010C18758E0C4EBC4002B4901EB2A
:101670000010808F002850DDC4EBC40001EB001087
:10168000808F401E81B2C4EBC400244A02EB0010DC
:101690008187C4EBC400114601EB0010C08F002805
:1016A0000BDDC4EBC40001EB0010C08F401E81B203
:1016B000C4EBC40002EB0010C187C4EBC40017499F
:1016C00001EB0010B0F8400000280EDDC4EBC400B0
:1016D00001EB0010B0F84000401E81B2C4EBC40022
:1016E0000E4A02EB0010A0F84010C4EBC4000B49F6
:1016F00001EB0010B0F8420000280EDDC4EBC4007E
:1017000001EB0010B0F84200401E81B2C4EBC400EF
:10171000024A02EB0010A0F8421010BDEC7E00203F
:101720000146087810381823B0FBF3F20848805CB3
:10173000C865032A05D908686FF30900001D88658C
:1017400003E008686FF309008865886D7047000042
:10175000CCEF0008014600208A6A8B69CBB932B110
:10176000012A0DD0022A03D0032A10D10EE000BFB7
:10177000CB6A03F08073B3F1807F00D1012007E0D2
:10178000CB6AB3F1C07F00D1012001E000E000BFCF
:1017900034E08B69B3F5005F1AD132B1012A07D06A
:1017A000022A03D0032A11D10AE000BF01200EE073
:1017B000CB6A03F08073B3F1807F00D1012006E093
:1017C000CB6AB3F1C07F00D1012000E000BF15E07B
:1017D00032B1012A05D0022A04D0032A0CD103E039
:1017E00000BF00BF012008E0CB6A03F08073B3F1B3
:1017F000807F00D1012000E000BF00BF704730B5FE
:101800000468246824F4802405682C6004686360FC
:101810008468402C04D10468A2600468E16003E09D
:101820000468A1600468E26030BD70470146481C4E
:1018300080B10A48B0F90000814205D1074800880C
:10184000401E00B2054A1080002001EB4102044B0B
:1018500003F832004FF0FF30704700008C38002052
:101860002889002008B5F7480078401CF549087021
:1018700008460078642807DD4FF48051F24802F0F2
:10188000F1FB0020EF490870F0480068401CEF4968
:101890000860EF48006888B901224021EA4802F058
:1018A000EAFB01221103EB4802F0E5FB0020EA49C4
:1018B0000860EA490860EA49086085E2E74800688C
:1018C000B0F5004F72D02BDC802870D010DC0828D7
:1018D0006ED006DC012857D002285ED0042868D1DB
:1018E00068E010286FD020287AD04028F7D183E014
:1018F000B0F5006F69D009DCB0F5807F6FD0B0F52E
:10190000007F63D0B0F5806FE9D195E0B0F5805FDE
:101910006FD0B0F5005F6DD0B0F5804FDFD1F5E04E
:10192000B0F5000F67D017DCB0F5002F76D009DCDA
:10193000B0F5803F73D0B0F5003F71D0B0F5802F87
:10194000CDD122E1B0F5801F6BD0B0F5001F69D07A
:10195000B0F5800FC3D1F4E0B0F1006F75D009DCB1
:10196000B0F1807F72D0B0F1007F70D0B0F1806FA5
:10197000B5D1A7E0B0F1805F6AD0B0F1005F68D068
:10198000B0F1804FABD194E0142000230122114626
:101990000090184605F0E2FB15E214200023022215
:1019A00001210090184605F0D9FB0CE252E05AE004
:1019B0002BE0FDE1142000230322012100901846B2
:1019C00005F0CCFBFFE12EE00AE0CCE01420002380
:1019D000042201210090184605F0C0FBF3E151E01C
:1019E00014200023052201210090184605F0B6FBC3
:1019F000E9E159E181E0DAE0142000230622012127
:101A00000090184605F0AAFBDDE114200023072210
:101A100001210090184605F0A1FBD4E1BEE0ABE047
:101A20008BE17CE084E01420002308220121009057
:101A3000184605F093FBC6E1282001231A46002131
:101A40000090184605F08AFBBDE144E0E5E081E046
:101A50004AE025E0282001231A461946009000207C
:101A600005F07CFBAFE100224021774802F003FB48
:101A700000224FF48051774802F0FDFA00207349AC
:101A80000860A0E101221103724802F0F4FA00227A
:101A900040216D4802F0EFFA00206C49086092E1A5
:101AA00014200023012219460090104605F056FB31
:101AB00089E114200023022219460090012005F03C
:101AC0004DFB80E1142000230322194600900120E1
:101AD00005F044FB77E1142000230422194600900E
:101AE000012005F03BFB6EE114200023052219467E
:101AF0000090012005F032FB65E11420002307224D
:101B000019460090012005F029FB5CE11420002318
:101B1000082219460090012005F020FB53E1142013
:101B20000023012211460090104605F017FB4AE100
:101B300014200023022201210090084605F00EFB2C
:101B400041E114200023032201210090084605F002
:101B500005FB38E1142000230422012100900846EF
:101B600005F0FCFA2FE1142000230522012100904A
:101B7000084605F0F3FA26E114200023062201218D
:101B80000090084605F0EAFA1DE114200023072220
:101B900001210090084605F0E1FA14E11420002329
:101BA000082201210090084605F0D8FA0BE12C48E4
:101BB0000068012806D002280DD0042814D0082877
:101BC00024D11AE01420002301221146009010466F
:101BD00005F0C4FA1AE0142000230222012100902B
:101BE000084605F0BBFA11E014200023032201216E
:101BF0000090084605F0B2FA08E014200023042201
:101C000001210090084605F0A9FA00BF00BF00229C
:101C100040210D4802F02FFAD5E011480068102845
:101C200006D020281ED0402825D0802835D12BE092
:101C300014200023052201210090084605F08EFAA9
:101C40002BE000001A010020000402409C0000204C
:101C50008800002000000240900000209400002036
:101C6000980000201420002306220121009008463D
:101C700005F074FA11E014200023072201210090DE
:101C8000084605F06BFA08E0142000230822012121
:101C90000090084605F062FA00BF00BF0022402114
:101CA0004A4802F0E8F98EE049480068B0F5803F04
:101CB00020D006DCB0F5804F0AD0B0F5004F34D10B
:101CC0000FE0B0F5003F1ED0B0F5802F2DD123E0FE
:101CD00014200023012211460090104605F03EFA20
:101CE00023E014200023022201210090084605F081
:101CF00035FA1AE01420002303220121009008463F
:101D000005F02CFA11E01420002304220121009098
:101D1000084605F023FA08E01420002305220121DB
:101D20000090084605F01AFA00BF00BF00224FF4E9
:101D30008051284802F09FF945E025480068B0F539
:101D4000002F09D0B0F5801F0FD0B0F5001F15D0BF
:101D5000B0F5800F24D11AE01420002306220121BF
:101D60000090084605F0FAF91AE014200023072233
:101D700001210090084605F0F1F911E0142000233C
:101D8000082201210090084605F0E8F908E0142037
:101D90000023092201210090084605F0DFF900BF69
:101DA00000BF00224FF480510A4802F064F90AE0B3
:101DB00001224021054802F05EF901221103054885
:101DC00002F059F900BF00BF08BD00000004024046
:101DD000980000200000024010B5012002F02CF80D
:101DE00010BD10B54FF4806002F026F84FF400608B
:101DF00002F022F84FF4005002F01EF84FF4804039
:101E000002F01AF84FF4004002F016F810BD10B5B9
:101E1000022002F011F810BD10B5042002F00CF8F9
:101E200010BD10B5082002F007F810BD10B5102045
:101E300002F002F810BD10B5202001F0FDFF402097
:101E400001F0FAFF802001F0F7FF4FF4007001F07D
:101E5000F3FF10BD72B600BFFEE7000010B5002210
:101E600001B909E0012901D10A0205E0022901D1E5
:101E70000A0201E04FF440720E4B1B6823F44073DA
:101E80000C4C236023461B681343236023461B68C6
:101E900023F0F803236023461B68022444EAC004AD
:101EA0002343044C236023461B6843F480332360A0
:101EB00010BD0000103C02401C48006800F4007097
:101EC000B0B11A48006820F400701849086000BFDB
:101ED0000846006840F4006008600846006820F486
:101EE0000060086000BF0846006840F400700860A9
:101EF0000E48006800F48060B0B10C48006820F41F
:101F000080600A49086000BF0846006840F48050BD
:101F100008600846006820F48050086000BF08464A
:101F2000006840F48060086070470000003C024098
:101F30000A4A126822F44072084B1A601A46126864
:101F400042F004021A601A4612684FF4803343EAE2
:101F500000231A43014B1A6070470000103C0240F6
:101F6000074A126822F44072054B1A601A4612683A
:101F70001A601A46126842F001021A600170704736
:101F8000103C024010B50D49096821F440710B4C1A
:101F900021602146096841F44071216021460968A9
:101FA00041F001012160026000BF00BF00BFBFF32C
:101FB0006F8F00BF00BF00BF436010BD103C0240E8
:101FC000084A126822F44072064B1A601A461268D8
:101FD00042F480721A601A46126842F001021A60D6
:101FE00001807047103C0240084A126822F4407297
:101FF000064B1A601A46126842F400721A601A46BA
:10200000126842F001021A6001607047103C024001
:102010002348006800F0100040B12248C06940F039
:1020200010002049C86110201D4908601C48006844
:1020300000F0200040B11B48C06940F00800194979
:10204000C8612020164908601548006800F040006B
:1020500040B11448C06940F004001249C8614020F2
:102060000F4908600E48006800F0800040B10D483C
:10207000C06940F002000B49C8618020084908602F
:102080000748006800F0020040B10648C06940F00F
:1020900020000449C861022001490860704700001F
:1020A0000C3C0240887C002070B5044600250020CE
:1020B0001449C86101F0E6FF054609E0601C38B12B
:1020C00024B101F0DFFF401BA04201D9032070BD05
:1020D0000D48006800F480300028EFD10A480068FD
:1020E00000F0010010B101200749086006480068AF
:1020F00000F0F20018B1FFF78BFF0120E7E70020A6
:10210000E5E70000887C00200C3C024030B5014629
:102110000B4A002011E000EB40030A4C04EB830360
:102120005B7943B900EB4004064D05EB840413686A
:10213000A4682360121D431C98B28842EBDB30BDBB
:102140000000040890F5000810B50648007838B182
:10215000FA21054804F074FF10B10020014908700D
:1021600010BD0000B5380020B48F00200146C1EB3F
:10217000C100194A02EB0010806EC1EBC102164B80
:1021800003EB0212D28A5043144A92FBF0F0C1EBE7
:10219000C10203EB021292F91A205043C1EBC102B3
:1021A00003EB02129060C1EBC1001A4602EB001073
:1021B000406E0B4A1268101A022805D90020C1EBA4
:1021C000C10203EB02129060C1EBC100024A02EBB4
:1021D0000010008900B27047EC7E00200087930356
:1021E00060000020014600202C4A914203D2B1F148
:1021F000006F00D350E02A4A914204D2274A91420C
:1022000001D3012048E0274A914204D2244A914256
:1022100001D3022040E0244A914204D2214A914253
:1022200001D3032038E0214A914204D21E4A914250
:1022300001D3042030E01E4A914204D21B4A91424D
:1022400001D3052028E01B4A914204D2184A91424A
:1022500001D3062020E0184A914204D2154A914247
:1022600001D3072018E0154A914204D2124A914244
:1022700001D3082010E0124A914204D20F4A914241
:1022800001D3092008E00F4A914204D20C4A91423E
:1022900001D30A2000E00B20704700000040000836
:1022A0000080000800C000080000010800000208CB
:1022B00000000408000006080000080800000A08E2
:1022C00000000C0800000E0810B50446082C2DD2A2
:1022D000DFE804F00418221D0E1309274FF4806074
:1022E00005F070F923E043F69C40124908621EE0B5
:1022F00043F69C100F49086219E043F6CC100D49D3
:10230000086214E043F6C9100A4908620FE043F678
:10231000C940084908620AE043F699400549086245
:1023200005E04FF4806005F04DF900E000BF00BF0C
:1023300010BD00000000014010B50446082C2DD24D
:10234000DFE804F00418221D0E1309274FF40040A3
:1023500005F038F923E043F69C40124908601EE07E
:1023600043F69C100F49086019E043F6CC100D4964
:10237000086014E043F6C9100A4908600FE043F60C
:10238000C940084908600AE043F6994005490860D9
:1023900005E04FF4004005F015F900E000BF00BF74
:1023A00010BD00002004014010B500244FF400418E
:1023B0000A4801F04FFE044364004FF4804107488F
:1023C00001F048FE044364004FF40051034801F05B
:1023D00041FE044304F0070010BD00000008024065
:1023E00070470000024600BF92F83C00012801D16E
:1023F00002207047012082F83C0000BF087C0128C1
:1024000006D11068406840F040001368586005E04D
:102410001068406820F040001368586010684068F9
:10242000114B184013685860106840680B681843D7
:10243000136858604868136858628868136898621F
:102440001068406820F01F001368586010684068EA
:102450008B899BB218431368586000BF002082F834
:102460003C0000BF00BFC4E7FFFD3FFF38B5024698
:102470000020009000BF92F83C00012801D102200A
:1024800038BD012082F83C0000BF0868092816D931
:102490001068C0680C780A3C04EB44050724AC4083
:1024A000A0431468E0600C780A3C04EB440488689C
:1024B000A0401468E46820431468E06013E01068EA
:1024C00000690C7804EB44050724AC40A043146871
:1024D00020610C7804EB44048868A04014682469E7
:1024E0002043146820614868072817D21068406BA1
:1024F0000C79641E04EB84051F24AC40A0431468CF
:102500006063088880B20C79641E04EB8404A040E8
:102510001468646B20431468606331E048680D28D8
:1025200017D21068006B0C79E41F04EB84051F249C
:10253000AC40A04314682063088880B20C79E41F83
:1025400004EB8404A0401468246B204314682063C7
:1025500016E01068C06A0C790D3C04EB84051F245A
:10256000AC40A0431468E062088880B20C790D3C4E
:1025700004EB8404A0401468E46A20431468E06219
:10258000194B1A4C1068A04206D10868122803D1D2
:10259000586840F480005860144C1068A0421CD168
:1025A0000868102802D00868112816D1586840F42D
:1025B00000005860086810280FD10D4800680D4CC5
:1025C000B0FBF4F000EB80004000009002E00098C7
:1025D000401E009000980028F9D100BF002082F82A
:1025E0003C0000BF00BF4BE700230140002001403A
:1025F0008400002040420F00704770477047000081
:1026000070B5044600250CB9012070BD1C49A06AB4
:10261000884200D000BF206CA0B91A48A0641A48B4
:10262000E0641A4820651A4860651A48A065E06DA4
:1026300008B91948E0652046E16D884700206064CC
:1026400084F83C00206C00F0100088B9206C20F465
:10265000885040F0020020642046FEF71BF800205E
:102660006064206C20F0020040F00100206400E073
:10267000012500BF002084F83C0000BF2846C4E7C5
:102680000100000FF9250008FB2500089D26000821
:10269000FD250008E1230008D92600080D49096836
:1026A000096801F0010161B10A490968496821F02E
:1026B0004001084A126851606FF00101054A126832
:1026C000116004490968496841F04001014A1268F3
:1026D00051607047BC39002010B586B00446142103
:1026E00001A8FDF7B7FD36492068884265D100BFD3
:1026F000002000903348006840F480703149086041
:102700000846006800F48070009000BF00BF00BF62
:10271000002000902B481438006840F0040029493C
:10272000143908600846006800F00400009000BFFB
:1027300000BF00BF002000900846006840F0010084
:1027400008600846006800F00100009000BF00BF6C
:102750003F200190032002900020039001A91A4815
:1027600001F078FB5F20019003200290002003908D
:1027700001A9164801F06EFB1548164908600020B3
:102780004860002113488160C1604FF4806101619D
:1027900089004161890081618911C1614FF4403133
:1027A00001620021416200F0F3FD08B1FFF752FB26
:1027B00000BF0848A063846300BF06B010BD0000DE
:1027C000002001404438024000080240000002405E
:1027D00010640240203A0020F8B504460D46164623
:1027E0000020009000BF94F83C00012801D1022095
:1027F000F8BD012084F83C0000BF2068806800F02C
:102800000100A0B92068806840F00100216888605C
:10281000494800684949B0FBF1F000EB40000090E6
:1028200002E00098401E009000980028F9D120682E
:10283000806800F0010000287CD0206C40F201612B
:10284000884340F4807020642068406800F4806011
:1028500028B1206C20F4005040F480502064206C9B
:1028600000F48050B0F5805F04D1606C20F0060069
:10287000606401E00020606400BF002084F83C0038
:1028800000BF2F4F2F48A16BC8632F48A16B08646E
:102890002E48A16BC8646FF0220021680860206890
:1028A000406840F08060216848602068806840F49B
:1028B000807021688860226802F14C0133462A4604
:1028C000A06B00F0DBFD786800F01F0018BB20490A
:1028D0002068884213D01F492068884204D1381DDF
:1028E000006800F01F0050B11B492068884221D1C8
:1028F0001348001D006800F01F0010281AD220683D
:10290000806800F0405028B92068806840F080401E
:10291000216888600EE00E49206888420AD120684C
:10292000806800F0405028B92068806840F08040FE
:102930002168886000205BE78400002040420F008F
:1029400000230140EF050008870600086D06000817
:1029500000200140002101400022014070B50446E2
:102960000A460023157D012000FA05F33C4901F5D4
:102970000071086840F001000860086820F47C508D
:1029800008600868556A40EA05200860C8699843ED
:10299000C861A1F50071D069C8B9D1F80C0298439B
:1029A000C1F80C02908880B2958940EA054501F58E
:1029B0001070566940F83650108880B2158940EA88
:1029C000054501F51070566900EBC6004560D069F9
:1029D000012819D1D1F80C021843C1F80C029088D3
:1029E00080B2158840EA054501F51070566940F837
:1029F0003650908980B2158940EA054501F510707E
:102A0000566900EBC6004560906928B9D1F8040208
:102A10009843C1F8040204E0D1F804021843C1F855
:102A20000402106920B9D1F814029843C1F81402C5
:102A30001069012804D1D1F814021843C1F8140216
:102A4000106A012804D1D1F81C021843C1F81C02F5
:102A5000D1F8000220F00100C1F80002002070BD92
:102A600000640040704700002DE9F0410446002555
:102A700000260027A8462068C068C0F3001520681B
:102A80004069C0F3C0062DB126B148F4007810208B
:102A90002168C86020680069C0F30015206840699B
:102AA000C0F380162DB126B148F48068102021684B
:102AB00008612068406900F0010000283BD02068D0
:102AC00080687A490840884201D1012000E0002056
:102AD00005462068806876490840884201D1012077
:102AE00000E000200646206880687249084088425D
:102AF00001D1012000E0002007460DB906B9D7B189
:102B000020688068C0F3400520688068C0F34026D4
:102B100020688068C0F340470DB906B91FB1204650
:102B2000FEF795FB01E048F4006820688068624980
:102B30000843216888602068C06800F003052068A9
:102B40004069C0F3400625B11EB100212046FEF7C2
:102B5000A3FA2068006900F0030520684069C0F30B
:102B6000001625B11EB101212046FEF795FA206C12
:102B700040EA080020642068806900F001052068B0
:102B80004069C0F3002620684069C0F3C0372DB10A
:102B900026B11FB1206C40F00100206420688069DC
:102BA000C0F3400520684069C0F3402620684069B2
:102BB000C0F3C0372DB126B11FB1206C40F0020028
:102BC000206420688069C0F3800520684069C0F3F4
:102BD000802620684069C0F3C0372DB126B11FB1EF
:102BE000206C40F0040020642068806900F07000D0
:102BF00008B9012000E00020054620684069C0F3C4
:102C0000C02620684069C0F3C03795BB8EB387B338
:102C10002068806900F07005402D1BD006DC102D67
:102C200009D0202D0CD0302D24D10EE0502D16D0FF
:102C3000602D1FD118E0206C40F0080020641AE0DD
:102C4000206C40F01000206415E0206C40F0200063
:102C5000206410E0206C40F0400020640BE0206C09
:102C600040F08000206406E0206C40F48070206416
:102C700001E007E000BF00BF2068806920F070001D
:102C800021688861206C78B10420216848600120A7
:102C900084F83C002068406948F6517188432168F7
:102CA00048612046FFF7DEFEBDE8F0810300000426
:102CB00000030008000003101905010070B5044668
:102CC000002600250CB9012070BD94F83C0028B9FD
:102CD000002084F83D00204600F0CEF8022084F861
:102CE0003C002068006820F002002168086020682D
:102CF000006840F001002168086001F0C3F9054652
:102D00000EE001F0BFF9401B0A2809D9032084F81E
:102D10003C0000BF002084F83D0000BF0320D3E743
:102D20002068406800F001000028EAD02068406870
:102D300000F00100002875D0A069012806D12068A4
:102D4000006840F080002168086005E020680068A5
:102D500020F0800021680860E069012806D1206821
:102D6000006840F040002168086005E020680068C5
:102D700020F0400021680860206A012806D1206800
:102D8000006840F020002168086005E020680068C5
:102D900020F0200021680860606A012806D12068C0
:102DA000006840F010002168086005E020680068B5
:102DB00020F0100021680860A06A012806D1206870
:102DC000006840F008002168086005E0206800689D
:102DD00020F0080021680860E06A012806D1206818
:102DE000006840F004002168086005E02068006881
:102DF00020F0040021680860D4E902010843216939
:102E00000843616908436168491E08432168C86135
:102E10002068006820F001002168086001F032F9A4
:102E200005460FE01AE001F02DF9401B0A2809D9E8
:102E3000032084F83C0000BF002084F83D0000BF60
:102E4000032041E72068406800F001000028EAD133
:102E50002068406800F0010000B90126012E06D16B
:102E600000202064012084F83C0000202CE704208E
:102E700084F83C00012027E710B586B004461421F1
:102E800001A8FDF7E7F927492068884248D100BF2B
:102E9000002000902448006840F00070224908603B
:102EA0000846006800F00070009000BF00BF00BF3F
:102EB000002000900846006840F0806008600846E6
:102EC000006800F08060009000BF00BF00BF0020DD
:102ED000009015481038006840F00200124910397F
:102EE00008600846006800F00200009000BF00BFC4
:102EF00042F2200001900220029000200390012065
:102F000004900920059001A9084800F0A3FF084893
:102F1000406B0849C1F84C020548006BC1F85002EB
:102F200006B010BD00680040403802400004024076
:102F30001C39002054330020024689B992F83C0025
:102F400022280BD092F83C00422807D092F83C008F
:102F5000622803D092F83C00722801D10220704709
:102F6000012911D192F83C0032280BD092F83C0094
:102F7000522807D092F83C00622803D092F83C0017
:102F8000722801D10220EAE700BF92F83D00012833
:102F900001D10220E3E7012082F83D0000BFC9B95A
:102FA00092F83C00122804D0322806D052280CD1C6
:102FB00007E0422082F83C000BE0622082F83C00EF
:102FC00007E0722082F83C0003E0222082F83C00F7
:102FD00000BF19E092F83C00122804D0222806D045
:102FE00042280CD107E0522082F83C000BE062201E
:102FF00082F83C0007E0722082F83C0003E03220B7
:1030000082F83C0000BF00BF0020106410684069D7
:1030100040F6017318431368586100BF002082F81E
:103020003D0000BF31B91068406940F00A001368E4
:10303000586105E01068406940F05000136858611D
:1030400000208CE710B504461548006800F0100019
:1030500020B1134800680020114908601148D0F8D9
:103060004C028068B0B9104841680E48D0F84C0254
:1030700000692F2202EBC00008440B494860094850
:10308000D0F84C02027B0748D0F84C020168054892
:1030900005F01CF900212046FFF74EFF10BD00008F
:1030A0000C68004054330020488600202DE9F04190
:1030B00004460E46042500272068806800F08060E2
:1030C000B0F1806F0DD02068806800F00060B0F132
:1030D000006F06D02068806800F08050B0F1805FFB
:1030E0007DD100BF94F83D00012802D10220BDE847
:1030F000F081012084F83D0000BF94F83C002228B4
:1031000004D0322806D062280CD107E0422084F88F
:103110003C000BE0522084F83C0007E0722084F869
:103120003C0003E0122084F83C0000BF00BF206890
:10313000806800F08060B0F1806F01D1002509E067
:103140002068806800F00060B0F1006F01D10125B7
:1031500000E00225206800F5C07000EB0510006853
:1031600000F00101206800F5C07000EB051001605F
:10317000206B806898B9206800F5C07000EB0510DE
:103180000068216BC968226B128841EA42510843EA
:10319000216801F5C07101EB0511086015E0206898
:1031A00000F5C07000EB05100068216B8968226B88
:1031B000526841EAC201226BD26811430143206880
:1031C00000F5C07000EB05100160206B007C00F082
:1031D0000F00216B0861206800F5C07000E0B6E0C8
:1031E00000EB0510406820F00F01206800F5C0706A
:1031F00000EB05104160206800F5C07000EB051081
:103200004068216B09690843216801F5C07101EB31
:1032100005114860206BC07D0106206B807D41EA6E
:103220000041206B407D41EA0020216B097D08436D
:10323000216801F5C07101EB05118860206BC07E2B
:103240000106206B807E41EA0041206B407E41EA0E
:103250000021206B007E0143206800F5C07000EB68
:103260000510C160206800F5C07000EB0510006813
:1032700040F00101206800F5C07000EB051001600E
:1032800000F000FF074620E0701CF0B126B100F00E
:10329000F9FEC01BB04218D9032084F83C001DB9C8
:1032A00080202168886009E0012D03D1E8032168AE
:1032B000886003E04FF400002168886000BF0020B0
:1032C00084F83D0000BF032011E74DB920688068F5
:1032D00021490840884201D1012016E0002014E075
:1032E000012D09D1206880681C490840884201D11D
:1032F00001200AE0002008E02068806818490840A2
:10330000884201D1012000E000200028BCD094F8C0
:103310003C00422804D0522806D072280CD107E085
:10332000222084F83C000BE0322084F83C0007E0C7
:10333000622084F83C0003E0012084F83C0000BFD8
:1033400000BF00BF002084F83D0000BFCFE604208E
:1033500084F83C000120CAE60300000400030008D2
:10336000000003107047014691F83500022803D091
:103370008020486501207047052081F835000868E5
:10338000006820F001000A6810600020F3E70000E8
:103390002DE9F0410446002500F074FE074614B9FB
:1033A0000120BDE8F081606A00B100BF00BF0020CD
:1033B00084F8340000BF022084F8350020680068DB
:1033C00020F00100216808600AE000F05BFEC01BED
:1033D000052805D920206065032084F83500E0E742
:1033E0002068006800F001000028EED12068056820
:1033F00021480540D4E901010843E16808432169F7
:10340000084361690843A1690843E1690843216AE7
:1034100008430543606A042803D1D4E90B0108433B
:103420000543206805602068456925F00705606A46
:103430000543606A04280DD1A06A0543E06A48B1DB
:103440002046FEF787F928B140206065012084F806
:103450003500A6E7206845612046FEF761F906467B
:1034600094F85C103F208840B06000206065012027
:1034700084F83500002094E73F8010F02DE9F047F4
:1034800004460D4616461F464FF00008D4F85890E3
:1034900000BF94F83400012802D10220BDE8F08773
:1034A000012084F8340000BF94F83500012825D1AC
:1034B000022084F83500002060653B4632462946EC
:1034C0002046FEF79CF994F85C103F208840C9F82C
:1034D00008002068006840F0160021680860206C31
:1034E00028B12068006840F0080021680860206862
:1034F000006840F001002168086006E000BF00207D
:1035000084F8340000BF4FF002084046C6E70000D0
:103510002DE9F04104460E460127002500BF25484D
:10352000007E012802D10220BDE8F081012021495E
:10353000087600BF4CF25030FEF7B6FD0746002F6C
:1035400031D1401E3060206801280FD1207C616895
:10355000FEF7EEFC4CF25030FEF7A6FD074616488B
:10356000006820F00400144908601AE0A56812E021
:10357000217C2846FEF772FC4CF25030FEF794FD99
:1035800007460D48006820F0FA000B4908600FB1AB
:10359000356005E06D1CD4E902100844A842E7D864
:1035A00000BFFEF789FC00BF00200249087600BF7B
:1035B0003846B9E7887C0020103C02400348006888
:1035C00040F000400149086000207047103C024074
:1035D0002DE9F04106460F4614461D464FF00108FE
:1035E00000BF1F48007E012802D10220BDE8F08103
:1035F00001201B49087600BF4CF25030FEF754FD05
:103600008046B8F1000F23D126B9E1B23846FEF763
:10361000A7FC12E0012E04D1A1B23846FEF7D0FC7F
:103620000BE0022E04D121463846FEF7DDFC04E013
:1036300022462B463846FEF7A5FC4CF25030FEF7EA
:1036400033FD80460748006820F001000549086006
:1036500000BF00200249087600BF4046C6E70000D0
:10366000887C0020103C024000200949096801F0D4
:10367000004159B10749064A0C3A116006491160E8
:103680000349096801F0004101B1012070470000C1
:10369000103C024023016745AB89EFCD10B50446CD
:1036A000202C03D0402C01D0802C6ED1FE4890F805
:1036B000881280F88912FD480068C0F34211FA4868
:1036C00080F8881290F8881290F8890241EAC000C8
:1036D000C1B2F54880F88A12F5480178F24890F8AE
:1036E0008A02F44A105C11FB00F041B2EE4880F807
:1036F0004A12FDF7F1FAF0480078082856D1EA4856
:1037000090F88802002841DDE74890F888020728F1
:103710003CDAEA48007B012805D1E34890F88802AA
:10372000E649887136E0E548007B022805D1DE488D
:1037300090F88812E148C1712CE0E048007B032832
:1037400005D1D94890F88812DC48017222E0DB48A4
:10375000007B042805D1D44890F88812D7484172DC
:1037600018E0D648007B052805D1CF4890F888128C
:10377000D24881720EE0D148007B06280AD1CA489F
:1037800090F88812CD48C17204E00EE04FF48060DA
:1037900003F018FFC44890F94A0200286BDAC448C5
:1037A0000078404240B2C249087064E0BE4890F8D8
:1037B0004A02012804D0BC4890F94A02401CE0BBF0
:1037C000B94890F88802012820D1BD48006881B22C
:1037D000B548A0F88E12B0F88E12B0F89002091A0F
:1037E000B148D0F89402B74A1268101A4FF48032E8
:1037F00002FB0011AC48C0F89812B0F88E12A0F885
:103800009012B0480168A848C0F89412A64890F8F1
:10381000480210BBA448B0F94402002811DAA248BB
:1038200090F8880280F007019F4880F88B120246CA
:10383000B2F9441292F88B0200E00FE0FDF752F863
:1038400019E0994890F8881280F88C120246B2F973
:10385000441292F88C02FDF745F80CE0924890F87B
:10386000880220B1904890F88802072803D14FF4CD
:10387000806003F0A7FEB4F5005F05D0B4F5804F7B
:1038800002D0B4F5004F7CD1874890F8F81280F848
:10389000F912FEF789FD844981F8F802084690F88C
:1038A000F81290F8F90241EAC000C1B27E4880F8EF
:1038B000FA127F4841787C4890F8FA027D4A105C01
:1038C00011FB00F041B2784880F8BA12FDF752FAC5
:1038D00079480078092855D1734890F8F8020028F3
:1038E00040DD714890F8F80207283BDA7348807F82
:1038F000012805D16C4890F8F8127048017635E03F
:103900006E48807F022805D1674890F8F8126B480E
:1039100041762BE06948807F032805D1624890F802
:10392000F8126648817621E06448807F042805D13A
:103930005D4890F8F8126148C17617E05F48807FD3
:10394000052805D1584890F8F8125C4801770DE039
:103950005A48807F062809D1534890F8F8125748F2
:10396000417703E04FF4004003F02CFE4E4890F9FD
:10397000BA0200286BDA4E484078404240B24C49C7
:10398000487064E0484890F8BA02012804D04648DC
:1039900090F9BA02401CE0BB434890F8F8020128B5
:1039A00020D14748006881B23F48A0F8FE12B0F825
:1039B000FE12B0F80003091A3B48D0F80403414A4C
:1039C0001268101A4FF4803202FB00113648C0F81A
:1039D0000813B0F8FE12A0F800133A480168324804
:1039E000C0F80413304890F8B80210BB2E48B0F964
:1039F000B402002811DA2C4890F8F80280F0070190
:103A0000294880F8FB120246B2F9B41292F8FB0280
:103A100000E00FE0FDF792F819E0234890F8F81263
:103A200080F8FC120246B2F9B41292F8FC02FDF7DB
:103A300085F80CE01C4890F8F80220B11A4890F87C
:103A4000F802072803D14FF4004003F0BBFD012C1E
:103A50001FD11548B0F9120000280DDD1248B0F84A
:103A60005E00002815DD1048B0F85E00401E81B2EF
:103A70000D48A0F85E100CE00B48B0F912000028C9
:103A800007DA0948B0F85E00401C81B20648A0F889
:103A90005E10022C56D10448B0F98200002819DDCE
:103AA0000148B0F8CE000FE0EC7E0020100C024080
:103AB000680000208CEF00080D0000200C8500201D
:103AC0002414004060000020401C81B2CD48A0F8C2
:103AD000CE1037E0CB48B0F9820000280DDAC94893
:103AE000B0F8CE0000282DDDC648B0F8CE00401E4C
:103AF00081B2C448A0F8CE1024E0C24890F8CD00AE
:103B000001280DD1C0480068401CBF490860BD486D
:103B1000B0F8CE00401E81B2BA48A0F8CE1011E035
:103B2000B84890F8CD0002280CD1B8480068401C75
:103B3000B6490860B348B0F8CE00401C81B2B14825
:103B4000A0F8CE10042C1FD1AE48B0F9F200002826
:103B50000DDDAC48B0F83E01002815DDA948B0F8ED
:103B60003E01401E81B2A748A0F83E110CE0A548D6
:103B7000B0F9F200002807DAA248B0F83E01401C74
:103B800081B2A048A0F83E11082C1FD19D48B0F981
:103B9000020400280DDD9B48B0F84E04002815DD16
:103BA0009848B0F84E04401E81B29648A0F84E14D2
:103BB0000CE09448B0F90204002807DA9148B0F804
:103BC0004E04401C81B28F48A0F84E14102C24D112
:103BD0008F480068C0F30010F8B900208D490860D4
:103BE000091D0860086001208A49203908608007A3
:103BF00003F0E8FC0021834880F8BC128648007876
:103C0000401C8549087001217E4880F8B81283481D
:103C10004078401C40B281494870B4F5006F29D10A
:103C20007F480069C0F3C02020BB44F2A2107D4948
:103C300008607D49086001207A49203908607A4986
:103C400020390860800603F0BDFC00216D48A0F813
:103C50006411A0F8D41180F86C1180F8DC110121F6
:103C600080F8681180F8D8116C488078401C40B208
:103C70006A498870B4F5806F42D169480069C0F321
:103C80008020E8BB00204FF0804148638863012218
:103C900011465F48103800F0EEF9012202215C481D
:103CA000103800F0E8F90020564988824FF0804132
:103CB000C863086400215348A0F88410002204213E
:103CC0005348103800F0D7F9002208215048103826
:103CD00000F0D1F900214B48A0F88410002053498E
:103CE0000860091D0860012289154948103800F054
:103CF000C2F9012251024648103800F0BCF900E038
:103D00003EE000213F48A0F8F41000204749083168
:103D10000860091D0860012209153D48103800F0AF
:103D2000AAF90122D1023A48103800F0A4F9002182
:103D30003448A0F804140120810748613B49203928
:103D40000860C00603F03EFC00202E4908770021E1
:103D50002C4880F88C1080F8FC1080F80C1401209E
:103D6000284908760121274880F8881080F8F81043
:103D700080F808142948C078401C40B22749C87010
:103D8000B4F5007F3CD126480069C0F34020B8BBA1
:103D900042F2D10026490860091D086000201D4933
:103DA0000C3108602349086401204861204920390A
:103DB0000860184920390860000703F003FC00215F
:103DC0001048A0F87414A0F8E414A0F85415A0F852
:103DD000C41580F87C1480F8EC1480F85C1580F829
:103DE000CC15012180F8781480F8E81480F8581573
:103DF00080F8C81509480079401C40B2074908718D
:103E000010BD0000EC7E0020700000207400002037
:103E1000100C024034040140260000201F00002046
:103E2000000002403444014034480140340800405E
:103E3000340400400000014010B504460448006806
:103E4000204020B1024804602046FFF727FC10BD47
:103E5000143C0140F8B502460B4600250024002022
:103E60000021DCE0012606FA01F51E6806EA0504D9
:103E7000AC4273D15E68012E08D05E68022E05D078
:103E80005E68112E02D05E68122E13D190684F002A
:103E90000326BE40B0434F00DE68BE403043906012
:103EA000506801268E40B0431E79C6F300168E403E
:103EB00030435060D0684F000326BE40B0434F00EF
:103EC0009E68BE403043D0605E68022E02D05E68BD
:103ED000122E13D1CF0802F1200656F827004E0704
:103EE000F70E0F26BE40B0434F07FF0E1E69BE40BF
:103EF0003043CF0802F1200646F8270010684F0033
:103F00000326BE40B0431E7906F003064F00BE40B4
:103F1000304310605E6806F08056B6F1805F7DD158
:103F200000BF00260096404E366846F480463E4F5D
:103F30003E603E46366806F48046009600BF00BFED
:103F40003A4E8F0856F827008E07370F0F26BE40CF
:103F5000B043374EB24202D1002624E05EE0354E37
:103F6000B24201D101261EE0334EB24201D10226F7
:103F700019E0324EB24201D1032614E0304EB24273
:103F800001D104260FE02F4EB24201D105260AE0EE
:103F90002D4EB24201D1062605E02C4EB24201D18F
:103FA000072600E008268F073F0FBE4030431F4E14
:103FB0008F0846F82700264E3068A0435E6806F456
:103FC0008036B6F5803F00D12043214E3060361D4B
:103FD0003068A0435E6806F40036B6F5003F00D1B5
:103FE00020431B4E361D3060361D3068A0435E688E
:103FF00006F48016B6F5801F00D12043144E083613
:104000003060361D3068A0435E6806F40016B6F5D1
:10401000001F00D120430E4E0C363060491C102981
:10402000FFF420AFF8BD00004438024008380140DA
:10403000000002400004024000080240000C024060
:10404000001002400014024000180240001C024010
:10405000003C0140024613690B400BB1012000E017
:104060000020704742690A408A4202D10A048261F4
:1040700000E0816170470AB1816101E00B04836156
:104080007047000001480068704700007800002079
:1040900070B504460CB9012070BD4CF6CC402168C7
:1040A000086045F2555021680860D4E90010486066
:1040B0002168A0688860FFF7E5FF054606E0FFF786
:1040C000E1FF401B302801D90320E5E72068C068E4
:1040D0000028F4D14AF6AA20216808600020DBE716
:1040E00001464AF6AA200A681060002070470000C6
:1040F000034800680349097808440149086070478B
:10410000780000208000002010B50D48006840F4C1
:1041100000700B4908600846006840F48060086041
:104120000846006840F480700860032000F0C8F87A
:10413000002000F007F800F02BF8002010BD000070
:10414000003C024070B504460E4800784FF47A7186
:10415000B1FBF0F00C490968B1FBF0F5284600F01E
:104160008FFE08B1012070BD102C07D2002221461D
:10417000501E00F067F80548046001E00120F2E7F6
:104180000020F0E780000020840000207C00002058
:1041900008B500BF002000901048006840F480403F
:1041A0000E4908600846006800F48040009000BF97
:1041B00000BF00BF00200090081F006840F0805042
:1041C000091F08600846006800F08050009000BF9A
:1041D00000BF052000F074F808BD0000443802401C
:1041E00010B501460846002817DB00F01F03012226
:1041F0009A400B4B440943F8242000BF00BF00BF86
:10420000BFF34F8F00BF00BF00BF00BF00BF00BFA4
:10421000BFF36F8F00BF00BF00BF00BF10BD000025
:1042200080E100E001460846002809DB00F01F039A
:1042300001229A4043099B0003F1E023C3F80021C7
:1042400000BF70472DE9F05F80460D4616460027F7
:1042500009F008FD074639462A46334601F00700B3
:10426000C0F1070ABAF1040F02D94FF0040A01E0C5
:10427000C0F1070AD14600F1040ABAF1070F02D2D1
:104280004FF0000A01E0A0F1030AD4464FF0010A02
:104290000AFA09FAAAF1010A0AEA020A0AFA0CFA67
:1042A0004FF0010B0BFA0CFBABF1010B0BEA030B0C
:1042B0004AEA0B042146404609F0DCFCBDE8F09FC9
:1042C00000BF00F00702064B19684FF6FF031940C4
:1042D000044B0B4343EA0221014B196000BF7047B6
:1042E0000CED00E00000FA0570B504460D460CB96F
:1042F000012070BD5848006800F00F00A84209D2A4
:1043000055490D700846006800F00F00A84201D022
:104310000120EEE7207800F0020002281DD120786D
:1043200000F00400042805D14C48006840F4E05037
:104330004A490860207800F00800082805D147485D
:10434000006840F46040454908604448006820F037
:10435000F000A168084341490860207800F001009E
:10436000A8B36068012807D13C4808380068C0F34A
:104370004040B8B90120BCE76068022802D06068FC
:10438000032807D1354808380068C0F3406048B9B1
:104390000120AEE7314808380068C0F3400008B992
:1043A0000120A6E72D48006820F00300616808435B
:1043B0002A490860FFF766FE064609E0FFF762FE3D
:1043C000801B41F28831884202D9032091E707E03F
:1043D0002248006800F00C006168B0EB810FEDD15D
:1043E0001D48006800F00F00A84209D91A490D7055
:1043F0000846006800F00F00A84201D0012078E7CD
:10440000207800F00400042807D11448006820F444
:10441000E050E168084311490860207800F0080086
:10442000082808D10D48006820F46040216940EA5E
:10443000C1000A49086000F03FF808490968C1F363
:104440000311074A515CC8400649086006480068E5
:10445000FFF778FE00204CE7003C0240083802409D
:10446000D4EF0008840000207C0000200148006890
:10447000704700008400002000B5FFF7F7FF0449F3
:104480000968C1F38221034A515CC84000BD0000A5
:1044900008380240E4EF000800B5FFF7E7FF0449E1
:1044A0000968C1F34231034A515CC84000BD0000B5
:1044B00008380240E4EF00082DE9F0470024002509
:1044C0000026A1462548006800F00C0020B1042811
:1044D00005D008283AD105E0DFF8849039E0DFF80C
:1044E000849036E01D48001F006800F03F041B4820
:1044F000001F006800F4800078B11A481749091FAE
:104500000968C1F38811A0FB01700146224600230F
:104510003846FBF755FE05460EE011480F49091FC6
:104520000968C1F38811A0FB0170014622460023EF
:104530003846FBF745FE05460848001F0068C0F3F3
:104540000140401C4600B5FBF6F902E0DFF8109090
:1045500000BF00BF4846BDE8F087000008380240B1
:104560000024F40040787D01F8B504460CB9012020
:10457000F8BD207800F00100002874D0F9480068E8
:1045800000F00C0004280DD0F648006800F00C0084
:10459000082813D1F348001F006800F48000B0F52C
:1045A000800F0BD1EF4808380068C0F34040002866
:1045B00059D06068002856D10120D9E700BF606853
:1045C000B0F5803F08D1E7480838006840F48030F3
:1045D000E449083908601EE06068B0F5A02F0DD1ED
:1045E000E0480838006840F48020DE490839086057
:1045F0000846006840F4803008600CE0D94808386C
:10460000006820F48030D7490839086008460068FF
:1046100020F48020086000BF606890B1FFF732FD91
:10462000054606E0FFF72EFD401B642801D9032054
:104630009EE7CC4808380068C0F340400028F1D01D
:1046400011E0FFF71FFD054606E0FFF71BFD401BCD
:10465000642801D903208BE7C24808380068C0F3FA
:1046600040400028F1D1207800F0020002285FD1FC
:10467000BC48006800F00C0058B1BA48006800F06F
:104680000C0008281CD1B748001F006800F4800007
:10469000B0B9B44808380068C0F3400020B1E06801
:1046A000012801D0012063E7AE480838006820F0F7
:1046B000F800216940EAC100AA490839086037E0DA
:1046C000E06800B30120A8490860FFF7DBFC05465D
:1046D00006E0FFF7D7FC401B022801D9032047E77B
:1046E000A04808380068C0F340000028F1D09D4879
:1046F0000838006820F0F800216940EAC1009949B3
:104700000839086014E0002097490860FFF7BAFCF8
:10471000054606E0FFF7B6FC401B022801D903203E
:1047200026E7904808380068C0F340000028F1D11F
:10473000207800F0080008282CD16069A8B1012079
:104740008A490860FFF79EFC054606E0FFF79AFCE1
:10475000401B022801D903200AE782486C30006818
:10476000C0F340000028F1D014E000207F49086029
:10477000FFF788FC054606E0FFF784FC401B022893
:1047800001D90320F4E677486C300068C0F340009C
:104790000028F1D1207800F00400042870D100270F
:1047A00070483830006800F0805090B900BF002099
:1047B00000906C483830006840F0805069493831CA
:1047C00008600846006800F08050009000BF00BFFD
:1047D00001276748006800F48070B0B96448006839
:1047E00040F4807062490860FFF74CFC054606E023
:1047F000FFF748FC401B022801D90320B8E65C48BB
:10480000006800F480700028F2D000BFA068012882
:1048100008D154486830006840F0010051496831BF
:1048200008601DE0A06805280DD14E48683000687A
:1048300040F004004B49683108600846006840F0C9
:10484000010008600CE047486830006820F0010073
:104850004449683108600846006820F00400086098
:1048600000BFA068A8B1FFF70DFC054609E0FFF7FF
:1048700009FC401B41F28831884202D9032077E6C7
:1048800026E0384868300068C0F340000028EED0C9
:1048900013E0FFF7F7FB054608E0FFF7F3FB401BCB
:1048A00041F28831884201D9032061E62D48683001
:1048B0000068C0F340000028EFD1012F07D129483C
:1048C0003830006820F0805026493831086000BF39
:1048D000A069002845D02348006800F00C00082893
:1048E0005DD0A069022845D100201F490866FFF766
:1048F000C9FB054606E0FFF7C5FB401B022801D9AE
:10490000032035E6174808380068C0F340600028E7
:10491000F1D1D4E907010843616A40EA811101221B
:10492000A06AC2EB500041EA00412C20005D41EA40
:1049300000600C49091F086001200B490866FFF759
:10494000A1FB054606E0FFF79DFB401B022801D9AD
:1049500003200DE6034808380068C0F340600028D3
:10496000F1D03FE00838024000004742800E474245
:104970000070004000201C490866FFF783FB0546D5
:1049800006E0FFF77FFB401B022801D90320EFE57B
:1049900016480068C0F340600028F2D122E0A06908
:1049A000012800D1E4E51148001D066806F48001E5
:1049B000E069814214D106F03F01206A81420FD1A3
:1049C00047F6C0703040616A884209D106F4403130
:1049D000A06A814204D106F07061E06A814201D090
:1049E0000120C5E50020C3E5000047420038024031
:1049F000042808D14FF0E021096941F004014FF08B
:104A0000E022116107E04FF0E021096921F0040183
:104A10004FF0E022116170471FB5FFF733FB00F044
:104A2000010038B9FCF7F4F9FE48007840F00100C5
:104A3000FC490870FFF726FB00F0030000287DD139
:104A4000F94800780A287AD2DFE800F005060A0E55
:104A5000FE79FDFCFBFAD4E10220F3490870D0E1B5
:104A60000320F1490870CCE1002434E1C4EBC40018
:104A7000EE4901EB001090F86D00012805D1C4EB60
:104A8000C401EA4A02EB01110877C4EBC400E7490C
:104A900001EB0010007F012873D10E2C72D2DFE8E9
:104AA00004F07273743C3D0721F3F375BABBBCBDCF
:104AB000052006F0D1FA0520FDF758FBDB49C1F8C7
:104AC0003802FBF797FED94AB2F8382211B2D74A1A
:104AD000B2F93602D64A05F09FFA0146D348A0F84B
:104AE0005C12EBE0062006F0B7FA0620FDF73EFB6D
:104AF000CE49C1F8A802FBF7A9FFCC4AB2F8A82218
:104B000011B2CA4AB2F9A602C94A383205F084FA8B
:104B10000146C648A0F8CC12D0E000BFC4EBC400E8
:104B2000C24901EB0010007E90B9C24890F9020022
:104B300005280DDAC4EBC4000A4601E062E15FE13A
:104B400002EB0010B0F91410204607F023F817E02C
:104B5000B84890F9020005280BDB4FF0806002F0A6
:104B600031FD0020C4EBC401B04A02EB011108770B
:104B700006E00020C4EBC401AC4A02EB0111087747
:104B80009CE09CE080E000BF00BF00BFC4EBC4001D
:104B9000A64901EB001090F86D00012803D12046D2
:104BA00005F0F6FA2EE0C4EBC400A04901EB0010BA
:104BB000007E78B99F4890F9030005280ADAC4EB13
:104BC000C4000A4602EB0010B0F91410204606F0AB
:104BD000E1FF17E0974890F9030005280BDB4FF041
:104BE000006002F0EFFC0020C4EBC4018F4A02EB2E
:104BF0000111087706E00020C4EBC4018B4A02EBE8
:104C000001110877FFF73EFA00F0030010B92046C3
:104C100005F07AFF52E000BF00BF00BFC4EBC40044
:104C2000824901EB0010007EA8B9824890F9040087
:104C3000052810DAC4EBC4000A4602EB001004E0B9
:104C4000A4E071E069E067E062E0B0F9141020468A
:104C500006F0A0FF17E0774890F9040005280BDB69
:104C60004FF0805002F0AEFC0020C4EBC4016F4A4C
:104C700002EB0111087706E00020C4EBC4016B4A87
:104C800002EB0111087719E0C4EBC400674901EB9E
:104C90000010007E50B9C4EBC4000A4602EB0010BD
:104CA000B0F91410204606F075FF06E00020C4EBB2
:104CB000C4015E4A02EB0111087700BF09E0C4EBB2
:104CC000C4005A4901EB0010007F10B9204607F0DC
:104CD000B1FC601CC4B20E2CFFF6C8AEFFF7D2F9CF
:104CE0001421B0FBF1F201FB120030B905234FF49F
:104CF00011720121184605F03BFEFFF7C3F9C821E8
:104D0000B0FBF1F201FB120008B903F0BBFC78E044
:104D100006204549087074E073E04748006810B900
:104D20000020414908706CE04448007801280FD108
:104D30000020434948638863C86300BF01E0411C09
:104D400088B242F210718842F9DB00203B490870BA
:104D500001F05EFD3B48007C032816D10020394954
:104D600008740870364948638863C863324800880D
:104D700000F4806018B900202B49087002E0072079
:104D80002949087001202D4908703AE02E48007822
:104D9000012811D100202D490860091D0860091D56
:104DA000086000BF01E0411C88B242F210718842E5
:104DB000F9DB00202449087001F0BEFD214890F87D
:104DC000220003281BD100211E4880F82210002059
:104DD0001C4988741D490860091D0860091D086088
:104DE0001548008800F4004018B900200E490870EA
:104DF00002E007200C49087001201349087000E008
:104E000000BF00BFFFF73EF91421B0FBF1F201FB38
:104E1000120008B904F06EFFFFF734F94FF47A710D
:104E200016E00000080000200D000020EC7E0020AD
:104E3000947D00201F000020880000201800002022
:104E4000000001400C8500201900002034040140BE
:104E5000B0FBF1F201FB120070B90848FFF740F90E
:104E60001E200021CDE9001014230122CDE90210FB
:104E70001946104605F0ECFE1FBD000030850020ED
:104E800070B504462546681EB0F1807F01D301202D
:104E90000FE0681E4FF0E02148610F214FF0FF3016
:104EA00008F0E8FE00204FF0E0218861072008614B
:104EB000002070BD10B5FFF7AFFD10BD10B5044662
:104EC0001548844226D115480068401C13490860E3
:104ED00013480069C0F3C030E0B9002011494863AD
:104EE0008863C86301204861400702F06BFB002122
:104EF0000D4880F84C120D480078401C0B49087092
:104F00000121094880F8481209480078401C40B245
:104F10000749087010BD0000803A00204886002034
:104F20000010024000000140EC7E0020250000201F
:104F30001F000020704710B50346002200BF93F801
:104F40003C00012801D1022010BD012083F83C0063
:104F500000BF22F0FF00CC6840EA040222F4407057
:104F60008C6840EA040222F480604C6840EA040243
:104F700022F400600C6840EA040222F480500C69BC
:104F800040EA040222F400504C6940EA040222F490
:104F90008040CC6940EA04021868426400BF0020E7
:104FA00083F83C0000BF00BFCEE7000030B50246EA
:104FB0000B4600BF92F83C00012801D1022030BD11
:104FC000012082F83C0000BF022082F83D001068FA
:104FD00044681068816824F07004186804431068FD
:104FE0004460184D1068A8421BD01068B0F1804F83
:104FF00017D0154D1068A84213D0144D1068A84260
:105000000FD0134D1068A8420BD0124D1068A84263
:1050100007D0114D1068A84203D0104D1068A84267
:1050200005D121F08001586801431068816001209A
:1050300082F83D0000BF002082F83C0000BF00BFA6
:10504000BDE70000000001400004004000080040EF
:10505000000C0040000401400040014000180040E6
:1050600070B504460D4604222946206807F095FFD6
:105070002068406C40F400402168486420688068E3
:1050800000F00706062E05D02068006840F00100F9
:1050900021680860002070BD10B504460CB90120DD
:1050A00010BD94F83D0028B9002084F83C0020464B
:1050B00000F00CF8022084F83D00211D206807F064
:1050C000EFFE012084F83D000020E9E710B586B02E
:1050D0000446142101A8FBF7BDF8A14920688842C5
:1050E00041D100BF002000909E48006840F00100C0
:1050F0009C4908600846006800F00100009000BF6D
:1051000000BF00BF0020009096481438006840F0AF
:1051100010009449143908600846006800F0100037
:10512000009000BF00BF4FF40040019002200290A9
:1051300001200390002004900120059001A98A48D5
:10514000FEF788FE002211461820FFF77BF8182092
:10515000FFF768F8002211461920FFF773F81920AD
:10516000FFF760F8F9E02068B0F1804F11D100BF7F
:10517000002000907B48001F006840F00100794942
:10518000091F08600846006800F00100009000BF99
:10519000E3E076492068884211D100BF00200090EA
:1051A0007048001F006840F002006E49091F086047
:1051B0000846006800F00200009000BFCDE06C4996
:1051C0002068884211D100BF002000906548001F70
:1051D000006840F004006349091F08600846006841
:1051E00000F00400009000BFB7E0624920688842E8
:1051F00011D100BF002000905A48001F006840F005
:1052000010005849091F08600846006800F01000A7
:10521000009000BFA1E05849206888421AD100BF21
:10522000002000904F48001F006840F020004D49CA
:10523000091F08600846006800F02000009000BFC9
:1052400000BF002211463720FEF7FCFF3720FEF793
:10525000E9FF82E04949206888420FD100BF002061
:1052600000904048006840F002003E49086008464F
:10527000006800F00200009000BF6EE04049206826
:10528000884237D100BF002000903648006840F4C3
:105290000030344908600846006800F4003000908F
:1052A00000BF00BF00BF002000902E4814380068E7
:1052B00040F002002B49143908600846006800F0ED
:1052C0000200009000BF00BF8815019002200290EC
:1052D0000020039004900320059001A92948FEF7BF
:1052E000B9FD002211461920FEF7ACFF1920FEF788
:1052F00099FF32E02449206888422ED100BF002067
:1053000000901848006840F480201649086008465C
:10531000006800F48020009000BF00BF00BF0020A4
:10532000009010481438006840F002000D4914390C
:1053300008600846006800F00200009000BF00BF4F
:105340004815019002200290002003900490032051
:10535000059001A90B48FEF77DFD06B010BD0000C9
:1053600000000140443802400010024000040040A8
:1053700000080040001000400014004000040140FC
:105380000044014000040240004801400146086812
:10539000C06840F001000B68D8600868806800F0C1
:1053A0000702062A05D00868006840F001000B6873
:1053B0001860002070472DE9F04104460D4600BFFB
:1053C00094F83C00012802D10220BDE8F0810120C0
:1053D00084F83C0000BF022084F83D002068866805
:1053E00026F0770626F47F462068866028685028D5
:1053F00033D00CDC202850D004DC00284BD01028FF
:1054000051D149E0302849D040284CD139E06028BA
:105410002DD0702807D0B0F5805F03D0B0F5005FC5
:1054200041D10DE040E0D5E902136A68206807F039
:10543000C5FD2068866846F077062068866033E000
:10544000D5E902136A68206807F0B8FD2068806813
:1054500040F480402168886026E0EA686968206836
:1054600007F09CFE5021206807F0B3FD1CE0EA68BD
:105470006968206807F0EEFE6021206807F0A9FD4A
:1054800012E0EA686968206807F088FE4021206819
:1054900007F09FFD08E000BF00BF00BF296820683B
:1054A00007F097FD00E000BF00BF012084F83D0039
:1054B00000BF002084F83C0000BF00BF85E700006B
:1054C00010B504460D48844217D1207F022808D128
:1054D0000421204600F0AAFF09480068401C084942
:1054E0000860207F012808D10021204600F09EFF9F
:1054F00004480068401C0349086010BD403C00207F
:1055000014000020100000202DE9F04104460D4653
:10551000164600BF94F83C00012802D10220BDE8E5
:10552000F081012084F83C0000BF022084F83D0097
:1055300096B9EB68D5E90012206807F043FE2068B1
:10554000806920F00C002168886120688069A96862
:105550000843216888613DE0042E13D1EB68D5E94A
:105560000012206807F08AFE2068806920F44060FD
:105570002168886120688069A96840EA0120216863
:10558000886127E0082E12D1EB68D5E90012206867
:1055900007F091FE2068C06920F00C002168C86106
:1055A0002068C069A96808432168C86112E0EB68F7
:1055B000D5E90012206807F09AFE2068C06920F43F
:1055C00040602168C8612068C069A96840EA01207C
:1055D0002168C861012084F83D0000BF002084F8E4
:1055E0003C0000BF00BF9AE710B504460CB901208B
:1055F00010BD94F83D0028B9002084F83C002046F6
:1056000000F00CF8022084F83D00211D206807F00E
:1056100047FC012084F83D000020E9E710B586B082
:105620000446142101A8FAF715FE1E492068884295
:1056300036D100BF002000901B48006840F4803045
:10564000194908600846006800F48030009000BFE7
:1056500000BF00BF0020009013481438006840F0DD
:1056600010001149143908600846006800F0100065
:10567000009000BF00BF6020019002200290002037
:10568000039004900320059001A90848FEF7E2FB6F
:10569000002211461820FEF7D5FD1820FEF7C2FDA6
:1056A00006B010BD004001404438024000100240E6
:1056B00070B504460D4635B1042D0BD0082D10D021
:1056C0000C2D1CD114E02068C06840F00200216855
:1056D000C86015E02068C06840F004002168C86018
:1056E0000EE02068C06840F008002168C86007E04C
:1056F0002068C06840F010002168C86000E000BF6A
:1057000000BF01222946206807F036FC2068806827
:1057100000F00706062E05D02068006840F0010062
:1057200021680860002070BD10B50446206800693B
:10573000C0F34000D8B12068C068C0F34000B0B1E9
:105740006FF00200216808610120207720688069DD
:1057500000F0030018B12046FFF7B2FE05E0204636
:1057600000F076FA204600F02EFB0020207720681B
:105770000069C0F38000D8B12068C068C0F3800021
:10578000B0B16FF004002168086102202077206822
:10579000806900F4407018B12046FFF791FE05E0E3
:1057A000204600F055FA204600F00DFB002020773F
:1057B00020680069C0F3C000D8B12068C068C0F399
:1057C000C000B0B16FF008002168086104202077A4
:1057D0002068C06900F0030018B12046FFF770FE92
:1057E00005E0204600F034FA204600F0ECFA0020F4
:1057F000207720680069C0F30010D8B12068C06825
:10580000C0F30010B0B16FF01000216808610820EB
:1058100020772068C06900F4407018B12046FFF777
:105820004FFE05E0204600F013FA204600F0CBFAC8
:10583000002020772068006900F0010058B120683E
:10584000C06800F0010030B16FF00100216808610C
:10585000204600F0E5FA20680069C0F3C01058B196
:105860002068C068C0F3C01030B16FF080002168BC
:1058700008612046FFF722FB20680069C0F3801012
:1058800058B12068C068C0F3801030B16FF040009C
:1058900021680861204600F0E2FD20680069C0F33D
:1058A000401058B12068C068C0F3401030B16FF0AC
:1058B0002000216808612046FFF73CFB10BD000076
:1058C00010B586B00446142101A8FAF7C3FCB74905
:1058D0002068884227D100BF00200090B4480068AB
:1058E00040F01000B24908600846006800F010005F
:1058F000009000BF00BF4FF4FE40019002200290D4
:105900000020039004900120059001A9A948FEF70A
:10591000A1FA4FF4804001900220039001A9A5480C
:10592000FEF798FA3FE12068B0F1804F3BD100BF0D
:10593000002000909E48006840F002009C490860EA
:105940000846006800F00200009000BF00BF00BFE2
:10595000002000900846006840F0010008600846FA
:10596000006800F00100009000BF00BF40F6084052
:1059700001900220029000200390049001200590E5
:1059800001A98D48FEF766FA4FF40040019002200D
:1059900002900020039004900120059001A98748FF
:1059A000FEF758FAFFE086492068884239D100BFE7
:1059B000002000907E48006840F001007C490860AB
:1059C0000846006800F00100009000BF00BF00BF63
:1059D000002000900846006840F002000860084679
:1059E000006800F00200009000BF00BF802001901E
:1059F000022002900020039004900220059001A94B
:105A00006E48FEF727FA1320019002200290002032
:105A1000039004900220059001A96748FEF71AFA46
:105A2000C1E06849206888421ED100BF0020009074
:105A30005F48006840F008005D490860084600685B
:105A400000F00800009000BF00BF4FF470400190CC
:105A5000022002900020039004900220059001A9EA
:105A60005948FEF7F7F99EE058492068884257D117
:105A700000BF002000904E48006840F001004C49F3
:105A800008600846006800F00100009000BF00BFF9
:105A900000BF002000900846006840F00200086047
:105AA0000846006800F00200009000BF00BF00BF81
:105AB000002000900846006840F004000860084696
:105AC000006800F00400009000BF00BF202001909B
:105AD000022002900020039004900320059001A969
