:020000040800F2
:10000000206200209D010008756E0008A5560008BA
:10001000D9690008CB0E0008E5B500080000000013
:100020000000000000000000000000000B9E00081F
:1000300037140008000000005D85000837AC000898
:10004000B7010008B7010008B7010008B7010008B0
:10005000B7010008B701000891180008C51800088A
:10006000CB180008D1180008D7180008B7010008FD
:10007000B7010008B7010008B7010008B701000880
:10008000B7010008B7010008E5050008B70100083E
:10009000B7010008B7010008B7010008DD18000823
:1000A00081AD00089DAD0008B7010008B701000848
:1000B000B7010008B7010008B7010008B701000840
:1000C000B7010008B7010008B7010008B701000830
:1000D000B7010008B7010008B701000889B500089A
:1000E00097180008B7010008B7010008B701000819
:1000F000B7010008B7010008B7010008B701000800
:10010000B7010008B7010008B7010008B7010008EF
:10011000B7010008B7010008B9AD000841AE0008FA
:100120005D130008B7010008B7010008B701000817
:10013000B7010008B7010008B7010008B7010008BF
:10014000410F0008B7010008B7010008B701000817
:10015000B7010008B7010008B7010008B70100089F
:10016000B7010008B7010008B7010008B70100088F
:10017000B7010008B7010008B7010008000000003F
:10018000B7010008B7010008DFF80CD000F0AEF9A5
:10019000004800479DC800082062002006488047AC
:1001A00006480047FEE7FEE7FEE7FEE7FEE7FEE75C
:1001B000FEE7FEE7FEE7FEE765AD000889010008FF
:1001C0002DE9F05F0546002092469B46884606468C
:1001D000814640241BE0284641464746224600F01F
:1001E00018F953465A46C01A914110D31146184681
:1001F000224600F0FFF82D1A67EB01084F46224611
:100200000120002100F0F6F817EB00094E41201EF6
:10021000A4F10104DFDC484631462A464346BDE8E6
:10022000F09F40EA01039B0703D009E008C9121FB1
:1002300008C0042AFAD203E011F8013B00F8013BA0
:10024000521EF9D27047D2B201E000F8012B491ECC
:10025000FBD270470022F6E710B513460A46044663
:100260001946FFF7F0FF204610BD30B504460020C8
:10027000034600E05B1C934203D2E05CCD5C401B74
:10028000F8D030BD2DE9FE4F81EA030404F00044AC
:1002900021F0004100944FF0000B23F0004350EA9E
:1002A00001045ED052EA03045BD0C3F30A54C1F3E5
:1002B0000A552C44A4F2F3340194A0FB0254C1F378
:1002C000130141F48011C3F3130343F4801301FBC2
:1002D000024400FB034E840A970A44EA815447EA29
:1002E0008357A4FB076802958D0A05FB07854FEA33
:1002F000932C04FB0C542705029D4FEA065847EA4D
:100300001637B5EB08056EEB070C870E920E47EA21
:10031000811742EA8312A7FB0201B6EB0B0164EBE3
:1003200000042B0D43EA0C335E1844EB1C50DA46F4
:100330005146E7FB0201C5F313044FEA0B3343EACE
:1003400014534FEA0432019C43EA0603A4F10C045F
:100350000294009CCDE900B400F07AF803B0BDE847
:10036000F08F00200146F9E70EB5C10F80EAE0707A
:100370000844CA07002140F233438DE80E000A46C4
:100380000B4600F065F803B000BD70B5C1F30A522A
:1003900001F000450024C1F3130140F2FF3341F4A2
:1003A00080119A4201DA002070BD40F233439A4234
:1003B000A2F2334203DC524200F02BF800E09040FE
:1003C0002C43F1D0404270BD30B50B4601460020B1
:1003D0002022012409E021FA02F59D4205D303FA07
:1003E00002F5491B04FA02F52844151EA2F1010288
:1003F000F1DC30BD202A04DB203A00FA02F10020B3
:1004000070479140C2F1200320FA03F31943904052
:100410007047202A04DB203A21FA02F000217047BD
:1004200021FA02F3D040C2F120029140084319465C
:10043000704710B5141E73F1000408DA401C41F136
:10044000000192185B411A4301D120F0010010BD58
:100450002DE9F04D92469B4611B1B1FA81F202E0CE
:10046000B0FA80F220329046FFF7C4FF04460F46F0
:1004700040EA0A0041EA0B0153465A46084313D0AA
:10048000114653EA010019D0C8F140025046FFF767
:10049000C0FF05460E46504659464246FFF7AAFFA2
:1004A000084305D0012004E020463946BDE8F08D20
:1004B0000020054346EAE0762C4337430A9863055B
:1004C000E40AA0EB08000022FD0A44EA47540A307F
:1004D00002D500200146E9E7010510196941DDE96F
:1004E000084500196941BDE8F04DA2E7064C074DEB
:1004F00006E0E06840F0010394E8070098471034F4
:10050000AC42F6D3FFF744FEACE30008CCE30008AE
:1005100070B58C1810F8015B15F0070301D110F8C5
:10052000013B2A1106D110F8012B03E010F8016BF2
:1005300001F8016B5B1EF9D12B0705D40023521E75
:100540000DD401F8013BFAE710F8013BCB1A921CDD
:1005500003E013F8015B01F8015B521EF9D5A142DB
:10056000D8D3002070BD0146886B026C12F0500F8A
:1005700004D0026CD20624D5416D0847016C41F4C9
:100580000071016401688A6812F0405F17D1027E31
:10059000AAB9CA6A12F4700F02D08A6852050ED442
:1005A0004A6822F020024A60016C21F480710164E3
:1005B000016CC90403D4016C41F001010164816C38
:1005C0000847806BC26C08461047806B402101646D
:1005D000416C41F004014164416D0847806BC16C7E
:1005E00008470000014801F09CBC0000CC35002009
:1005F0004A494A6822F440324A604A6843681A43CA
:100600004A6001684A6822F480724A6001684A6858
:10061000036942EA03224A6001684A6822F0407294
:100620004A6001684A6883681A434A6001688A68B8
:1006300022F400628A6001688A68C3681A438A608B
:10064000816A6FF07062D14214D001688A6822F02A
:1006500070628A6001688A68836A1A438A600168E6
:100660008A6822F040528A6001688A68C36A1A4325
:100670008A6009E001688A6822F070628A60016815
:100680008A6822F040528A6001688A6822F0020279
:100690008A6001688A68037E42EA43028A6090F8B1
:1006A000201089B101684A6842F400624A6001681A
:1006B0004A6822F460424A6001684B68426A521EEE
:1006C00043EA42324A6004E001684A6822F4006268
:1006D0004A600168CA6A22F47002CA620168CB6A81
:1006E000828B521E43EA0252CA6201688A6822F46F
:1006F00000728A6001688A6890F8303042EA4322CA
:100700008A6001688A6822F480628A6001688A6867
:10071000406942EA80208860704700000023014061
:100720002DE9F0411C4C5A20207003266670A4F17C
:10073000C805AB78A370012016E02918897801EB71
:100740004102164901EB8201421E896804EB8202D4
:100750000F78D7700F883F0A17710F683F0C5771D9
:100760000968090E9171401C8342E6DA06EB8300AA
:10077000C1B2094800F0F8FCA97804EB8102D070FE
:10078000BDE8F041042000EB81024FF47A73024986
:10079000034804F056BE000070490020F4D700085A
:1007A0007038002070B51D4C5A202070EF2060700A
:1007B000A4F1C805AB78A370012016E02918897848
:1007C00001EB4102164901EB8201421E896804EBEC
:1007D00082020E78D6700E88360A16710E68360CB4
:1007E00056710968090E9171401C8342E6DA0320B4
:1007F00000EB8300C1B2094800F0B6FCA97804EB15
:100800008102D0700420BDE8704000EB81024FF4FB
:10081000FA730249034804F014BE00007049002036
:10082000F4D700087038002070B5174C5A2020709B
:10083000F12060700120154DA4F1C8031918421E63
:10084000497804EB820201EB410105EB81018968E3
:100850000E7896700E88360AD6700E68360C1671B1
:100860000968090E5171401C0128E7DD0621064880
:1008700000F07AFCA071BDE87040C823072202494D
:10088000034804F0DEBD000070490020F4D70008E2
:100890007038002070B5174C5A202070F22060701C
:1008A0000120154DA4F1C8031918421E497804EB24
:1008B000820201EB410105EB810189680E78967097
:1008C0000E88360AD6700E68360C16710968090E45
:1008D0005171401C0228E7DD0A21064800F044FC63
:1008E000A072BDE87040C8230B220249034804F0FF
:1008F000A8BD000070490020F4D70008703800201F
:1009000070B5174C5A202070F32060700120154DEF
:10091000A4F1C8031918421E497804EB820201EBC6
:10092000410105EB810189680E7896700E88360AC0
:10093000D6700E68360C16710968090E5171401C8C
:100940000328E7DD0E21064800F00EFCA073BDE889
:100950007040C8230F220249034804F072BD000012
:1009600070490020F4D700087038002070B5174C8B
:100970005A202070F42060700120154DA4F1C803A6
:100980001918421E497804EB820201EB410105EB84
:10099000810189680E7896700E88360AD6700E68C6
:1009A000360C16710968090E5171401C0428E7DDE8
:1009B0001221064800F0D8FBA074BDE87040C8239F
:1009C00013220249034804F03CBD00007049002096
:1009D000F4D7000870380020F0B4204A1E4E0027DB
:1009E000538AB6F99802591C8DB231460028D1F8C5
:1009F0009C1201DD002903DB002803DA002901DD58
:100A0000558219E04FF4FA7C40B9B6F99442002CB3
:100A100000DAE443644501DA57820DE0002900DA88
:100A2000C943002800DAC043081A604501DD558239
:100A300002E00BB15B1E5382508AB0F5FA6F09D900
:100A40005782012086F8AC0286F8B272F0BC8004AE
:100A500005F0F8B9F0BC7047A43C0020600000200D
:100A600070B5002901DA494209B2002815D0364D87
:100A7000364A41F29414AE7A42F2D00386420DD146
:100A8000A14203DA43F69840106202E043F6D840F0
:100A9000106293635363D363916370BDEE7A8642B1
:100AA0000DD1A14203DA43F69C00106202E043F646
:100AB000DC00106293635363D363916370BDAE79BE
:100AC00086420DD1A14203DA43F68C10106202E097
:100AD00043F68C50106293635363D363D16370BD4C
:100AE000EE7986420DD1A14203DA43F6C8101062B6
:100AF00002E043F6C850106293635363D363D1633B
:100B000070BD2E7A86420DD1A14203DA43F6C900A8
:100B1000106202E043F6CD00106293635363D36327
:100B2000516370BD6D7A8542FBD1A14203DA43F671
:100B30008940106202E043F68D4010629363536374
:100B4000D363516370BD0000DC430020000001400E
:100B5000F0B4204A1E4E0027938AB6F91C03591C94
:100B60008DB231460028D1F8201301DD002903DBC6
:100B7000002803DA002901DD958219E04FF4FA7CA0
:100B800040B9B6F91843002C00DAE443644501DAB1
:100B900097820DE0002900DAC943002800DAC0433B
:100BA000081A604501DD958202E00BB15B1E93825D
:100BB000908AB0F5FA6F09D99782012086F8300340
:100BC00086F83673F0BCC00405F03CB9F0BC704741
:100BD000A43C0020600000202DE9F003002901DA88
:100BE000494209B24FF40049A0B1DFF808C1424CB4
:100BF000414A18349CF81C80251F261D41F2941789
:100C000042F2D003804514D1B94208DA43F6984045
:100C1000106007E04846BDE8F00305F013B943F65D
:100C2000D840106023602B6033602160BDE8F00382
:100C300070479CF81D8080450DD1B94203DA43F618
:100C40009C00106002E043F6DC00106023602B6023
:100C500033602160EAE79CF8188080450DD1B942E5
:100C600003DA43F68C10106002E043F68C501060FB
:100C700023602B6033603160D8E79CF81980804591
:100C80000DD1B94203DA43F6C810106002E043F612
:100C9000C850106023602B6033603160C6E79CF859
:100CA0001A8080450DD1B94203DA43F6C9001060BD
:100CB00002E043F6CD00106023602B6033602960B2
:100CC000B4E79CF81BC084450DD1B94203DA43F662
:100CD0008940106002E043F68D40106023602B6075
:100CE00033602960A2E70728A0D14846BDE8F00399
:100CF00005F0A8B8DC4300202004014010B5164BD5
:100D0000B3F8A802002818D0144A93F9B0129078CA
:100D10004C1C13D0012911D0401CC0B290700A287D
:100D20000BD90A209070002083F8B2024FF40050D3
:100D300005F088F8012083F8AC0210BDB3F99412D5
:100D4000D3F89C32C91A00D5C9431429F5DA002812
:100D5000F3D0401E907010BDA43C00206000002025
:100D600010B5164BB3F82C03002818D0144C93F987
:100D70003413E0784A1C13D0012911D0401CC0B2B2
:100D8000E07014280BD94FF4804005F05BF8142074
:100D9000E070002083F83603012083F8300310BD93
:100DA000B3F91813D3F82023891A00D5C94332297F
:100DB000F5DA0028F3D0401EE07010BDA43C0020FE
:100DC000600000202DE9F041062000F0D3FE264B04
:100DD00060B9264CB4F92C03002800DAC043B0F502
:100DE0007A6F03DD94F8360301280AD0D88908B158
:100DF000401ED881188A002801D0401E1882BDE804
:100E0000F0811B49D4F84403884203DAD889401C96
:100E1000D88107E0B4F93C03B0F52F7F02DD188AD2
:100E2000401C1882D8894FF4FA6700250126B84281
:100E300009D9C4F89403B00505F004F8DF8184F8FB
:100E4000306384F83653188A4FF4FA77B842D6D90B
:100E500004F54C74A0664FF4804004F0F3FF1F8249
:100E60002670A571CBE7000060000020A43C0020A4
:100E70000000204110B504460023F7EE000A30EED2
:100E8000601A18E0BCEEC10A10EE102A10E0501EE5
:100E900004EB800004EB820190ED000AD1ED000A22
:100EA000B4EEE00AF1EE10FA01DD0CF081F9521E09
:100EB0009A42ECD85B1C00EE103AB8EE400AB4EE51
:100EC000C01AF1EE10FADDDC10BDFEE72DE9F041AD
:100ED000069D0024184E376B3860376B40F6FF7064
:100EE0007860306B8160306BC260306B056106E00A
:100EF000326B04F11400195D1154641CA4B2AC42AD
:100F0000F6D3002401E0641CA4B20A210A4801F0CF
:100F100031FD08B1032CF6D3326B08482F23126938
:100F2000416803EBC20211444160032C02D000204F
:100F3000BDE8F0810120FBE7483500203C4500205A
:100F4000014801F06BBA00004835002010B50029B7
:100F500059D0826B4FF4D873046803EB0113E45843
:100F600004F004049460002C4FD00468E458E408B2
:100F700054600468E35803F00203D3604FF4DA735B
:100F8000046803EB0113E45804F00F0414611162C8
:100F90000468E358C3F30723D3614FF4DC73046898
:100FA00003EB0113E45814750468E458240A5475DB
:100FB0000468E458240C94750468E3581B0ED37538
:100FC0004FF4DE73046803EB0113E45814760468ED
:100FD000E458240A54760468E458240C947604688F
:100FE000E3581B0ED3762022A1B103681A61026870
:100FF000536923F05003536190F83C20222A0CD00F
:10100000322A0AD00EE0426BA4E70468E458640D6B
:101010001460AEE70368DA60EEE70268536923F410
:101020000F4353611222012369B190F83C105229F9
:101030001FD0622920D0722922D080F83C3001F0E4
:1010400071FC002010BD90F83C10422906D06229A6
:1010500007D0722909D080F83C30F0E780F83C20B6
:10106000EDE7322180F83C10E9E7522180F83C108E
:10107000E5E780F83C20E2E7222180F83C10DEE73B
:10108000422180F83C10DAE710B501684A6922F085
:1010900001024A6190F83C10122904D101684A69A2
:1010A00022F40F424A6190F83C1042290AD052299A
:1010B0000CD072290ED0012180F83C1001F05CFDAB
:1010C000002010BD222180F83C10F7E7322180F883
:1010D0003C10F3E7622180F83C10EFE73EB505468F
:1010E0001E4C55202070662060708820A0709920CA
:1010F000E0701B48E0601B48112101702221417003
:10110000332181704421C17000210122CDE90121E8
:10111000503800900222134B110304F1B0000AF082
:10112000B3FD217904F1B00009F0ACFB0F20A860F9
:10113000A06968600021284609F02EFC0521284698
:1011400009F02AFC0421284609F026FC03B02846B1
:10115000BDE83040002109F01FBC000084020020DF
:101160004433221108450020002203E010F8013B1F
:101170001A4492B2491EC9B2F8D2D0B2704730B404
:101180000A46016B51F82210C1F30741446B4FF03E
:10119000FF3324F812300122431883F83820026C00
:1011A00030BC10472DE9F04FDDE90A48099E4FF0A9
:1011B000FF3C3FE0A51AEDB2002D03D00F7807FAEF
:1011C00005F700E00F7807F0FF0902D0C4F1080529
:1011D00001E0C2F10805EDB2854200D9054604EBF5
:1011E000050A4FF0FF0B0BFA0AF7C4F108042BFABB
:1011F00004FB47EA0B0729EA070934783C4044EA34
:10120000090434702A44D2B2072A05D900220BB14E
:10121000644600E0012421440AF0FF04072C07D9AA
:101220000024B8F1000F01D0674600E001273E44DA
:10123000401BC0B20028BDD1BDE8F08F2DE9F041C0
:101240000646454806EB461100EB8104B4F924102C
:10125000E28EB4F84000914264DD401CA4F84000E6
:10126000208F814256DD34F8420F401C80B220802E
:101270002189423C012707FA06F54FF00008884211
:1012800008D9304609F02EFA284604F0DBFD27760F
:10129000A4F84280B4F92400618F884232DD34F82A
:1012A000440F401C80B220802189443C884208D9E8
:1012B000304609F017FA284604F0C4FD2776A4F852
:1012C0004480B4F92400A18F884213DD34F8460F1E
:1012D000401C80B220802189463C884208D9304693
:1012E00009F000FA284604F0ADFD2776A4F8468000
:1012F000BDE8F081B4F846000028F9D0401EA4F8FB
:101300004600F5E7B4F844000028F1D0401EA4F8E8
:101310004400EDE7B4F842000028E9D0401EA4F8EC
:101320004200E5E70028E3D0401EA4F84000B4F8EE
:10133000420010B1401EA4F84200B4F8440010B1BD
:10134000401EA4F84400B4F846000028D0D0401E47
:10135000A4F84600CCE70000A43C0020014801F0BE
:101360000DBC0000883900200168CAB2103A182369
:10137000B2FBF3F2064B9B5CC3656FF30901032AD2
:1013800002D9091D816500E08165806D704700000C
:101390000AD2000810B5014600208A6A8B694FF016
:1013A000C074002B0ED0B3F5005F1AD062B3012ACF
:1013B0002AD0022A28D0032A03D1C96AC90100D53C
:1013C000012010BD1AB1012A06D0022AF9D1C96A3A
:1013D000C901F6D5012010BDC96AA142FBD1012087
:1013E00010BD52B1012A0AD0022A06D0032AF7D131
:1013F000C96AA142F4D1012010BD012010BDC96A03
:10140000C901FBD5012010BD012010BD30B5046815
:10141000256825F480252560046863608368402B77
:1014200004D0036899600068C26030BD03689A60A8
:101430000068C16030BD7047411C0CD0074AB2F94A
:101440000010884201D1491E1180054A00EB40007E
:10145000002102F830104FF0FF307047F8340020C0
:10146000A84700202DE9F84FFE4C6078401CC2B21E
:101470006270FD4F0025BE14642A04D931463846F7
:1014800002F045F96570206A401C2062DFF8DC83B9
:10149000606D60B901224021384602F041F9012215
:1014A0003146404602F03CF9A565A561E561A269B7
:1014B000142328204FF400214FF4801C4FF400190E
:1014C0004FF4800AB2F5004F79D02DDC802A77D016
:1014D00013DC082A75D009DCB2F1004F72D0012A62
:1014E00065D0022A72D0042A55D177E0102A6BD039
:1014F000202A6AD0402A4ED190E0B2F5006F75D014
:1015000009DCB2F5807F72D0B2F5007F73D0B2F5FE
:10151000806F40D19DE0B2426BD0B2F5005F69D0E0
:10152000B2F5804F37D1F1E0B2F5000F1AD01BDCD5
:101530008A4270D009DCB2F5803F6DD0B2F5003F31
:101540006BD0B2F5802F26D110E1624576D04A45A6
:1015500075D052451FD10093012100230322084674
:1015600004F0B0FBBDE8F88FB2F1006F68D009DC81
:10157000B2F1807F75D0B2F1007F73D0B2F1806F8D
:1015800009D1A3E0B2F1805F6DD0B2F1005F6BD002
:10159000B2F1804F69D001224021384602F0C0F8F4
:1015A00031464046BDE8F84F012202F0B9B8009339
:1015B000002301221146184604F084FBD2E755E0CF
:1015C0005CE033E02EE101E03BE01CE0009300230F
:1015D00002220121184604F075FBC3E700930023A3
:1015E00003220121184604F06DFBBBE7AEE051E099
:1015F00001E0FBE082E00093002304220121184671
:1016000004F060FBAEE70093002305220121184699
:1016100004F058FBA6E7B1E0A0E0F5E0009300235A
:1016200006220121184604F04DFB9BE7009300239E
:1016300007220121184604F045FB93E76EE075E0B0
:101640004CE00093002308220121184604F03AFBE5
:1016500088E7012300901A460021184604F032FB67
:1016600080E793E06AE041E020E027E0012300907A
:101670001A461946002004F025FB73E7002240219A
:10168000384602F04DF800223146404602F048F854
:10169000256267E700224021384602F041F8012226
:1016A0003146404602F03CF825625BE70093002398
:1016B00001221946104604F005FB53E7009300236E
:1016C00002221946012004F0FDFA4BE700930023A3
:1016D00003221946012004F0F5FA43E700930023A2
:1016E00004221946012004F0EDFA3BE700930023A1
:1016F00005221946012004F0E5FA33E700930023A0
:1017000007221946012004F0DDFA2BE7009300239D
:1017100008221946012004F0D5FA23E7012200939C
:1017200000231146104604F0CDFA1BE70093012177
:1017300000230222084604F0C5FA13E700930121B2
:1017400000230422084604F0BDFA0BE700930121B0
:1017500000230522084604F0B5FA03E700930121AF
:1017600000230622084604F0ADFAFBE600930121AF
:1017700000230722084604F0A5FAF3E600930121AE
:1017800000230822084604F09DFAEBE6E1691029DF
:1017900006D020290CD0402912D080291FD117E073
:1017A0000093012100230522084604F08BFA16E07D
:1017B0000093012100230622084604F083FA0EE07C
:1017C0000093012100230722084604F07BFA06E07B
:1017D0000093012100230822084604F073FA3846DA
:1017E000BDE8F84F0022402101F09ABF012200938A
:1017F00000231146104604F065FA31464046BDE824
:10180000F84F002201F08CBF009301210023022237
:10181000084604F057FA31464046BDE8F84F00222A
:1018200001F07EBFE069884213D0604520D0484572
:1018300026D0504506D100930121002309220846F5
:1018400004F040FA31464046BDE8F84F002201F06E
:1018500067BF0093012100230622084604F032FAF4
:10186000F0E7000060000020000402400000024099
:101870000093012100230722084604F023FAE1E740
:101880000093012100230822084604F01BFAD9E73F
:10189000012001F04FBE10B54FF4806001F04AFE08
:1018A0004FF4006001F046FE4FF4005001F042FE9C
:1018B0004FF4804001F03EFEBDE810404FF4004080
:1018C00001F038BE022001F035BE042001F032BE26
:1018D000082001F02FBE102001F02CBE10B52020F2
:1018E00001F028FE402001F025FE802001F022FEBC
:1018F000BDE810404FF4007001F01CBE72B6FEE768
:101900000022002905D001291AD002291BD04FF44A
:1019100040720E490B6823F440730B600B6813434D
:101920000B600A6822F0F8020A600A68022303EBDF
:10193000C00002430A60086840F4803008607047C5
:101940004FF48072E5E74FF40072E2E7103C02408A
:101950001348016889050FD5016821F40071016001
:10196000016841F400610160016821F400610160D7
:10197000016841F400710160016849050FD50168F3
:1019800021F480610160016841F4805101600168C7
:1019900021F480510160016841F480610160704769
:1019A000003C024008490A6822F440720A600A6852
:1019B00042F004020A600A684FF4803343EA0020D0
:1019C00002430A6070470000103C0240064A136858
:1019D00023F44073136013681360136843F001032A
:1019E0001360017070470000103C024010B50949B7
:1019F0000C6824F440740C600C6844F440740C606F
:101A00000C6844F001040C600260BFF36F8F436008
:101A100010BD0000103C0240074A136823F44073D5
:101A20001360136843F480731360136843F0010379
:101A30001360018070470000103C0240074A1368A1
:101A400023F440731360136843F400731360136846
:101A500043F001031360016070470000103C024036
:101A600017490868C206174805D5C26942F0100236
:101A7000C26110220A600A68920605D5C26942F066
:101A80000802C26120220A600A68520605D5C269AE
:101A900042F00402C26140220A600A68120605D5BB
:101AA000C26942F00202C26180220A600A6892079B
:101AB00005D5C26942F02002C26102200860704769
:101AC0000C3C0240E839002070B504461149002062
:101AD000C86101F02DFE05460F4E09E0601C07D0DD
:101AE00024B101F025FE401BA04201D9032070BDA6
:101AF0003068C003F2D43068C00701D001203060E4
:101B0000306810F0F20F03D0FFF7AAFF012070BD7C
:101B1000002070BDE83900200C3C024007485A21E3
:101B20000170E221417000218170F021C1700146F5
:101B30004FF47A730422024803F083BC1635002068
:101B40007038002030B5094A0021094C0AE001EB49
:101B5000410304EB83035D7915B99B6820CA1D60BE
:101B6000491C89B28142F2D330BD00000000040854
:101B7000F4D7000800EB40110D4800EB810090F90C
:101B80001C10012901D04A1C0FD1C38AC26E5A43CE
:101B9000084B93FBF2F24A438260074A816E126857
:101BA000511A022901D900218160008900B27047D1
:101BB000A43C0020008793034C0000200146002035
:101BC000A1F100624FF480439A4204D320480844B4
:101BD000984201D2012070471E480844984201D221
:101BE000022070471C480844984201D203207047E5
:101BF0001A480844B0F5803F01D2042070471848C5
:101C00004FF400320844904201D205207047154835
:101C10000844904201D2062070471348084490427D
:101C200001D20720704711480844904201D2082091
:101C300070470F480844904201D2092070470D4870
:101C40000844904201D20A2070470B2070470000E0
:101C500000C0FFF70080FFF70040FFF70000FFF72C
:101C60000000FEF70000FCF70000FAF70000F8F7AC
:101C70000000F6F70000F4F71049072808D2DFE863
:101C800000F007101814080C040043F69C4008628A
:101C9000704743F69C100862704743F6CC10086208
:101CA000704743F6C9100862704743F6C94008629E
:101CB000704743F6994008627047000000000140F9
:101CC00014494FF4004208280BD2DFE800F0041357
:101CD0001B170B0F071F104604F0B4B843F69C40C7
:101CE0000860704743F69C100860704743F6CC10BC
:101CF0000860704743F6C9100860704743F6C94052
:101D00000860704743F6994008607047104604F039
:101D100099B800002004014070B50B4D4FF400410C
:101D2000284601F0EDFC44004FF48041284601F0C4
:101D3000E7FC204344004FF40051284601F0E0FC4A
:101D4000204300F0070070BD00080240704700000B
:101D500010B590F83C20012A2AD0012280F83C20BE
:101D60000A7C012A26D00268536823F0400353609E
:101D700002685368124C23405360026853680C6831
:101D80002343536003684A685A6203688A689A6208
:101D90000268536823F01F035360026853688989FF
:101DA00089B20B435360002180F83C10002010BD25
:101DB000022010BD0268536843F040035360D7E728
:101DC000FFFD3FFF78B50024009490F83C20012AE5
:101DD00019D0012280F83C200A680725092A14D965
:101DE0000368DE680A3A02EB42029540AE43DE60C9
:101DF0000A788B680A3A02EB420293400268D5687F
:101E00002B43D36011E0022078BD03681E6902EB0A
:101E100042029540AE431E610A788B6802EB420293
:101E20009340026815692B4313614A681F25072AEE
:101E300013D203685E6B521E02EB82029540AE43E2
:101E40005E630A8893B20A79521E02EB82029340C3
:101E50000268556B2B43536328E00D2A13D20368A5
:101E60001E6BD21F02EB82029540AE431E630A88AE
:101E700093B20A79D21F02EB820293400268156B7B
:101E80002B43136312E00368DE6A0D3A02EB820211
:101E90009540AE43DE620A8893B20A790D3A02EBAE
:101EA000820293400268D56A2B43D362174A184BCB
:101EB00005689D4206D10D68122D03D1556845F481
:101EC0008005556005689D421BD10B68102B01D021
:101ED000112B16D1536843F400035360096810298D
:101EE0000FD10C490C4A0968B1FBF2F101EB8101F9
:101EF0004900009102E00099491E009100990029D3
:101F0000F9D180F83C40002078BD0000002301405A
:101F1000002001405C00002040420F0070477047E5
:101F2000704770B5044620680168C1F340014268FB
:101F3000C2F3401200292AD04AB3216CC90603D447
:101F4000216C41F400712164816811F0405F17D168
:101F5000217EA9B9C16A11F4700F02D081684905C8
:101F60000ED4416821F020014160206C20F4807083
:101F70002064206CC00403D4206C40F00100206475
:101F8000A16C2046884721686FF012000860206825
:101F90000168C1F380014268C2F3C01289B382B301
:101FA000216CC90603D4216C41F40051216481687D
:101FB00011F4401F1ED1816B11F4401F02D08168C3
:101FC000490517D44168490514D4816811F0405F70
:101FD00010D1217E71B9416821F080014160206CEF
:101FE00020F480502064206CC00503D4206C40F0A5
:101FF00001002064A16D2046884721686FF00C0025
:10200000086020680168C1F300014268C2F38012D1
:1020100071B16AB10068C0070AD0206C40F480300A
:102020002064216D2046884721686FF00100086018
:1020300020680168C1F340114268C2F38062002940
:102040000DD0002A0BD0616C41F0020161646FF089
:1020500020050560616D204688472068056070BDD9
:1020600070B504460026002C03D0206C002510B16A
:1020700015E0012070BD1648A0641648E0641648BB
:102080002065164860651648A065E06D08B91548DA
:10209000E065E16D20468847656484F83C50206C1B
:1020A000C00610D4206C20F4885040F00200206458
:1020B0002046FEF79DFA6564206C20F0020040F097
:1020C0000100206400E0012684F83C50304670BDD9
:1020D0001D1F00081F1F0008E9200008211F00081D
:1020E0004D1D000815210008094908680268D2073B
:1020F00007D0426822F0400242600A686FF0010097
:1021000010600868416841F040014160704700007C
:10211000CC35002070B586B00646142101A8FEF724
:1021200099F826493068884246D10025244801683C
:1021300041F480710160006800F4807000902049D3
:102140001439086840F004000860086800F00400D2
:102150000090086840F001000860086800F0010085
:1021600000903F20019003240294039501A9154893
:1021700001F0ECF95F2001900294039501A9124847
:1021800001F0E4F9124C114820606560A560E5603B
:1021900000152061800060618000A0618011E06115
:1021A0004FF4403020626562204600F0CFFD08B158
:1021B000FFF7A4FBB463A66306B070BD0020014026
:1021C000443802400008024000000240106402400F
:1021D00088390020F8B5044613460022009294F88E
:1021E0003C00012807D0012084F83C002068856865
:1021F000ED0702D014E00220F8BD856845F0010526
:1022000085603E483E4D0068B0FBF5F000EB4000B5
:10221000009002E00098401E009000980028F9D13C
:1022200020688568ED0766D0256C40F20166B543ED
:1022300045F4807525644068400505D5206C20F480
:10224000005040F480502064206CC00404D5606CC1
:1022500020F00600606400E0626484F83C20294EAF
:10226000A26B2948D063A26B28481064A26B28484F
:10227000D06422686FF0220010602068426842F04B
:10228000806242602068826842F4807282602068C6
:102290000A464C30A56B0146284600F0C1FD706827
:1022A0001C49C00607D02068884224D1816811F0FB
:1022B000405F1CD01FE0206888420FD0164A904231
:1022C00003D1D1F80423D20608D0144A904212D187
:1022D000D1F8041301F01F0110290CD2816811F00C
:1022E000405F08D1816841F08041816003E08168EE
:1022F00041F0804181600020F8BD00005C000020BA
:1023000040420F000023014067050008DD0500087A
:10231000CB050008002001400021014000220140BF
:1023200010B5087D012282403A4800F5007003682C
:1023300043F001030360036823F47C5303600368E4
:102340004C6A43EA04230360C3699343C361A0F565
:102350000070CB69002B16D1D0F80C329343C0F833
:102360000C328C894B6864F31F434C6900EBC40446
:10237000C4F840320C890B6864F31F434C6900EBCE
:10238000C404C4F84432CB69012B16D1D0F80C3206
:102390001343C0F80C320C884B6864F31F434C693C
:1023A00000EBC404C4F840320C89CB6864F31F43CB
:1023B0004C6900EBC404C4F844328B693BB1D0F8DB
:1023C00004321343C0F804320B6933B10AE0D0F889
:1023D00004329343C0F80432F6E7D0F81432934342
:1023E000C0F814320B69012B04D1D0F81432134316
:1023F000C0F81432096A012904D1D0F81C12114323
:10240000C0F81C12D0F8001221F00101C0F800122F
:10241000002010BD006400407047000070B5044605
:1024200000252068C168C1F300114269C2F3C002EF
:102430001023002902D00AB15D01C3602068016940
:10244000C1F300114269C2F3801219B112B145F40F
:102450008065036120684169C943C9072ED182683C
:10246000694991431DD000218368684A9A431AD074
:1024700000228668664BB34317D0002311431943EB
:102480001CD08168C1F340018268C2F34022806899
:10249000C0F340401143014309D02046FEF7F4FD4C
:1024A00007E00121E0E70122E3E70123E6E745F445
:1024B000006520688168574A114381602068C168BF
:1024C00001F003014069C0F3400021B118B10021BF
:1024D0002046FEF73BFD2068016901F003014069D9
:1024E000C0F3001021B118B101212046FEF72EFDE6
:1024F000206C2843206420688169C1F3000241698F
:10250000C1F300214369C3F3C0332AB121B11BB128
:10251000216C41F0010121648169C1F340014269EC
:10252000C2F340224369C3F3C03329B122B11BB1C6
:10253000216C41F0020121648169C1F3800142698B
:10254000C2F380224369C3F3C03329B122B11BB166
:10255000216C41F004012164816911F0700F08D0F1
:1025600000214269C2F3C0224369C3F3C03311B1F1
:1025700036E00121F5E79AB393B3816901F0700168
:1025800040291BD006DC102909D020290CD0302985
:1025900022D10EE0502916D060291DD118E0216CFF
:1025A00041F00801216417E0216C41F01001216421
:1025B00012E0216C41F0200121640DE0216C41F01A
:1025C0004001216408E0216C41F08001216403E0B6
:1025D000216C41F480712164816921F07001816175
:1025E000206C00280ED0216804204860012084F867
:1025F0003C002068416948F6517291434161204690
:10260000FFF70AFF70BD000003000004000300088C
:1026100000000310190501002DE9F04104460026D1
:10262000002C04D094F83C00002718B107E00120EA
:10263000BDE8F08184F83D70204600F0AFF802203C
:1026400084F83C002068016821F0020101602068E4
:10265000016841F00101016001F06AF805464FF0A0
:1026600003080AE001F064F8401B0A2805D984F841
:102670003C8084F83D700320DAE720684068C0079A
:10268000F0D020684168C9077BD0A169012940D0FA
:10269000016821F080010160E06901283ED02068D6
:1026A000016821F040010160206A01283CD02068C7
:1026B000016821F020010160606A01283AD0206899
:1026C000016821F010010160A06A012838D020685B
:1026D000016821F008010160E06A012836D0206815
:1026E000016821F004010160D4E902010843D4E942
:1026F0000412114308436168491E08432168C861F8
:102700002068016821F00101016001F011F805461F
:102710002EE0016841F080010160BDE7206801689A
:1027200041F040010160BFE72068016841F02001ED
:102730000160C1E72068016841F010010160C3E752
:102740002068016841F008010160C5E72068016860
:1027500041F004010160C7E700F0EAFF401B0A28CE
:1027600006D984F83C8084F83D70032060E708E0D7
:1027700020684068C007EFD120684068C00700D1DA
:102780000126012E04D0042084F83C0001204FE7EC
:102790002764012084F83C00002049E710B586B08A
:1027A0000446142101A8FDF755FD1C492068884204
:1027B00031D100211A48026842F0007202600268BA
:1027C00002F000720092026842F0806202600068CB
:1027D00000F08060009012481038026842F0020257
:1027E0000260006800F00200009042F220000190B8
:1027F000022002900391012004900920059001A974
:10280000084800F0A3FE084908484A6BC0F84C226B
:10281000096BC0F8501206B010BD000000680040FF
:1028200040380240000402404835002034030020B4
:1028300030B500290FD190F83C20222A0ED090F814
:102840003C20422A0AD090F83C20622A06D090F818
:102850003C20722A02D0012902D011E0022030BDB2
:1028600090F83C20322A32D090F83C20522A2ED0C8
:1028700090F83C20622A2AD090F83C20722A26D078
:1028800090F83D20012A24D0012280F83D206223C7
:10289000722401B390F83C20122A32D0222A34D07C
:1028A000422A35D0322280F83C200023036402689B
:1028B000546940F601752C43546180F83D3051B3A2
:1028C0000068416941F050014161002030BD0220A3
:1028D00030BD022030BD90F83C20122A07D0322AA9
:1028E00009D0522A0AD0222280F83C20DDE7422279
:1028F00080F83C20D9E780F83C30D6E780F83C40AF
:10290000D3E7522280F83C20CFE780F83C30CCE778
:1029100080F83C40C9E70068416941F00A01416123
:10292000D3E7000070B504460F490868C00602D519
:102930000868002008600D48D0F84C12886860B91B
:102940000B480B692F25426805EBC3031A4442600C
:102950000A7B0968054804F041F82046BDE870404C
:102960000021FFF765BF00000C6800403403002021
:102970003C4500202DE9F05F04460E462268906831
:10298000400105D49068000102D49068C00075D55C
:1029900094F83D00012812D0012784F83D7094F886
:1029A0003C0022280ED0322810D0622812D01220EB
:1029B00084F83C009068400110D5002514E0022006
:1029C000BDE8F09F422084F83C00F3E7522084F8F1
:1029D0003C00EFE7722084F83C00EBE790680001D0
:1029E00001D5012500E002254FF4C07000EB051071
:1029F000115801F001011150216B8A68EAB3236874
:102A000053F800C04CEA020CCA68496842EAC101A6
:102A10004CEA010C43F800C0216B0A7C02F00F0263
:102A20000A614FF4C271226801EB0511535823F07B
:102A30000F03535022685358D4F830C0DCF810C04C
:102A400043EA0C035350216B0A7DCB7D42EA0362BB
:102A50008B7D497D1B0443EA01210A434FF4C47373
:102A6000216803EB0513CA50216B0A7ECB7E42EA34
:102A700003628B7E497E1B0401E018E070E043EAAC
:102A800001210A434FF4C673216803EB0513CA50B2
:102A900021680A5842F001020A5000F049FE8046BF
:102AA0004FF00009DFF8C4A0DFF8C4B02AE02268C4
:102AB0001358D1F80CC0098843EA0C0343EA41518A
:102AC0001150A9E7701C1DD02EB100F031FEA0EB13
:102AD0000800B04216D9032084F83C004DB1012D06
:102AE0000BD021684FF40000886084F83D900320EB
:102AF00066E7216880208860F7E721684FF400408E
:102B00008860F2E7A5B1012D18D0206881681948C6
:102B10008843D7D194F83C00422815D0522817D0CA
:102B2000722819D084F83C7084F83D90002047E763
:102B3000206880683AEA0000ECD0C3E7206880682B
:102B40003BEA0000E6D0BDE7222084F83C00EBE73A
:102B5000322084F83C00E7E7622084F83C00E3E799
:102B6000042084F83C0001202AE700000300000450
:102B70000003000800000310704700002DE9F8432F
:102B800004464FF00009CDF800906F484FF41651FD
:102B90000068B0FBF1F7A56D2E6894F85C00082280
:102BA00002FA00F1314210D02068016849070CD5C3
:102BB000016821F00401016094F85C0002FA00F160
:102BC000A960606D40F00100606594F85C104FF002
:102BD000010808FA01F0304208D021684969090665
:102BE00004D5A860606D40F00200606594F85C1048
:102BF00004208840304208D021680968890704D53C
:102C0000A860606D40F00400606594F85C101020CE
:102C10008840304220D02168096809071CD5A86087
:102C20002068016849030CD50068000304D4216CB6
:102C300091B1204688470FE0A16C69B120468847D2
:102C40000AE00168C90503D4016821F008010160A8
:102C5000216C09B12046884794F85C1020208840F8
:102C600030424CD021680968C90648D5A86094F85C
:102C7000350005280BD020680168490330D500686D
:102C8000000328D4616C51B32046884737E02068A0
:102C9000016821F0160101602068416921F080017E
:102CA0004161206C08B9A06C20B12068016821F056
:102CB0000801016094F85C103F208840A86084F807
:102CC000349084F83580216D00293BD001B0204636
:102CD000BDE8F0430847E16B09B1204688470EE0A4
:102CE0000168C90507D4016821F01001016084F86A
:102CF000349084F83580E16B09B120468847606DD7
:102D000000281FD0606DC00714D0052084F835005E
:102D10002068016821F0010101600098401C0090CA
:102D2000B84203D820680068C007F6D184F8349010
:102D300084F83580E16C002904D001B02046BDE85C
:102D4000F0430847BDE8F8835C0000202DE9F0411E
:102D5000044600F0EDFC05465CB1002684F83460C2
:102D6000022084F835002068016821F0010101602B
:102D70000DE00120BDE8F08100F0DAFC401B0528E1
:102D800005D920206065032084F83500F2E720682B
:102D90000068C007F0D121680A6820480240D4E9E1
:102DA00001031843D4E903352B43184363691843DF
:102DB000A3691843E3691843236A18431043626AFE
:102DC000042A03D1D4E90B231A4310430860206876
:102DD000406920F00700656A294605430127042958
:102DE0000DD1A06A0543E06A48B12046FEF7D2FA49
:102DF00028B14020606584F835700120BAE720686A
:102E000045612046FEF7B0FA94F85C203F219140DE
:102E10008160666584F835700020ABE73F8010F074
:102E20002DE9F04104460025A66D94F834000128F0
:102E30000DD0012084F8340094F835700020012F63
:102E400007D084F8340002252846BDE8F08102202E
:102E5000FBE7022784F8357060652046FEF7D6FA56
:102E600094F85C103F208840B0602068016841F011
:102E700016010160206C20B12068016841F0080152
:102E800001602068016841F001010160DCE7000099
:102E90002DE9F04704460E46DFF88C8098F81800BC
:102EA00001280BD0012088F818004CF25039484610
:102EB000FEF70AFE0246100003D02FE00220BDE814
:102EC000F0874FF0FF3030602068184F012801D0A4
:102ED000A5681CE0207C6168FEF764FD4846FEF7AB
:102EE000F3FD0246386820F00400386014E0217CCD
:102EF0002846FEF705FD4846FEF7E6FD024638681F
:102F000020F0FA0038600AB1356005E06D1CD4E9A4
:102F100002100844A842EAD8FEF71AFD002088F8FB
:102F200018001046CBE70000E8390020103C0240B2
:102F30000348016841F00041016000207047000033
:102F4000103C02402DE9F0470646894614461D46CE
:102F5000194F387E012808D0012038764CF25038BD
:102F60004046FEF7B1FD18B114E00220BDE8F0873D
:102F70009EB1012E16D0022E19D022462B4648466D
:102F8000FEF734FD4046FEF79FFD0C490A6822F02B
:102F900001020A6000213976E8E7E1B24846FEF70F
:102FA00015FDEFE7A1B24846FEF736FDEAE72146F8
:102FB0004846FEF743FDE5E7E8390020103C0240B3
:102FC000002007490A68002A09DA054A054B0C3A2D
:102FD0001360054B13600968002900DA012070476F
:102FE000103C024023016745AB89EFCD2DE9F05F2E
:102FF0000446DFF80084DFF8F493DFF8F4B3FE4D05
:10300000DFF8F8A3FE4EA8F10207202C03D0402CD5
:1030100001D0802C6FD196F8F11286F8F212DAF80E
:103020000000C0F3421086F8F10240EAC101CAB2C2
:1030300086F8F32298F9001019F8022011FB02F229
:1030400052B286F8B0229BF80030082B04D0012A37
:1030500024D0521C22D04EE0431E062B18D22B7BCC
:10306000012B0AD0022B0AD0032B0AD0042B0AD042
:10307000052B0AD0062B0AD00AE0A87108E0E871F7
:1030800006E0287204E0687202E0A87200E0E872CC
:10309000002A30DA484288F800002CE0FDF72EFEC6
:1030A00096F8F102012814D1D649096889B2A6F828
:1030B000F612B6F8F822B6F8FCC28B1A7A68A2EBC0
:1030C0000C0C03EB0C43C6F80033A6F8F812C6F854
:1030D000FC2296F8AC1271B9B6F9A812002906DAEA
:1030E00080F0070086F8F402FDF7BAFC03E086F8EA
:1030F000F502FDF7B5FCB4F5005F05D0B4F5804FDF
:1031000002D0B4F5004F7FD106F27536307870707A
:10311000FEF702FE3070717840EAC101C9B2B170A9
:1031200098F8012019F8011012FB01F149B206F8D4
:10313000411CA6F275369BF80020092A07D0012908
:1031400030D0491C2ED0E8B3072859D05CE0411E8E
:10315000062919D2A97F01290AD002290AD00329F8
:103160000AD004290AD005290AD006290AD00FE07E
:1031700028760DE068760BE0A87609E0E87607E0AF
:10318000287705E0687703E04FF4004002F05AFE2C
:1031900096F93403002837DA98F80100404288F89D
:1031A000010031E0FDF7DCFD96F87503012814D12C
:1031B0009449096806F55F7689B226F8021C3288C0
:1031C0008B1A00E01CE0B5887A68551B03EB0543B9
:1031D000B36031807260A6F55F7696F8301399B9C6
:1031E000B6F92C13002906DA80F0070086F8780378
:1031F000FDF7F2FC08E086F87903FDF7EDFC03E04B
:103200004FF4004002F01EFE012C12D1B6F912005C
:10321000002807DDB6F8620058B1A0F10100A6F859
:10322000620006E005DAB6F8620000F10100A6F8D7
:103230006200022C26D1B6F99600002807DDB6F808
:10324000E600F8B1A0F10100A6F8E6001AE006DAFF
:10325000B6F8E60000F10100A6F8E60012E096F8E4
:10326000F400012802D0022807D00BE0B6F8E600EF
:1032700040B1401EA6F8E60004E0B6F8E600401CA7
:10328000A6F8E600042C12D1B6F91A01002807DDD1
:10329000B6F86A0158B1A0F10100A6F86A0106E08B
:1032A00005DAB6F86A0100F10100A6F86A01082CF7
:1032B00012D1B6F9B604002807DDB6F8060558B1F4
:1032C000A0F10100A6F8060506E005DAB6F8060545
:1032D00000F10100A6F80605DFF82CB1DFF82C910B
:1032E0004FF000054FF00108102C07D1DAF800006C
:1032F0000009C00708D03888401E3880DFF810A1C8
:10330000B4F5006F1ED046E0DAF800000009C007EF
:10331000F4D13888401C38803B4820300560001DBF
:1033200005600560CBF8008086F836533949087887
:10333000401C087086F8308399F80100401C89F819
:103340000100DBE7DAF81000C00AC00723D1DAF881
:103350001000C00AC0071ED12F4944F2A210086015
:103360002E4908602C482038C0F800802B482038AF
:10337000C0F80080A6F8A051A6F8245286F8AA51F9
:1033800086F82E5286F8A48186F8288299F80200E1
:10339000401C89F80200B4F5806F7CD1DAF8100087
:1033A000800AC0077DD1DAF81000800AC00778D102
:1033B0004FF080477D63BD631048012211461038ED
:1033C00000F0AEF90D4801220221103800F0A8F9F2
:1033D000B582FD633D64094801220421103800F0E4
:1033E0009FF9064801220821103819E0CAD10008C7
:1033F0000A0000204A000020DC430020100C02409C
:10340000A43C00202414004014040140410000208A
:1034100000000240070000203444014034480140CD
:1034200000F07EF9A6F898503D480560001D056043
:10343000811501223B4800F073F9012251023948FD
:1034400000F06EF9A6F81C51354808300560001DE3
:10345000056001150122334800F062F90122D10212
:10346000304800F05DF9A6F8B854C7F814802C482D
:103470002038C0F80080B57786F8A25086F826512B
:1034800086F8C25486F8188086F89C8086F82081D9
:1034900086F8BC8400E004E099F80300401C89F839
:1034A0000300B4F5007F38D1DAF81000400AC007F5
:1034B00033D1DAF81000400AC0072ED11A4942F27F
:1034C000D1000860091D08601848056018480564A7
:1034D000C0F8148014482038C0F80080CBF8008071
:1034E000A6F83C55A6F8C055A6F84456A6F8C85606
:1034F00086F8465586F8CA5586F84E5686F8D2564E
:1035000086F8408586F8C48586F8488686F8CC8695
:1035100099F80400401C89F80400BDE8F09F000001
:1035200034080040000C02403404004040040140D4
:103530000000014010B504490A68024202D0086048
:10354000FFF754FD10BD0000143C01402DE9F84F79
:103550000022DFF880A14FF003084FF00F090AF1B5
:10356000040B012595400B682B40AB4272D14C688F
:10357000012C05D0022C03D0112C01D0122C10D11B
:103580008668540008FA04F7BE43CF68A740374363
:1035900087604468AC430D79C5F300159540254319
:1035A0004560C468570008FA07F5AC438E68BE4012
:1035B0002643C6604C68022C01D0122C12D1D408CC
:1035C00000EB840CDCF820605407E40E09FA04FEDA
:1035D00026EA0E06D1F810E00EFA04FE4EEA060EB8
:1035E000CCF820E00468AC430D7905F00305BD403C
:1035F000254305604C68E40065D5374C256845F4E3
:1036000080452560246804F480440094334C22F003
:1036100003052544D5F808789407260F09FA06F41F
:10362000A7432F4CA04201D1002424E02D4CA042FE
:1036300001D101241FE02C4CA04201D102241AE048
:103640002A4CA04201D1032415E0294CA04202D10A
:10365000042410E037E0274CA04201D105240AE001
:10366000254CA04201D1062405E0244CA04201D102
:10367000072400E00824B4403C43C5F80848DAF8C1
:1036800000409C434D68ED0300D51C43CAF8004040
:10369000DBF800409C434D68AD0300D51C43CBF8DC
:1036A00000400C4D08352C689C434E68F60200D54E
:1036B0001C432C60074D0C352C689C434E68B602A9
:1036C00000D51C432C60521C102AFFF44AAFBDE801
:1036D000F88F0000003C01404438024000300140B7
:1036E000000002400004024000080240000C0240BA
:1036F000001002400014024000180240001C02406A
:103700000069084201D001207047002070474269DB
:1037100031EA020201D0816170470904816170477A
:10372000002A01D08161704709048161704700005F
:1037300001488068704700005000002070B50446C2
:10374000002C11D021684CF6CC400860216845F26D
:1037500055500860D4E9001048602168A06888606E
:10376000FFF7E6FF054608E0012070BDFFF7E0FF28
:10377000401B302801D9032070BD2068C068002894
:10378000F4D121684AF6AA200860002070BD0068C4
:103790004AF6AA21016000207047000002488168B3
:1037A00002781144816070475000002010B50B482A
:1037B000016841F400710160016841F480610160B9
:1037C000016841F480710160032000F083F800205B
:1037D00000F006F800F026F8002010BD003C024082
:1037E00070B504460D4D4FF47A712878B1FBF0F0B6
:1037F0000B490968B1FBF0F000F012FD08B101209F
:1038000070BD102C07D200222146501E00F042F855
:103810006C60002070BD012070BD000050000020D1
:103820005C00002082B00B48016841F480410160D7
:10383000006800F4804001900648001F016841F0D4
:1038400080510160006800F080500190052002B0B6
:1038500000F040B84438024000280DDB00F01F02A1
:10386000012191404009800000F1E020C0F8801162
:10387000BFF34F8FBFF36F8F7047002809DB00F055
:103880001F02012191404009800000F1E020C0F8B2
:1038900000117047F0B40D460D4B1B68C3F30223B3
:1038A000C3F10704042C00D90424191D072901D2EF
:1038B000002300E0DB1E012606FA04F1491E294020
:1038C00099409E40761E16403143F0BC07F09CBFE5
:1038D0000CED00E000F00701054A10684FF6FF0309
:1038E000184040EA01200349084310607047000077
:1038F0000CED00E00000FA052DE9F04704460D4606
:10390000002C13D0DFF82891D9F80000EFB200F0B6
:103910000F00A8420CD289F80070D9F8000000F01E
:103920000F00A84204D00120BDE8F0870120FBE78A
:103930002068404E810712D5400703D5306840F417
:10394000E05030602078000703D5306840F46040D4
:1039500030603068A16820F0F000084330602078C3
:10396000C00731D0334960680839012808D00228DF
:103970000BD0032809D0096889070BD40120D3E7AD
:103980000968890306D40120CEE70968890101D4BA
:103990000120C9E7316821F0030101433160FFF7DD
:1039A000C7FE804641F2883A07E0FFF7C1FEA0EB70
:1039B0000800504501D90320B6E73068616800F07F
:1039C0000C00B0EB810FF0D1D9F8000000F00F002F
:1039D000A84209D989F80070D9F8000000F00F005A
:1039E000A84201D001209FE72078400705D5306824
:1039F000E16820F4E050084330602078000706D5E5
:103A00003068216920F4604040EAC100306000F075
:103A10003FF83168084AC1F30311515CC8400749B7
:103A2000086007480068FFF7DBFE00207CE7000025
:103A3000003C02400838024012D200085C0000201E
:103A40005400002001480068704700005C0000201E
:103A500000B5FFF7F7FF04490968044AC1F3822162
:103A6000515CC84000BD00000838024022D2000866
:103A700000B5FFF7E7FF04490968044AC1F3423182
:103A8000515CC84000BD00000838024022D2000846
:103A900010B51748006810F00C01164816D0164BE8
:103AA000042912D0082911D1114C241F216801F0DA
:103AB0003F02216849020AD52068C0F38810A0FBA4
:103AC00003010023FCF77CFB09E0184610BD2168C8
:103AD0000023C1F38811A1FB0001FCF771FB2168F1
:103AE000C1F30141491C4900B0FBF1F010BD0000D9
:103AF000083802400024F40040787D012DE9F84F99
:103B00000446002C13D02078DFF8AC83C007A8F15E
:103B1000040556D008F104000168C1F381010129B0
:103B20000CD00068C0F38100022803D00DE0012012
:103B3000BDE8F88FD8F80000400206D52868800359
:103B40003FD5606870BB0120F2E76068B0F5803F48
:103B500010D0B0F5A02F12D0286820F48030286053
:103B6000286820F4802028606068E0B1FFF7E0FD5D
:103B7000064614E0286840F480302860F4E728689E
:103B800040F480202860286840F480302860EBE70B
:103B9000FFF7CEFD801B642801D90320C8E7286801
:103BA0008003F5D50DE0FFF7C3FD064606E0FFF7FD
:103BB000BFFD801B642801D90320B9E72868800372
:103BC000F5D42078BD4F80074FF0000948D5BA489A
:103BD000001D016811F00C0F08D00068C0F38100CF
:103BE000022813D1D8F8000040020FD428688007BB
:103BF00004D5E068012801D0012099E728682169EF
:103C000020F0F80040EAC100286029E0E068B8B17F
:103C100001203860FFF78CFD064606E0FFF788FDBF
:103C2000801B022801D9032082E728688007F5D588
:103C30002868216920F0F80040EAC10028600FE000
:103C4000C7F80090FFF774FD064606E0FFF770FD29
:103C5000801B022801D903206AE728688007F5D471
:103C60002078000729D5DFF850A2954861690AF14C
:103C7000700A89B101210160FFF75AFD064606E08E
:103C8000FFF756FD801B022801D9032050E7DAF820
:103C900000008007F4D510E0C0F80090FFF748FD61
:103CA000064606E0FFF744FD801B022801D90320E9
:103CB0003EE7DAF800008007F4D4207840076ED59C
:103CC00000267D483C300068C0000AD47A483C3069
:103CD000016841F080510160006800F08050009060
:103CE0000126DFF8E0B1DBF80000C00515D4DBF8F1
:103CF000000040F48070CBF80000FFF719FD824609
:103D000007E0FFF715FDA0EB0A00022801D9032008
:103D10000EE7DBF80000C005F3D5DFF89CB1A06822
:103D20000BF16C0B012813D0052818D0DBF800002C
:103D300020F00100CBF80000DBF8000020F00400C8
:103D4000CBF80000A06830B3FFF7F2FC82461DE01C
:103D5000DBF8000040F00100CBF80000F2E7DBF8F0
:103D6000000040F00400CBF80000DBF8000040F059
:103D70000100CBF80000E5E7FFF7DAFCA0EB0A0151
:103D800041F28830814201D90320D1E6DBF80000FE
:103D90008007F1D512E0FFF7CBFC82460AE015E080
:103DA000FFF7C6FCA0EB0A0141F28830814201D93D
:103DB0000320BDE6DBF800008007F1D4012E05D119
:103DC0003D483C30016821F080510160A069B8B3E2
:103DD0003949091D0968C1F38101022947D0022828
:103DE00005D0C7F86090FFF7A3FC04463BE0C7F896
:103DF0006090FFF79DFC064606E0FFF799FC801BEC
:103E0000022801D9032093E628688001F5D4D4E97B
:103E100007010843616AA26A4FF0FF33890103EB8F
:103E2000520241EA0241084394F82C1040EA016032
:103E3000C8F8000001203866FFF77AFC044607E066
:103E400037E0FFF775FC001B022801D903206FE65D
:103E500028688001F5D52CE0FFF76AFC001B0228DA
:103E600001D9032064E628688001F5D421E0012807
:103E70001DD0D8F80000E26900F48001914214D10D
:103E8000226A00F03F0191420FD147F6C071626A89
:103E90000140914209D1A26A00F44031914204D11B
:103EA000E16A00F07060884203D0012040E6012002
:103EB0003EE600203CE60000043802400000474295
:103EC000800E4742007000404FF0E021042804D0EB
:103ED000086920F0040008617047086940F0040098
:103EE000086170472DE9FC5FFFF722FCC00706D18F
:103EF000FCF768FFC148017841F001010170FFF74C
:103F000017FC80074FF0010819D1BC4F03243C3F38
:103F1000BB4DB87A0026DFF8EC9242F210710A2805
:103F20000DD2DFE800F00C050D0FE50C0CE8ECFD00
:103F300004F046FB38780128E6D10220B8723AE155
:103F4000BC7238E10025DFF8B492DFF8BCA2DFF8DC
:103F5000BCB209F1050905EB45100AEB8004A07F0E
:103F6000012802D0002872D095E00E2D7DD2DFE826
:103F700005F04A4A4A3232071C7C7C4A626262621D
:103F8000052005F02FF90520FDF7F4FDCAF89C0285
:103F9000FCF722FDBAF89C029D4A01B2BAF99802D8
:103FA00004F09CFAAAF8C40275E0062005F01AF99C
:103FB0000620FDF7DFFDCAF82003FCF7C9FDBAF8BB
:103FC0002003934A01B2BAF91C03383204F086FA8E
:103FD000AAF848035FE0207E48B999F90200012859
:103FE00005DAB4F91410284605F0A2FF53E099F958
:103FF0000200012805DB4FF0806001F023FFA67767
:1040000049E0A67747E0207E48B999F903000128E6
:1040100005DAB4F91410284605F08AFF3BE099F957
:104020000300012805DB4FF0006001F00BFFA677CD
:1040300031E0A6772FE0207E58B999F904000128D5
:1040400007DAB4F91410284605F072FF23E016E0F1
:104050000BE099F90400012805DB4FF0805001F0D6
:10406000F1FEA67717E0A67715E0207E08B1A677C7
:1040700011E0B4F91410284605F05AFF0BE0284669
:1040800006F030FB15B1012D03D004E08BF8006081
:1040900001E08BF801606D1CEDB20E2DFFF45BAFFB
:1040A000FFF746FB1421B0FBF1F201FB120018B937
:1040B000387808B104F08CFEFFF73AFB1E21B0FB04
:1040C000F1F201FB120030B905234FF41672012101
:1040D000062004F0DDFDFFF72BFBC821B0FBF1F259
:1040E00001FB120098BB02F0D7FD02F0EBFD62E08D
:1040F0000620B8725FE0286848BBBE725BE0F878C3
:10410000DFF810A101280DD1CAF83460CAF8386070
:10411000CAF83C600020401C80B28842FBD300E01B
:104120001BE0FE7001F0F6F999F81000032842D167
:1041300089F8106089F80060CAF83460CAF83860FD
:10414000CAF83C602888400502D4BC7202E032E024
:104150000720B87287F803802DE03879DFF8B8A01F
:1041600001280AF1040B0CD1CAF80060CBF80060FA
:104170000BF1040006600020401C80B28842FBD393
:104180003E7101F027FA99F82200032813D189F82B
:10419000226089F81260CAF80060CBF800601E48FF
:1041A000083006602888000401D4BC7201E00720B2
:1041B000B87287F80480FFF7BBFA1421B0FBF1F264
:1041C00001FB120008B904F03BF8FFF7B1FA4FF415
:1041D0007A71B0FBF1F201FB120000280BD10F48FD
:1041E000FFF7D5FA0A20CDE90080034601220146F7
:1041F000104604F043FEBDE8FC9F00003C00002098
:10420000B4000020DC430020A43C0020C0000020BB
:104210004C3B0020000001403404014000440020D9
:1042200010B5401EB0F1807F01D3012010BD4FF0CA
:10423000E02460610F21601707F0E6FA0020A0611A
:1042400007202061002010BD10B5FFF74BFE10BD08
:1042500010B5124988421FD111490868401C0860F6
:1042600010480069C00BC00716D10F494863886326
:10427000C86301224A610D4981F8B2020C4B98795A
:10428000401C987181F8AC22500701F0DBFD084812
:1042900041300178491C017010BD0000303600200B
:1042A0003C4500200010024000000140A43C0020DA
:1042B00000000020704710B590F83C20012A22D061
:1042C000012280F83C20CA6800238C6822F44072E6
:1042D00022434C6822F4806222430C6822F400627C
:1042E00022430C6922F4805222434C6922F400528A
:1042F0002243C96922F480420A4301684A6480F873
:104300003C30002010BD022010BD000070B590F8B8
:104310003C20012A31D0012680F83C60022280F83E
:104320003D2002685468936824F070050C682C43A3
:104330005460134C0268A24214D0B2F1804F11D0E5
:10434000104CA2420ED0104CA2420BD00F4CA242F5
:1043500008D00F4CA24205D00E4CA24202D00E4C07
:10436000A24204D123F080034968194391603C3094
:10437000467000210170002070BD022070BD000059
:10438000000001400004004000080040000C004014
:1043900000040140004001400018004010B50446F0
:1043A0000422206806F0C5FD2068416C41F40041FC
:1043B00041642068816801F00701062903D0016883
:1043C00041F001010160002010BD10B50446002C31
:1043D00003D094F83D0010B107E0012010BD00208B
:1043E00084F83C00204600F00DF8022084F83D00DF
:1043F000211D206806F02AFD012084F83D000020E0
:1044000010BD0000F0B587B00446142102A8FBF7E8
:1044100021FF2168664C65480023654A143C02254B
:1044200081422CD1106840F001001060106800F04B
:1044300001000190206840F010002060206800F02A
:1044400010000190A80302900395012004900593A9
:10445000069002A95748FFF779F800221146182064
:10446000FFF718FA1820FFF708FA00221146192062
:10447000FFF710FA1920FFF700FA07B0F0BD4C481B
:10448000001FB1F1804F0BD04B4EB14211D10168EA
:1044900041F002010160006800F002000190ECE7C9
:1044A000016841F001010160006800F00100019025
:1044B000E3E7424EB14208D1016841F004010160D6
:1044C000006800F004000190D7E73D4EB14208D1EA
:1044D000016841F010010160006800F010000190D7
:1044E000CBE7384EB14210D1016841F020010160A4
:1044F000006800F020000190002211463720FFF7ED
:10450000C9F93720FFF7B9F9B7E72F48814208D139
:10451000106840F002001060106800F00200019086
:10452000ABE72A4F03262A48B94221D1116841F44A
:1045300000311160116801F400310191216841F0EE
:1045400002012160216801F00201019181150291AF
:10455000039504930593069602A9FEF7F7FF002240
:1045600011461920FFF796F91920FFF786F984E71D
:10457000184FB94281D1116841F48021116011684E
:1045800001F480210191216841F00201216021683C
:1045900001F00201019179150291039504930593AD
:1045A000069602A9FEF7D2FF67E70000000001406F
:1045B000443802400010024000040040000800405F
:1045C000001000400014004000040140004401407D
:1045D00000040240004801400168CA6842F001023C
:1045E000CA600068816801F00701062903D00168EC
:1045F00041F0010101600020704770B5044694F855
:104600003C00012817D0012584F83C50022084F892
:104610003D002068826822F0770222F47F428260A7
:104620000868502831D00DDC20284DD005DCB0B30F
:1046300010284ED148E0022070BD302844D04028D8
:1046400047D137E060282BD0702806D0B0F5805FC6
:104650003FD0B0F5005F3CD10BE0CB68D1E9012140
:10466000206806F073FC2068816841F07701816062
:104670002FE0CB68D1E90121206806F067FC2068B3
:10468000816841F48041816023E0CA6849682068FC
:1046900006F03EFD5021206806F062FC19E013E0B0
:1046A000CA684968206806F085FD6021206806F028
:1046B00057FC0EE0CA684968206806F029FD4021D1
:1046C000206806F04DFC04E022680146104606F022
:1046D00047FC3C3465700020207070BD70B5044606
:1046E0000C48844214D1207F0B4D012806D10021B3
:1046F000204600F0F3FD6869401C6861207F0228B5
:1047000006D10421204600F0E9FDA869401CA861FB
:1047100070BD0000B03700200000002070B50446D6
:104720000D4694F83C00012820D0012684F83C6016
:10473000022084F83D00DAB1042A2AD0082A3AD0AF
:10474000D5E90012EB68206806F07AFD2068C1699F
:1047500021F44061C1612068C169AA6841EA02216F
:10476000C1613C3466700020207070BD022070BDB5
:10477000D5E90012EB68206806F0DCFC206881694E
:1047800021F00C01816120688169AA68114381616F
:10479000E7E7D5E90012EB68206806F01DFD206808
:1047A000816921F44061816120688169AA6841EAD8
:1047B00002218161D5E7D5E90012EB68206806F097
:1047C00026FD2068C16921F00C01C1612068C16922
:1047D000AA681143C161C4E710B50446002C03D098
:1047E00094F83D0010B107E0012010BD002084F8CE
:1047F0003C00204600F00CF8022084F83D00211D0A
:10480000206806F023FB012084F83D00002010BD45
:1048100010B586B00446142101A8FBF71BFD17490B
:104820002068884228D100211548026842F480326D
:104830000260006800F4803000901148143802686B
:1048400042F010020260006800F01000009060204A
:104850000190022002900120039004910320059012
:1048600001A90848FEF772FE002211461820FFF742
:1048700011F81820FFF701F806B010BD0040014004
:10488000443802400010024010B504460029226856
:1048900006D0042909D008290CD00C2913D10EE028
:1048A000D06840F00200D0600DE0D06840F0040015
:1048B000D06008E0D06840F00800D06003E0D06825
:1048C00040F01000D0600122206806F025FB20682F
:1048D000816801F00701062903D0016841F0010158
:1048E0000160002010BD70B50446206801694FF0DA
:1048F0000005C943890716D4C168C943890712D482
:10490000E91E01610120207720688069800703D0BB
:104910002046FFF7E3FE05E0204600F0DFF92046E1
:1049200000F084FA257720680169C943490718D443
:10493000C168C943490714D46FF004010161022022
:1049400020772068806910F4407F03D02046FFF76D
:10495000C5FE05E0204600F0C1F9204600F066FAE9
:10496000257720680169C943090717D4C168C9437D
:10497000090713D46FF00801016104202077206833
:10498000C069800703D02046FFF7A8FE05E0204657
:1049900000F0A4F9204600F049FA25772068016963
:1049A000C943C90618D4C168C943C90614D46FF0F5
:1049B00010010161082020772068C06910F4407F51
:1049C00003D02046FFF78AFE05E0204600F086F976
:1049D000204600F02BFA257720680169C943C907F2
:1049E00008D1C168C943C90704D1891E01612046A5
:1049F00000F040FA20680169C943090609D4C1687A
:104A0000C943090605D46FF0800101612046FFF714
:104A10001FFC20680169C943490609D4C168C9431C
:104A2000490605D46FF040010161204600F06CFC9E
:104A300020680169C94389060BD4C168C943890646
:104A400007D46FF0200101612046BDE87040FFF7F8
:104A500031BC70BD2DE9F04186B00446142101A897
:104A6000FBF7F8FB7C48216800247C4A02250126DC
:104A700081421DD1106840F010001060106800F0F5
:104A8000100000904FF4FE400190029503940494AE
:104A90000596734C01A92046FEF758FD6903019164
:104AA000039501A92046FEF751FD06B0BDE8F0814F
:104AB0006C4FDFF8B481B1F1804F27D06B48814251
:104AC0004BD1106840F001001060106800F0010048
:104AD0000090106840F002001060106800F00200C2
:104AE000009080200190029503940494059501A9FB
:104AF0004046FEF72BFD1320019002950394049489
:104B0000059501A93846FEF721FDCEE7106840F073
:104B100002001060106800F002000090106840F081
:104B200001001060106800F00100009040F608409D
:104B30000190029503940494059601A93846FEF766
:104B400005FD4FF4004001900295039404940596EE
:104B500001A94046FEF7FAFCA7E74548814213D178
:104B6000106840F008001060106800F00800009025
:104B70004FF470400190029503940494059501A9A7
:104B80003C48FEF7E3FC90E73B480326814237D1DF
:104B9000106840F001001060106800F00100009003
:104BA000106840F002001060106800F002000090F1
:104BB000106840F004001060106800F004000090DD
:104BC00020200190029503940494059601A9404683
:104BD000FEF7BCFCB0030190029503940494059683
:104BE00001A93846FEF7B2FC4FF4707001900295AF
:104BF00003940494059601A92048FEF7A7FC54E706
:104C00001F48814212D1106840F002001060106805
:104C100000F002000090881501900295039404941E
:104C2000059601A93846FEF791FC3EE715488142FA
:104C300092D1106840F002001060106800F002008D
:104C4000009048150190029503940494059601A9DB
:104C50003846FEF77BFC28E7000001403038024070
:104C60000010024000040240000002400004004026
:104C700000080040000C024000040140000802400F
:104C8000004401400048014070B5044694F83C00DF
:104C900001280DD0012584F83C50022084F83D0005
:104CA00042B1042A0AD0082A0CD00C2A11D10DE0F6
:104CB000022070BD206806F05BF90AE0206806F06B
:104CC0008BF906E0206806F0C1F902E0206806F0E2
:104CD000F5F93C3465700020207070BD704710B548
:104CE0000446002C03D094F83D0010B107E00120E9
:104CF00010BD002084F83C00204600F00CF8022093
:104D000084F83D00211D206806F0A0F8012084F8F9
:104D10003D00002010BD704770B504460D4694F864
:104D20003C0001280DD0012684F83C60022084F864
:104D30003D0042B1042A1AD0082A2DD00C2A53D1A2
:104D40003EE0022070BD2946206806F011F9206877
:104D5000816941F0080181612068816921F00401C5
:104D60008161206881692A69114381613CE029469B
:104D7000206806F031F92068816941F400618161A1
:104D80002068816921F480618161206881692A69D4
:104D900041EA0221816127E02946206806F056F9A0
:104DA0002068C16941F00801C1612068C16921F032
:104DB0000401C1612068C1692A691143C16113E01E
:104DC0002946206806F07AF92068C16941F400613B
:104DD000C1612068C16921F48061C1612068C16935
:104DE0002A6941EA0221C1613C34667000202070CA
:104DF00070BD10B50446002C03D094F83D0010B1EE
:104E000007E0012010BD002084F83C00204600F09F
:104E10000CF8022084F83D00211D206806F016F8E9
:104E2000012084F83D00002010BD7047704700004D
:104E300010B504460122206806F06EF80B48216880
:104E4000814202D00A48814203D1486C40F40040BC
:104E500048642068816801F00701062903D00168D1
:104E600041F001010160002010BD00000000014080
:104E7000000401402DE9F04705462DED028BF84F67
:104E80003869401C3861F7480168491C0160F648E0
:104E90000024F64E85427DD1386A401C3862B86BDA
:104EA000012803D1386A78623C62BC63F049086823
:104EB000C20707D020F0010008600122ED49EE484A
:104EC00006F0F0FB03F0C2FC01F012FF01F0BAFDA6
:104ED00001F04AFEF869401CF861E84A0021101A06
:104EE000A14100DAFC61E64BB6F85810188B401A65
:104EF00000B23084002800DA3484B6F92010B6F904
:104F00002400091A09110844B084988BB6F8DC1003
:104F1000401A00B2A6F8A400002801DAA6F8A440BE
:104F200036F9A41FB6F90400091A09110844B08023
:104F3000188CB6F8BC10401A00B2A6F88400A43E43
:104F4000002801DAA6F82841B6F92811B6F92C0193
:104F5000091A09110844A6F82C011888B6F8E411BA
:104F6000401A00B2A6F8AC01002801DAA6F8AC415C
:104F7000B6F9AC11B6F9B001091A09110844A6F83E
:104F8000B0019888B6F86812401A00B2A6F830024C
:104F9000002800E00EE101DAA6F83042B6F930123E
:104FA000B6F93402091A09110844A6F8340218891E
:104FB000B6F8EC12401A00B2A6F8B402002801DAE2
:104FC000A6F8B442B6F9B412B6F9B802091A091132
:104FD000084401B2A6F8B812188AB6F87023801AED
:104FE00000B2A6F83803002801DAA6F83843B6F96B
:104FF0003823B6F93C03121A1211104402B2A6F873
:105000003C239889A6F83A03988CB6F8FCC4A0EB28
:105010000C0000B2A6F8C404002801DAA6F8C444C3
:10502000B6F9C484B6F9C8C43046A8EB0C084FEAF8
:105030002818C444A0F8C8C400EE101AB8EEC00A7C
:10504000DFED900AD0EDAF1A20EE200A9FED8E1A08
:1050500001EE810A80EDB00A01EE902AF8EEE11A25
:1050600061EEA00AD0EDD01A41EE810AC0EDD10A5E
:1050700080EDAF0AC0EDD00ABDEEC00A10EE100AF6
:10508000B881BDEEE00A10EE100AF881188D7F4A53
:1050900080B21080D188401A00110844D08038694D
:1050A00047F23051884203D9B87A08B906F09CFA21
:1050B000B87A03287ED1B6F99802DFF8D491DFF8E8
:1050C000D4A1002803DAB6F9A812002928DC0028A8
:1050D00003DDB6F9A812002922DB08B3D6F89C023A
:1050E000002805DA96EDB00AB1EE400A86EDB00A66
:1050F00096EDB00A674ABDEEC00A10EE100A01B282
:10510000B6F9C40203F0EAF9A6F8A80296F8B202CA
:10511000DFF84C81012808F1410808D010B324E0E1
:10512000C9F81440CAF81440A6F8A842EEE796F869
:10513000AC0248B998F90000012805DAB6F9A812BE
:10514000052004F0F5FE10E098F90000012806DBC8
:1051500086F8B2424FF0005000F074FE05E086F889
:10516000B24202E0052005F0BDFAB6F91C030028A2
:1051700003DAB6F92C13002927DC002803DDB6F981
:105180002C13002921DB00B3D6F82003002805DA10
:1051900096EDD10AB1EE400A86EDD10A96EDD10A1C
:1051A0003C4ABDEEC00A383210EE100A01B2B6F920
:1051B000480300E02EE003F091F9A6F82C0396F8DE
:1051C0003603012808D010B324E0C9F84C40CAF8CF
:1051D0004C40A6F82C43F2E796F8300348B998F90A
:1051E0000100012805DAB6F92C13062004F0A0FE10
:1051F00010E098F90100012806DB86F836434FF0ED
:10520000804000F01FFE05E086F8364302E00620ED
:1052100005F068FA2048854252D120490868401CB0
:10522000086080074CD196F83E049FED1D8B012845
:1052300006D17869052808DC38B1C6F828447C61B5
:1052400096F8BA0301282FD03AE0FBF78DF853EC1B
:10525000182BFBF717F8FBF798F8C6F82804EEE7C9
:10526000000000203C45002030360020A43C0020F7
:105270003C010020E84500203403002000286BEEAC
:10528000B03800200AD7A33B52B87E3F103B002025
:105290004C3B0020BC3B0020303700204C0000205D
:1052A0005C8FC2F5289C6C40B869FBF75DF853EC45
:1052B000182BFAF7E7FFFBF768F8C6F8A403BC6100
:1052C0000548854204D1A0F51D708188491C818064
:1052D000BDEC028BBDE8F087B0370020024600200D
:1052E000002908D0042909D008290AD00C2901D1A5
:1052F0001068006C70471068406B70471068806BD6
:1053000070471068C06B7047704770B50446002C3A
:1053100004D094F83900002510B106E0012070BDDA
:1053200084F83850204600F023F8242084F839000F
:105330002068C16821F40051C160204606F002F8DF
:105340002068016921F4904101612068416921F0E0
:105350002A0141612068C16841F40051C160E563E0
:10536000202084F8390084F83A00002070BD000045
:1053700010B586B00446142101A8FAF76BFF18494E
:105380002068884229D100211648026842F4802210
:105390000260006800F48020009012481038026813
:1053A00042F004020260006800F0040000904FF434
:1053B0004060019002200290039103200490072096
:1053C000059001A90848FEF7C1F8002211462720E0
:1053D000FEF760FA2720FEF750FA06B010BD000075
:1053E00000480040403802400008024090F83A303F
:1053F000202B01D002207047F9B1F2B190F838307B
:10540000012B1CD081628285C2850021C1632222CA
:1054100080F83A2080F838100168CA6842F4807237
:10542000CA6001684A6942F001024A610068C168C5
:1054300041F02001C1600020704701207047022028
:1054400070472DE9F84304460D4690461E4694F8F1
:105450003900202802D00220BDE8F883D5B1B8F188
:10546000000F17D094F83800012815D0012084F8D7
:1054700038004FF00009C4F83C90212084F839002E
:10548000FEF756F90746A4F82480A4F8268084F88D
:1054900038902DE00120DFE70220DDE7E08C401EA0
:1054A000E084A068B0F5805F09D03B4600228021EF
:1054B0002046009606F036F8B0B10320CCE73B4614
:1054C000002280212046009606F02CF808B1032027
:1054D000C2E728882168C0F308004860206908B145
:1054E0006D1C05E0AD1C03E0216815F8010B486058
:1054F000E08C0028D2D13B46002240212046009675
:1055000006F010F808B10320A6E7202084F839003F
:105510000020A1E770B52D4C207C002806D0032583
:10552000012839D0022800D1257470BD22780123CA
:105530000C2A2FD200206188491C89B26180A5887D
:10554000A942F2D900216180217B491CC9B2217393
:10555000062900D92373217B012900D106200229C5
:1055600000D10420032900D10520042900D1012005
:10557000052900D10320062900D10220521C2270E7
:10558000134AB4F90E1051639163D163BDE87040C2
:10559000FCF772BB237470BDA079E179884211D009
:1055A000207A81420ED0617A88420BD0A07A814263
:1055B00008D0E17A884205D04FF4806000F030FCDA
:1055C000257470BD0220207470BD0000DC430020F3
:1055D0000000014070B5314C94F8221000290BD026
:1055E00003254FF4004001293ED0022903D100F0E9
:1055F00029FC84F8225070BDA27C01230C2A30D2F1
:105600000020A18A491C89B2A182E58AA942F2D967
:105610000021A182A17F491CC9B2A177062900D926
:10562000A377A17F012900D10620022900D10420FF
:10563000032900D10520042900D10120052900D12A
:105640000320062900D10220521CA274FCF738FB6B
:105650001349B4F920000860091D0860091D08609D
:1056600070BD84F8223070BD217E627E914210D0E0
:10567000A17E8A420DD0E27E91420AD0217F8A42E9
:1056800007D0627F914204D000F0CAFB84F8225018
:1056900070BD022084F8220070BD0000DC430020B1
:1056A00034040140FEE710B5029C0172427283721D
:1056B000C472090601EB024101EB03212144C160E0
:1056C00010BD000070B52D4E0025012496F9000094
:1056D0002B4B012806DB600700F0B4FB83F8AC42DB
:1056E00083F8B25296F90100012807DB4FF08040A1
:1056F00000F0A8FB83F8304383F8365396F9020094
:1057000001280BDB4FF0806000F09CFB83F8AA516E
:1057100083F8A44183F82E5283F8284296F90300B7
:10572000012811DB4FF0006000F08CFB9D7783F8BF
:10573000A25083F8265183F8C2541C7683F89C400B
:1057400083F8204183F8BC4496F90400012813DB58
:105750004FF0805000F076FB83F8465583F8CA5529
:1057600083F84E5683F8D25683F8404583F8C445F3
:1057700083F8484683F8CC4670BD00004100002005
:10578000A43C00202DE9F04188B00546087800F0DF
:105790007F06C8684FF00008022814D0087D00F08A
:1057A0007F04AF1997F83800A04206D06B6C2246F0
:1057B00031462846984787F8384097F838000F2830
:1057C00020D000243BE02878B0421BD100F5E060F7
:1057D000019001210591CDF81080287B8DF81800EB
:1057E000194A937A33B140F080008DF8180082F89E
:1057F0000A8000E09172009106AB0021049A0198A2
:10580000FBF764FB08B0BDE8F081286B50F824007A
:10581000C0F307418E4210D187B2686B30F9140093
:10582000FBF70AFE3B46094A21462846CDF8008090
:1058300004F03AFB696B21F81400641CE4B2E86AD6
:105840000078A042E1D8DDE7C83400207F110008CD
:105850002DE9F047CC48C8258581458240F6CE0128
:10586000C18140F2E9310181C84CC2202080400052
:10587000608040F24620A0804FF44270E080658254
:1058800047F23050A08242F21070E0822583C2209D
:10589000A4F884004000A4F8860040F24620A4F852
:1058A00088004FF44270A4F88A00A4F8965047F29A
:1058B0003050A4F8980042F21070A4F89A00A4F8AE
:1058C0009C50C220A4F80801A4F80A014000A4F8E2
:1058D0000C0140F24620A4F80E01A4F81A5144F637
:1058E0002060A4F81C014FF4FA50A4F81E01001126
:1058F000A4F8200140F24620A4F8A4044FF442701A
:10590000A4F8A60440F2CA30A4F8A80440F28C40DF
:10591000A4F8AA04A4F8B6541420A4F8B8040820E3
:10592000A4F8BA040520A4F8BC0440F2F730A4F8A7
:105930008C014FF49160A4F88E0140F21951A4F843
:10594000901140F2AA51A4F89211A4F89E5114218A
:10595000A4F8A0110821A4F8A2110521A4F8A4110B
:1059600040F2F731A4F81012A4F8120240F21951D3
:10597000A4F8141240F2AA51A4F81612A4F8225264
:105980001421A4F824120821A4F826120521A4F851
:105990002812A4F894024FF4CB61A4F89612A4F84C
:1059A0009812A4F89A121E2184F8921241F28836B5
:1059B000A4F8A662A4F8A8522821A4F8AA121421D7
:1059C000A4F8AC124FF00409A4F874920521A4F8CD
:1059D0006A12A4F86C124FF44B71A4F8181340F239
:1059E0001441A4F81A13A4F81C0340F2FC40A4F8D4
:1059F0001E03142084F81603A4F82A6347F23050DB
:105A0000A4F82C037000A4F82E034FF4FA60A4F855
:105A10003003A4F8F8920520A4F8EE02A4F8F002EE
:105A20005B495C4802F0FEFC59495A48383138302D
:105A300002F0F8FC584802F031FD142024F82A0C3A
:105A400024F8280C022704F8197C7000A0853C205B
:105A5000A4F85A00A4F85C0084F86B707000A4F8F5
:105A6000B0006420A4F8DE00A4F8E00084F8EF7031
:105A70007000A4F834014FF00308A4F86281A4F880
:105A80006481A4F8E681A4F8E8810A20A4F87203EE
:105A9000A4F87403A4F8F603A4F8F803A4F87A04AD
:105AA000A4F87C0484F88B747100A4F8D014A4F8D2
:105AB0003A65A4F83C551421A4F83E150521A4F834
:105AC0004015A4F8FE04A4F80005A4F8BE65A4F8E7
:105AD000C0551421A4F8C2150521A4F8C415A4F8D2
