:020000040802F0
:1000000000DD00209D010208A50102080D5B020829
:10001000A9010208AB010208AD01020800000000BE
:10002000000000000000000000000000AF01020816
:10003000B101020800000000B3010208C5CF0208A8
:10004000B7010208B7010208B7010208B7010208A8
:10005000B7010208B70102085D230208B7010208D0
:10006000B7010208B7010208B7010208B701020888
:10007000B7010208B7010208B7010208B701020878
:10008000B7010208B7010208050A0208B701020811
:10009000B7010208B7010208B7010208F1230208FC
:1000A0001DDB020869DB0208B7010208B70102087C
:1000B0008DDB0208B7010208B9DB0208B7010208AC
:1000C000B7010208B7010208B7010208B701020828
:1000D000B7010208B7010208B7010208D5FB020800
:1000E000C1230208B7010208B70102089DDD02081A
:1000F000E9DD0208B7010208B7010208B7010208EA
:10010000B7010208B7010208B7010208B7010208E7
:10011000B7010208B701020815DD0208B70102089D
:10012000B7010208B7010208B7010208B7010208C7
:10013000B7010208B7010208B7010208B7010208B7
:10014000F9100208B7010208B7010208B701020856
:10015000B7010208B7010208B7010208B701020897
:10016000B7010208B7010208B7010208B701020887
:10017000B7010208B7010208B70102080000000039
:10018000B7010208B7010208DFF80CD000F09CFBB1
:10019000004800476D24030800DD00200648804722
:1001A00006480047FEE7FEE7FEE7FEE7FEE7FEE75C
:1001B000FEE7FEE7FEE7FEE781D1020889010208BB
:1001C00040EA01039B0703D009E008C9121F08C0D9
:1001D000042AFAD203E011F8013B00F8013B521E59
:1001E000F9D2704730B504460020034600E05B1C9E
:1001F000934203D2E05CCD5C401BF8D030BD704729
:1002000053303241313100002DE9F05F05460020C6
:1002100092469B4688460646814640241BE0284677
:1002200041464746224600F060FA53465A46C01AF5
:10023000914110D311461846224600F047FA2D1A74
:1002400067EB01084F4622460120002100F03EFAEC
:1002500017EB00094E41201EA4F10104DFDC4846E3
:1002600031462A464346BDE8F09FD2B201E000F88D
:10027000012B491EFBD270470022F6E710B513464A
:100280000A4604461946FFF7F0FF204610BD70B538
:10029000064611F0D9FB046805460A2200213046C3
:1002A00000F045FA2C6070BD2DE9FE4F804681EAD2
:1002B0000300C00F0C46009021F0004123F00045E0
:1002C000B8EB0200A94105D24046214690461C46A3
:1002D0000B46024623F00040104347D0270DC7F3DA
:1002E0000A00C3F30A510290401A019040286BDAC9
:1002F000C3F3130040F4801B0098924620B1002302
:10030000D2EB030A63EB0B0B01985946C0F1400294
:10031000504600F0DBF906460D4650465946019A14
:1003200000F0F3F910EB08006141002487EA115254
:1003300084EAE7731A4340D0009A62B3019A012A13
:100340004FEA075215DC001B61EB02014FF000423F
:1003500002EA0752CDE90042001C41F58011324605
:100360002B4600F062FA03B0BDE8F08F404621460C
:10037000F9E7001B61EB0201001C41F58013001836
:100380005B412018A2F5001747EB030140EAD57046
:10039000B6196D4111E06D084FEA360645EAC075A1
:1003A0004FEA0752001B61EB0201001C41F580116E
:1003B00049084FEA30000019514132462B4603B03C
:1003C000BDE8F04F00F022BA00980122400000235F
:1003D000D0EB020263EBE073009821464FEAE07431
:1003E000B8EB000061EB0401E9E783F000435BE751
:1003F00081F0004158E72DE9FE4F81EA030404F043
:10040000004421F0004100944FF0000B23F0004322
:1004100050EA01045ED052EA03045BD0C3F30A54ED
:10042000C1F30A552C44A4F2F3340194A0FB025406
:10043000C1F3130141F48011C3F3130343F4801398
:1004400001FB024400FB034E840A970A44EA8154EC
:1004500047EA8357A4FB076802958D0A05FB0785C9
:100460004FEA932C04FB0C542705029D4FEA0658D3
:1004700047EA1637B5EB08056EEB070C870E920EB0
:1004800047EA811742EA8312A7FB0201B6EB0B0190
:1004900064EB00042B0D43EA0C335E1844EB1C5054
:1004A000DA465146E7FB0201C5F313044FEA0B336A
:1004B00043EA14534FEA0432019C43EA0603A4F1D1
:1004C0000C040294009CCDE900B400F0AEF903B036
:1004D000BDE8F08F00200146F9E72DE9F04D81EAF3
:1004E000030404F0004B21F0004514464FF0000ACD
:1004F00023F0004150EA050220D054EA01021DD049
:10050000C5F30A570246C5F31303C1F31300C1F341
:100510000A5640F4801543F48013A7EB0608101B1D
:10052000D64608F2FD3873EB050002D308F1010846
:1005300001E092185B41B8F1000F03DA0020014698
:10054000BDE8F08D00204FF48011064684460EE091
:10055000171B73EB050705D3121B63EB050306435B
:100560004CEA010C49084FEA300092185B4150EA0E
:100570000107EDD152EA030012D082EA040083EAB7
:100580000501084305D0101BAB4106D20122002310
:1005900006E000224FF0004302E06FF0010253102A
:1005A0001AEB06004CEB085110EB0A0041EB0B0173
:1005B000BDE8F04D00F02AB90EB5C10F80EAE07039
:1005C0000844CA07002140F233438DE80E000A4672
:1005D0000B4600F02AF903B000BD0EB540F23341DE
:1005E00002910021CDE900110A460B4600F01DF9E9
:1005F00003B000BD70B5C1F30A5201F000450024FC
:10060000C1F3130140F2FF3341F480119A4201DA41
:10061000002070BD40F233439A42A2F2334203DC21
:10062000524200F062F800E090402C43F1D040428A
:1006300070BD000030B5041E71F1000404DB4FF002
:100640000044404264EB0101141E73F1000405DB19
:100650001C464FF00043524263EB04038B4208BF39
:10066000824230BD30B5041E71F1000404DB4FF04E
:100670000044404264EB0101141E73F1000405DBE9
:100680001C464FF00043524263EB0403994208BFFB
:10069000904230BD01F0004330B421F0004150EAF7
:1006A000010206D00A0DA2F56072C1F31301002AFF
:1006B00002DC30BC00207047440F44EAC104C10092
:1006C000E01830BC00EBC25000F069B8202A04DB0F
:1006D000203A00FA02F1002070479140C2F1200355
:1006E00020FA03F3194390407047202A04DB203A94
:1006F00021FA02F00021704721FA02F3D040C2F142
:1007000020029140084319467047202A06DBCB1788
:10071000203A41FA02F043EAE07306E041FA02F3BC
:10072000D040C2F1200291400843194670472DE99C
:10073000F04791460F4680460446002614F8015BB8
:100740002DB100F0D3F80068405DC007F6D12B2D25
:1007500002D02D2D18D0641E4A463946204600F09E
:10076000C9F827B13968A14201D1C7F800807105E5
:100770004FF002040BD54042002803DD11F064F96C
:100780000460A007BDE8F08746F48066E4E700282F
:10079000F8DA11F059F904606FF00040F2E700292F
:1007A000A8BF7047401C490008BF20F001007047F7
:1007B00010B4B0FA80FC00FA0CF050EA010404BF57
:1007C00010BC704749B1CCF1200421FA04F411FAAD
:1007D0000CF118BF012121430843A3EB0C01CB1DF1
:1007E0004FEA00614FEA102042BF002010BC704762
:1007F00000EBC35010440029A4BF10BC7047401C3C
:10080000490008BF20F0010010BC704710B5141E4D
:1008100073F1000408DA401C41F1000192185B41B9
:100820001A4301D120F0010010BD2DE9F04D924690
:100830009B4611B1B1FA81F202E0B0FA80F22032A7
:100840009046FFF743FF04460F4640EA0A0041EA9C
:100850000B0153465A46084313D0114653EA010090
:1008600019D0C8F140025046FFF73FFF05460E463B
:10087000504659464246FFF729FF084305D001205C
:1008800004E020463946BDE8F08D0020054346EAE5
:10089000E0762C4337430A986305E40AA0EB08008E
:1008A0000022FD0A44EA47540A3002D500200146DE
:1008B000E9E7010510196941DDE9084500196941B9
:1008C000BDE8F04DA2E70000064C074D06E0E068E9
:1008D00040F0010394E8070098471034AC42F6D387
:1008E000FFF756FCEC4A03080C4B0308004870471E
:1008F000E84A03082DE9F05F824600780027154694
:100900008B460AF10104B946302801D09DB113E0AD
:1009100014F8010B0127782803D0582801D045B1DD
:100920000AE00DB1102D07D10027102514F8010B96
:1009300002E0082500E00A250026B0460EE005FB8F
:10094000080005FB06F1012701EB10461FFA80F8AD
:10095000B6F5803F00D3B94614F8010B294600F0E4
:1009600018F80028EBDABBF1000F05D00FB1641EB8
:1009700000E05446CBF80040B9F1000F06D011F06A
:1009800063F802210160C81EBDE8F09F48EA0640F6
:10099000FAE73A2800D2303820F02002412A01D369
:1009A000A2F13700884201D34FF0FF30704770B595
:1009B0008C1810F8015B15F0070301D110F8013B0A
:1009C0002A1106D110F8012B03E010F8016B01F891
:1009D000016B5B1EF9D12B0705D40023521E0DD4E9
:1009E00001F8013BFAE710F8013BCB1A921C03E037
:1009F00013F8015B01F8015B521EF9D5A142D8D36F
:100A0000002070BD10B514480168C1F380010029B1
:100A100006D0016821F00C0101600DF0EFFB07E04A
:100A2000D0F8001221F00C01C0F800120DF0E6FB26
:100A30000A480168491C01600949086810F0010F63
:100A400009D020F001000860BDE8104001220549EE
:100A5000054810F03BBF10BD0020014018D3002016
:100A60002C120020C4D30020281400204A494A68D0
:100A700022F440324A604A6843681A434A60016877
:100A80004A6822F480724A6001684A68036942EA4F
:100A900003224A6001684A6822F040724A60016895
:100AA0004A6883681A434A6001688A6822F40062CF
:100AB0008A6001688A68C3681A438A60816A6FF035
:100AC0007062D14214D001688A6822F070628A6034
:100AD00001688A68836A1A438A6001688A6822F01A
:100AE00040528A6001688A68C36A1A438A6009E0D2
:100AF00001688A6822F070628A6001688A6822F060
:100B000040528A6001688A6822F002028A600168A5
:100B10008A68037E42EA43028A6090F8201089B115
:100B200001684A6842F400624A6001684A6822F437
:100B300060424A6001684A68436A5B1E42EA433287
:100B40004A6004E001684A6822F400624A60016871
:100B5000CA6A22F47002CA620168CA6A838B5B1E89
:100B600042EA0352CA6201688A6822F400728A600B
:100B700001688A6890F8303042EA43228A6001684E
:100B80008A6822F480628A6001688A68406942EA61
:100B90008020886070470000002301402DE9F001AB
:100BA0001B4B4FF0000CA3F80AC01A4C6FF4005511
:100BB00040F6FE765A89C2EBC20004EB8000B0F921
:100BC00002102944B1421AD2017911F0080F13D052
:100BD000A3F80CC0B0F90810002910DD9989D0F8ED
:100BE0001880476948F82170491C89B29981B0F989
:100BF00008708F42F2DC02E0416980690160501C9C
:100C000080B25881A028D5D3BDE8F001704700001C
:100C100004120020A43803082DE9F04702461046CC
:100C200001F0BCFF0646121D2F4F4FF0000AA7F837
:100C300004A0002E0CDD104601F0B0FF0346B8887A
:100C400041F82030121D401C80B2B880B042F2DB67
:100C5000A7F804A0DFF89490A7F808A0002E37DDCD
:100C6000B888C0EBC00809EB8802388939F928C078
:100C700051F82030634526D101EB800CB2F90240D7
:100C8000DCF80430A3421ED1A7F806A0DCF80C3033
:100C9000002B18DDFB88D5680CEB83042469AC427B
:100CA00006DB1569AC4203DC956945F8234003E097
:100CB0009569546945F823405B1C9BB2FB80DCF8C6
:100CC0000C409C42E6DC401C80B23881B042CCDB58
:100CD000B888401C80B2B880A028BDD3C1F800A05D
:100CE0000020BDE8F087000004120020A4380308AB
:100CF0002DE9F04F87B005460C4600270197664E58
:100D0000376177613780DFF894B13088C0EBC0017C
:100D10000BEB81010A7912F0100F05D03269B1F99D
:100D20000810121D11443161401C80B23080A0288F
:100D3000EBD3306900F10109C6F81090A9F1010068
:100D40002060DFF85CA1CAF81490781C70613780CD
:100D5000B6F80080C8EBC8000BEB80010A7912F0EE
:100D6000100F32D03BF92020706944F8202004EBAA
:100D70008002B1F9023053600B79C3F340139360E2
:100D8000B1F90830D360001D70617780B1F9082097
:100D9000002A16DD72888B69D1F80CC053F8223016
:100DA000634507DBD1F810C0634503DC04EB800C1E
:100DB0004CF82230521C92B27280B1F90830934242
:100DC000E8DCB1F908100844706108F1010080B254
:100DD0003080A028BCD37069814503D007B00120C2
:100DE000BDE8F08FB5F1006F02D315F0030F03D00B
:100DF00007B00120BDE8F08F03F0A2F8A8463069E3
:100E000005EB800627484546804525D2B04523D2CC
:100E10004FF001094FF0020B404601F0BFFEB0F168
:100E2000FF3F11D00297404601F064FE0490CDF8D8
:100E30001490CDF818B001A902A802F0E1FF28B182
:100E400019A010F0F1FD07E008F104084FF47A70E2
:100E500001F082FCB045DFD34FF47A7001F07CFCE6
:100E600090B9B54210D222682946D317022003F068
:100E700027F828B1DAF82C00401CCAF82C0003E04F
:100E80002D1D241DB542EED303F010F8276007B0E6
:100E90000020BDE8F08F000004120020A4380308F1
:100EA0000CC800200000FF1F466C6173685F45722C
:100EB000617365206572726F720D0A00406A4FF0AF
:100EC000FF33401C03EB800000EE100AF8EE400AEE
:100ED000C1ED000A9069D1ED091A00EB400200EE65
:100EE000102A91ED0C1A91ED0B2AF8EEC03AD1EDD3
:100EF0000D2A91ED013A91ED020AF4EEE30AF1EECA
:100F000010FA26DD03EE900AF8EEE33AB4EEE33A87
:100F1000F1EE10FA1DD2800003EE100AB8EEC33ACB
:100F200030EE030AF8EEE11A30EEC03A63EE211A11
:100F3000C1ED0A1AB8EEC22A02EE031A81ED0C1AAC
:100F400031EE811A81ED041A01EE220A81ED020AC6
:100F500045E003EE902AF8EEE33AB4EEE33AF1EE20
:100F600010FA26DD03EE100AB8EEC33AF4EEC30A17
:100F7000F1EE10FA1DD2800003EE100AB8EEC33A6B
:100F800030EE430AF8EEE11A30EEC03A63EE211A71
:100F9000C1ED0A1AB8EEC22A02EE031A81ED0C1A4C
:100FA00031EE811A81ED041A01EE220A81ED020A66
:100FB00015E030EEC03AF8EEE11A63EE211AC1ED09
:100FC0000A1AB8EEC22A02EE031A81ED0C1A31EEAB
:100FD000811A81ED041A01EE220A81ED020A91EDD7
:100FE000040AD1ED081A80EE211A81ED071AD1ED1D
:100FF000031A91ED060AB7EE002A21EE800A72EE7E
:10100000611A01EE210A81ED060A81ED050AC1EDA2
:10101000010A704718484FF4FA72C2650021416610
:101020009FED160A80ED1B0ADFED150AC0ED110ACF
:101030009FED141A80ED161ADFED131AC0ED141A85
:10104000C0ED061A4262C16280ED0D0AC0ED030ACE
:1010500080ED081A0D49496A4FF0FF32491C02EB36
:10106000810100EE101AB8EE400A80ED000A80ED12
:10107000010A80ED020A70475C40002017B7D138A2
:10108000CDCCCC3D33B3DA42000000000008004074
:1010900010B504460023F7EE000A30EE601A9FED0B
:1010A000150AB4EEC01AF1EE10FA22DDFCEEC11AF8
:1010B00011EE902A9A4212D9501E04EB800004EBE4
:1010C000820190ED000AD1ED000AB4EEE00AF1EEE3
:1010D00010FA01DD11F03AFE521E9A42ECD85B1C68
:1010E00000EE103AB8EE400AB4EEC01AF1EE10FA73
:1010F000DEDC10BD00000000014802F07BB90000FA
:1011000090D5002070B5049C4FF0000C1A4D2E6B4A
:1011100030602E6B40F6FF707060286B8160286B2A
:10112000C260286B0461002C0BD9296B0CF11402EE
:1011300013F80C0088540CF101001FFA80FCA44540
:10114000F3D3002401E0601C84B264210A4802F059
:1011500027FC08B1032CF6D32A6B08482F23126909
:10116000416803EBC20211444160032C01D000200E
:1011700070BD012070BD000090D5002018D3002064
:1011800010B500297FD0826B4FF4D873D0F800C01F
:1011900003EB01135CF803C00CF0040CC2F808C0A8
:1011A000BCF1000F71D0D0F800C05CF803C04FEA6A
:1011B000DC0CC2F804C0D0F800C05CF8033003F0C7
:1011C0000203D3604FF4DA73D0F800C003EB0113CD
:1011D0005CF803C00CF00F0CC2F810C01162D0F81C
:1011E00000C05CF80330C3F30723D3614FF4DC7312
:1011F000D0F800C003EB01135CF803C082F814C000
:10120000D0F800C05CF803C04FEA1C2C82F815C06F
:10121000D0F800C05CF803C04FEA1C4C82F816C03E
:10122000D0F800C05CF803301B0ED3754FF4DE73AA
:10123000D0F800C003EB01135CF803C082F818C0BB
:10124000D0F800C05CF803C04FEA1C2C82F819C02B
:10125000D0F800C05CF803C04FEA1C4C82F81AC0FA
:10126000D0F800C05CF803301B0ED3762022A9B161
:1012700003681A6190F83C20222A12D0322A10D03A
:1012800014E000E001E0426B7EE7D0F800C05CF8BB
:1012900003C04FEA5C5CC2F800C08CE70368DA6008
:1012A000E8E70268536923F40F43536112230122D4
:1012B00069B190F83C1052291FD0622920D07229C0
:1012C00022D080F83C2002F03DFB002010BD90F8B9
:1012D0003C10422906D0622907D0722909D080F833
:1012E0003C20F0E780F83C30EDE7322180F83C10FC
:1012F000E9E7522180F83C10E5E780F83C30E2E76E
:10130000222180F83C10DEE7422180F83C10DAE729
:1013100010B501684A6922F001024A6190F83C1058
:10132000122904D101684A6922F40F424A6190F8F7
:101330003C1042290AD052290CD072290ED001212A
:1013400080F83C1002F04AFC002010BD222180F8F9
:101350003C10F7E7322180F83C10F3E7622180F877
:101360003C10EFE730B583B005461F4C5520207088
:10137000662060708820A0709920E0701B48E060B3
:101380001B481121017022214170332181704421B9
:10139000C17000210120174A029102F1500300920E
:1013A00001904103022204F1B40010F0C7FD21793D
:1013B00004F1B4000BF008FC0F20A860A06968607D
:1013C000002128460BF0A4FC052128460BF0A0FCC8
:1013D000042128460BF09CFC03B02846BDE83040B1
:1013E00000210BF095BC000074130020443322113F
:1013F000E4D2002094D2002030B504460D462946A0
:10140000204610F0A1FE615DB1EB102F06D16119ED
:10141000C0B24978884201D1012030BD002030BDE2
:1014200030B504460D462946204610F08DFE010ACF
:10143000615561194870012030BD000030B4204A68
:101440000023204C01EB41054FF0010C02EB05128B
:10145000092832D2DFE800F031050D15181B232BC7
:101460002E0053609361136104F801C030BC012069
:10147000704753609361136104F801C030BC0120D0
:10148000704730BC0020704730BC0020704753606C
:101490009361136104F801C030BC012070475360B0
:1014A0009361136104F801C030BC0120704730BC67
:1014B0000020704730BC0020704730BC00207047CF
:1014C000B4C60020483D00200FB482B0059B049AAA
:1014D00001930092049A059B524303FB03220B885D
:1014E0005B43934217D2120E91F8B230D21AD2B2A5
:1014F00001EB42018A8804995143CB1701EB534118
:10150000C91309B2009105995143CA1701EB524121
:10151000C91309B20191019A00994260016006B0B5
:1015200070470000024800210180418070470000A0
:1015300026100020026B52F82120C2F30742D0F897
:1015400034C04FF0FF332CF811300121831883F899
:101550003810036C114618472DE9F007DDF820C05C
:10156000099E079C002849D0FF27ACEB0205EDB28D
:10157000002D04D091F8008008FA05F500E00D7800
:1015800005F0FF0802D0CCF1080501E0C2F1080522
:10159000EDB2854200D905460CEB0509CCF1080CEB
:1015A00007FA09FA27FA0CFC4AEA0C0C28EA0C089C
:1015B00094F800A00AEA0C0C4CEA080C84F800C06D
:1015C0002A44D2B2072A07D9002213B14FF0FF3CB8
:1015D00001E04FF0010C614409F0FF0CBCF1070F72
:1015E00008D94FF0000C16B14FF0FF3801E04FF072
:1015F00001084444401BC0B20028B6D1BDE8F00742
:101600007047000001680A4BCAB2103AA3FB0232CD
:101610001209084B9B5CC365032A04D96FF30901C7
:10162000091D816502E06FF309018165806D7047D6
:10163000ABAAAAAA04310308014600208A6A8B6972
:10164000002B0FD0B3F5005F1DD08AB3012A30D034
:10165000022A2ED0032A04D1C96A11F0807F00D05B
:10166000012070471AB1012A07D0022AF9D1C96AAC
:1016700011F0807FF5D001207047C96AB1F1C07FB9
:10168000FAD1012070475AB1012A0BD0022A07D0A3
:10169000032AF7D1C96AB1F1C07FF3D101207047A5
:1016A00001207047C96A11F0807FFAD0012070478D
:1016B000FFE70120704710B4D0F800C0DCF800400C
:1016C00024F48024CCF80040D0F800C0CCF80430DA
:1016D0008368402B05D0036899600068C26010BC25
:1016E000704703689A600068C16010BC704790F84A
:1016F0000AC003894268012905D0BCF1010F0AD054
:10170000936101707047BCF1010F02D01B0493611B
:10171000F7E79361F5E71B049361F2E730B41749EB
:10172000C86D002807D0164A1278012A03D110F09C
:10173000040F00D14A71002200B94A714879114B57
:10174000114C012810D1DFF844C09CF80050062D40
:101750000AD09CF80CC0BCF1060F05D05A6022607C
:101760000220487130BC70470028FBD14FF428504C
:10177000586020600320487130BC7047F010002092
:10178000303D0020000001400404014014430020CB
:101790002DE9F04F0446002704EB4406DFF8B08142
:1017A0006C48DFF8B4B100EB061318F826106B484C
:1017B000B9460BF1480500EB8412062934D158686C
:1017C00088B3D06910F024FE8246654850F82400A2
:1017D000B0F91800401E10F01BFE824524DD506950
:1017E00010F0C6FD642808DA9868322805DA35F862
:1017F0001400401C25F8140005E035F8140010B161
:10180000401E25F814005749DBF84C00A1FB0010DE
:1018100035F81410C0F34F0088420BD24FF4003754
:1018200025F8149006E0FFE735F8140010B1401ECB
:1018300025F81400DFF830C118F826004B4904EBF6
:101840004405ACF1340A01EB85050CEB840806284D
:101850006ED15868002800DA4042642868DD3AF802
:101860001400401C80B22AF81400DBF84C30984277
:101870003AD90020DFF8F8B055F8201000EE101A21
:101880000BEB8001B8EEC00A81ED000A401CC0B22B
:101890000328F1D3B0EE080A3548FFF7F9FBDBED7A
:1018A000020A9BED000A30EEC01A81EE200A88ED94
:1018B000000A10EE100A2F4988420BDD4FF4003762
:1018C0002A4840F82690C5F80490C5F808902AF8F0
:1018D000149039E0254840F82690C5F80490C5F8E2
:1018E00008902AF814902FE01068002805DD51F8C0
:1018F0002630034441F8263004E051F826301B1A04
:1019000041F826305168002903DD6A680A446A609C
:1019100002E06A68521A6A6008444142002903DD05
:10192000A968081AA8600FE0A9680844A8600BE03D
:1019300041F82690C5F80490C5F808902AF814904C
:101940009FED0D0A88ED000A3846BDE8F08F0000D3
:1019500014430020B4C60020F01000209C41002059
:10196000880F0020ABAAAAAA6811002050C6002048
:1019700068C60020CDCC4C3F00000000034A52F85E
:101980002010002342F820300846704770110020D4
:10199000B0F1FF3F0CD0084AB2F90010884201D1E3
:1019A000491E1180054A00EB4000002102F830106A
:1019B0004FF0FF3070470000343D002014D6002067
:1019C00038B5874CA06B401CA063A07A401CC1B204
:1019D000A172844D642905D92021284602F019FE00
:1019E0000020A072E06D90B1216E1422B1F5805FED
:1019F00075D022DCB1F5807F74D014DC02294CD084
:101A0000042957D040296CD0802930D1A9E0012287
:101A10009103284602F006FE2846BDE83840012220
:101A2000802102F0FFBDB1F5007F63D0B1F5806F7A
:101A30007BD0B1F5006F1AD183E0B1F5002F6AD0E9
:101A40000CDCB1F5005F68D0B1F5803F3FD0B1F557
:101A5000003F72D0B1F5802F09D193E0B1F5801F1E
:101A60006CD0B1F5001F6AD0B1F5800F68D00122AB
:101A70009103284602F0D6FD01228021284602F07B
:101A8000D1FD0020E26D22FA00F101F001010029F0
:101A90006FD001FA00F0206638BD00224FF480417B
:101AA000284602F0BFFD2846BDE8384000228021CC
:101AB00002F0B8BD01228021284602F0B3FD28467D
:101AC000BDE8384000224FF4804102F0ABBD0092E7
:101AD000012200231146104604F03CFC38BD11E001
:101AE00000E036E00023009202220121184604F0B3
:101AF00031FC38BD0023009202221946012004F077
:101B000029FC38BD0023009203220121184604F06D
:101B100021FC38BD09E03DE0FFE7002300920322ED
:101B20001946012004F016FC38BD0023009204225F
:101B30000121184604F00EFC38BD1BE032E039E00C
:101B400040E00023009204221946012004F002FC28
:101B5000F2E70023009205220121184604F0FAFB67
:101B6000EAE70023009205221946012004F0F2FB67
:101B7000E2E72FE00023009206220121184604F03C
:101B8000E9FBD9E70023009206221946012004F060
:101B9000E1FBD1E70023009207220121184604F05F
:101BA000D9FBC9E70023009207221946012004F05F
:101BB000D1FBC1E70023009208220121184604F05E
:101BC000C9FBB9E70023009208221946012004F05E
:101BD000C1FBB1E7401CC0B22028FFF454AFABE713
:101BE000F01000200010024070B5974E307A10F0CF
:101BF000020F03D1307D10F0020F03D0022005F058
:101C0000EBFC02E0022005F0BFFB307A10F0040F7D
:101C100003D1307D10F0040F03D0042005F0DCFC6C
:101C200002E0042005F0B0FBB06810F4803F03D15F
:101C3000706910F4803F04D04FF4803005F0CCFC84
:101C400003E04FF4803005F09FFB00237F4D03EB52
:101C5000430006EB8004207A10F0400F13D02BB124
:101C600095F85C0010F0800F09D010E095F85C004A
:101C700010F0400F0BD1402005F0AEFC07E08020B3
:101C800005F0AAFC03E06BB1802005F07DFB208904
:101C900010F4E06F19D04BB1B5F85C0010F4007F80
:101CA0000ED017E0402005F06FFBF0E7B5F85C00C0
:101CB00010F4807F0ED14FF4807005F08DFC09E0A8
:101CC0004FF4007005F088FC04E073B14FF400702D
:101CD00005F05AFB208910F4805F1AD053B1B5F893
:101CE0005C0010F4006F0FD018E04FF4807005F026
:101CF0004BFBEFE7B5F85C0010F4806F0ED14FF4AA
:101D0000806005F069FC09E04FF4006005F064FCB8
:101D100004E073B14FF4006005F036FB208910F445
:101D2000005F1AD053B1B5F85C0010F4005F0FD01B
:101D300018E04FF4806005F027FBEFE7B5F85C0092
:101D400010F4805F0ED14FF4805005F045FC09E09F
:101D50004FF4005005F040FC04E06BB14FF400502C
:101D600005F012FBA06810F4003F18D04BB1E86DED
:101D700010F4802F0ED017E04FF4805005F004FBD4
:101D8000F0E7E86D10F4003F0ED14FF4003005F09D
:101D900023FC09E04FF4802005F01EFC04E06BB149
:101DA0004FF4802005F0F0FA207A10F0100F18D0D0
:101DB0004BB1E86D10F4801F0ED017E04FF40030E7
:101DC00005F0E2FAF0E7E86D10F4002F0ED14FF4C1
:101DD000002005F001FC09E04FF4801005F0FCFB49
:101DE00004E06BB14FF4801005F0CEFA207A10F0C9
:101DF000080F18D04BB1E86D10F4800F0ED017E02B
:101E00004FF4002005F0C0FAF0E7E86D10F4001F71
:101E10000ED14FF4001005F0DFFB09E04FF4800015
:101E200005F0DAFB04E04BB14FF4800005F0ACFAAA
:101E3000581CC3B2022BFFF40AAF70BD4FF4001060
:101E400005F0A2FAF4E7000014430020F01000208F
:101E50002DE9F047424D0020A882424F3878401EBD
:101E600000287ADD404C414EDFF80491A98A605C7D
:101E700049286AD160184278442A66D180783D2882
:101E800063D1A98301F10A0201E0401CA883A88B59
:101E90002318DB782F2B01D09042F6D36983AA8BCD
:101EA00091420BD26A8BA318A2EB010CDB7806F8E7
:101EB0000C30521C92B26A838242F3D32B48FEF755
:101EC000E6F9A84628830A212848FEF7D5F9B8F88C
:101ED0001C00001D82B2A8F81C20A8F8162002F1F0
:101EE0000A0102E0401CA8F81600B8F816002318F2
:101EF000DB782F2B01D08842F4D3A8F81A20B8F849
:101F000016108A420DD2B8F81A106318A1EB020C11
:101F1000DB7806F80C30491C89B2A8F81A10814207
:101F2000F1D31248FEF7B3F9B8F81810C1EBC101AC
:101F300009EB8101896908600A210C48FEF79CF9C8
:101F4000B8F81600001DA8F81C00A88A401C80B232
:101F5000A8823978491E884288DBBDE8F0870000F6
:101F6000B0100020F60F0020C847002030C6002027
:101F7000A438030870B511A00FF056FD104C0020D6
:101F80006082104D608AC0EBC00005EB80010A79C9
:101F900012F0100F06D089690A6835F920100AA0DE
:101FA0000FF042FD608A401C80B26082A028E9D315
:101FB000BDE8704008A00FF037BD00002A2F0000D8
:101FC000B0100020A438030849443D25642F495827
:101FD0003D256C642F0000002300000070B504460E
:101FE0000125A089002804D0401E80B2A08110B134
:101FF0000025284670BD218CA06909B290FBF1F044
:1020000001B2A06800F094F90120A073F1E7C07B51
:10201000704701604260836000218173C173704723
:10202000C173704710B504460022114660680FF076
:10203000FCFB208B01B260680FF039FC00212068A6
:102040000AF073FB0022114620680AF0E3FAA08A26
:10205000A28B01B220680AF0DDFAA08B218A4843E6
:102060004FF47A71B0FBF1F0401CA08110BD30B488
:10207000016C4A6AD0F8883092B202FB03F4496AD4
:102080008BB2A0F89E30B0F8A010591A09B2A0F88F
:10209000A210D0F890200FFA82FC0CEBDC75B1EBAB
:1020A000650F04DDA1EB020CA0F8A2C00AE0CCF1A0
:1020B000000C0CEBDC75B1EB650F03DA01EB020CE5
:1020C000A0F8A2C0A0F8A030838859430904B1FB4E
:1020D000F2F1B0F93C2002FA81F18187B0F9A22037
:1020E000816911448161C9004942C161E11704EB72
:1020F00011410914028A01614B431BB2B0F8A4C01C
:102100009C440FFA8CFCC0F80CC0891A09B24269D1
:102110001144416130BC184670472DE9F041046C10
:102120004FF0000C002290F89950636AB0F8947058
:102130000026A0F89460246804F01008012F02D94A
:10214000012480F89D40B0F89640D0F89070B8F126
:10215000100F04D09C4212D94FF0010811E09C42AC
:1021600002D24FF0010801E04FF000081C1B08FBF1
:10217000174490F89C7000EB8707BC6409E04FF0AF
:1021800000081C1B08FB074490F89C7000EB8707B5
:10219000BC64002D07D900EB8204A46CA444521C3B
:1021A000D2B2AA42F7D3426C02FB0CFC90F89940E1
:1021B000D0F8902062439CFBF2F20FFA82FCA1F867
:1021C00000C0848C121B8285C0F824C090F89C202B
:1021D000B0F88CC000EB8202926C02FB0CF2D0F8DB
:1021E00004C002FB0CF2D0F890C092FBFCF2D0F8D5
:1021F00038C00CFB02F2B0F834C092FBFCF202854E
:10220000A0F8963090F89C20521C80F89C2090F802
:102210009C2090F899309A4201D180F89C6090F807
:102220009D202AB1002180F89A60427A027002E073
:102230000AF027F901460846BDE8F081002190F830
:102240009920002A09D9002200EB81039A64491CD5
:10225000C9B290F899308B42F6D8012180F89A10D3
:102260007047B0F89410491CA0F8941000207047F3
:102270002DE9F001016C00224A62D0F890204FF065
:10228000FF33B3FBF2F2521CC0F88820B0F88C2068
:1022900064235A43426490F89B204FEA025C234D2A
:1022A00001F118032A781A441768EC1DF02694F8F7
:1022B00000804FEA1C4C06FA08F827EA080794F851
:1022C00000800CFA08FC47EA0C0CC2F800C090F839
:1022D0009B204FEA025CAA781A441368A578A47878
:1022E00006FA05F54FEA1C4CAB430CFA04FC43EA32
:1022F0000C0313606FF001020A61CA6842F0010228
:10230000CA600A6842F001020A6090F89920002130
:10231000002A08D9002300EB810CCCF84830491C76
:10232000C9B29142F7D3BDE8F001704724310308E8
:10233000026C016143684B43C3604FF6FF73002991
:1023400003DA494289B2591A00E089B2D0F8900004
:102350004843B0FBF3F080B250627047144B1868EA
:1023600000F00100002821D0DFF848C0DCF80000B0
:10237000114A00F00100D085B0B9002042F210717E
:10238000401C80B28842FBD3DCF8000000F0010062
:102390001086DCF8000000F00100D08520B9074964
:1023A0000020486048638861012018607047000081
:1023B000143C0140100C0240F40F0020B4C6002071
:1023C00010B50A48006800F4E05000280DD04FF422
:1023D000806001F0EDFF4FF4006001F0E9FFBDE81F
:1023E00010404FF4805001F0E3BF10BD143C014099
:1023F00010B50948006800F0E00000280AD020204D
:1024000001F0D6FF402001F0D3FFBDE8104080204E
:1024100001F0CEBF10BD0000143C014070B50E4865
:1024200000680E4E00F001003086F18A884206D026
:102430000B4C022520B10121A181A580F08270BD45
:10244000074806F075F90128F9D10620A081A5807A
:10245000308EF08270BD0000100C0240F0100020A1
:10246000BCD700200021002812D0017843785A18E8
:102470000021002B09D900EB010C9CF802C062443A
:1024800092B2491CC9B28B42F5D802EB1220C1B2FC
:1024900008467047002141820175417580F8961009
:1024A00080F8971080F8981080F8991080F89A10AA
:1024B00080F81B1180F81C1180F81D117047DDF8A1
:1024C00000C0002804D0016042608360C0F80CC0E6
:1024D00070470021016041607047018E491E02690A
:1024E0004A438368134490F8402013411BB20361B0
:1024F00043695943C3681944114109B241617047A6
:10250000D0F834C0C0F818C0D0F838C0C0F81CC02B
:10251000D0F83CC0C0F820C04162C26283627047FC
:102520000FB482B0059B049ACB608A60049A0B6852
:102530001A44104BB2F5004F01DB5A0C03E012F5C0
:10254000004F00DC1A4612B20092059A49680A440C
:10255000B2F5004F02DB47F6FF7203E012F5004FC1
:1025600000DC1A4611B20191019A009942600160A3
:1025700006B070470180FFFF0022002905D0012925
:102580001AD002291BD04FF440720E490B6823F475
:1025900040730B600B681A430A600A6822F0F80265
:1025A0000A600A68022343EAC00010430860086812
:1025B00040F48030086070474FF48072E5E74FF4D4
:1025C0000072E2E7103C02401448016811F4007FF9
:1025D0000FD0016821F400710160016841F40061CD
:1025E0000160016821F400610160016841F400713B
:1025F0000160016811F4806F0FD0016821F48061DF
:102600000160016841F480510160016821F480514A
:102610000160016841F4806101607047003C024044
:1026200008490A6822F440720A600A6842F004020B
:102630000A600A684FF4803343EA002010430860C0
:1026400070470000103C0240064A136823F44073B0
:10265000136013681360136843F001031360017083
:1026600070470000103C02400B49D1F800C02CF428
:10267000407CC1F800C0D1F800C04CF4407CC1F8E7
:1026800000C0D1F800C04CF0010CC1F800C00260DD
:10269000BFF36F8F43607047103C0240074A1368D6
:1026A00023F440731360136843F48073136013685A
:1026B00043F001031360018070470000103C0240AA
:1026C000074A136823F440731360136843F40073DC
:1026D0001360136843F0010313600160704700004A
:1026E000103C02401A49086810F0100F194805D034
:1026F000C26942F01002C26110220A600A6812F038
:10270000200F05D0C26942F00802C26120220A608F
:102710000A6812F0400F05D0C26942F00402C2619B
:1027200040220A600A6812F0800F05D0C26942F0A8
:102730000202C26180220A600A6812F0020F05D00C
:10274000C26942F02002C2610220086070470000A6
:102750000C3C02405846002070B504461449002045
:10276000C86101F067FF0646124D286810F4803FEB
:102770000ED0B4F1FF3F07D024B101F05BFF801B06
:10278000A04201D9032070BD286810F4803FF0D129
:10279000286810F0010F01D001202860286810F08F
:1027A000F20F03D0FFF79EFF012070BD002070BD27
:1027B000584600200C3C024010B5074901EB80143C
:1027C00094F83E10002906D1044951F8200009F080
:1027D0008BFE6063E06110BD9C410020800F0020F3
:1027E00010B586B004460020049005900290039036
:1027F0000190184901EB84110860486088604861C5
:102800008861C861086248638862C8620863886337
:102810001148002150F8240007F040FC0F48002127
:1028200050F8240007F03AFC0D4850F8240009F055
:10283000E9FE0C4850F8240007F005FE0A4850F85D
:102840002400002804D006B0BDE81040FFF741BEC8
:1028500006B010BD9C410020900F0020980F002072
:10286000800F0020C80F0020A80F00202DE9F041A4
:102870008CB09FED890A894880ED0D0A00F534720D
:1028800001468748FEF71AFBBDEEC00A854910EEE7
:10289000100A88604042C8608348006809F02CFF35
:1028A0008046404609F0D4FD0446804F06A93868AA
:1028B00007F0A7FC0799069804F0D8F805900146A0
:1028C000224602A804F0FEF8039902980B910A90A0
:1028D00077480169A9B9016899B1764900F11803EF
:1028E000A7F1940200F1300C01930391029200F1E0
:1028F000380300F10801CDF800C03C32103009F077
:102900009DF86D4D0B98296A091A6C48006807F00C
:10291000CDFB0990E9690A98091A6948006807F02F
:10292000C5FB0890674E02A8099B3168089AFFF71B
:10293000F7FD039902980991089006F13800099B68
:10294000016802A8089AFEF7BFFD03990298099151
:102950000890404609F07FFD002224B25A48A6F1B3
:102960009401B0F90000012804D0584B02280DD082
:10297000B8B124E0488BCB88184400B24883031BCD
:10298000CB830446486B0890099218E0A3F8A42072
:10299000C88B204404B28C83486B089009928A80CB
:1029A0000DE04B480260C88B204404B28C8308922F
:1029B000486B0990474902200870A3F8A420464BB1
:1029C00040F2DA711888884233D24449DFF810C1E6
:1029D000444A0978C1EBC1010CEB8101896909689E
:1029E00042F8201040490978C1EBC1010CEB81018C
:1029F0008969D1F8008002EB800141F6687242F8E3
:102A000001803A4A43F6D0681278C2EBC2020CEB5E
:102A100082029269126848F80120354A01F5A04106
:102A20001278C2EBC2020CEB820292691268C1F802
:102A3000382E401C80B2188040F2D971884200D9EB
:102A4000198022460999089804F084F88046414686
:102A5000386807F0D8FB07461048099A0899C0F86B
:102A60006C21C0F86811079A0699C0F84421C0F893
:102A700040110599C0F848110B9A0A99C0F85821DD
:102A8000C0F85411C0F87081AC633068FFF725FDC1
:102A90000CB03846BDE8F08117B7D1385C40002053
:102AA00000080040B4C60020800F0020C80F00209E
:102AB00074C60020B84100209C410020980F0020DF
:102AC000900F0020A80F002012110020A008002065
:102AD00024080040F8100020C0100020B210002090
:102AE000A438030890480020B3100020B410002040
:102AF000B51000201E49884201D2002070471D49B0
:102B0000884201D2012070471B49884201D202202D
:102B100070471A49884201D20320704718498842F9
:102B200001D2042070471749884201D2052070471E
:102B30001549884201D2062070471449884201D2C3
:102B4000072070471249884201D208207047114976
:102B5000884201D2092070470F49884201D20A20D9
:102B60007047B0F1016F01D20B2070470020704711
:102B7000004000080080000800C0000800000108B4
:102B80000000020800000408000006080000080811
:102B900000000A0800000C0800000E0800687047DA
:102BA00070B500F0D5F82C4D28702C492C4A2D4CCE
:102BB00007282CD2DFE800F02B0B191225041F0088
:102BC000086841F2555101FA80F0108025E008684C
:102BD00043F6FF7101FA80F010801EE0086846F6A7
:102BE000AA2101FA80F0108017E008681E4901FA56
:102BF00080F0108011E008681C4901FA80F0108014
:102C00000BE008681A4901FA80F0108005E000F036
:102C10009FF828702079401C20712079052801D95F
:102C2000062020712878002815D0072813D000220C
:102C30000221282001F0B6FD282001F0A5FD207B0F
:102C4000002808D10120207381020A480160C114C4
:102C500001608114016070BDFB0F00202400002082
:102C600036100020F01000205695FFFF01C0FFFF36
:102C7000ABEAFFFF143C014070B500F083F82C4D27
:102C800028702C492C4A2D4C07282CD2DFE800F064
:102C90002B0B191225041F00086841F2555101FA47
:102CA00080F0108025E0086843F6FF7101FA80F09B
:102CB00010801EE0086846F6AA2101FA80F0108014
:102CC00017E008681E4901FA80F0108011E00868DA
:102CD0001C4901FA80F010800BE008681A4901FADB
:102CE00080F0108005E000F04DF82870E078401C7E
:102CF000E070E078052801D90620E07028780028E7
:102D000015D0072813D000220221172001F04AFD18
:102D1000172001F039FDE07A002808D10120E07287
:102D20000A4820210160402101608021016070BDBE
:102D3000FC0F00202800002034100020F01000209C
:102D40005695FFFF01C0FFFFABEAFFFF143C0140B7
:102D500070B50A4D4FF40061284601F053FC440061
:102D60002915284601F04EFC20434400A9140448CC
:102D700001F048FC204300F0070070BD000C024049
:102D80000004024070B50A4D4021284601F03AFC8B
:102D900044002021284601F035FC204344008021D6
:102DA000284601F02FFC204300F0070070BD000012
:102DB000000C024030B4DFF8F8C18A6990F83C207A
:102DC000012A1BD0012280F83C200A680724092A26
:102DD00017D90368DD680A3A02EB420204FA02F2EC
:102DE00025EA0202DA600A788B680A3A02EB4202AC
:102DF00093400268D4682343D36014E030BC0220BF
:102E0000704703681D6902EB420204FA02F225EAE8
:102E100002021A610A788B6802EB42029340026850
:102E20001469234313610268936B23F44013936383
:102E30000268936B0C8A641E43EA045393630A7915
:102E40000B7CD21AD21C02EB82021F239340026831
:102E5000946B24EA030393630A790B7CD21A0B88E0
:102E6000D21C02EB82029BB293400268946B234314
:102E700093638A69624518D00268936823F47023CB
:102E8000936002689368D1F818C043EA0C0393601A
:102E90000268936823F44013936002689368D1F842
:102EA0001CC043EA0C03936009E00268936823F4B2
:102EB000702393600268936823F4401393604A7D03
:102EC0002AB10268536843F48063536004E00268E7
:102ED000536823F4806353600A7D2AB10268536803
:102EE00043F48053536004E00268536823F4805332
:102EF00053604A68012A1BD0022A26D0032A31D007
:102F00000268136A6FF30B0313620268136AD1F845
:102F10000CC043EA0C031362264A274BD0F800C0CA
:102F20009C4532D1D1F800C0BCF1120F27D02CE063
:102F3000026853696FF30B03536102685369D1F858
:102F40000CC043EA0C035361E6E7026893696FF330
:102F50000B03936102689369D1F80CC043EA0C0338
:102F60009361D9E70268D3696FF30B03D3610268F9
:102F7000D369D1F80CC043EA0C03D361CCE7D2F893
:102F800004C04CF4800CC2F804C0D0F800C09C45CA
:102F900008D10968102901D0112903D1516841F4E1
:102FA00000015160002180F83C1030BC00207047C7
:102FB00001000F00002301400020014038B44FF011
:102FC000000CCDF800C090F83C20012A1BD0012253
:102FD00080F83C200A680724092A17D90368DD68AD
:102FE0000A3A02EB420204FA02F225EA0202DA602D
:102FF0000A788B680A3A02EB420293400268D4686E
:103000002343D36014E038BC0220704703681D6975
:1030100002EB420204FA02F225EA02021A610A787D
:103020008B6802EB420293400268146923431361E8
:103030004A681F24072A15D203685D6B521E02EBF3
:10304000820204FA02F225EA02025A630A8893B263
:103050000A79521E02EB820293400268546B2343AA
:1030600053632CE00D2A15D203681D6BD21F02EBAF
:10307000820204FA02F225EA02021A630A8893B273
:103080000A79D21F02EB820293400268146B234339
:10309000136314E00368DD6A0D3A02EB820204FA5E
:1030A00002F225EA0202DA620A8893B20A790D3A3C
:1030B00002EB820293400268D46A2343D362184A27
:1030C000184B04689C4206D10C68122C03D154683A
:1030D00044F48004546004689C421CD10B68102B9B
:1030E00001D0112B17D1536843F4000353600968D2
:1030F000102910D10C490D4A0968B1FBF2F101EB1E
:10310000810149000091009929B10099491E00915F
:1031100000990029F9D180F83CC038BC00207047E4
:1031200000230140002001405010002040420F00C9
:1031300070B504460025002C03D0206C002610B189
:1031400007E0012070BD204600F01EF8666484F898
:103150003C60206C10F0100F04D0012584F83C6016
:10316000284670BD206C20F4885040F00200206496
:103170002046FDF77BFC6664206C20F0020040F0E6
:1031800001002064EAE700002DE9F04186B0002448
:103190000194029403940494059402684A484B49AC
:1031A00003254B4F4B4EA2F18043B3F5903333D000
:1031B000494B9A422DD1026842F4007202600068C5
:1031C00000F400700090086840F001000860086892
:1031D00000F001000090086840F0020008600868F4
:1031E00000F002000090086840F0040008600868E1
:1031F00000F00400009006200190029501A93046DD
:1032000001F0E2F801950295039401A9384601F016
:10321000DBF806B0BDE8F081026842F4807202601B
:10322000006800F480700090086840F004000860B6
:10323000086800F004000090086840F00100086091
:10324000086800F001000090086840F00200086083
:10325000086800F0020000904FF00808CDF80480E4
:10326000029501A9384601F0AFF8CDF8048001A914
:10327000304601F0A9F81020019001A9304601F074
:10328000A3F801950295039401A9304601F09CF83A
:10329000212001900295039401A9304601F094F891
:1032A00002200190029503940C4E01A9304601F0D2
:1032B0008BF8012101910295039401A9304601F098
:1032C00083F806B0BDE8F08144380240303802404F
:1032D00000000240000802400021014000040240BA
:1032E000087D012282404148D0F8003243F00103BA
:1032F000C0F80032D0F8003223F47C53C0F800321A
:10330000D0F80032D1F824C043EA0C23C0F80032D0
:10331000D0F81C329343C0F81C32CB69002B1AD171
:10332000D0F80C329343C0F80C32B1F80CC04B68A3
:103330006CF31F43D1F814C000EBCC0CCCF8403236
:10334000B1F808C00B686CF31F43D1F814C000EB50
:10335000CC0CCCF84432CB69012B1AD1D0F80C320A
:103360001343C0F80C32B1F800C04B686CF31F4334
:10337000D1F814C000EBCC0CCCF84032B1F808C046
:10338000CB686CF31F43D1F814C000EBCC0CCCF825
:1033900044328B693BB1D0F804321343C0F8043295
:1033A0000B6933B10AE0D0F804329343C0F8043219
:1033B000F6E7D0F814329343C0F814320B69012BAE
:1033C00004D1D0F814321343C0F81432096A012929
:1033D00004D1D0F81C121143C0F81C12D0F800120E
:1033E00021F00101C0F80012002070470064004085
:1033F0007047000070B5044600252068C168C1F31D
:1034000000114269C2F3C0021023002902D00AB1A0
:103410005D01C36020680169C1F300114269C2F314
:10342000801219B112B145F48065036120684169C9
:1034300011F0010F32D081686B4A32EA010120D0CD
:1034400000218268694B33EA02021CD000228368A3
:10345000DFF89CC13CEA030317D000231143194352
:103460001CD08168C1F340018268C2F340228068A9
:10347000C0F340401143084309D02046FDF748FF00
:1034800007E00121DDE70122E1E70123E6E745F45A
:10349000006520688168574A114381602068C168CF
:1034A00001F003014069C0F3400021B118B10021CF
:1034B0002046FDF765FE2068016901F003014069BF
:1034C000C0F3001021B118B101212046FDF758FECC
:1034D000206C284320642068816901F00102416961
:1034E000C1F300214369C3F3C0332AB121B11BB139
:1034F000216C41F0010121648169C1F340014269FD
:10350000C2F340224369C3F3C03329B122B11BB1D6
:10351000216C41F0020121648169C1F3800241699B
:10352000C1F380214369C3F3C0332AB121B11BB178
:10353000216C41F004012164816911F0700F08D001
:1035400000214269C2F3C0224369C3F3C03311B101
:1035500036E00121F5E79AB393B3816901F0700178
:1035600040291BD006DC102909D020290CD0302995
:1035700022D10EE0502916D060291DD118E0216C0F
:1035800041F00801216417E0216C41F01001216431
:1035900012E0216C41F0200121640DE0216C41F02A
:1035A0004001216408E0216C41F08001216403E0C6
:1035B000216C41F480712164816921F07001816185
:1035C000206C00280FD0216804204860012084F876
:1035D0003C002068416921F0510121F40F41416113
:1035E0002046FFF705FF70BD03000004000300083C
:1035F00000000310190501002DE9F04104460026E2
:10360000002C04D094F83C00002718B107E00120FA
:10361000BDE8F08184F83D70204600F0BFF802203C
:1036200084F83C002068016821F0020101602068F4
:10363000016841F00101016000F0FCFF05462068CF
:1036400040684FF0030810F0010F10D100F0F2FFB6
:10365000401B0A2806D984F83C8084F83D7003207A
:10366000BDE8F0812068406810F0010FEED02068BE
:10367000416811F0010F70D0A169012950D0016893
:1036800021F080010160E06901284ED020680168C6
:1036900021F040010160206A01284CD020680168B7
:1036A00021F020010160606A01284AD02068016889
:1036B00021F010010160A06A012848D0206801684B
:1036C00021F008010160E06A012847D02068016804
:1036D00021F004010160E168A06862690843216982
:1036E000114308436168491E08432168C861206886
:1036F000016821F00101016000F09CFF054620688F
:10370000406810F0010F34D000F094FF401B0A28ED
:103710002AD984F83C8084F83D700320BDE8F0810C
:10372000016841F080010160ADE72068016841F067
:1037300040010160AFE72068016841F020010160AD
:10374000B1E72068016841F010010160B3E720682B
:10375000016841F008010160B5E710E020680168E8
:1037600041F004010160B6E72068406810F0010FE5
:10377000CAD12068406810F0010F00D10126012E47
:1037800005D0042084F83C000120BDE8F0812764C6
:10379000012084F83C000020BDE8F08100B587B02E
:1037A0000021029103910491059106910068A0F116
:1037B0008041B1F5D04136D11C48016841F000711B
:1037C0000160016801F000710191016841F08061C0
:1037D0000160006800F0806001901548016841F0C8
:1037E00002010160006800F00200019042F2200036
:1037F000029002200390012005900920069002A962
:103800000C4800F0E1FD0C480C49426BC1F84C2219
:10381000006BC1F8500200220321402000F0C2FFDB
:10382000402000F0B1FF07B000BD0000403802406A
:10383000303802400004024090D5002028140020B7
:1038400010B400290FD190F83C20222A0ED090F815
:103850003C20422A0AD090F83C20622A06D090F8F8
:103860003C20722A02D0012903D012E010BC0220B1
:10387000704790F83C20322A37D090F83C20522AEA
:1038800033D090F83C20622A2FD090F83C20722A46
:103890002BD090F83D20012A2AD0012280F83D202B
:1038A0004FF0620C722331B390F83C20122A38D0CA
:1038B000222A3AD0422A3BD0322280F83C200023F0
:1038C00003640268D2F814C040F601744CEA040C98
:1038D000C2F814C080F83D3069B30068416941F016
:1038E0005001416110BC0020704710BC022070479D
:1038F00010BC0220704790F83C20122A07D0322AD0
:1039000009D0522A0AD0222280F83C20D7E742224E
:1039100080F83C20D3E780F83CC0D0E780F83C300A
:10392000CDE7522280F83C20C9E780F83CC0C6E7CA
:1039300080F83C30C3E70068416941F00A01416109
:10394000D0E7000010B504461149086810F0100FC8
:1039500002D00868002008600E48D0F84C12886831
:1039600080B90D4A0B694FF02F0C50680CEBC30364
:10397000184450600A7B0968064804F017FD07499F
:10398000012008702046BDE810400021FFF758BF15
:103990000C6800402814002018D30020303D00207F
:1039A0002DE9F05F04460E462268906810F0806FA3
:1039B00008D1906810F0006F04D1906810F0805F1B
:1039C00000F0008194F83D00012813D0012084F814
:1039D0003D0094F83C0022280FD0322811D06228F4
:1039E00013D0122084F83C00906810F0806F10D043
:1039F000002515E00220BDE8F09F422084F83C003D
:103A0000F2E7522084F83C00EEE7722084F83C0094
:103A1000EAE7906810F0006F01D0012500E0022570
:103A20004FF4C07000EB0510115801F00101115066
:103A3000216B8B68002B75D0226852F800C04CEACD
:103A40000303D1F80CC049684CEAC1011943115075
:103A5000216B0A7C02F00F020A614FF4C2712268E6
:103A600001EB0511535823F00F03535022685358AC
:103A7000D4F830C0DCF810C043EA0C035350216B7B
:103A80000A7DCB7D42EA03628B7D497D1B0443EABC
:103A9000012111434FF4C473226803EB0513D15085
:103AA000216B0A7ECB7E42EA03628B7E497E1B0439
:103AB00043EA012111434FF4C673226803EB051357
:103AC000D15021680A5842F001020A5000F0B2FDBC
:103AD0000746DFF8FC80DFF8FC90DFF8FCA04FF031
:103AE000000B55B3012D2ED0206880683AEA000003
:103AF00040D0B6F1FF3F35D026B100F09BFDC01B92
:103B0000B0422FD9032084F83C0015B3012D24D0F6
:103B100021684FF40000886084F83DB00320BDE8C0
:103B2000F09FFFE722681358D1F80CC0098843EAD8
:103B30000C0343EA415111508AE72068806838EA53
:103B4000000017D0D5E72068806839EA000011D05E
:103B5000CFE7216880208860DEE721684FF40040CD
:103B60008860D9E7B5B1012D1AD0206880683AEA9B
:103B70000000BED194F83C00422817D0522819D03A
:103B800072281BD0012084F83C0084F83DB000204E
:103B9000BDE8F09F2068806838EA0000A9D1E9E715
:103BA0002068806839EA0000A3D1E3E7222084F886
:103BB0003C00EAE7322084F83C00E6E7622084F823
:103BC0003C00E2E7042084F83C000120BDE8F09FBF
:103BD00003000004000300080000031070472DE9F3
:103BE000F0410446A66D00F025FD054694F8350029
:103BF0000027022806D08020606584F834700120F8
:103C0000BDE8F0812068016821F01601016020689C
:103C1000416921F080014161206C08B9A06C20B19C
:103C20002068016821F0080101602068016821F026
:103C3000010101602068006810F0010F12D000F04F
:103C4000F9FC401B052808D92020606584F83470F1
:103C5000032084F83500BDE8F0812068006810F08A
:103C6000010FECD194F85C003F2101FA00F0B06044
:103C700084F83470012084F835000020BDE8F0811C
:103C800090F83510022903D080214165012070474A
:103C9000052180F835100068016821F001010160FC
:103CA000002070472DE9F041044600F0C3FC0546B2
:103CB000DCB1002684F83460022084F835002068E6
:103CC000016821F0010101602068006810F0010F17
:103CD00013D000F0AFFC401B052809D920206065F7
:103CE000032084F83500BDE8F0810120BDE8F081B3
:103CF0002068006810F0010FEBD121680868234AA2
:103D00001040A3686268D4F810C01A43E36843EA1D
:103D10000C031A4363691A43A3691A43E3691A43FC
:103D2000236A1A431043626A042A03D1236BE26AAE
:103D30001A43104308602068406920F00701606A58
:103D400040EA0105012704280ED1A06A0543E06A74
:103D500050B12046FDF770FC30B14020606584F81A
:103D600035700120BDE8F081206845612046FDF7EF
:103D700049FC94F85C103F2202FA01F1816066650B
:103D800084F835700020BDE8F08100003F8010F01D
:103D900070B504460025A66D94F8340001280DD0B6
:103DA000012084F8340094F835C00020BCF1010FE4
:103DB00006D084F834000225284670BD022070BD6C
:103DC0004FF0020C84F835C060652046FDF773FCA7
:103DD00094F85C003F2101FA00F0B06020680168AF
:103DE00041F016010160206C20B12068016841F0AB
:103DF000080101602068016841F001010160DBE712
:103E00002DE9F04104460F46DFF8988098F8180035
:103E100001280AD0012088F818004CF25030FEF733
:103E20009BFC0246100003D035E00220BDE8F08183
:103E30004FF0FF30386020681B4E012815D0A56870
:103E4000E0682844A84224D9217C2846FEF794FB48
:103E50004CF25030FEF780FC0246306820F0FA0049
:103E6000306010000FD03D6013E0207C6168FEF7E9
:103E7000D7FB4CF25030FEF76FFC0246306820F062
:103E80000400306005E06D1CA168E0680844A842A9
:103E9000DAD8FEF799FB002088F818001046BDE834
:103EA000F081000058460020103C024003480168A1
:103EB00041F000410160002070470000103C0240CA
:103EC0002DE9F0410646884614461D461A4F387EB5
:103ED000012807D0012038764CF25030FEF73CFC28
:103EE00018B115E00220BDE8F081AEB1012E18D066
:103EF000022E1BD022462B464046FEF7B5FB4CF265
:103F00005030FEF729FC0D490A6822F001020A60D0
:103F100000213976BDE8F081E1B24046FEF794FB1E
:103F2000EDE7A1B24046FEF7B9FBE8E7214640467F
:103F3000FEF7C6FBE3E7000058460020103C0240B5
:103F4000002008490A6812F0004F09D0074A064BC2
:103F50001360074B1360096811F0004F00D0012077
:103F600070470000103C024023016745043C0240BA
:103F7000AB89EFCD2DE9F84F044642F6AA2645F26B
:103F80005557002547F6FF78C7F10009C6F1000A2A
:103F90004FF0020BB4F5806F06D0B4F5006F03D07C
:103FA000B4F5805F40F0F180E7480178491C01706A
:103FB000E648C1794171FEF7CBFEE4498446C871F9
:103FC000E348E449E44A0078009001281DD0E34B1F
:103FD0001878401CC0B218700D801560E049496A1D
:103FE000E04A22F81010632800D31D70D64A1078DA
:103FF000022878D2D54BDC49BCF1070F74D2DFE838
:104000000CF0AD34644C971E7E00D8480388D84825
:104010000088834202D2D7480580B6E0D64803889C
:10402000D64820F81C30BCF1050F76D10B885B1CFC
:104030000B80B0F90A00116808441060A5E093F8FD
:1040400005C0BCF1040F08D0BCF1010F08D008B1C5
:10405000401E10700520187083E00888988480E066
:10406000086806FA80F098847BE093F805C0BCF1FC
:10407000050F08D0BCF1030F0AD008B1401E107024
:10408000012018706DE0086806FA80F0988468E0F6
:10409000086807FA80F0988463E093F805C0BCF1E3
:1040A000010F08D0BCF1020F0AD008B1401E1070F9
:1040B0000320187055E0086807FA80F0988450E0F3
:1040C000086808FA80F098844BE093F805C0BCF1CA
:1040D000030F0AD0BCF1060F0CD008B1401E1070BF
:1040E00083F800B03DE04EE038E0086808FA80F060
:1040F000988436E0086809FA80F0988431E093F8F3
:1041000005C0BCF1020F09D0BCF1040F0BD008B1FF
:10411000401E10700620187023E036E0086809FA87
:1041200080F098841DE008680AFA80F0988418E00E
:1041300093F805C0BCF1060F08D0BCF1050F0AD0FA
:1041400008B1401E1070042018700AE008680AFACE
:1041500080F0988405E00888988402E008B1401E49
:1041600010708749009810B1A1F8A4500DE01078A4
:1041700001280AD1B3F9240038B18A89801AA1F83C
:10418000A400D88301E082F800B0202C03D0402C9A
:1041900001D0802C2BD17B480178491C01706B4CDD
:1041A000207AA071FEF7EEFD20727749784A91F8E7
:1041B00000C07649BCF1010F0ED00D801560714B27
:1041C000197802296FD2734A07286DD2DFE800F010
:1041D0009F36604B8C2377006F4B1D606F4BB3F89D
:1041E00000C0634B1B889C4503D26D480580BDE829
:1041F000F88F6C4BB3F800C06B4B23F810C0052848
:10420000F5D10888401C0880B3F90A0011680844F9
:104210001060BDE8F88FA079042807D0012808D0E5
:1042200009B1481E18700520607073E01088608422
:1042300070E0106806FA80F060846BE0A0790528D1
:1042400007D003280AD009B1481E187001206070F9
:1042500060E0106806FA80F060845BE0106807FA9E
:1042600080F0608456E0A079012807D002280AD0A7
:1042700009B1481E1870032060704BE0106807FAFF
:1042800080F0608446E0106808FA80F0608441E0C5
:10429000A079032809D006280CD009B1481E18704F
:1042A00084F801B036E04BE031E0106808FA80F0A5
:1042B00060842FE0106809FA80F060842AE0A07919
:1042C000022807D004280AD009B1481E1870062019
:1042D00060701FE0106809FA80F060841AE01068CE
:1042E0000AFA80F0608415E0A079062807D0052836
:1042F0000AD009B1481E1870042060700AE01068E6
:104300000AFA80F0608405E01088608402E009B158
:10431000481E18702549BCF1000F03D0A1F8A45025
:10432000BDE8F88F18780128FAD1B4F922000028E6
:10433000F6D08A89801AA1F8A4002084BDE8F88FFD
:1043400083F800B0BDE8F88FF8100020F40F0020CB
:10435000F61000200A110020441100200012002055
:1043600000080040FC43002024000020141100201D
:1043700018110020121100202A0F00208C45002067
:10438000A0080020F9100020F71000200E110020D6
:10439000481100202800002078100020161100206D
:1043A000101100202C0F00209A4500206C090020DD
:1043B00010B504490A68024202D00860FFF7DAFD2E
:1043C00010BD0000143C01402DE9F84F00220324E9
:1043D000874E884F0F25012303FA02F80B6803EA82
:1043E000080343457DD1D1F804C0BCF1010F08D0CA
:1043F000BCF1020F05D0BCF1110F02D0BCF1120FBD
:104400001DD1D0F808904FEA420C04FA0CFA29EAC0
:104410000A09D1F80CA00AFA0CFC4CEA090CC0F805
:1044200008C0D0F804C02CEA080C91F80480C8F346
:10443000001808FA02F848EA0C0CC0F804C0D0F8DA
:104440000C904FEA420C04FA0CF829EA0809D1F85A
:1044500008A00AFA0CFA4AEA0909C0F80C90D1F847
:104460000490B9F1020F02D0B9F1120F15D14FEA41
:10447000D20900EB8909D9F820B04FEA427A4FEA15
:10448000DA6A05FA0AFE2BEA0E0BD1F810E00EFAF2
:104490000AFA4AEA0B0AC9F820A0D0F8009029EAE3
:1044A000080891F8049009F0030909FA0CFC4CEA99
:1044B000080CC0F800C0D1F804C01CF0805F79D0AF
:1044C000D6F800C04CF4804CC6F800C0D6F800C046
:1044D0000CF4804CCDF800C022F0030C0CF18049A4
:1044E00000E067E009F59839D9F808C84FEA827802
:1044F0004FEA187805FA08FA2CEA0A0AA0F1804C6B
:10450000BCF5003C5CD0BCF5806C5CD0BCF5806C2C
:104510005CD0BCF5806C5CD0BCF5806C5CD0BCF52C
:10452000806C5CD0BCF5806C5CD0BCF5806C5CD0E1
:104530004FF0080C0CFA08FC4CEA0A0CC9F808C841
:10454000DFF8B480D8F800C02CEA030CD1F804904E
:1045500019F4803F01D04CEA030CC8F800C0DFF822
:104560009C80D8F800C02CEA030CD1F8049019F410
:10457000003F01D04CEA030CC8F800C0D7F800C0D7
:104580002CEA030CD1F8048018F4801F01D04CEA07
:10459000030CC7F800C0DFF86880D8F800C02CEA28
:1045A000030CD1F8049019F4001F01D04CEA030C5D
:1045B000C8F800C0521C102AFFF40DAFBDE8F88FF8
:1045C0004FF0000CB6E74FF0010CB3E74FF0020CD0
:1045D000B0E74FF0030CADE74FF0040CAAE74FF043
:1045E000050CA7E74FF0060CA4E74FF0070CA1E776
:1045F00044380240083C0140003C0140043C01407A
:104600000C3C01400069084201D0012070470020A5
:104610007047426931EA020201D0816170470904A2
:1046200081617047002A01D081617047090481616E
:104630007047000001488068704700004410002067
:1046400070B50446002C1AD021684CF6CC400860A6
:10465000216845F25550086021686068486021680B
:10466000A0688860FFF7E6FF05462068C06860B173
:10467000FFF7E0FF401B302803D9032070BD012065
:1046800070BD2068C0680028F2D121684AF6AA20CF
:104690000860002070BD00684AF6AA210160002071
:1046A00070470000024881680278114481607047B9
:1046B0004410002010B50B48016841F400710160FE
:1046C000016841F480610160016841F4807101601A
:1046D000032000F09BF8042000F006F800F026F814
:1046E000002010BD003C024070B504460D4D4FF453
:1046F0007A712878B1FBF0F00B490968B1FBF0F052
:1047000000F0FCFB08B1012070BD102C07D2002284
:104710002146501E00F046F86C60002070BD01205C
:1047200070BD0000441000205010002082B00B48E3
:10473000016841F480410160006800F4804001900C
:104740000748016841F080510160006800F0805026
:104750000190042002B000F059B800004438024033
:104760004038024000280EDB00F01F01012202FA4F
:1047700001F14009800000F1E020C0F88011BFF392
:104780004F8FBFF36F8F704700280ADB00F01F01C7
:10479000012202FA01F14009800000F1E020C0F896
:1047A0000011704710B4184B1B68C3F30223C3F108
:1047B000070CBCF1040F01D94FF0040C1C1D072C91
:1047C00001D2002300E0DB1E012404FA0CFCACF152
:1047D000010C0CEA0101994004FA03F35B1E1A4034
:1047E0001143002806DB00F1E020090180F80014E5
:1047F00010BC704700F00F0000F1E020090180F8C4
:10480000141D10BC704700000CED00E000F0070024
:10481000064A11684FF6FF03194041EA002040F0B4
:10482000FD7040F080601060704700000CED00E00B
:104830002DE9F04704460D46002C13D0DFF85491C3
:10484000D9F80000EFB200F00F00A8420DD289F8AD
:104850000070D9F8000000F00F00A84205D0012038
:10486000BDE8F0870120BDE8F08720684A4E10F0CF
:10487000020F14D010F0040F03D0306840F4E05061
:104880003060207810F0080F03D0306840F46040AA
:1048900030603068A16820F0F00008433060207874
:1048A00010F0010F3ED060683C49012808D0022872
:1048B0000DD003280BD0096811F0020F28D00AE0B0
:1048C000096811F4003F06D10120BDE8F0870968AE
:1048D00011F0007F19D0316821F0030108433060E6
:1048E000FFF7A8FE80463068616800F00C00B0EB6E
:1048F000810F17D041F2883AFFF79CFEA0EB080029
:10490000504508D90320BDE8F0870120BDE8F087B5
:104910000120BDE8F0873068616800F00C00B0EB62
:10492000810FE9D1D9F8000000F00F00A8420AD9A0
:1049300089F80070D9F8000000F00F00A84202D0FA
:104940000120BDE8F087207810F0040F05D0306812
:10495000E16820F4E05008433060207810F0080F40
:1049600006D03068216920F4604040EAC100306020
:1049700000F042F831680A4AC1F30311515CC840A3
:104980000849086008480068FFF7AEFE0020BDE84F
:10499000F0870000003C0240083802400038024026
:1049A0000C31030850100020481000200148006816
:1049B000704700005010002000B5FFF7F7FF0449D2
:1049C0000968044AC1F38221515CC84000BD00005F
:1049D000083802401C31030800B5FFF7E7FF04491F
:1049E0000968044AC1F34231515CC84000BD00006F
:1049F000083802401C31030810B51748006810F051
:104A00000C01164816D0164B042912D0082911D1D2
:104A1000144C216801F03F02216811F4800F0AD084
:104A20002068C0F38810A0FB03010023FBF7ECFB18
:104A300009E0184610BD21680023C1F38811A1FBCD
:104A40000001FBF7E1FB2168C1F30141491C49006A
:104A5000B0FBF1F010BD0000083802400024F40063
:104A600040787D01043802402DE9F84F0446002CBF
:104A700010D02078FA4FFB4D10F0010F63D038684A
:104A800000F00C0004280DD0386800F00C00082855
:104A900003D011E00120BDE8F88FF348006810F45E
:104AA000800F09D0286810F4003F4CD060680028BF
:104AB00049D10120BDE8F88F6068B0F5803F14D07F
:104AC000B0F5A02F16D0286820F480302860286820
:104AD00020F480202860606810B3FFF7ABFD064625
:104AE000286810F4003F0ED02DE0286840F4803094
:104AF0002860F0E7286840F480202860286840F4A7
:104B000080302860E7E7FFF795FD801B642802D915
:104B10000320BDE8F88F286810F4003FF3D012E0BE
:104B2000FFF788FD0646286810F4003F0BD0FFF71A
:104B300081FD801B642802D90320BDE8F88F286816
:104B400010F4003FF3D12078C84E10F0020F4FF060
:104B5000000957D0386810F00C0F15D0386800F0F5
:104B60000C00082804D1C048006810F4800F0BD056
:104B7000E06880B301203060FFF75CFD8046286864
:104B800010F0020F12D01EE0286810F0020F05D0BE
:104B9000E068012802D00120BDE8F88F286821696B
:104BA00020F0F80040EAC10028602BE0FFF742FD4A
:104BB000A0EB0800022802D90320BDE8F88F28687E
:104BC00010F0020FF2D02868216920F0F80040EAC6
:104BD000C100286016E0FFE7C6F80090FFF72AFD45
:104BE0008046286810F0020F0CD0FFF723FDA0EBE1
:104BF0000800022802D90320BDE8F88F286810F0C9
:104C0000020FF2D1207810F0080F35D09848DFF865
:104C100064A26169C1B101210160FFF70BFD80460B
:104C2000DAF8000010F0020F26D1FFF703FDA0EB29
:104C30000800022802D90320BDE8F88FDAF8000046
:104C400010F0020FF1D017E0C0F80090FFF7F2FC6F
:104C50008046DAF8000010F0020F0DD0FFF7EAFCF2
:104C6000A0EB0800022802D90320BDE8F88FDAF88B
:104C7000000010F0020FF1D1207810F0040F71D075
:104C80004FF000087C48006810F0805F0AD17A4835
:104C9000016841F080510160006800F08050009090
:104CA0004FF00108DFF8D4B1DBF8000010F4807F8A
:104CB0001BD1DBF8000040F48070CBF80000FFF758
:104CC000B9FC8246DBF8000010F4807F0DD1FFF7BD
:104CD000B1FCA0EB0A00022802D90320BDE8F88F3E
:104CE000DBF8000010F4807FF1D0A068DFF890B10D
:104CF000012818D005281DD0DBF8000020F00100A5
:104D0000CBF80000DBF8000020F00400CBF8000036
:104D1000A06840B3FFF78EFC8246DBF8000010F07D
:104D2000020F14D03EE0DBF8000040F00100CBF8A9
:104D30000000EDE7DBF8000040F00400CBF80000D5
:104D4000DBF8000040F00100CBF80000E0E7FFF7DF
:104D500071FCA0EB0A0141F28830814204D90320A2
:104D6000BDE8F88F26E005E0DBF8000010F0020F48
:104D7000EDD017E0FFF75EFC8246DBF8000010F094
:104D8000020F0FD0FFF756FCA0EB0A0141F288306A
:104D9000814202D90320BDE8F88FDBF8000010F053
:104DA000020FEFD1B8F1010F04D13348016821F0AF
:104DB00080510160A069E0B3396801F00C01082955
:104DC0006AD0022810D0C6F86090FFF733FC044682
:104DD000286810F0007F2CD0FFF72CFC001B022865
:104DE00055D90320BDE8F88FC6F86090FFF722FC84
:104DF0000746286810F0007F0BD0FFF71BFCC01B94
:104E0000022802D90320BDE8F88F286810F0007F3F
:104E1000F3D1216AE069A26A0843616A4FF0FF3367
:104E2000890103EB520241EA0241084394F82C1035
:104E300000E052E040EA01610B4801600120306669
:104E4000FFF7F8FB0446286810F0007F45D1FFF714
:104E5000F1FB001B022815D90320BDE8F88F1BE0E9
:104E6000083802400038024004380240000047423F
:104E7000800E4742743802404038024000700040C3
:104E800070380240286810F0007FE0D025E02868E4
:104E900010F0007FA0D120E001281CD03868E26922
:104EA00000F48001914214D1226A00F03F01914246
:104EB0000FD147F6C071626A0140914209D1A26ADE
:104EC00000F44031914204D1E16A00F07060884200
:104ED00003D00120C1E70120BFE70020BDE74FF06C
:104EE000E021042804D0086920F00400086170471C
:104EF000086940F00400086170477047401EB0F137
:104F0000807F01D3012070474FF0E0214861044ABF
:104F1000F020107000208861072008610020704791
:104F200023ED00E010B5FFF7E8FF10BD90F83C203E
:104F3000012A2CD0012280F83C20CA680023D1F835
:104F400008C022F4407242EA0C02D1F804C022F4F4
:104F5000806242EA0C02D1F800C022F4006242EA08
:104F60000C02D1F810C022F4805242EA0C02D1F8AF
:104F700014C022F4005242EA0C02C96922F48042B1
:104F800011430268516480F83C30002070470220D1
:104F9000704730B490F83C20012A38D0012480F8C2
:104FA0003C40022280F83D200268D2F804C0936899
:104FB0002CF0700C0D6845EA0C0CC2F804C00268B5
:104FC000A2F1804CBCF5803C14D0B2F1804F11D0DE
:104FD0001CF57C4C0ED0BCF5806C0BD0BCF5806C05
:104FE00008D0BCF5784C05D0BCF5705C02D01CF53F
:104FF000943C04D123F0800349681943916080F800
:105000003D40002180F83C1030BC0020704730BC8F
:105010000220704710B50446002C03D094F83D00E0
:1050200010B107E0012010BD002084F83C002046AC
:1050300000F00CF8022084F83D00211D206808F0E3
:10504000E5FE012084F83D00002010BD00B587B0CA
:1050500000210291039104910591069100682D4A67
:105060002D490223A0F1804CBCF5803C21D01CF5D9
:10507000784C3BD0BCF57C4C19D1106840F0020054
:105080001060106800F002000190086840F0010014
:105090000860086800F0010001904020029003932E
:1050A00004930320069002A91C48FFF78DF907B06E
:1050B00000BD106840F001001060106800F00100B1
:1050C0000190086840F010000860086800F01000C7
:1050D00001904FF400400290039304930120069046
:1050E00002A90F48FFF770F907B000BD0D4802682C
:1050F00042F004020260006800F0040001900868B9
:1051000040F008000860086800F00800019007B04F
:1051100000BD000044380240303802400000024028
:1051200000100240403802400168CA6842F00102A3
:10513000CA600068816801F00701062903D0016890
:1051400041F0010101600020704770B5044694F8F9
:105150003C00012818D0012584F83C50022084F836
:105160003D002068826822F0770222F47F4282604C
:105170000868502832D00EDC20284DD006DC0028EC
:105180004AD010284DD147E0022070BD302843D0CE
:10519000402846D136E060282AD0702806D0B0F5E5
:1051A000805F3ED0B0F5005F3BD10BE0CB684A6832
:1051B0008968206808F086FE2068816841F07701E0
:1051C00081602EE0CB684A688968206808F07AFE22
:1051D0002068816841F48041816022E0CA684968A2
:1051E000206808F0A7FF5021206808F076FE18E03C
:1051F000CA684968206808F0B0FF6021206808F09C
:105200006CFE0EE0CA684968206808F093FF4021F0
:10521000206808F062FE04E022680146104608F0AB
:105220005CFE84F83D50002084F83C0070BD70B5F1
:1052300004460D46002C03D094F83D0010B107E061
:10524000012070BD002084F83C00204600F04EF89C
:10525000022084F83D002068816821F0070121F4D4
:1052600080418160211D206808F0D0FD20688168A0
:105270008269036AD5F800C04CEA010122F00302FA
:1052800022F44072AE69D5F808C042EA06224CEA20
:10529000020222F00C0222F4406222F0F00222F418
:1052A0007042EE69D5F80CC042EA06224CEA0202CE
:1052B000D5F810C02E6A4FEA0C1C4CEA063C4CEAAA
:1052C000020223F0220323F08803D5F804C06D699D
:1052D00043EA05134CEA0303816020688261206879
:1052E0000362012084F83D00002070BD70B586B0D7
:1052F0000024019402940394049405940068294ABC
:1053000029490225B0F1804F1FD0A0F18043B3F5A9
:10531000006318D1106840F004001060106800F0BD
:1053200004000090086840F008000860086800F079
:10533000080000904FF4405001900295059501A996
:105340001A48FFF741F806B070BD106840F0010040
:105350001060106800F001000090086840F0020042
:105360000860086800F002000090086840F0010042
:105370000860086800F00100009008200190029584
:105380000126059601A90A48FFF71EF8F0030190CF
:10539000029503940494059601A90648FFF714F8B2
:1053A00006B070BD4038024030380240000C024068
:1053B000000402400000024030B587B00021029195
:1053C000039104910591069101682D480224A1F1F1
:1053D0008042B2F580323CD0B2F5806237D10168AC
:1053E00041F004010160016801F0040101910168CC
:1053F00041F001010160016801F0010101910168C2
:1054000041F002010160006800F0020001904FF4D9
:10541000E07002900394049405940325069502A974
:105420001848FEF7D1FF20200290039404940594BD
:10543000069502A91448FEF7C7FFA803029003943B
:1054400004940594069502A91048FEF7BDFF07B025
:1054500030BD016841F010010160006800F01000EB
:1054600001904FF47C500290039404940594012021
:10547000069002A90648FEF7A7FF07B030BD00005E
:1054800030380240000802400000024000040240A0
:105490000010024070B504460D4694F83C00012807
:1054A0000DD0012684F83C60022084F83D0042B112
:1054B000042A1AD0082A2DD00C2A53D13EE002200B
:1054C00070BD2946206808F011FD2068816941F00F
:1054D000080181612068816921F0040181612068EF
:1054E00081692A69114381613CE02946206808F0FE
:1054F00035FD2068816941F400618161206881691E
:1055000021F480618161206881692A6941EA022170
:10551000816127E02946206808F05CFD2068C169A8
:1055200041F00801C1612068C16921F00401C16135
:105530002068C1692A691143C16113E029462068C6
:1055400008F084FD2068C16941F40061C1612068F0
:10555000C16921F48061C1612068C1692A6941EA99
:105560000221C16184F83D60002084F83C0070BDD8
:1055700010B50446002C03D094F83D0010B107E0AC
:10558000012010BD002084F83C00204600F00CF8FB
:10559000022084F83D00211D206808F037FC01201E
:1055A00084F83D00002010BD704770B5044694F8A3
:1055B0003C00012810D0012584F83C50022084F8DA
:1055C0003D00204608F06CFD002138B184F83D50C4
:1055D00084F83C10012070BD022070BD2068C268B4
:1055E00022F04002C2602068C26822F48042C26099
:1055F00084F83D5084F83C10002070BD10B504467E
:1056000020684169C1F3C01194F83920212A0BD1D7
:1056100051B1416921F080014161206B08B1FEF771
:10562000DEFA204609F037FC20684169C1F3801199
:1056300094F83A20222A0BD151B1416921F040015E
:105640004161606B08B1FEF7CAFA204609F008FC18
:10565000002010BD7047000010B504462268106895
:10566000D168526900F00F03002B0AD110F0200F0F
:1056700007D011F0200F04D02046BDE8104009F0FB
:1056800013BC002B71D002F0010301F4907C53EAAB
:105690000C0C6AD010F0010F08D011F4807F05D0F7
:1056A000D4F83CC04CF0010CC4F83CC010F0040F1E
:1056B00008D012F0010F05D0D4F83CC04CF0020C19
:1056C000C4F83CC010F0020F06D012F0010F03D056
:1056D000E26B42F00402E26310F0080F07D001F021
:1056E00020021A4303D0E26B42F00802E263E26B4D
:1056F000002A2ED010F0200F05D011F0200F02D07C
:10570000204609F0D1FB20684069C0F38010E16BAE
:1057100001F00801084321D0204609F0A1FB2068D0
:10572000416911F0400F15D0416921F040014161FC
:10573000606B58B118490165606BFEF7A1FA00284B
:1057400007D0606B016DBDE8104008472046FFF7A9
:1057500081FF10BD2046FFF77DFF10BD2046FFF7FB
:1057600079FF0020E06310BDFFE710F0800F07D045
:1057700011F0800F04D02046BDE8104009F0B0BC05
:1057800010F0400FEFD011F0400FECD02046BDE8F4
:10579000104009F073BB000085ED020870B50446A7
:1057A000002C04D094F83900002510B106E0012047
:1057B00070BD84F83850204600F022F8242084F888
:1057C00039002068C16821F40051C160204609F009
:1057D000B9FB2068016921F49041016120684169A9
:1057E00021F02A0141612068C16841F40051C16083
:1057F000E563202084F8390084F83A00002070BD69
:105800002DE9F04186B004462068A0F18041B1F551
:10581000904157D100262D48016841F48021016054
:10582000016801F480210091016841F48021016048
:10583000006800F4802000902548016841F00201D2
:105840000160006800F0020000904FF44060019099
:10585000022002900396032004900720059001A9DE
:105860001C48FEF7B1FD1D4D1B4828604FF0006835
:10587000C5F80480AE60EE6007152F616E61AE6101
:10588000EE61B80128626E622846FEF70BFA08B195
:10589000FAF7B5FC6563AC63124D11482860C5F892
:1058A00004804020A860EE602F616E61AE61EE6101
:1058B0002E626E622846FEF7F5F908B1FAF79FFCF2
:1058C0002563AC6306B0BDE8F081000040380240BB
:1058D000303802400004024028600240B8460020F0
:1058E000586002401847002037B582B0044613467E
:1058F00094F83A00202802D005B0022030BD039A67
:10590000002A36D0002B34D094F83800012833D048
:10591000012084F83800A262A3850025E5632220D7
:1059200084F83A00616B1648C863616B15480864D7
:10593000616B1548C864606B05652068011D606B6C
:10594000FEF726FA206801684168019184F8385012
:10595000C16841F48071C1602068416941F0010172
:1059600041612068416941F04001416105B000207A
:1059700030BD05B0012030BD05B0022030BD0000B3
:10598000DFED02081DEE020895ED02087047704732
:105990002DE9F84304460D4690461E4694F839001A
:1059A000202802D00220BDE8F8836DB3B8F1000FC3
:1059B0002AD094F83800012829D0012084F8380032
:1059C0004FF00009C4F83C90212084F83900FEF71C
:1059D00031FE0746A4F82480A4F8268084F8389085
:1059E000E08CA0B3E08C401EE084A068B0F5805F3E
:1059F00010D03B46002280212046009609F0A3FBF0
:105A0000F0B10320BDE8F8830120BDE8F88302204F
:105A1000BDE8F8833B46002280212046009609F02D
:105A200092FB10B10320BDE8F88328882168C0F3F9
:105A300008004860206908B16D1C05E0AD1C03E05A
:105A4000216815F8010B4860E08C0028CAD13B465C
:105A5000002240212046009609F075FB10B103207A
:105A6000BDE8F883202084F839000020BDE8F883E1
:105A700037B5044694F83900202802D003B002203C
:105A800030BD0199002932D0002A30D094F8380076
:105A900001282FD0012084F838002162A284E284FA
:105AA0000025E563212084F83900236B1348D8636F
:105AB000236B13481864236B1248D864206B056568
:105AC00020681346001DD4F830C002466046FEF739
:105AD0005FF921686FF04000086084F83850206852
