:020000040800F2
:10000000C0A700209D010008B16E00081957000824
:10001000F5690008930E0008E1B200080000000036
:100020000000000000000000000000009F9A00088F
:10003000DF13000800000000D58500085BA9000858
:10004000B7010008B7010008B7010008B7010008B0
:10005000B7010008B7010008191800084D1800087A
:1000600053180008591800085F180008B701000865
:10007000B7010008B7010008B7010008B701000880
:10008000B7010008B701000845060008B7010008DD
:10009000B7010008B7010008B7010008651800089B
:1000A0007DAA000899AA0008B7010008B701000856
:1000B000B7010008B7010008B7010008B701000840
:1000C000B7010008B7010008B7010008B701000830
:1000D000B7010008B7010008B701000885B20008A1
:1000E0001F180008B7010008B7010008B701000891
:1000F000B7010008B7010008B7010008B701000800
:10010000B7010008B7010008B7010008B7010008EF
:10011000B7010008B7010008B5AA00083DAB000808
:1001200005130008B7010008B7010008B70100086F
:10013000B7010008B7010008B7010008B7010008BF
:10014000FD0E0008B7010008B7010008B70100085C
:10015000B7010008B7010008B7010008B70100089F
:10016000B7010008B7010008B7010008B70100088F
:10017000B7010008B7010008B7010008000000003F
:10018000B7010008B7010008DFF80CD000F0DEF975
:1001900000480047C9C50008C0A70020064880479E
:1001A00006480047FEE7FEE7FEE7FEE7FEE7FEE75C
:1001B000FEE7FEE7FEE7FEE761AA00088901000806
:1001C0002DE9F05F0546002092469B46884606468C
:1001D000814640241BE0284641464746224600F01F
:1001E00048F953465A46C01A914110D31146184651
:1001F000224600F02FF92D1A67EB01084F462246E0
:100200000120002100F026F917EB00094E41201EC5
:10021000A4F10104DFDC484631462A464346BDE8E6
:10022000F09F40EA01039B0703D009E008C9121FB1
:1002300008C0042AFAD203E011F8013B00F8013BA0
:10024000521EF9D27047D2B201E000F8012B491ECC
:10025000FBD270470022F6E710B513460A46044663
:100260001946FFF7F0FF204610BD30B504460020C8
:10027000034600E05B1C934203D2E05CCD5C401B74
:10028000F8D030BD2DE9FE4F81EA030404F00044AC
:1002900021F0004100944FF0000B23F0004350EA9E
:1002A00001045ED052EA03045BD0C3F30A54C1F3E5
:1002B0000A552C44A4F2F3340194A0FB0254C1F378
:1002C000130141F48011C3F3130343F4801301FBC2
:1002D000024400FB034E840A970A44EA815447EA29
:1002E0008357A4FB076802958D0A05FB07854FEA33
:1002F000932C04FB0C542705029D4FEA065847EA4D
:100300001637B5EB08056EEB070C870E920E47EA21
:10031000811742EA8312A7FB0201B6EB0B0164EBE3
:1003200000042B0D43EA0C335E1844EB1C50DA46F4
:100330005146E7FB0201C5F313044FEA0B3343EACE
:1003400014534FEA0432019C43EA0603A4F10C045F
:100350000294009CCDE900B400F0AAF803B0BDE817
:10036000F08F00200146F9E70EB5C10F80EAE0707A
:100370000844CA07002140F233438DE80E000A46C4
:100380000B4600F095F803B000BD70B5C1F30A52FA
:1003900001F000450024C1F3130140F2FF3341F4A2
:1003A00080119A4201DA002070BD40F233439A4234
:1003B000A2F2334203DC524200F05BF800E09040CE
:1003C0002C43F1D0404270BD30B5041E71F10004E1
:1003D00004DB4FF00044404264EB0101141E73F152
:1003E000000405DB1C464FF00043524263EB04035C
:1003F0008B4208BF824230BD30B5041E71F100044B
:1004000004DB4FF00044404264EB0101141E73F121
:10041000000405DB1C464FF00043524263EB04032B
:10042000994208BF904230BD30B50B4601460020CE
:100430002022012409E021FA02F59D4205D303FAA6
:1004400002F5491B04FA02F52844151EA2F1010227
:10045000F1DC30BD202A04DB203A00FA02F1002052
:1004600070479140C2F1200320FA03F319439040F2
:100470007047202A04DB203A21FA02F0002170475D
:1004800021FA02F3D040C2F12002914008431946FC
:10049000704710B5141E73F1000408DA401C41F1D6
:1004A000000192185B411A4301D120F0010010BDF8
:1004B0002DE9F04D92469B4611B1B1FA81F202E06E
:1004C000B0FA80F220329046FFF7C4FF04460F4690
:1004D00040EA0A0041EA0B0153465A46084313D04A
:1004E000114653EA010019D0C8F140025046FFF707
:1004F000C0FF05460E46504659464246FFF7AAFF42
:10050000084305D0012004E020463946BDE8F08DBF
:100510000020054346EAE0762C4337430A986305FA
:10052000E40AA0EB08000022FD0A44EA47540A301E
:1005300002D500200146E9E7010510196941DDE90E
:10054000084500196941BDE8F04DA2E7064C074D8A
:1005500006E0E06840F0010394E807009847103493
:10056000AC42F6D3FFF714FEE4E0000804E1000813
:1005700070B58C1810F8015B15F0070301D110F865
:10058000013B2A1106D110F8012B03E010F8016B92
:1005900001F8016B5B1EF9D12B0705D40023521E15
:1005A0000DD401F8013BFAE710F8013BCB1A921C7D
:1005B00003E013F8015B01F8015B521EF9D5A1427B
:1005C000D8D3002070BD0146886B026C12F0500F2A
:1005D00004D0026CD20624D5416D0847016C41F469
:1005E0000071016401688A6812F0405F17D1027ED1
:1005F000AAB9CA6A12F4700F02D08A6852050ED4E2
:100600004A6822F020024A60016C21F48071016482
:10061000016CC90403D4016C41F001010164816CD7
:100620000847806BC26C08461047806B402101640C
:10063000416C41F004014164416D0847806BC16C1D
:1006400008470000014801F056BC00007C3600203D
:100650004A494A6822F440324A604A6843681A4369
:100660004A6001684A6822F480724A6001684A68F8
:10067000036942EA03224A6001684A6822F0407234
:100680004A6001684A6883681A434A6001688A6858
:1006900022F400628A6001688A68C3681A438A602B
:1006A000816A6FF07062D14214D001688A6822F0CA
:1006B00070628A6001688A68836A1A438A60016886
:1006C0008A6822F040528A6001688A68C36A1A43C5
:1006D0008A6009E001688A6822F070628A600168B5
:1006E0008A6822F040528A6001688A6822F0020219
:1006F0008A6001688A68037E42EA43028A6090F851
:10070000201089B101684A6842F400624A600168B9
:100710004A6822F460424A6001684B68426A521E8D
:1007200043EA42324A6004E001684A6822F4006207
:100730004A600168CA6A22F47002CA620168CB6A20
:10074000828B521E43EA0252CA6201688A6822F40E
:1007500000728A6001688A6890F8303042EA432269
:100760008A6001688A6822F480628A6001688A6807
:10077000406942EA80208860704700000023014001
:100780002DE9F0411C4C5A20207003266670A4F11C
:10079000C805AB78A370012016E02918897801EB11
:1007A0004102164901EB8201421E896804EB820274
:1007B0000F78D7700F883F0A17710F683F0C577179
:1007C0000968090E9171401C8342E6DA06EB83004A
:1007D000C1B2094800F09AFCA97804EB8102D070FC
:1007E000BDE8F041042000EB81024FF47A73024926
:1007F000034804F060BE0000148F00202CD50008D0
:100800002039002070B51D4C5A202070EF206070F8
:10081000A4F1C805AB78A370012016E029188978E7
:1008200001EB4102164901EB8201421E896804EB8B
:1008300082020E78D6700E88360A16710E68360C53
:1008400056710968090E9171401C8342E6DA032053
:1008500000EB8300C1B2094800F058FCA97804EB12
:100860008102D0700420BDE8704000EB81024FF49B
:10087000FA730249034804F01EBE0000148F0020E2
:100880002CD500082039002070B5174C5A20207054
:10089000F12060700120154DA4F1C8031918421E03
:1008A000497804EB820201EB410105EB8101896883
:1008B0000E7896700E88360AD6700E68360C167151
:1008C0000968090E5171401C0128E7DD0621064820
:1008D00000F01CFCA071BDE87040C823072202494B
:1008E000034804F0E8BD0000148F00202CD5000858
:1008F0002039002070B5174C5A202070F22060700B
:100900000120154DA4F1C8031918421E497804EBC3
:10091000820201EB410105EB810189680E78967036
:100920000E88360AD6700E68360C16710968090EE4
:100930005171401C0228E7DD0A21064800F0E6FB61
:10094000A072BDE87040C8230B220249034804F09E
:10095000B2BD0000148F00202CD5000820390020E3
:1009600070B5174C5A202070F32060700120154D8F
:10097000A4F1C8031918421E497804EB820201EB66
:10098000410105EB810189680E7896700E88360A60
:10099000D6700E68360C16710968090E5171401C2C
:1009A0000328E7DD0E21064800F0B0FBA073BDE888
:1009B0007040C8230F220249034804F07CBD0000A8
:1009C000148F00202CD500082039002070B5174C5A
:1009D0005A202070F42060700120154DA4F1C80346
:1009E0001918421E497804EB820201EB410105EB24
:1009F000810189680E7896700E88360AD6700E6866
:100A0000360C16710968090E5171401C0428E7DD87
:100A10001221064800F07AFBA074BDE87040C8239C
:100A200013220249034804F046BD0000148F002041
:100A30002CD5000820390020F0B4204A1E4E002793
:100A4000D389B6F94802591C8DB231460028D1F835
:100A50004C1201DD002903DB002803DA002901DD47
:100A6000D58119E04FF4FA7C40B9B6F94442002C24
:100A700000DAE443644501DAD7810DE0002900DAA9
:100A8000C943002800DAC043081A604501DDD5815A
:100A900002E00BB15B1ED381D089B0F5FA6F09D9A2
:100AA000D781012086F85C0286F86072F0BC800471
:100AB00005F0E2B9F0BC70472883002060000020F8
:100AC000F0B4002901DA494209B24FF4806670B1EE
:100AD0003B4D3C4A41F29414AF7A42F2D003874234
:100AE00012D1A14207DA43F69840106206E0304680
:100AF000F0BC05F0C1B943F6D8401062936353636C
:100B0000D3639163F0BC7047EF7A87420DD1A14265
:100B100003DA43F69C00106202E043F6DC00106248
:100B200093635363D3639163ECE7AF7987420DD14D
:100B3000A14203DA43F68C10106202E043F68C50B7
:100B4000106293635363D363D163DBE7EF7987422A
:100B50000DD1A14203DA43F6C810106202E043F659
:100B6000C850106293635363D363D163CAE72F7A8B
:100B700087420DD1A14203DA43F6C900106202E0B8
:100B800043F6CD00106293635363D3635163B9E7B7
:100B90006D7A85420DD1A14203DA43F68940106295
:100BA00002E043F68D40106293635363D363516355
:100BB000A8E70728A6D13046F0BC05F05DB90000D3
:100BC0008089002000000140F0B4204A1E4E00271A
:100BD000138AB6F9BC02591C8DB231460028D1F8EF
:100BE000C01201DD002903DB002803DA002901DD42
:100BF000158219E04FF4FA7C40B9B6F9B842002CDE
:100C000000DAE443644501DA17820DE0002900DAD6
:100C1000C943002800DAC043081A604501DD158287
:100C200002E00BB15B1E1382108AB0F5FA6F09D98E
:100C30001782012086F8D00286F8D472F0BCC00476
:100C400005F01AB9F0BC704728830020600000202E
:100C50002DE9F003002901DA494209B24FF40049B5
:100C6000A0B1DFF808C1424C414A18349CF81C80FE
:100C7000251F261D41F2941742F2D003804514D15E
:100C8000B94208DA43F69840106007E04846BDE8EC
:100C9000F00305F0F1B843F6D840106023602B60F4
:100CA00033602160BDE8F00370479CF81D808045EB
:100CB0000DD1B94203DA43F69C00106002E043F61E
:100CC000DC00106023602B6033602160EAE79CF851
:100CD000188080450DD1B94203DA43F68C101060BC
:100CE00002E043F68C50106023602B60336031606B
:100CF000D8E79CF8198080450DD1B94203DA43F654
:100D0000C810106002E043F6C850106023602B60EA
:100D100033603160C6E79CF81A8080450DD1B94236
:100D200003DA43F6C900106002E043F6CD0010601C
:100D300023602B6033602960B4E79CF81BC08445B6
:100D40000DD1B94203DA43F68940106002E043F660
:100D50008D40106023602B6033602960A2E7072874
:100D6000A0D14846BDE8F00305F086B88089002090
:100D70002004014010B5164BB3F85802002818D0D3
:100D8000144A93F95E1290784C1C13D0012911D0AB
:100D9000401CC0B290700A280BD90A209070002025
:100DA00083F860024FF4005005F066F8012083F8E4
:100DB0005C0210BDB3F94412D3F84C32C91A00D505
:100DC000C9431429F5DA0028F3D0401E907010BDF5
:100DD000288300206000002010B5164BB3F8CC0229
:100DE000002818D0144C93F9D212E0784A1C13D082
:100DF000012911D0401CC0B2E0700A280BD94FF471
:100E0000804005F039F80A20E070002083F8D40211
:100E1000012083F8D00210BDB3F9B812D3F8C02274
:100E2000891A00D5C9431429F5DA0028F3D0401EE9
:100E3000E07010BD288300206000002010B504463B
:100E40000023F7EE000A30EE601A18E0BCEEC10A8B
:100E500010EE102A10E0501E04EB800004EB82011B
:100E600090ED000AD1ED000AB4EEE00AF1EE10FABE
:100E700001DD0CF039F8521E9A42ECD85B1C00EEF2
:100E8000103AB8EE400AB4EEC01AF1EE10FADDDC0A
:100E900010BDFEE72DE9F041069D0024154E376B8D
:100EA0003860376B40F6FF707860306B8160306B74
:100EB000C260306B056106E0326B04F11400195D0D
:100EC0001154641CA4B2AC42F6D31421094801F0B9
:100ED00045FD40B1326B08482F231269416803EB8E
:100EE000C20211444160032C02D00020BDE8F08111
:100EF0000120FBE7F8350020E08A0020014801F0DE
:100F000077BA0000F835002010B5002959D0826B5F
:100F10004FF4D873046803EB0113E45804F004049D
:100F20009460002C4FD00468E458E40854600468CE
:100F3000E35803F00203D3604FF4DA73046803EB61
:100F40000113E45804F00F04146111620468E358BB
:100F5000C3F30723D3614FF4DC73046803EB01137D
:100F6000E45814750468E458240A54750468E45875
:100F7000240C94750468E3581B0ED3754FF4DE738C
:100F8000046803EB0113E45814760468E458240A57
:100F900054760468E458240C94760468E3581B0ED5
:100FA000D3762022A1B103681A610268536923F045
:100FB0005003536190F83C20222A0CD0322A0AD0E8
:100FC0000EE0426BA4E70468E458640D1460AEE7D9
:100FD0000368DA60EEE70268536923F40F43536154
:100FE0001222012369B190F83C1052291FD06229C6
:100FF00020D0722922D080F83C3001F07DFC002006
:1010000010BD90F83C10422906D0622907D0722901
:1010100009D080F83C30F0E780F83C20EDE7322141
:1010200080F83C10E9E7522180F83C10E5E780F8B1
:101030003C20E2E7222180F83C10DEE7422180F8E4
:101040003C10DAE710B501684A6922F001024A61F2
:1010500090F83C10122904D101684A6922F40F4229
:101060004A6190F83C1042290AD052290CD07229CA
:101070000ED0012180F83C1001F072FD002010BD5F
:10108000222180F83C10F7E7322180F83C10F3E78A
:10109000622180F83C10EFE73EB50546184C55201C
:1010A0002070662060708820A0709920E07015483C
:1010B000E0601548112101702221417033218170B7
:1010C0004421C17000210122CDE901215038009056
:1010D00002220D4B110304F1AC000AF059FC2179F6
:1010E00004F1AC0009F006FA0F20A860606968609E
:1010F00003B02846BDE83040002109F085BA000061
:101100007402002044332211AC8A0020002203E044
:1011100010F8013B1A4492B2491EC9B2F8D2D0B2BB
:10112000704730B40A46016B51F82210C1F30741F1
:10113000446B4FF0FF3324F812300122431883F838
:101140003820026C30BC10472DE9F04FDDE90A4829
:10115000099E4FF0FF3C3FE0A51AEDB2002D03D0F1
:101160000F7807FA05F700E00F7807F0FF0902D0C3
:10117000C4F1080501E0C2F10805EDB2854200D9CD
:10118000054604EB050A4FF0FF0B0BFA0AF7C4F112
:1011900008042BFA04FB47EA0B0729EA070934780D
:1011A0003C4044EA090434702A44D2B2072A05D9E3
:1011B00000220BB1644600E0012421440AF0FF0440
:1011C000072C07D90024B8F1000F01D0674600E0D2
:1011D00001273E44401BC0B20028BDD1BDE8F08FBE
:1011E0002DE9F041064606EB4600C0EB46114448A7
:1011F00000EB8104B4F92410E28EB4F8400091426F
:1012000064DD401CA4F84000208F814256DD34F894
:10121000420F401C80B220802189423C012707FAFE
:1012200006F54FF00008884208D9304609F08CF8DE
:10123000284604F021FE2776A4F84280B4F9240061
:10124000618F884232DD34F8440F401C80B2208028
:101250002189443C884208D9304609F075F828466F
:1012600004F00AFE2776A4F84480B4F92400A18F84
:10127000884213DD34F8460F401C80B2208021895B
:10128000463C884208D9304609F05EF8284604F00A
:10129000F3FD2776A4F84680BDE8F081B4F8460057
:1012A0000028F9D0401EA4F84600F5E7B4F8440041
:1012B0000028F1D0401EA4F84400EDE7B4F8420045
:1012C0000028E9D0401EA4F84200E5E70028E3D05A
:1012D000401EA4F84000B4F8420010B1401EA4F82B
:1012E0004200B4F8440010B1401EA4F84400B4F821
:1012F00046000028D0D0401EA4F84600CCE70000ED
:1013000028830020014801F02DBC00001C80002033
:101310000168CAB2103A1823B2FBF3F2064B9B5C89
:10132000C3656FF30901032A02D9091D816500E035
:101330008165806D7047000042CF000810B50146FE
:1013400000208A6A8B694FF0C074002B0ED0B3F571
:10135000005F1AD062B3012A2AD0022A28D0032AB9
:1013600003D1C96AC90100D5012010BD1AB1012AF3
:1013700006D0022AF9D1C96AC901F6D5012010BDEB
:10138000C96AA142FBD1012010BD52B1012A0AD085
:10139000022A06D0032AF7D1C96AA142F4D101205A
:1013A00010BD012010BDC96AC901FBD5012010BDC7
:1013B000012010BD30B50468256825F4802525601E
:1013C000046863608368402B04D0036899600068F8
:1013D000C26030BD03689A600068C16030BD70476C
:1013E000411C0CD0074AB2F90010884201D1491EB5
:1013F0001180054A00EB4000002102F830104FF048
:10140000FF307047A83500204C8D00202DE9F84FA3
:10141000FA4C6078401CC2B26270F94E0027B514D5
:10142000642A04D92946304602F053F96770E0690E
:10143000401CE061626914232820DFF8C8834FF460
:1014400000214FF4801C4FF400194FF4800AB2F5CC
:10145000004F79D02DDC802A77D013DC082A75D094
:1014600009DCB2F1004F72D0012A65D0022A72D095
:10147000042A55D177E0102A6BD0202A6AD0402A5E
:101480004ED190E0B2F5006F75D009DCB2F5807FE7
:1014900072D0B2F5007F73D0B2F5806F40D19FE07B
:1014A000AA426BD0B2F5005F69D0B2F5804F37D158
:1014B000F1E0B2F5000F1AD01BDC8A4270D009DCD3
:1014C000B2F5803F6DD0B2F5003F6BD0B2F5802F02
:1014D00026D110E162456ED04A456DD052451FD1EC
:1014E0000093012100230322084604F005FCBDE817
:1014F000F88FB2F1006F70D009DCB2F1807F6DD04F
:10150000B2F1007F6BD0B2F1806F09D1A3E0B2F1EC
:10151000805F75D0B2F1005F73D0B2F1804F71D0AF
:1015200001224021304602F0DDF829464046BDE860
:10153000F84F012202F0D6B8009300230122114691
:10154000184604F0D9FBD2E752E05CE035E02EE12A
:1015500001E03AE01CE0009300230222012118463A
:1015600004F0CAFBC3E700930023032201211846BD
:1015700004F0C2FBBBE7AEE051E001E0FBE082E03B
:101580000093002304220121184604F0B5FBAEE7C6
:101590000093002305220121184604F0ADFBA6E7C5
:1015A000B1E0A0E0F5E000930023062201211846F7
:1015B00004F0A2FB9BE776E07DE000930023072286
:1015C0000121184604F098FB91E7009300230822BC
:1015D0000121184604F090FB89E744E09BE072E0AB
:1015E000012300901A460021184604F085FB7EE78F
:1015F000012300901A461946002004F07DFB76E78F
:1016000039E018E01FE000224021304602F06AF87D
:1016100000222946404602F065F8E76167E70022AC
:101620004021304602F05EF801222946404602F091
:1016300059F8E7615BE70093002301221946104641
:1016400004F05AFB53E700930023022219460120BD
:1016500004F052FB4BE700930023032219460120BC
:1016600004F04AFB43E700930023042219460120BB
:1016700004F042FB3BE700930023052219460120BA
:1016800004F03AFB33E700930023072219460120B8
:1016900004F032FB2BE700930023082219460120B7
:1016A00004F02AFB23E70122009300231146104691
:1016B00004F022FB1BE700930121002302220846CD
:1016C00004F01AFB13E700930121002304220846CB
:1016D00004F012FB0BE700930121002305220846CA
:1016E00004F00AFB03E700930121002306220846C9
:1016F00004F002FBFBE600930121002307220846C9
:1017000004F0FAFAF3E600930121002308220846C8
:1017100004F0F2FAEBE6A169102906D020290CD0DA
:10172000402912D080291FD117E000930121002306
:101730000522084604F0E0FA16E000930121002398
:101740000622084604F0D8FA0EE000930121002397
:101750000722084604F0D0FA06E000930121002396
:101760000822084604F0C8FA3046BDE8F84F0022C7
:10177000402101F0B7BF012200930023114610461B
:1017800004F0BAFA29464046BDE8F84F002201F0BD
:10179000A9BF0093012100230222084604F0ACFAFD
:1017A00029464046BDE8F84F002201F09BBFA069E2
:1017B000884213D0604519D0484525D0504506D100
:1017C0000093012100230922084604F095FA2946D6
:1017D0004046BDE8F84F002201F084BF009301218C
:1017E00000230622084604F087FAF0E7009301215F
:1017F00000230722084604F07FFAE8E76000002093
:10180000000402400000024000930121002308224E
:10181000084604F071FADAE7012001F06DBE10B558
:101820004FF4806001F068FE4FF4006001F064FE48
:101830004FF4005001F060FE4FF4804001F05CFE78
:10184000BDE810404FF4004001F056BE022001F008
:1018500053BE042001F050BE082001F04DBE102000
:1018600001F04ABE10B5202001F046FE402001F0F4
:1018700043FE802001F040FEBDE810404FF40070B0
:1018800001F03ABE72B6FEE70022002905D0012918
:101890001AD002291BD04FF440720E490B6823F472
:1018A00040730B600B6813430B600A6822F0F80268
:1018B0000A600A68022303EBC00002430A6008685A
:1018C00040F48030086070474FF48072E5E74FF4D1
:1018D0000072E2E7103C02401348016889050FD509
:1018E000016821F400710160016841F40061016048
:1018F000016821F400610160016841F40071016038
:10190000016849050FD5016821F480610160016813
:1019100041F480510160016821F480510160016847
:1019200041F4806101607047003C024008490A6848
:1019300022F440720A600A6842F004020A600A68EF
:101940004FF4803343EA002002430A6070470000EE
:10195000103C0240064A136823F440731360136876
:101960001360136843F001031360017070470000B7
:10197000103C024010B509490C6824F440740C6016
:101980000C6844F440740C600C6844F001040C6072
:101990000260BFF36F8F436010BD0000103C024037
:1019A000074A136823F440731360136843F4807389
:1019B0001360136843F00103136001807047000057
:1019C000103C0240074A136823F440731360136805
:1019D00043F400731360136843F001031360016064
:1019E00070470000103C024017490868C2061748BB
:1019F00005D5C26942F01002C26110220A600A686D
:101A0000920605D5C26942F00802C26120220A602E
:101A10000A68520605D5C26942F00402C26140223A
:101A20000A600A68120605D5C26942F00202C26164
:101A300080220A600A68920705D5C26942F0200236
:101A4000C2610220086070470C3C02407C8000208C
:101A500070B5044611490020C86101F04BFE0546EF
:101A60000F4E09E0601C07D024B101F043FE401B7B
:101A7000A04201D9032070BD3068C003F2D43068A1
:101A8000C00701D001203060306810F0F20F03D0A1
:101A9000FFF7AAFF012070BD002070BD7C800020F0
:101AA0000C3C024007485A210170E221417000219C
:101AB0008170F021C17001464FF47A73042202480C
:101AC00003F0F9BCC63500202039002030B5094AA2
:101AD0000021094C0AE001EB410304EB83035D792B
:101AE00015B99B6820CA1D60491C89B28142F2D396
:101AF00030BD0000000004082CD5000800EB4001B8
:101B0000C1EB40110D4800EB810090F91A1001293A
:101B100001D04A1C0FD1C38AC26E5A43084B93FBB3
:101B2000F2F24A438260074A816E1268511A022912
:101B300001D900218160008900B27047288300200C
:101B4000008793034C00002010B504460B46204646
:101B50000AF000FD08B1012010BD2188E288A068CC
:101B600001FB02011846FEF75CFB2088A188401C9F
:101B7000B0FBF1F201FB12002080002010BD00003C
:101B800001460020A1F100624FF480439A4204D341
:101B900020480844984201D2012070471E4808445A
:101BA000984201D2022070471C480844984201D252
:101BB000032070471A480844B0F5803F01D2042042
:101BC000704718484FF400320844904201D2052073
:101BD000704715480844904201D2062070471348C8
:101BE0000844904201D207207047114808449042AF
:101BF00001D2082070470F480844904201D20920C2
:101C000070470D480844904201D20A2070470B20CB
:101C10007047000000C0FFF70080FFF70040FFF7AB
:101C20000000FFF70000FEF70000FCF70000FAF7E5
:101C30000000F8F70000F6F70000F4F714494FF43D
:101C4000806208280BD2DFE800F004131B170B0F8B
:101C5000071F104604F010B943F69C400862704715
:101C600043F69C100862704743F6CC100862704738
:101C700043F6C9100862704743F6C94008627047CE
:101C800043F6994008627047104604F0F5B800002A
:101C90000000014014494FF4004208280BD2DFE84D
:101CA00000F004131B170B0F071F104604F0E4B8D5
:101CB00043F69C400860704743F69C1008607047EC
:101CC00043F6CC100860704743F6C91008607047AF
:101CD00043F6C9400860704743F699400860704772
:101CE000104604F0C9B800002004014070B50B4D47
:101CF0004FF40041284601F0E5FC44004FF48041D8
:101D0000284601F0DFFC204344004FF400512846F0
:101D100001F0D8FC204300F0070070BD000802402D
:101D20007047000010B590F83C20012A2AD001220B
:101D300080F83C200A7C012A26D00268536823F0F0
:101D40004003536002685368124C2340536002689A
:101D500053680C682343536003684A685A620368F7
:101D60008A689A620268536823F01F03536002680E
:101D70005368898989B20B435360002180F83C1075
:101D8000002010BD022010BD0268536843F04003DC
:101D90005360D7E7FFFD3FFF78B50024009490F82B
:101DA0003C20012A19D0012280F83C200A6807252E
:101DB000092A14D90368DE680A3A02EB4202954008
:101DC000AE43DE600A788B680A3A02EB4202934027
:101DD0000268D5682B43D36011E0022078BD036808
:101DE0001E6902EB42029540AE431E610A788B6881
:101DF00002EB42029340026815692B4313614A6863
:101E00001F25072A13D203685E6B521E02EB820263
:101E10009540AE435E630A8893B20A79521E02EB84
:101E2000820293400268556B2B43536328E00D2ACE
:101E300013D203681E6BD21F02EB82029540AE43A1
:101E40001E630A8893B20A79D21F02EB8202934082
:101E50000268156B2B43136312E00368DE6A0D3AC8
:101E600002EB82029540AE43DE620A8893B20A79A1
:101E70000D3A02EB820293400268D56A2B43D3628B
:101E8000174A184B05689D4206D10D68122D03D1E3
:101E9000556845F48005556005689D421BD10B6867
:101EA000102B01D0112B16D1536843F4000353605B
:101EB000096810290FD10C490C4A0968B1FBF2F1ED
:101EC00001EB81014900009102E00099491E009157
:101ED00000990029F9D180F83C40002078BD00002D
:101EE00000230140002001405C00002040420F0020
:101EF00070477047704770B5044620680168C1F3A9
:101F000040014268C2F3401200292AD04AB3216C32
:101F1000C90603D4216C41F400712164816811F079
:101F2000405F17D1217EA9B9C16A11F4700F02D0A8
:101F3000816849050ED4416821F020014160206C80
:101F400020F480702064206CC00403D4206C40F026
:101F500001002064A16C2046884721686FF01200C0
:101F6000086020680168C1F380014268C2F3C012B2
:101F700089B382B3216CC90603D4216C41F40051AA
:101F80002164816811F4401F1ED1816B11F4401F40
:101F900002D08168490517D44168490514D4816885
:101FA00011F0405F10D1217E71B9416821F08001AC
:101FB0004160206C20F480502064206CC00503D464
:101FC000206C40F001002064A16D20468847216804
:101FD0006FF00C00086020680168C1F300014268DE
:101FE000C2F3801271B16AB10068C0070AD0206CD8
:101FF00040F480302064216D2046884721686FF0CE
:102000000100086020680168C1F340114268C2F312
:10201000806200290DD0002A0BD0616C41F00201D2
:1020200061646FF020050560616D20468847206877
:10203000056070BD70B504460026002C03D0206CEE
:10204000002510B115E0012070BD1648A0641648A7
:10205000E06416482065164860651648A065E06D86
:1020600008B91548E065E16D20468847656484F845
:102070003C50206CC00610D4206C20F4885040F0F6
:10208000020020642046FEF7E3FA6564206C20F02D
:10209000020040F00100206400E0012684F83C507A
:1020A000304670BDF11E0008F31E0008BD20000878
:1020B000F51E0008211D0008E920000809490868EC
:1020C0000268D20707D0426822F0400242600A68E4
:1020D0006FF0010010600868416841F04001416004
:1020E000704700007C36002070B586B0064614218B
:1020F00001A8FEF7AFF826493068884246D100258E
:102100002448016841F480710160006800F4807027
:10211000009020491439086840F0040008600868FD
:1021200000F004000090086840F0010008600868B2
:1021300000F0010000903F200190032402940395D9
:1021400001A9154801F0E4F95F200190029403957C
:1021500001A9124801F0DCF9124C114820606560B9
:10216000A560E56000152061800060618000A061CD
:102170008011E0614FF4403020626562204600F03B
:10218000D9FD08B1FFF77EFBB463A66306B070BD4E
:102190000020014044380240000802400000024094
:1021A000106402401C800020F8B50446134600224B
:1021B000009294F83C00012807D0012084F83C00EC
:1021C00020688568ED0702D014E00220F8BD85681C
:1021D00045F0010585603E483E4D0068B0FBF5F0D6
:1021E00000EB4000009002E00098401E0090009834
:1021F0000028F9D120688568ED0766D0256C40F28B
:102200000166B54345F4807525644068400505D5F1
:10221000206C20F4005040F480502064206CC004F6
:1022200004D5606C20F00600606400E0626484F80D
:102230003C20294EA26B2948D063A26B2848106429
:10224000A26B2848D06422686FF0220010602068DA
:10225000426842F0806242602068826842F4807284
:10226000826020680A464C30A56B0146284600F083
:10227000CBFD70681C49C00607D02068884224D175
:10228000816811F0405F1CD01FE0206888420FD0A9
:10229000164A904203D1D1F80423D20608D0144A3A
:1022A000904212D1D1F8041301F01F0110290CD271
:1022B000816811F0405F08D1816841F08041816000
:1022C00003E0816841F0804181600020F8BD00009A
:1022D0005C00002040420F0000230140C7050008B9
:1022E0003D0600082B0600080020014000210140A7
:1022F0000022014010B5087D012282403A4800F5D5
:102300000070036843F001030360036823F47C5307
:10231000036003684C6A43EA04230360C369934380
:10232000C361A0F50070CB69002B16D1D0F80C3238
:102330009343C0F80C328C894B6864F31F434C699B
:1023400000EBC404C4F840320C890B6864F31F43EB
:102350004C6900EBC404C4F84432CB69012B16D19C
:10236000D0F80C321343C0F80C320C884B6864F37D
:102370001F434C6900EBC404C4F840320C89CB689D
:1023800064F31F434C6900EBC404C4F844328B6906
:102390003BB1D0F804321343C0F804320B6933B1B7
:1023A0000AE0D0F804329343C0F80432F6E7D0F8DC
:1023B00014329343C0F814320B69012B04D1D0F8C6
:1023C00014321343C0F81432096A012904D1D0F839
:1023D0001C121143C0F81C12D0F8001221F00101A8
:1023E000C0F80012002010BD0064004070470000DB
:1023F00070B5044600252068C168C1F30011426928
:10240000C2F3C0021023002902D00AB15D01C360EB
:1024100020680169C1F300114269C2F3801219B149
:1024200012B145F48065036120684169C943C90759
:102430002ED18268694991431DD000218368684A82
:102440009A431AD000228668664BB34317D0002304
:10245000114319431CD08168C1F340018268C2F363
:1024600040228068C0F340401143014309D0204618
:10247000FEF7E8FD07E00121E0E70122E3E70123A1
:10248000E6E745F4006520688168574A114381609A
:102490002068C16801F003014069C0F3400021B128
:1024A00018B100212046FEF72FFD2068016901F0D8
:1024B00003014069C0F3001021B118B10121204689
:1024C000FEF722FD206C2843206420688169C1F357
:1024D00000024169C1F300214369C3F3C0332AB14B
:1024E00021B11BB1216C41F0010121648169C1F36B
:1024F00040014269C2F340224369C3F3C03329B1AA
:1025000022B11BB1216C41F0020121648169C1F348
:1025100080014269C2F380224369C3F3C03329B109
:1025200022B11BB1216C41F004012164816911F0D9
:10253000700F08D000214269C2F3C0224369C3F37F
:10254000C03311B136E00121F5E79AB393B3816945
:1025500001F0700140291BD006DC102909D0202988
:102560000CD0302922D10EE0502916D060291DD17F
:1025700018E0216C41F00801216417E0216C41F062
:102580001001216412E0216C41F0200121640DE072
:10259000216C41F04001216408E0216C41F0800190
:1025A000216403E0216C41F480712164816921F090
:1025B00070018161206C00280ED0216804204860E1
:1025C000012084F83C002068416948F6517291432B
:1025D00041612046FFF70AFF70BD000003000004C0
:1025E0000003000800000310190501002DE9F04167
:1025F00004460026002C04D094F83C00002718B1B3
:1026000007E00120BDE8F08184F83D70204600F02D
:10261000AFF8022084F83C002068016821F0020134
:1026200001602068016841F00101016001F062F879
:1026300005464FF003080AE001F05CF8401B0A2849
:1026400005D984F83C8084F83D700320DAE72068DF
:102650004068C007F0D020684168C9077BD0A169F5
:10266000012940D0016821F080010160E069012862
:102670003ED02068016821F040010160206A0128F5
:102680003CD02068016821F020010160606A0128C7
:102690003AD02068016821F010010160A06A012889
:1026A00038D02068016821F008010160E06A012843
:1026B00036D02068016821F004010160D4E90201EC
:1026C0000843D4E90412114308436168491E0843D2
:1026D0002168C8612068016821F00101016001F0F2
:1026E00009F805462EE0016841F080010160BDE770
:1026F0002068016841F040010160BFE7206801687F
:1027000041F020010160C1E72068016841F010013B
:102710000160C3E72068016841F008010160C5E776
:102720002068016841F004010160C7E700F0E2FFA2
:10273000401B0A2806D984F83C8084F83D700320A9
:1027400060E708E020684068C007EFD12068406873
:10275000C00700D10126012E04D0042084F83C00DB
:1027600001204FE72764012084F83C00002049E75E
:1027700010B586B00446142101A8FDF76BFD1C4975
:102780002068884231D100211A48026842F0007264
:102790000260026802F000720092026842F08062F9
:1027A0000260006800F080600090124810380268F3
:1027B00042F002020260006800F00200009042F263
:1027C0002000019002200290039101200490092032
:1027D000059001A9084800F09BFE084908484A6B8B
:1027E000C0F84C22096BC0F8501206B010BD0000B2
:1027F000006800404038024000040240F8350020E4
:102800002003002030B500290FD190F83C20222A67
:102810000ED090F83C20422A0AD090F83C20622A40
:1028200006D090F83C20722A02D0012902D011E093
:10283000022030BD90F83C20322A32D090F83C2063
:10284000522A2ED090F83C20622A2AD090F83C20C0
:10285000722A26D090F83D20012A24D0012280F847
:102860003D206223722401B390F83C20122A32D01A
:10287000222A34D0422A35D0322280F83C2000234C
:1028800003640268546940F601752C43546180F872
:102890003D3051B30068416941F050014161002071
:1028A00030BD022030BD022030BD90F83C20122AFD
:1028B00007D0322A09D0522A0AD0222280F83C209E
:1028C000DDE7422280F83C20D9E780F83C30D6E7AB
:1028D00080F83C40D3E7522280F83C20CFE780F8D4
:1028E0003C30CCE780F83C40C9E70068416941F0E2
:1028F0000A014161D3E7000010B5ADF5167D04462D
:1029000012490868C00602D508680020086010480F
:10291000D0F84C12886888B90E4A09692F2350688C
:1029200003EBC101084450604FF41572084901A837
:10293000FDF777FC01A9084806F030F90021204690
:10294000FFF760FF0DF5167D10BD00000C6800401C
:1029500020030020E08A0020EC7F00202DE9F05FBA
:1029600004460E4622689068400105D49068000134
:1029700002D49068C00075D594F83D00012812D0AB
:10298000012784F83D7094F83C0022280ED03228AC
:1029900010D0622812D0122084F83C0090684001C8
:1029A00010D5002514E00220BDE8F09F422084F8F5
:1029B0003C00F3E7522084F83C00EFE7722084F8F3
:1029C0003C00EBE79068000101D5012500E00225FD
:1029D0004FF4C07000EB0510115801F001011150C7
:1029E000216B8A68EAB3236853F800C04CEA020CF2
:1029F000CA68496842EAC1014CEA010C43F800C0C8
:102A0000216B0A7C02F00F020A614FF4C271226846
:102A100001EB0511535823F00F035350226853580C
:102A2000D4F830C0DCF810C043EA0C035350216BDB
:102A30000A7DCB7D42EA03628B7D497D1B0443EA1C
:102A400001210A434FF4C473216803EB0513CA50F4
:102A5000216B0A7ECB7E42EA03628B7E497E1B0499
:102A600001E018E070E043EA01210A434FF4C67325
:102A7000216803EB0513CA5021680A5842F001028D
:102A80000A5000F037FE80464FF00009DFF8C4A07E
:102A9000DFF8C4B02AE022681358D1F80CC00988C6
:102AA00043EA0C0343EA41511150A9E7701C1DD0C1
:102AB0002EB100F01FFEA0EB0800B04216D9032093
:102AC00084F83C004DB1012D0BD021684FF400007B
:102AD000886084F83D90032066E721688020886044
:102AE000F7E721684FF400408860F2E7A5B1012DB7
:102AF00018D02068816819488843D7D194F83C00E1
:102B0000422815D0522817D0722819D084F83C706A
:102B100084F83D90002047E7206880683AEA00008A
:102B2000ECD0C3E7206880683BEA0000E6D0BDE750
:102B3000222084F83C00EBE7322084F83C00E7E7F1
:102B4000622084F83C00E3E7042084F83C00012084
:102B50002AE700000300000400030008000003103F
:102B6000704700002DE9F84304464FF00009CDF806
:102B700000906F484FF416510068B0FBF1F7A56D57
:102B80002E6894F85C00082202FA00F1314210D05D
:102B90002068016849070CD5016821F00401016033
:102BA00094F85C0002FA00F1A960606D40F0010049
:102BB000606594F85C104FF0010808FA01F03042AB
:102BC00008D021684969090604D5A860606D40F005
:102BD0000200606594F85C1004208840304208D000
:102BE00021680968890704D5A860606D40F0040079
:102BF000606594F85C1010208840304220D0216835
:102C0000096809071CD5A8602068016849030CD52C
:102C10000068000304D4216C91B1204688470FE07E
:102C2000A16C69B1204688470AE00168C90503D450
:102C3000016821F008010160216C09B12046884734
:102C400094F85C102020884030424CD021680968FC
:102C5000C90648D5A86094F8350005280BD020682F
:102C60000168490330D50068000328D4616C51B372
:102C70002046884737E02068016821F0160101608E
:102C80002068416921F080014161206C08B9A06C85
:102C900020B12068016821F00801016094F85C10FF
:102CA0003F208840A86084F8349084F83580216DF6
:102CB00000293BD001B02046BDE8F0430847E16B56
:102CC00009B1204688470EE00168C90507D40168AC
:102CD00021F01001016084F8349084F83580E16BB4
:102CE00009B120468847606D00281FD0606DC0077D
:102CF00014D0052084F835002068016821F0010116
:102D000001600098401C0090B84203D82068006819
:102D1000C007F6D184F8349084F83580E16C00293E
:102D200004D001B02046BDE8F0430847BDE8F88371
:102D30005C0000202DE9F041044600F0DBFC054674
:102D40005CB1002684F83460022084F835002068E5
:102D5000016821F0010101600DE00120BDE8F08172
:102D600000F0C8FC401B052805D920206065032021
:102D700084F83500F2E720680068C007F0D12168C8
:102D80000A6820480240D4E901031843D4E9033516
:102D90002B43184363691843A3691843E369184335
:102DA000236A18431043626A042A03D1D4E90B232F
:102DB0001A43104308602068406920F00700656AE4
:102DC00029460543012704290DD1A06A0543E06A7D
:102DD00048B12046FEF7B2FA28B14020606584F879
:102DE00035700120BAE7206845612046FEF790FA69
:102DF00094F85C203F2191408160666584F83570CD
:102E00000020ABE73F8010F02DE9F041044600259B
:102E1000A66D94F8340001280DD0012084F8340008
:102E200094F835700020012F07D084F83400022573
:102E30002846BDE8F0810220FBE7022784F83570C0
:102E400060652046FEF7B6FA94F85C103F20884093
:102E5000B0602068016841F016010160206C20B16B
:102E60002068016841F0080101602068016841F0B4
:102E700001010160DCE700002DE9F04704460E4641
:102E8000DFF88C8098F8180001280BD0012088F812
:102E900018004CF250394846FEF7DAFD02461000A1
:102EA00003D02FE00220BDE8F0874FF0FF30306004
:102EB0002068184F012801D0A5681CE0207C6168BB
:102EC000FEF734FD4846FEF7C3FD0246386820F0A1
:102ED0000400386014E0217C2846FEF7D5FC484603
:102EE000FEF7B6FD0246386820F0FA0038600AB1F5
:102EF000356005E06D1CD4E902100844A842EAD808
:102F0000FEF7EAFC002088F818001046CBE7000026
:102F10007C800020103C02400348016841F00041E1
:102F20000160002070470000103C02402DE9F0478E
:102F30000646894614461D46194F387E012808D09A
:102F4000012038764CF250384046FEF781FD18B12A
:102F500014E00220BDE8F0879EB1012E16D0022EAB
:102F600019D022462B464846FEF704FD4046FEF7A0
:102F70006FFD0C490A6822F001020A6000213976CF
:102F8000E8E7E1B24846FEF7E5FCEFE7A1B24846C4
:102F9000FEF706FDEAE721464846FEF713FDE5E7A2
:102FA0007C800020103C0240002007490A68002A6B
:102FB00009DA054A054B0C3A1360054B13600968A2
:102FC000002900DA01207047103C024023016745C8
:102FD000AB89EFCD2DE9F05F0446DFF80084DFF820
:102FE000F493DFF8F4B3FE4DDFF8F8A3FE4EA8F13A
:102FF0000207202C03D0402C01D0802C6FD196F8F2
:10300000A11286F8A212DAF80000C0F3421086F886
:10301000A10240EAC101CAB286F8A32298F90010C1
:1030200019F8022011FB02F252B286F85E229BF8D8
:103030000030082B04D0012A24D0521C22D04EE0AC
:10304000431E062B18D22B7B012B0AD0022B0AD051
:10305000032B0AD0042B0AD0052B0AD0062B0AD04A
:103060000AE0A87108E0E87106E0287204E06872DE
:1030700002E0A87200E0E872002A30DA484288F8DC
:1030800000002CE0FDF776FE96F8A102012814D18D
:10309000D649096889B2A6F8A612B6F8A822B6F8E9
:1030A000ACC28B1A7A68A2EB0C0C03EB0C43C6F88B
:1030B000B032A6F8A812C6F8AC2296F85C1271B924
:1030C000B6F95812002906DA80F0070086F8A40243
:1030D000FDF7F6FC03E086F8A502FDF7F1FCB4F578
:1030E000005F05D0B4F5804F02D0B4F5004F7FD11A
:1030F00006F2153630787070FEF7F8FD3070717892
:1031000040EAC101C9B2B17098F8012019F8011064
:1031100012FB01F149B206F8431CA6F215369BF8E2
:103120000020092A07D0012930D0491C2ED0E8B34D
:10313000072859D05CE0411E062919D2A97F012930
:103140000AD002290AD003290AD004290AD0052965
:103150000AD006290AD00FE028760DE068760BE049
:10316000A87609E0E87607E0287705E0687703E0CD
:103170004FF4004002F080FE96F9D202002837DAC0
:1031800098F80100404288F8010031E0FDF724FE84
:1031900096F81503012814D19449096806F5477675
:1031A00089B226F8021C32888B1A00E01CE0B58830
:1031B0007A68551B03EB0543B36031807260A6F556
:1031C000477696F8D01299B9B6F9CC12002906DAEA
:1031D00080F0070086F81803FDF73AFD08E086F84E
:1031E0001903FDF735FD03E04FF4004002F044FE03
:1031F000012C12D1B6F91200002807DDB6F86200E2
:1032000058B1A0F10100A6F8620006E005DAB6F8B0
:10321000620000F10100A6F86200022C12D1B6F99A
:103220008600002807DDB6F8D60058B1A0F10100ED
:10323000A6F8D60006E005DAB6F8D60000F10100DF
:10324000A6F8D600042C12D1B6F9FA00002807DD42
:10325000B6F84A0158B1A0F10100A6F84A0106E00B
:1032600005DAB6F84A0100F10100A6F84A01082C77
:1032700012D1B6F92604002807DDB6F8760458B155
:10328000A0F10100A6F8760406E005DAB6F87604A7
:1032900000F10100A6F87604DFF854B1DFF854918C
:1032A0004FF000054FF00108102C07D1DAF80000AC
:1032B0000009C00708D03888401E3880DFF838A1E0
:1032C000B4F5006F1ED046E0DAF800000009C00730
:1032D000F4D13888401C3880454820300560001DF6
:1032E00005600560CBF8008086F8D4524349087821
:1032F000401C087086F8D08299F80100401C89F8BB
:103300000100DBE7DAF81000C00AC00723D1DAF8C1
:103310001000C00AC0071ED1394944F2A21008604B
:103320003849086036482038C0F8008035482038D1
:10333000C0F80080A6F87051A6F8E45186F87851DC
:1033400086F8EC5186F8748186F8E88199F80200D5
:10335000401C89F80200B4F5806F7DD1DAF81000C6
:10336000800AC00778D1DAF81000800AC0077BD144
:103370004FF080477D63BD631A4801221146103823
:1033800000F0B0F9174801220221103800F0AAF924
:10339000B582FD633D64134801220421103800F01A
:1033A000A1F9104801220821103800F09BF9A6F875
:1033B000885015480560001D0560811509480122E7
:1033C000103800F08FF9074801225102103800F040
:1033D00089F91BE002CF00080A0000204A00002003
:1033E00080890020100C0240288300202414004013
:1033F00014040140410000200000024007000020AA
:10340000344401403448014034080040A6F8FC50E0
:1034100034480560001D056001150122324800F0A6
:1034200061F90122D102304800F05CF9A6F8285475
:10343000C7F814802B482838C0F80080357786F804
:10344000905086F8045186F8305486F8188086F833
:103450008C8086F8008100E006E086F82C8499F8DC
:103460000300401C89F80300B4F5007F38D1DAF876
:103470001000400AC00733D1DAF81000400AC00734
:103480002ED11A4942F2D1000860091D086018487F
:10349000056018480564C0F8148014482038C0F846
:1034A0000080CBF80080A6F89C54A6F81055A6F82A
:1034B0008455A6F8F85586F8A45486F8185586F869
:1034C0008C5586F8005686F8A08486F8148586F810
:1034D000888586F8FC8599F80400401C89F804006A
:1034E000BDE8F09F3C080040000C0240340400405E
:1034F000400401400000014010B504490A6802423E
:1035000002D00860FFF766FD10BD0000143C0140CA
:103510002DE9F84F0022DFF880A14FF003084FF0AB
:103520000F090AF1040B012595400B682B40AB42B3
:1035300072D14C68012C05D0022C03D0112C01D083
:10354000122C10D18668540008FA04F7BE43CF68E5
:10355000A740374387604468AC430D79C5F3001535
:10356000954025434560C468570008FA07F5AC4309
:103570008E68BE402643C6604C68022C01D0122CD7
:1035800012D1D40800EB840CDCF820605407E40E60
:1035900009FA04FE26EA0E06D1F810E00EFA04FE3F
:1035A0004EEA060ECCF820E00468AC430D7905F035
:1035B0000305BD40254305604C68E40065D5374CE4
:1035C000256845F480452560246804F4804400940F
:1035D000334C22F003052544D5F808789407260FCC
:1035E00009FA06F4A7432F4CA04201D1002424E09D
:1035F0002D4CA04201D101241FE02C4CA04201D14E
:1036000002241AE02A4CA04201D1032415E0294CDF
:10361000A04202D1042410E037E0274CA04201D19F
:1036200005240AE0254CA04201D1062405E0244CE3
:10363000A04201D1072400E00824B4403C43C5F86F
:103640000848DAF800409C434D68ED0300D51C4360
:10365000CAF80040DBF800409C434D68AD0300D53C
:103660001C43CBF800400C4D08352C689C434E6839
:10367000F60200D51C432C60074D0C352C689C438A
:103680004E68B60200D51C432C60521C102AFFF471
:103690004AAFBDE8F88F0000003C014044380240CA
:1036A00000300140000002400004024000080240D7
:1036B000000C0240001002400014024000180240BA
:1036C000001C02400069084201D001207047002020
:1036D0007047426931EA020201D0816170470904F2
:1036E00081617047002A01D08161704709048161BE
:1036F00070470000014880687047000050000020BB
:1037000000684AF6AA2101600020704702488168DB
:1037100002781144816070475000002010B50B48BA
:10372000016841F400710160016841F48061016049
:10373000016841F480710160032000F083F80020EB
:1037400000F006F800F026F8002010BD003C024012
:1037500070B504460D4D4FF47A712878B1FBF0F046
:103760000B490968B1FBF0F000F084FD08B10120BD
:1037700070BD102C07D200222146501E00F042F8E6
:103780006C60002070BD012070BD00005000002062
:103790005C00002082B00B48016841F48041016068
:1037A000006800F4804001900648001F016841F065
:1037B00080510160006800F080500190052002B047
:1037C00000F040B84438024000280DDB00F01F0232
:1037D000012191404009800000F1E020C0F88011F3
:1037E000BFF34F8FBFF36F8F7047002809DB00F0E6
:1037F0001F02012191404009800000F1E020C0F843
:1038000000117047F0B40D460D4B1B68C3F3022343
:10381000C3F10704042C00D90424191D072901D27F
:10382000002300E0DB1E012606FA04F1491E2940B0
:1038300099409E40761E16403143F0BC07F066BEAC
:103840000CED00E000F00701054A10684FF6FF0399
:10385000184040EA01200349084310607047000007
:103860000CED00E00000FA052DE9F04704460D4696
:10387000002C13D0DFF82891D9F80000EFB200F047
:103880000F00A8420CD289F80070D9F8000000F0AF
:103890000F00A84204D00120BDE8F0870120FBE71B
:1038A0002068404E810712D5400703D5306840F4A8
:1038B000E05030602078000703D5306840F4604065
:1038C00030603068A16820F0F00008433060207854
:1038D000C00731D0334960680839012808D0022870
:1038E0000BD0032809D0096889070BD40120D3E73E
:1038F0000968890306D40120CEE70968890101D44B
:103900000120C9E7316821F0030101433160FFF76D
:10391000F1FE804641F2883A07E0FFF7EBFEA0EBAC
:103920000800504501D90320B6E73068616800F00F
:103930000C00B0EB810FF0D1D9F8000000F00F00BF
:10394000A84209D989F80070D9F8000000F00F00EA
:10395000A84201D001209FE72078400705D53068B4
:10396000E16820F4E050084330602078000706D575
:103970003068216920F4604040EAC100306000F006
:103980003FF83168084AC1F30311515CC840074948
:10399000086007480068FFF7DBFE00207CE70000B6
:1039A000003C0240083802404ACF00085C0000207A
:1039B0005400002001480068704700005C000020AF
:1039C00000B5FFF7F7FF04490968044AC1F38221F3
:1039D000515CC84000BD0000083802405ACF0008C2
:1039E00000B5FFF7E7FF04490968044AC1F3423113
:1039F000515CC84000BD0000083802405ACF0008A2
:103A000010B51748006810F00C01164816D0164B78
:103A1000042912D0082911D1114C241F216801F06A
:103A20003F02216849020AD52068C0F38810A0FB34
:103A300003010023FCF7C4FB09E0184610BD216810
:103A40000023C1F38811A1FB0001FCF7B9FB216839
:103A5000C1F30141491C4900B0FBF1F010BD000069
:103A6000083802400024F40040787D012DE9F84F29
:103A70000446002C13D02078DFF8AC83C007A8F1EF
:103A8000040556D008F104000168C1F38101012941
:103A90000CD00068C0F38100022803D00DE00120A3
:103AA000BDE8F88FD8F80000400206D528688003EA
:103AB0003FD5606870BB0120F2E76068B0F5803FD9
:103AC00010D0B0F5A02F12D0286820F480302860E4
:103AD000286820F4802028606068E0B1FFF70AFEC3
:103AE000064614E0286840F480302860F4E728682F
:103AF00040F480202860286840F480302860EBE79C
:103B0000FFF7F8FD801B642801D90320C8E7286867
:103B10008003F5D50DE0FFF7EDFD064606E0FFF763
:103B2000E9FD801B642801D90320B9E728688003D8
:103B3000F5D42078BD4F80074FF0000948D5BA482A
:103B4000001D016811F00C0F08D00068C0F381005F
:103B5000022813D1D8F8000040020FD4286880074B
:103B600004D5E068012801D0012099E7286821697F
:103B700020F0F80040EAC100286029E0E068B8B110
:103B800001203860FFF7B6FD064606E0FFF7B2FDFC
:103B9000801B022801D9032082E728688007F5D519
:103BA0002868216920F0F80040EAC10028600FE091
:103BB000C7F80090FFF79EFD064606E0FFF79AFD66
:103BC000801B022801D903206AE728688007F5D402
:103BD0002078000729D5DFF850A2954861690AF1DD
:103BE000700A89B101210160FFF784FD064606E0F5
:103BF000FFF780FD801B022801D9032050E7DAF887
:103C000000008007F4D510E0C0F80090FFF772FDC7
:103C1000064606E0FFF76EFD801B022801D903204F
:103C20003EE7DAF800008007F4D4207840076ED52C
:103C300000267D483C300068C0000AD47A483C30F9
:103C4000016841F080510160006800F080500090F0
:103C50000126DFF8E0B1DBF80000C00515D4DBF881
:103C6000000040F48070CBF80000FFF743FD82466F
:103C700007E0FFF73FFDA0EB0A00022801D903206F
:103C80000EE7DBF80000C005F3D5DFF89CB1A068B3
:103C90000BF16C0B012813D0052818D0DBF80000BD
:103CA00020F00100CBF80000DBF8000020F0040059
:103CB000CBF80000A06830B3FFF71CFD82461DE082
:103CC000DBF8000040F00100CBF80000F2E7DBF881
:103CD000000040F00400CBF80000DBF8000040F0EA
:103CE0000100CBF80000E5E7FFF704FDA0EB0A01B7
:103CF00041F28830814201D90320D1E6DBF800008F
:103D00008007F1D512E0FFF7F5FC82460AE015E0E6
:103D1000FFF7F0FCA0EB0A0141F28830814201D9A3
:103D20000320BDE6DBF800008007F1D4012E05D1A9
:103D30003D483C30016821F080510160A069B8B372
:103D40003949091D0968C1F38101022947D00228B8
:103D500005D0C7F86090FFF7CDFC04463BE0C7F8FC
:103D60006090FFF7C7FC064606E0FFF7C3FC801B28
:103D7000022801D9032093E628688001F5D4D4E90C
:103D800007010843616AA26A4FF0FF33890103EB20
:103D9000520241EA0241084394F82C1040EA0160C3
:103DA000C8F8000001203866FFF7A4FC044607E0CD
:103DB00037E0FFF79FFC001B022801D903206FE6C4
:103DC00028688001F5D52CE0FFF794FC001B022841
:103DD00001D9032064E628688001F5D421E0012898
:103DE0001DD0D8F80000E26900F48001914214D19E
:103DF000226A00F03F0191420FD147F6C071626A1A
:103E00000140914209D1A26A00F44031914204D1AB
:103E1000E16A00F07060884203D0012040E6012092
:103E20003EE600203CE60000043802400000474225
:103E3000800E4742007000404FF0E021042804D07B
:103E4000086920F0040008617047086940F0040028
:103E5000086170472DE9FC5FFFF74CFCFC4FFD4DFE
:103E6000C0074FF000044FF0010675D10520FDF7A3
:103E700045FEDFF8E4A34FF4FA684FF4FA7940BB4B
:103E8000B7F8580228B3D7F87002504503DA288AE9
:103E9000401C288202E0A88A401CA882288A40454B
:103EA00009D94FF4001001F0E7FFA5F8108087F85A
:103EB0005C6287F86042A88A484512D9A5F8149038
:103EC0004FF4005001F0D8FF87F85C6287F8604239
:103ED00007E0288A08B1401E2882A88A08B1401E3F
:103EE000A8820620FDF70AFE40BBB7F8CC0228B333
:103EF000D7F8E402504503DA688A401C688202E081
:103F0000E88A401CE882688A404509D94FF480005D
:103F100001F0B2FFA5F8128087F8D06287F8D4428A
:103F2000E88A484512D94FF4804001F0A5FFA5F872
:103F3000169087F8D06287F8D44207E0688A08B103
:103F4000401E6882E88A08B1401EE882C1483C30C1
:103F5000017841F001010170FFF7CCFB800718D117
:103F6000A87ADFF8F892DFF8F8A24FF0030842F2DF
:103F700010710A280DD2DFE800F00C050D10EB0CD3
:103F80000CF1F6EE04F058FB28780128E7D1022066
:103F9000A8723AE185F80A8037E14FF00009DFF8AE
:103FA000B4A20AF1410A09EB4900C0EB491007EB42
:103FB000800898F81C00012801D0B8B398E0B9F146
:103FC0000E0F77D2DFE809F04E4E4E3333071C85D3
:103FD000854E69696969052004F04CFF0520FDF7ED
:103FE0008DFDC7F84C02FCF727FDB7F84C029D4A3F
:103FF00001B2B7F9480204F07FFAA7F8740277E03B
:10400000062004F037FF0620FDF778FDC7F8C00250
:10401000FCF7DAFDB7F8C002924A01B2B7F9BC0268
:10402000383204F069FAA7F8E80261E05DE098F838
:10403000180048B99AF90200012805DAB8F91410F5
:10404000484605F0BFFD53E09AF90200012806DB5F
:104050004FF0806001F010FF88F81C4048E088F8BD
:104060001C4045E098F8180048B99AF90300012867
:1040700005DAB8F91410484605F0A4FD38E09AF9BD
:104080000300012806DB4FF0006001F0F5FE88F820
:104090001C402DE088F81C402AE098F8180050B920
:1040A0009AF90400012806DAB8F91410484605F018
:1040B00089FD1DE00DE09AF90400012806DB4FF0B0
:1040C000805001F0D9FE88F81C4011E088F81C40AF
:1040D0000EE098F8180010B188F81C4008E0B8F914
:1040E0001410484605F06EFD02E0484606F02CF933
:1040F00009F1010909F0FF09B9F10E0FFFF453AFFF
:10410000FFF7F8FA1421B0FBF1F201FB120018B925
:10411000287808B104F07AFCFFF7ECFA1E21B0FB16
:10412000F1F201FB120030B905234FF416720121A0
:10413000062004F0C7FBFFF7DDFAC821B0FBF1F25F
:1041400001FB120080BB02F0B5FD02F0D3FD5CE084
:104150000620A87259E02CE005E0FFE7D9F800003E
:1041600010BBAC7251E0E8783F4F012808D17C6366
:10417000BC63FC630020401C80B28842FBD3EC701F
:1041800001F002FA9AF8100003283ED18AF8104094
:104190008AF800407C63BC63FC63B9F8000040050A
:1041A00003D485F80A8002E02FE00720A872EE70A1
:1041B0002BE028792D4F012807F1040B0BD13C602F
:1041C000CBF800400BF1040004600020401C80B2DA
:1041D0008842FBD32C7101F037FA9AF822000328A9
:1041E00013D18AF822408AF812403C60CBF8004094
:1041F0001E4808300460B9F80000000402D485F8B5
:104200000A8001E00720A8722E71FFF773FA1421CB
:10421000B0FBF1F201FB120008B904F01BF8FFF744
:1042200069FA4FF47A71B0FBF1F201FB1200002839
:104230000BD10F48FFF764FA0A20CDE9006003466E
:1042400001220146104604F027FCBDE8FC9F000057
:1042500028830020000000200000A04194000020DE
:1042600080890020D08100200000014034040140FA
:10427000A489002010B5401EB0F1807F01D3012039
:1042800010BD4FF0E02460610F21601707F03EF988
:104290000020A06107202061002010BD10B5FFF7AD
:1042A000D9FD10BD10B5124988421FD111490868C7
:1042B000401C086010480069C00BC00716D10F49A8
:1042C00048638863C86301224A610D4981F860022E
:1042D0000C4B9879401C987181F85C22500701F0D2
:1042E000CBFD084841300178491C017010BD000029
:1042F000E0360020E08A002000100240000001406B
:104300002883002000000020704710B590F83C2062
:10431000012A22D0012280F83C20CA6800238C6840
:1043200022F4407222434C6822F4806222430C68DB
:1043300022F4006222430C6922F4805222434C6929
:1043400022F400522243C96922F480420A430168E0
:104350004A6480F83C30002010BD022010BD0000EF
:1043600070B590F83C20012A31D0012680F83C60DD
:10437000022280F83D2002685468936824F070059A
:104380000C682C435460134C0268A24214D0B2F162
:10439000804F11D0104CA2420ED0104CA2420BD034
:1043A0000F4CA24208D00F4CA24205D00E4CA242A4
:1043B00002D00E4CA24204D123F080034968194375
:1043C00091603C30467000210170002070BD0220D9
:1043D00070BD0000000001400004004000080040E3
:1043E000000C004000040140004001400018004063
:1043F00010B504460422206806F019FC2068416CC0
:1044000041F4004141642068816801F007010629F8
:1044100003D0016841F001010160002010BD10B51A
:104420000446002C03D094F83D0010B107E00120B1
:1044300010BD002084F83C00204600F00DF802205A
:1044400084F83D00211D206806F07EFB012084F8E1
:104450003D00002010BD0000F0B587B004461421D7
:1044600002A8FBF7F7FE2168664C65480023654A01
:10447000143C022581422CD1106840F001001060EC
:10448000106800F001000190206840F010002060EA
:10449000206800F010000190A8030290039501200D
:1044A00004900593069002A95748FFF731F80022BF
:1044B00011461820FFF7A6F91820FFF796F90022F9
:1044C00011461920FFF79EF91920FFF78EF907B062
:1044D000F0BD4C48001FB1F1804F0BD04B4EB142A4
:1044E00011D1016841F002010160006800F0020092
:1044F0000190ECE7016841F001010160006800F003
:1045000001000190E3E7424EB14208D1016841F059
:1045100004010160006800F004000190D7E73D4EFF
:10452000B14208D1016841F010010160006800F05B
:1045300010000190CBE7384EB14210D1016841F034
:1045400020010160006800F0200001900022114667
:104550003720FFF757F93720FFF747F9B7E72F481C
:10456000814208D1106840F002001060106800F02D
:1045700002000190ABE72A4F03262A48B94221D115
:10458000116841F400311160116801F400310191AA
:10459000216841F002012160216801F002010191CE
:1045A00081150291039504930593069602A9FEF7DF
:1045B000AFFF002211461920FFF724F91920FFF759
:1045C00014F984E7184FB94281D1116841F4802170
:1045D0001160116801F480210191216841F002010C
:1045E0002160216801F00201019179150291039582
:1045F00004930593069602A9FEF78AFF67E7000079
:104600000000014044380240001002400004004015
:104610000008004000100040001400400004014069
:104620000044014000040240004801400168CA689B
:1046300042F00102CA600068816801F007010629A2
:1046400003D0016841F0010101600020704770B59E
:10465000044694F83C00012817D0012584F83C500A
:10466000022084F83D002068826822F0770222F45C
:104670007F4282600868502831D00DDC20284DD060
:1046800005DCB0B310284ED148E0022070BD3028C0
:1046900044D0402847D137E060282BD0702806D07E
:1046A000B0F5805F3FD0B0F5005F3CD10BE0CB6848
:1046B000D1E90121206806F0C7FA2068816841F03D
:1046C000770181602FE0CB68D1E90121206806F0F5
:1046D000BBFA2068816841F48041816023E0CA68A8
:1046E0004968206806F092FB5021206806F0B6FA6F
:1046F00019E013E0CA684968206806F0D9FB602118
:10470000206806F0ABFA0EE0CA684968206806F037
:104710007DFB4021206806F0A1FA04E022680146F2
:10472000104606F09BFA3C3465700020207070BD86
:1047300070B504460C48844214D1207F0B4D0128EB
:1047400006D10021204600F003FEE869401CE86124
:10475000207F022806D10421204600F0F9FD286AB6
:10476000401C286270BD000060380020000000205E
:1047700070B504460D4694F83C00012820D001266F
:1047800084F83C60022084F83D00DAB1042A2AD083
:10479000082A3AD0D5E90012EB68206806F0CEFB73
:1047A0002068C16921F44061C1612068C169AA68BB
:1047B00041EA0221C1613C3466700020207070BD66
:1047C000022070BDD5E90012EB68206806F030FBCE
:1047D0002068816921F00C01816120688169AA68E3
:1047E00011438161E7E7D5E90012EB68206806F024
:1047F00071FB2068816921F44061816120688169D1
:10480000AA6841EA02218161D5E7D5E90012EB6887
:10481000206806F07AFB2068C16921F00C01C161B3
:104820002068C169AA681143C161C4E710B5044694
:10483000002C03D094F83D0010B107E0012010BD1A
:10484000002084F83C00204600F00CF8022084F898
:104850003D00211D206806F077F9012084F83D0015
:10486000002010BD10B586B00446142101A8FBF746
:10487000F1FC17492068884227D1002115480268B9
:1048800042F480320260006800F4803000901148E9
:104890001438026842F010020260006800F0100054
:1048A0000090602001900220029003910491032067
:1048B000059001A90848FEF72BFE0022114618209A
:1048C000FEF7A0FF1820FEF790FF06B010BD000015
:1048D00000400140443802400010024010B5044638
:1048E0000029226806D0042909D008290CD00C29F7
:1048F00013D10EE0D06840F00200D0600DE0D06827
:1049000040F00400D06008E0D06840F00800D060BB
:1049100003E0D06840F01000D0600122206806F06B
:1049200079F92068816801F00701062903D0016840
:1049300041F001010160002010BD70B504462068FF
:1049400001694FF00005C943890716D4C168C943FE
:10495000890712D4E91E016101202077206880694F
:10496000800703D02046FFF7E3FE05E0204600F075
:10497000DFF9204600F084FA257720680169C943F1
:10498000490718D4C168C943490714D46FF004011A
:104990000161022020772068806910F4407F03D0F5
:1049A0002046FFF7C5FE05E0204600F0C1F920468D
:1049B00000F066FA257720680169C943090717D412
:1049C000C168C943090713D46FF0080101610420CD
:1049D00020772068C069800703D02046FFF7A8FE33
:1049E00005E0204600F0A4F9204600F049FA2577BA
:1049F00020680169C943C90618D4C168C943C906FA
:104A000014D46FF010010161082020772068C0697C
:104A100010F4407F03D02046FFF78AFE05E02046D1
:104A200000F086F9204600F02BFA2577206801690E
:104A3000C943C90708D1C168C943C90704D1891E40
:104A40000161204600F040FA20680169C943090667
:104A500009D4C168C943090605D46FF0800101611A
:104A60002046FFF71FFC20680169C943490609D4A5
:104A7000C168C943490605D46FF040010161204671
:104A800000F07CFC20680169C94389060BD4C16829
:104A9000C943890607D46FF0200101612046BDE8B3
:104AA0007040FFF731BC70BD2DE9F04186B004467F
:104AB000142101A8FBF7CEFB7C48216800247C4A26
:104AC0000225012681421DD1106840F010001060BF
:104AD000106800F0100000904FF4FE400190029525
:104AE000039404940596734C01A92046FEF710FD2B
:104AF00069030191039501A92046FEF709FD06B05F
:104B0000BDE8F0816C4FDFF8B481B1F1804F27D060
:104B10006B4881424BD1106840F001001060106872
:104B200000F001000090106840F002001060106872
:104B300000F00200009080200190029503940494FC
:104B4000059501A94046FEF7E3FC1320019002956C
:104B500003940494059501A93846FEF7D9FCCEE7E5
:104B6000106840F002001060106800F00200009031
:104B7000106840F001001060106800F00100009023
:104B800040F608400190029503940494059601A90B
:104B90003846FEF7BDFC4FF40040019002950394A7
:104BA0000494059601A94046FEF7B2FCA7E74548E4
:104BB000814213D1106840F008001060106800F0C6
:104BC000080000904FF47040019002950394049403
:104BD000059501A93C48FEF79BFC90E73B4803265E
:104BE000814237D1106840F001001060106800F079
:104BF00001000090106840F002001060106800F0A2
:104C000002000090106840F004001060106800F08E
:104C100004000090202001900295039404940596CE
:104C200001A94046FEF774FCB0030190029503947D
:104C30000494059601A93846FEF76AFC4FF470709B
:104C40000190029503940494059601A92048FEF76B
:104C50005FFC54E71F48814212D1106840F0020007
:104C60001060106800F00200009088150190029515
:104C700003940494059601A93846FEF749FC3EE7E3
:104C80001548814292D1106840F00200106010680F
:104C900000F00200009048150190029503940494DE
:104CA000059601A93846FEF733FC28E700000140CD
:104CB0003038024000100240000402400000024070
:104CC0000004004000080040000C024000040140C5
:104CD00000080240004401400048014070B504460D
:104CE00094F83C0001280DD0012584F83C500220A6
:104CF00084F83D0042B1042A0AD0082A0CD00C2ABC
:104D000011D10DE0022070BD206805F0AFFF0AE070
:104D1000206805F0DFFF06E0206806F015F802E0E5
:104D2000206806F049F83C3465700020207070BDA2
:104D3000704710B50446002C03D094F83D0010B124
:104D400007E0012010BD002084F83C00204600F060
:104D50000CF8022084F83D00211D206805F0F4FEC7
:104D6000012084F83D00002010BD704770B5044656
:104D70000D4694F83C0001280DD0012684F83C60D3
:104D8000022084F83D0042B1042A1AD0082A2DD00E
:104D90000C2A53D13EE0022070BD2946206805F060
:104DA00065FF2068816941F008018161206881699F
:104DB00021F004018161206881692A6911438161C0
:104DC0003CE02946206805F085FF2068816941F4B0
:104DD000006181612068816921F4806181612068BE
:104DE00081692A6941EA0221816127E02946206818
:104DF00005F0AAFF2068C16941F00801C16120687F
:104E0000C16921F00401C1612068C1692A691143A7
:104E1000C16113E02946206805F0CEFF2068C16912
:104E200041F40061C1612068C16921F48061C16100
:104E30002068C1692A6941EA0221C1613C34667077
:104E40000020207070BD10B50446002C03D094F8EB
:104E50003D0010B107E0012010BD002084F83C00A7
:104E6000204600F00CF8022084F83D00211D206847
:104E700005F06AFE012084F83D00002010BD704757
:104E80007047000010B504460122206805F0C2FEFC
:104E90000B482168814202D00A48814203D1486C04
:104EA00040F4004048642068816801F00701062949
:104EB00003D0016841F001010160002010BD000035
:104EC00000000140000401402DE9F04706462DEDA9
:104ED000028BADF5167DF74FB869401CB861F649F5
:104EE0000868401C0860F5480024F54D86427CD1D6
:104EF000B86A401CB862B86B012803D1B86AF8627E
:104F0000BC62BC6301A9EF48FCF71EFE28B9949867
:104F1000027B016801A801F06FFDEB490868C20738
:104F200007D020F0010008600122E849E84806F0B7
:104F30003BFA01F0FFFE01F093FD01F023FE786AD9
:104F4000401C7862E34A0021101AA14100DA7C6219
:104F5000E149B5F85820088B801A00B2288400284F
:104F600000DA2C84B5F92020B5F92400121A1211A8
:104F70001044A884888BB5F8CC20801A00B2A5F81C
:104F80009400002801DAA5F8944035F9942FB5F97A
:104F90000400121A12111044A880088CB5F8AC2035
:104FA000801A00B2A5F87400943D002801DAA5F833
:104FB0000841B5F90821B5F90C01121A1211104473
:104FC000A5F80C010888B5F8B421801A00B2A5F83C
:104FD0007C01002801DAA5F87C41B5F97C21B5F9FE
:104FE0008001121A1211104400E017E1A5F88001A7
:104FF0008888B5F82822801A00B2A5F8F0010028A8
:1050000001DAA5F8F041B5F9F021B5F9F401121A69
:1050100012111044A5F8F4010889B5F89C22801AF1
:1050200000B2A5F86402002801DAA5F86442B5F9D7
:105030006422B5F96802121A1211104400B2A5F8E0
:1050400068020A8AB5F81033D21A12B2A5F8D8222B
:10505000002A01DAA5F8D842B5F9D832B5F9DC2230
:105060009B1A1B111A4412B2A5F8DC228B89A5F8F1
:10507000DA328B8CB5F86CC4A3EB0C031BB2A5F829
:105080003434002B01DAA5F83444B5F934C4B5F949
:105090003834ACEB030C4FEA2C1C6344A5F83834CD
:1050A00000EE100AB8EEC00ADFED8C0AD5ED9B1AAF
:1050B00020EE200A9FED8A1A01EE810A85ED9C0AF6
:1050C00001EE902AF8EEE11A61EEA00AD5EDB81AC9
:1050D00041EE810AC5EDB90A85ED9B0AC5EDB80A16
:1050E000BDEEC00A10EE100AB881BDEEE00A10EE67
:1050F000100AF881088D7B4A80B21080D188401A4E
:1051000000110844D080B86947F23051884203D971
:10511000B87A08B906F0E6F8B87A03287ED1B5F96E
:105120004802DFF8C491DFF8C4A1002803DAB5F91A
:105130005812002928DC002803DDB5F9581200298F
:1051400022DB08B3D5F84C02002805DA95ED9C0A5D
:10515000B1EE400A85ED9C0A95ED9C0A634ABDEECE
:10516000C00A10EE100A01B2B5F9740203F0C4F9D6
:10517000A5F8580295F86002DFF83881012808F197
:10518000410808D010B324E0C9F81440CAF814400C
:10519000A5F85842EEE795F85C0248B998F9000086
:1051A000012805DAB5F95812052004F00BFD10E0CE
:1051B00098F90000012806DB85F860424FF00050A6
:1051C00000F05AFE05E085F8604202E0052005F097
:1051D000BBF8B5F9BC02002803DAB5F9CC120029F6
:1051E00027DC002803DDB5F9CC12002921DB00B350
:1051F000D5F8C002002805DA95EDB90AB1EE400AEB
:1052000085EDB90A95EDB90A384ABDEEC00A3832C3
:1052100010EE100A01B2B5F9E80200E02EE003F04A
:105220006BF9A5F8CC0295F8D402012808D010B388
:1052300024E0C9F84C40CAF84C40A5F8CC42F2E74B
:1052400095F8D00248B998F90100012805DAB5F9B6
:10525000CC12062004F0B6FC10E098F901000128F9
:1052600006DB85F8D4424FF0804000F005FE05E0F3
:1052700085F8D44202E0062005F066F81C48864214
:1052800055D11C490868401C086080074FD195F82B
:10529000BC039FED198B012806D1F86905282FDC86
:1052A00038B1C5F8A843FC6195F84803012832D00D
:1052B0003DE025E000000020E08A0020E0360020EC
:1052C00028830020EC7F00202C0100208C8B002004
:1052D0002003002000286BEE603900200AD7A33B92
:1052E00052B87E3F94810020D0810020408200206F
:1052F000E03700204C0000205C8FC2F5289C6C40F9
:10530000FBF732F853EC182BFAF7BCFFFBF73DF82C
:10531000C5F8A803C7E7386AFBF726F853EC182B43
:10532000FAF7B0FFFBF731F8C5F834033C620748E1
:10533000864204D1A0F51D718888401C88800DF537
:10534000167DBDEC028BBDE8F087000060380020C0
:1053500002460020002908D0042909D008290AD0D3
:105360000C2901D11068006C70471068406B7047C1
:105370001068806B70471068C06B7047704770B5DD
:105380000446002C04D094F83900002510B106E042
:10539000012070BD84F83850204600F023F8242006
:1053A00084F839002068C16821F40051C1602046AA
:1053B00005F046FE2068016921F4904101612068F2
:1053C000416921F02A0141612068C16841F400511E
:1053D000C160E563202084F8390084F83A00002099
:1053E00070BD000010B586B00446142101A8FAF77C
:1053F00031FF18492068884229D1002116480268E7
:1054000042F480220260006800F48020009012487C
:105410001038026842F004020260006800F00400E4
:1054200000904FF44060019002200290039103200D
:1054300004900720059001A90848FEF769F80022AA
:1054400011462720FEF7DEF92720FEF7CEF906B039
:1054500010BD0000004800404038024000080240F3
:1054600090F83A30202B01D002207047F9B1F2B108
:1054700090F83830012B1CD081628285C2850021D2
:10548000C163222280F83A2080F838100168CA6887
:1054900042F48072CA6001684A6942F001024A61BE
:1054A0000068C16841F02001C16000207047012000
:1054B0007047022070472DE9F84304460D46904698
:1054C0001E4694F83900202802D00220BDE8F88357
:1054D000D5B1B8F1000F17D094F83800012815D0D5
:1054E000012084F838004FF00009C4F83C902120D6
:1054F00084F83900FEF7FEF80746A4F82480A4F8E3
:10550000268084F838902DE00120DFE70220DDE7D7
:10551000E08C401EE084A068B0F5805F09D03B4677
:10552000002280212046009605F07AFEB0B10320CB
:10553000CCE73B46002280212046009605F070FE15
:1055400008B10320C2E728882168C0F3080048603A
:10555000206908B16D1C05E0AD1C03E0216815F859
:10556000010B4860E08C0028D2D13B46002240214C
:105570002046009605F054FE08B10320A6E720203F
:1055800084F839000020A1E770B52D4C207C00285C
:1055900006D00325012839D0022800D1257470BD1A
:1055A000227801230C2A2FD200206188491C89B25D
:1055B0006180A588A942F2D900216180217B491C24
:1055C000C9B22173062900D92373217B012900D197
:1055D0000620022900D10420032900D10520042936
:1055E00000D10120052900D10320062900D1022085
:1055F000521C2270134AB4F90E1051639163D163A7
:10560000BDE87040FCF71ABB237470BDA079E17946
:10561000884211D0207A81420ED0617A88420BD024
:10562000A07A814208D0E17A884205D04FF48060A8
:1056300000F010FC257470BD0220207470BD0000C5
:10564000808900200000014070B5314C94F8221090
:1056500000290BD003254FF4004001293ED0022938
:1056600003D100F009FC84F8225070BDA27C012314
:105670000C2A30D20020A18A491C89B2A182E58A75
:10568000A942F2D90021A182A17F491CC9B2A17708
:10569000062900D9A377A17F012900D1062002297C
:1056A00000D10420032900D10520042900D10120C4
:1056B000052900D10320062900D10220521CA27422
:1056C000FCF7E8FA1349B4F920000860091D0860E6
:1056D000091D086070BD84F8223070BD217E627E95
:1056E000914210D0A17E8A420DD0E27E91420AD032
:1056F000217F8A4207D0627F914204D000F0AAFB4A
:1057000084F8225070BD022084F8220070BD000091
:105710008089002034040140FEE710B5029C01722C
:1057200042728372C472090601EB024101EB03214C
:105730002144C16010BD000070B52D4E002501242C
:1057400096F900002B4B012806DB600700F094FB64
:1057500083F85C4283F8605296F90100012807DB68
:105760004FF0804000F088FB83F8D04283F8D45299
:1057700096F9020001280BDB4FF0806000F07CFB03
:1057800083F8785183F8744183F8EC5183F8E84149
:1057900096F90300012811DB4FF0006000F06CFB6C
:1057A0001D7783F8905083F8045183F830541C76A9
:1057B00083F88C4083F8004183F82C4496F9040068
:1057C000012813DB4FF0805000F056FB83F8A454FF
:1057D00083F8185583F88C5583F8005683F8A04455
:1057E00083F8144583F8884583F8FC4570BD0000B4
:1057F00041000020288300202DE9F04188B00546B3
:10580000087800F07F06C8684FF00008022814D01E
:10581000087D00F07F04AF1997F83800A04206D049
:105820006B6C224631462846984787F8384097F8EF
:1058300038000F2820D000243BE02878B0421BD14C
:1058400000F5E060019001210591CDF81080287BE2
:105850008DF81800194A937A33B140F080008DF822
:10586000180082F80A8000E09172009106AB0021D6
:10587000049A0198FBF70EFB08B0BDE8F081286B95
:1058800050F82400C0F307418E4210D187B2686BF4
:1058900030F91400FBF7A4FD3B46094A214628468F
:1058A000CDF8008004F04AF9696B21F81400641CFB
:1058B000E4B2E86A0078A042E1D8DDE7783500205C
:1058C000231100082DE9F047CC48C8258581458281
:1058D00040F6CE01C18140F2E9310181C84CC220BD
:1058E00020804000608040F24620A0804FF442704B
:1058F000E080658247F23050A08242F21070E08270
:105900002583C220A4F874004000A4F8760040F279
:105910004620A4F878004FF44270A4F87A00A4F866
:10592000865047F23050A4F8880042F21070A4F874
:105930008A00A4F88C50C220A4F8E800A4F8EA0079
:105940004000A4F8EC0040F24620A4F8EE00A4F8D1
:10595000FA5044F62060A4F8FC004FF4FA50A4F882
:10596000FE000011A4F8000140F24620A4F814043F
:105970004FF44270A4F8160440F2CA30A4F8180498
:1059800040F28C40A4F81A04A4F826541420A4F879
:1059900028040820A4F82A040520A4F82C0440F2C6
:1059A000F730A4F85C014FF49160A4F85E0140F276
:1059B0001951A4F8601140F2AA51A4F86211A4F898
:1059C0006E511421A4F870110821A4F87211052158
:1059D000A4F8741140F2F731A4F8D011A4F8D20160
:1059E00040F21951A4F8D41140F2AA51A4F8D611EA
:1059F000A4F8E2511421A4F8E4110821A4F8E61156
:105A00000521A4F8E811A4F844024FF4CB61A4F8EE
:105A10004612A4F84812A4F84A121E2184F8421231
:105A200041F28836A4F85662A4F858522821A4F806
:105A30005A121421A4F85C124FF00409A4F824921D
:105A40000521A4F81A12A4F81C124FF44B71A4F803
:105A5000B81240F21441A4F8BA12A4F8BC0240F201
:105A6000FC40A4F8BE02142084F8B602A4F8CA626E
:105A700047F23050A4F8CC027000A4F8CE024FF4E4
:105A8000FA60A4F8D002A4F898920520A4F88E0237
:105A9000A4F890025B495C4802F0D2FC59495A488C
:105AA0003831383002F0CCFC584802F005FD1420A3
:105AB00024F82A0C24F8280C022704F81B7C700018
:105AC000A0853C20A4F84A00A4F84C0084F8597042
:105AD0007000A4F8A0006420A4F8BE00A4F8C000E0
