:020000040800F2
:10400000281A002029420008C56F0008F16C00083A
:10401000C16F00088D4400084174000800000000D2
:10402000000000000000000000000000CB6F00084E
:104030001947000800000000C96F00085970000807
:10404000434200084342000843420008434200083C
:10405000434200084342000843420008434200082C
:10406000434200084342000843420008434200081C
:10407000434200084342000843420008434200080C
:1040800043420008434200084342000843420008FC
:1040900043420008434200084342000843420008EC
:1040A00043420008434200084342000843420008DC
:1040B00043420008434200084342000843420008CC
:1040C00043420008434200084342000843420008BC
:1040D000434200084342000843420008317400088C
:1040E000434200084342000843420008434200089C
:1040F000434200084342000843420008434200088C
:10410000434200084342000843420008434200087B
:10411000434200084342000843420008517100082E
:10412000434200084342000843420008434200085B
:10413000434200084342000843420008434200084B
:1041400091440008434200084342000843420008EB
:10415000434200084342000843420008434200082B
:10416000434200084342000843420008434200081B
:104170004342000843420008434200080000000098
:10418000434200084342000800F002F800F03CF807
:104190000AA090E8000C82448344AAF10107DA45A2
:1041A00001D100F031F8AFF2090EBAE80F0013F0B8
:1041B000010F18BFFB1A43F001031847343A0000FF
:1041C000543A0000103A24BF78C878C1FAD8520790
:1041D00024BF30C830C144BF04680C607047000081
:1041E0000023002400250026103A28BF78C1FBD800
:1041F000520728BF30C148BF0B6070471FB503F09E
:10420000E5FB1FBD10B510BD00F0CFF81146FFF75C
:10421000F5FF03F08BF900F0EDF803B4FFF7F2FFC0
:1042200003BC00F0F5F80000094880470948004742
:10423000FEE7FEE7FEE7FEE7FEE7FEE7FEE7FEE756
:10424000FEE7FEE704480549054A064B70470000B3
:104250003D71000889410008280A0020281A002022
:10426000281200202812002053EA020C00F0698076
:104270002DE9F04B4FF00006002B1FBFB3FA83F57A
:1042800003FA05F424FA05F65E4012BF1643B2FAAB
:1042900082F502FA05F4C5F120051EBF22FA05FCDD
:1042A00044EA0C04203556EA044C4FEA144418BF83
:1042B000641C4FF000084FF00009904271EB030CB2
:1042C00039D3002919BFB1FA81F701FA07F6B0FA1C
:1042D00080F700FA07F6C7F120071EBF20FA07FC97
:1042E00046EA0C062037B6FBF4FCA7EB0507103FA7
:1042F00007F01F0BCBF120060CFA0BFB2CFA06F68D
:1043000044BFB3460026202FA4BF5E464FF0000BEB
:104310005BEA060C08BF4FF0010B19EB0B09ABFB76
:10432000027C48EB0608C01B06FB02CC0BFB03CC4F
:1043300071EB0C01C1E70B46024641464846BDE819
:10434000F08B13B54FF000004FF00001AFF3008089
:10435000BDE81C4070474FF0000200B5134694467C
:104360009646203922BFA0E80C50A0E80C50B1F1CD
:104370002001BFF4F7AF090728BFA0E80C5048BFE1
:104380000CC05DF804EB890028BF40F8042B08BF7F
:10439000704748BF20F8022B11F0804F18BF00F87B
:1043A000012B7047704770477047754600F02CF836
:1043B000AE4605006946534620F00700854618B012
:1043C00020B5FFF73FFFBDE820404FF000064FF05B
:1043D00000074FF000084FF0000B21F00701AC463A
:1043E000ACE8C009ACE8C009ACE8C009ACE8C00959
:1043F0008D46704710B50446AFF300802046BDE8F7
:104400001040FFF70ABF000000487047C4090020B1
:1044100001491820ABBEFEE72600020070470000ED
:104420002DE9F04705460E469046994641463046EE
:1044300000F074F9012820D100241BE0002705E0DA
:1044400028781149C8556D1C781C87B2B7F5806F64
:10445000F6DB06EB84204FF480620B4900F01AFB78
:1044600030B90121022002F0B1FD0020BDE8F08743
:10447000601C84B24C45E1DB03E00121084602F0F8
:10448000A5FD0120F2E70000A401002000BFFEE727
:1044900010B5024800F020FC10BD00007C00002098
:1044A0002DE9F04104460D46002700260DB9666B44
:1044B00000E0A66B206800F5D87000EB05100068DE
:1044C00000F00400B060B06858B9206800F5D870FA
:1044D00000EB0510006840F2FF7101EA50503060B7
:1044E0000AE0206800F5D87000EB051000686FF056
:1044F000604101EAD0007060206800F5D87000EBE0
:104500000510006800F00200F060206800F5D87027
:1045100000EB0510406800F00F0030613562206844
:1045200000F5D87000EB05104068C0F30720F0617B
:10453000206800F5D87000EB0510806830752068A1
:1045400000F5D87000EB05108068010A71752068CD
:1045500000F5D87000EB05108068010CB17520687B
:1045600000F5D87000EB05108068000EF07520682B
:1045700000F5D87000EB0510C0683076206800F5B3
:10458000D87000EB0510C068010A7176206800F54C
:10459000D87000EB0510C068010CB176206800F5FA
:1045A000D87000EB0510C068000EF0761DB9202011
:1045B0002168C86008E020202168086120684069FF
:1045C00020F050002168486194F83C70222F01D0FF
:1045D000322F05D12068406920F40F4021684861DE
:1045E000CDB994F83C00422804D0622806D0722845
:1045F0000CD107E0122084F83C000BE0322084F854
:104600003C0007E0522084F83C0003E0012084F8DD
:104610003C0000BF19E094F83C00522804D0622806
:1046200006D072280CD107E0122084F83C000BE081
:10463000222084F83C0007E0422084F83C0003E09C
:10464000012084F83C0000BF00BF204600F02EFE91
:104650000020BDE8F08110B504462068406920F0D4
:1046600001002168486194F83C00122805D12068B7
:10467000406920F40F402168486194F83C004228CA
:1046800004D0522806D072280CD107E0222084F8EA
:104690003C000BE0322084F83C0007E0622084F804
:1046A0003C0003E0012084F83C0000BF00BF20462E
:1046B00001F0CEF8002010BD2DE9F04180460E46F5
:1046C00017461D4600241248006B06600020104962
:1046D000096B88600E49096BC86040F6FF700C4991
:1046E000096B48600A48006B056100BF06E0395D50
:1046F0000748006B14300155601CC4B2AC42F6DBB5
:104700006421034800F048FF02490870BDE8F081C9
:104710007C000020160000207047000030B585B0F6
:1047200004460D4601F0C4F9204600F0DDF91049B9
:10473000086001200F4908600020009002200490CA
:104740000B4800680290084600680390F3200A496D
:1047500008600A49684601F0FBF820B101F052F9FF
:10476000002005B030BD01F04DF90120F9E700004F
:1047700050000020540000200C3C02405800002053
:1047800072B600BFFEE7000010B5002201B909E0D3
:10479000012901D10A0205E0022901D10A0201E042
:1047A0004FF440720E4B1B6823F440730C4C236093
:1047B00023461B681343236023461B6823F0F8033A
:1047C000236023461B68022444EAC0042343044CAC
:1047D000236023461B6843F48033236010BD000030
:1047E000103C02401C48006800F40070B0B11A4848
:1047F000006820F400701849086000BF084600688F
:1048000040F4006008600846006820F4006008601A
:1048100000BF0846006840F4007008600E48006859
:1048200000F48060B0B10C48006820F480600A4950
:10483000086000BF0846006840F4805008600846E1
:10484000006820F48050086000BF0846006840F40B
:104850008060086070470000003C02400A4A12680D
:1048600022F44072084B1A601A46126842F00402A1
:104870001A601A4612684FF4803343EA00231A4341
:10488000014B1A6070470000103C0240074A126852
:1048900022F44072054B1A601A4612681A601A46D2
:1048A000126842F001021A6001707047103C024029
:1048B00010B50D49096821F440710B4C2160214667
:1048C000096841F4407121602146096841F0010105
:1048D0002160026000BF00BF00BFBFF36F8F00BF49
:1048E00000BF00BF436010BD103C0240084A126880
:1048F00022F44072064B1A601A46126842F4807223
:104900001A601A46126842F001021A60018070476C
:10491000103C0240084A126822F44072064B1A60AA
:104920001A46126842F400721A601A46126842F07F
:1049300001021A6001607047103C02402348006881
:1049400000F0100040B12248C06940F0100020493A
:10495000C86110201D4908601C48006800F0200054
:1049600040B11B48C06940F008001949C8612020C7
:10497000164908601548006800F0400040B114482E
:10498000C06940F004001249C86140200F49086026
:104990000E48006800F0800040B10D48C06940F04A
:1049A00002000B49C8618020084908600748006878
:1049B00000F0020040B10648C06940F02000044900
:1049C000C861022001490860704700000C3C0240A9
:1049D000A409002070B50446002500201449C861D0
:1049E00001F088F9054609E0601C38B124B101F0F6
:1049F00081F9401BA04201D9032070BD0D48006819
:104A000000F480300028EFD10A48006800F001006F
:104A100010B10120074908600648006800F0F20064
:104A200018B1FFF78BFF0120E7E70020E5E7000062
:104A3000A40900200C3C024070B586B004460D4627
:104A400001260020059014216846FFF784FC002011
:104A50000090039502940220049001F029F805A922
:104A6000684600F075FF00F0CDFF0598B0F1FF3FFC
:104A700000D0B61E304606B070BD10B50B46002102
:104A800004E0046843F82140001D491C9142F8D31A
:104A900010BD00002DE9F04105460E46174601F015
:104AA00007F82A463946304602F0CCFC00F0AAFF4F
:104AB00000200C49086000240AE015F80480305DED
:104AC000404504D007480068401C06490860641C43
:104AD000BC42F2D30348006810B10020BDE8F08169
:104AE0000120FBE75C000020014600202C4A914297
:104AF00003D2B1F1006F00D350E02A4A914204D2B0
:104B0000274A914201D3012048E0274A914204D22A
:104B1000244A914201D3022040E0244A914204D227
:104B2000214A914201D3032038E0214A914204D224
:104B30001E4A914201D3042030E01E4A914204D221
:104B40001B4A914201D3052028E01B4A914204D21E
:104B5000184A914201D3062020E0184A914204D21B
:104B6000154A914201D3072018E0154A914204D218
:104B7000124A914201D3082010E0124A914204D215
:104B80000F4A914201D3092008E00F4A914204D212
:104B90000C4A914201D30A2000E00B20704700002C
:104BA000004000080080000800C000080000010864
:104BB00000000208000004080000060800000808C1
:104BC00000000A0800000C0800000E0870B504463A
:104BD0000A460023157D012000FA05F33C4901F542
:104BE0000071086840F001000860086820F47C50FB
:104BF00008600868556A40EA05200860C86998435B
:104C0000C861A1F50071D069C8B9D1F80C02984308
:104C1000C1F80C02908880B2958940EA054501F5FB
:104C20001070566940F83650108880B2158940EAF5
:104C3000054501F51070566900EBC6004560D06966
:104C4000012819D1D1F80C021843C1F80C02908840
:104C500080B2158840EA054501F51070566940F8A4
:104C60003650908980B2158940EA054501F51070EB
:104C7000566900EBC6004560906928B9D1F8040276
:104C80009843C1F8040204E0D1F804021843C1F8C3
:104C90000402106920B9D1F814029843C1F8140233
:104CA0001069012804D1D1F814021843C1F8140284
:104CB000106A012804D1D1F81C021843C1F81C0263
:104CC000D1F8000220F00100C1F80002002070BD00
:104CD00000640040704700002DE9F04104460025C3
:104CE00000260027A8462068C068C0F30015206889
:104CF0004069C0F3C0062DB126B148F400781020F9
:104D00002168C86020680069C0F300152068406908
:104D1000C0F380162DB126B148F4806810202168B8
:104D200008612068406900F0010000283BD020683D
:104D300080687A490840884201D1012000E00020C3
:104D400005462068806876490840884201D10120E4
:104D500000E00020064620688068724908408842CA
:104D600001D1012000E0002007460DB906B9D7B1F6
:104D700020688068C0F3400520688068C0F3402642
:104D800020688068C0F340470DB906B91FB12046BE
:104D9000FFF761FC01E048F4006820688068624920
:104DA0000843216888602068C06800F00305206817
:104DB0004069C0F3400625B11EB100212046FFF72F
:104DC0006FFB2068006900F0030520684069C0F3AC
:104DD000001625B11EB101212046FFF761FB206CB2
:104DE00040EA080020642068806900F0010520681E
:104DF0004069C0F3002620684069C0F3C0372DB178
:104E000026B11FB1206C40F0010020642068806949
:104E1000C0F3400520684069C0F34026206840691F
:104E2000C0F3C0372DB126B11FB1206C40F0020095
:104E3000206420688069C0F3800520684069C0F361
:104E4000802620684069C0F3C0372DB126B11FB15C
:104E5000206C40F0040020642068806900F070003D
:104E600008B9012000E00020054620684069C0F331
:104E7000C02620684069C0F3C03795BB8EB387B3A6
:104E80002068806900F07005402D1BD006DC102DD5
:104E900009D0202D0CD0302D24D10EE0502D16D06D
:104EA000602D1FD118E0206C40F0080020641AE04B
:104EB000206C40F01000206415E0206C40F02000D1
:104EC000206410E0206C40F0400020640BE0206C77
:104ED00040F08000206406E0206C40F48070206484
:104EE00001E007E000BF00BF2068806920F070008B
:104EF00021688861206C78B1042021684860012015
:104F000084F83C002068406948F651718843216864
:104F100048612046FFF7DEFEBDE8F0810300000493
:104F200000030008000003101905010070B50446D5
:104F3000002600250CB9012070BD94F83C0028B96A
:104F4000002084F83D00204600F0CEF8022084F8CE
:104F50003C002068006820F002002168086020689A
:104F6000006840F001002168086000F0C3FE0546BB
:104F70000EE000F0BFFE401B0A2809D9032084F888
:104F80003C0000BF002084F83D0000BF0320D3E7B1
:104F90002068406800F001000028EAD020684068DE
:104FA00000F00100002875D0A069012806D1206812
:104FB000006840F080002168086005E02068006813
:104FC00020F0800021680860E069012806D120688F
:104FD000006840F040002168086005E02068006833
:104FE00020F0400021680860206A012806D120686E
:104FF000006840F020002168086005E02068006833
:1050000020F0200021680860606A012806D120682D
:10501000006840F010002168086005E02068006822
:1050200020F0100021680860A06A012806D12068DD
:10503000006840F008002168086005E0206800680A
:1050400020F0080021680860E06A012806D1206885
:10505000006840F004002168086005E020680068EE
:1050600020F0040021680860D4E9020108432169A6
:105070000843616908436168491E08432168C861A3
:105080002068006820F001002168086000F032FE0E
:1050900005460FE01AE000F02DFE401B0A2809D952
:1050A000032084F83C0000BF002084F83D0000BFCE
:1050B000032041E72068406800F001000028EAD1A1
:1050C0002068406800F0010000B90126012E06D1D9
:1050D00000202064012084F83C0000202CE70420FC
:1050E00084F83C00012027E710B586B0044614215F
:1050F00001A8FFF730F927492068884247D100BF4F
:10510000002000902448006840F080602249086038
:105110000846006800F08060009000BF00BF00BF3C
:10512000002000900846006840F0007008600846C3
:10513000006800F00070009000BF00BF00BF0020BA
:10514000009015481038006840F0020012491039EC
:1051500008600846006800F00200009000BF00BF31
:1051600042F22000019002200290002003900320D0
:1051700004900920059001A9084800F0B3FC002222
:105180000221402000F062FE402000F04FFE06B0F9
:1051900010BD00000068004040380240000402409A
:1051A000024689B992F83C0022280BD092F83C00C4
:1051B000422807D092F83C00622803D092F83C00C5
:1051C000722801D102207047012911D192F83C00C8
:1051D00032280BD092F83C00522807D092F83C00BD
:1051E000622803D092F83C00722801D10220EAE73D
:1051F00000BF92F83D00012801D10220E3E7012021
:1052000082F83D0000BFC9B992F83C00122804D0D2
:10521000322806D052280CD107E0422082F83C0008
:105220000BE0622082F83C0007E0722082F83C002C
:1052300003E0222082F83C0000BF19E092F83C0015
:10524000122804D0222806D042280CD107E0522090
:1052500082F83C000BE0622082F83C0007E07220FC
:1052600082F83C0003E0322082F83C0000BF00BF1F
:10527000002010641068406940F6017318431368F9
:10528000586100BF002082F83D0000BF31B91068AE
:10529000406940F00A001368586105E010684069F1
:1052A00040F050001368586100208CE77CB506463A
:1052B000A9493068884223D10120A849086000200C
:1052C000A7490860A7480068102833D1A548007D89
:1052D000E02801D101F09AFEA248007DE12810D11A
:1052E000A048407D01280CD1E2208DF8000001206B
:1052F0008DF8010002236A4620219B48FFF7DCF964
:1053000024E19848007DE32803D1022097490870E2
:105310001CE19448007DE528F2D1E6208DF80000DC
:1053200001208DF8010002236A4620218E48FFF7F4
:10533000C3F90BE18B48006811287DD18C480089A6
:10534000B0F5806F02D10020894908818848008922
:105350008449098A084486490881084601898548A4
:105360000078B1EBC00F01DD082508E08048018915
:1053700080480078401E082202FB1010C5B20024AD
:105380000BE078481430005D7A490978082212FB56
:105390000141794A5054601CC4B2AC42F1DB7748F9
:1053A000007801282AD173480078402826D16D481A
:1053B000007D482822D16B48407D34281ED16948A1
:1053C000807D41281AD16748C07D412816D16548A3
:1053D000007E332812D16348407E30280ED1012050
:1053E0006749087001210320FFF726FB0520654966
:1053F0000860654A0121634802F040F800206349D3
:10540000088000BF614801880088401C5F4A108006
:105410000029F7D157480078401C56490870574872
:1054200000788DF80000084600788DF8010002230E
:105430006A4621214C4800E007E0FFF73DF9544857
:105440000088401C5249088080E0464800681228C5
:105450001AD144480069022810D1454801894648BC
:1054600002F048F83F49497D3E4A127D01EB022196
:10547000884203D101203E49C87067E03F48017867
:10548000032001F0A3FD61E036480068132831D104
:105490003448C07D01063348807D01EB004131482E
:1054A000407D01EB00202F49097D08443049C86048
:1054B0002C48C07E01062B48807E01EB0041294824
:1054C000407E01EB00212748007E084428490861FE
:1054D0000846008AC0F3090018B908460069800A26
:1054E00003E023480069800A401C2149C88001204C
:1054F00048712BE01B480068142803D101201C4987
:10550000487023E01748006840F2026188421DD1CC
:105510001448007D2F2819D11248407D0B2815D141
:105520001048807D202811D10E48C07D70B90D48EB
:10553000007E01280AD1E220164908700120487037
:1055400002230A4620210848FFF7B6F80021064842
:10555000FFF726FE7CBD000000680040240000200C
:1055600020000020DC0000207C000020080000203B
:105570008C01002029000020A40100202800002028
:10558000440000204800002000C000081400002053
:105590000A0000200C0000202DE9F04104460E46D0
:1055A000042500272068806800F08060B0F1806FDB
:1055B0000DD02068806800F00060B0F1006F06D068
:1055C0002068806800F08050B0F1805F7DD100BF1E
:1055D00094F83D00012802D10220BDE8F0810120AD
:1055E00084F83D0000BF94F83C00222804D0322803
:1055F00006D062280CD107E0422084F83C000BE082
:10560000522084F83C0007E0722084F83C0003E05C
:10561000122084F83C0000BF00BF2068806800F0C2
:105620008060B0F1806F01D1002509E020688068BA
:1056300000F00060B0F1006F01D1012500E002250B
:10564000206800F5C07000EB0510006800F0010153
:10565000206800F5C07000EB05100160206B8068C9
:1056600098B9206800F5C07000EB05100068216B48
:10567000C968226B128841EA42510843216801F54A
:10568000C07101EB0511086015E0206800F5C070DD
:1056900000EB05100068216B8968226B526841EAB3
:1056A000C201226BD26811430143206800F5C0702B
:1056B00000EB05100160206B007C00F00F00216BF7
:1056C0000861206800F5C07000E0B6E000EB05104E
:1056D000406820F00F01206800F5C07000EB051055
:1056E0004160206800F5C07000EB05104068216B38
:1056F00009690843216801F5C07101EB0511486093
:10570000206BC07D0106206B807D41EA0041206B4B
:10571000407D41EA0020216B097D0843216801F5A5
:10572000C07101EB05118860206BC07E0106206B03
:10573000807E41EA0041206B407E41EA0021206BDF
:10574000007E0143206800F5C07000EB0510C160C9
:10575000206800F5C07000EB0510006840F0010102
:10576000206800F5C07000EB0510016000F0C2FA7F
:10577000074620E0701CF0B126B100F0BBFAC01B58
:10578000B04218D9032084F83C001DB9802021685C
:10579000886009E0012D03D1E8032168886003E0F7
:1057A0004FF400002168886000BF002084F83D00AD
:1057B00000BF032011E74DB92068806821490840E7
:1057C000884201D1012016E0002014E0012D09D10A
:1057D000206880681C490840884201D101200AE005
:1057E000002008E02068806818490840884201D1FC
:1057F000012000E000200028BCD094F83C004228A2
:1058000004D0522806D072280CD107E0222084F858
:105810003C000BE0322084F83C0007E0622084F872
:105820003C0003E0012084F83C0000BF00BF00BF43
:10583000002084F83D0000BFCFE6042084F83C003F
:105840000120CAE603000004000300080000031062
:10585000704770B50446A56D00F04CFA064694F802
:105860003500022808D08020606500BF002084F841
:10587000340000BF012070BD2068006820F01600D1
:10588000216808602068406920F080002168486134
:10589000206C08B9A06C28B12068006820F00800CE
:1058A000216808602068006820F001002168086015
:1058B00010E000F01FFA801B05280BD9202060653E
:1058C000032084F8350000BF002084F8340000BFB6
:1058D0000320D0E72068006800F001000028E8D12C
:1058E00094F85C103F208840A860012084F83500BF
:1058F00000BF002084F8340000BF00BFBBE70146B2
:1059000091F83500022803D08020486501207047B7
:10591000052081F835000868006820F001000A6859
:1059200010600020F3E7000070B5044600F0E2F9D3
:1059300006462546681C10B104480078054400BF9F
:1059400000F0D8F9801BA842FAD370BD7400002083
:105950002DE9F04104460E460127002500BF2748E7
:10596000007E012802D10220BDE8F08101202349F8
:10597000087600BF4CF25030FFF72CF80746002F96
:1059800034D1401E3060206801280FD1207C61682E
:10599000FEF764FF4CF25030FFF71CF8074618483A
:1059A000006820F00400164908601DE0A56815E0B5
:1059B000217C2846FEF7E8FE4CF25030FFF70AF84B
:1059C00007460F48006820F0FA000D4908600FB143
:1059D000356008E00120FFF7A7FF6D1CD4E9021035
:1059E0000844A842E4D800BFFEF7FCFE00BF002038
:1059F0000249087600BF3846B6E70000A409002037
:105A0000103C02400348006840F000400149086033
:105A100000207047103C02402DE9F04106460F4639
:105A200014461D464FF0010800BF1F48007E0128A4
:105A300002D10220BDE8F08101201B49087600BF99
:105A40004CF25030FEF7C6FF8046B8F1000F23D16C
:105A500026B9E1B23846FEF719FF12E0012E04D153
:105A6000A1B23846FEF742FF0BE0022E04D12146D8
:105A70003846FEF74FFF04E022462B463846FEF735
:105A800017FF4CF25030FEF7A5FF8046074800682C
:105A900020F001000549086000BF00200249087697
:105AA00000BF4046C6E70000A4090020103C0240A9
:105AB00000200949096801F0004159B10749064A27
:105AC0000C3A1160064911600349096801F0004170
:105AD00001B1012070470000103C024023016745DE
:105AE000AB89EFCDF8B502460B4600250024002017
:105AF0000021D5E0012606FA01F51E6806EA050434
:105B0000AC4274D11E7906F00306012E04D01E7932
:105B100006F00306022E13D190684F000326BE4004
:105B2000B0434F00DE68BE403043906050680126AD
:105B30008E40B0431E79C6F300168E40304350604D
:105B40001E7906F00306032E09D0D0684F00032605
:105B5000BE40B0434F009E68BE403043D0601E79C7
:105B600006F00306022E13D1CF0802F1200656F8E4
:105B700027004E07F70E0F26BE40B0434F07FF0E1B
:105B80001E69BE403043CF0802F1200646F82700C8
:105B900010684F000326BE40B0431E7906F003068E
:105BA0004F00BE40304310605E6806F44036002E61
:105BB00075D000BF002600963B4E366846F48046FE
:105BC000394F3E603E46366806F48046009600BF78
:105BD00000BF364E8F0856F827008E07370F0F2666
:105BE000BE40B043324EB24202D1002624E056E01D
:105BF000304EB24201D101261EE02F4EB24201D1F9
:105C0000022619E02D4EB24201D1032614E02C4E9B
:105C1000B24201D104260FE02A4EB24201D105263C
:105C20000AE0294EB24201D1062605E0274EB242D3
:105C300001D1072600E008268F073F0FBE40304302
:105C40001A4E8F0846F82700214E3068A0435E6840
:105C500006F4803606B120431D4E3060361D306894
:105C6000A0435E6806F4003606B12043184E361D88
:105C70003060361D3068A0435E6806F4801606B1B9
:105C80002043134E08363060361D3068A0435E68EE
:105C900006F4001606B120430D4E0C363060491C48
:105CA0001029FFF427AFF8BD4438024008380140FE
:105CB000000002400004024000080240000C0240C4
:105CC000001002400014024000180240001C024074
:105CD000003C014010B5426921EA020302EA0104D6
:105CE00043EA0443836110BD0AB1816101E00B0402
:105CF0008361704701480068704700006C00002015
:105D0000034800680349097808440149086070475E
:105D10006C0000207400002010B50D48006840F4AD
:105D200000700B4908600846006840F48060086015
:105D30000846006840F480700860032000F0C4F852
:105D40000F2000F007F800F02BF8002010BD000035
:105D5000003C024070B504460E4800784FF47A715A
:105D6000B1FBF0F00C490968B1FBF0F5284600F0F2
:105D700041FC08B1012070BD102C07D20022214641
:105D8000501E00F063F80548046001E00120F2E7CE
:105D90000020F0E774000020780000207000002050
:105DA00008B500BF002000900E48006840F4804015
:105DB0000C4908600846006800F48040009000BF6D
:105DC00000BF00BF00200090081F006840F0805016
:105DD000091F08600846006800F08050009000BF6E
:105DE00000BF08BD4438024010B5014608460028EF
:105DF00017DB00F01F0301229A400B4B440943F8C4
:105E0000242000BF00BF00BFBFF34F8F00BF00BF03
:105E100000BF00BF00BF00BFBFF36F8F00BF00BF58
:105E200000BF00BF10BD000080E100E00146084651
:105E3000002809DB00F01F0301229A4043099B0060
:105E400003F1E023C3F8002100BF70472DE9F05FA4
:105E500080460D461646002701F030FB07463946BE
:105E60002A46334601F00700C0F1070ABAF1040FD1
:105E700002D94FF0040A01E0C0F1070AD14600F14F
:105E8000040ABAF1070F02D24FF0000A01E0A0F1B4
:105E9000030AD4464FF0010A0AFA09FAAAF1010AE4
:105EA0000AEA020A0AFA0CFA4FF0010B0BFA0CFB91
:105EB000ABF1010B0BEA030B4AEA0B042146404607
:105EC00001F004FBBDE8F09F00BF00F00702064BA5
:105ED00019684FF6FF031940044B0B4343EA0221B4
:105EE000014B196000BF70470CED00E00000FA059F
:105EF00070B504460D460CB9012070BD58480068C5
:105F000000F00700A84209D255490D700846006804
:105F100000F00700A84201D00120EEE7207800F051
:105F2000020002281DD1207800F00400042805D1C9
:105F30004C48006840F4E0504A490860207800F07E
:105F40000800082805D14748006840F460404549EA
:105F500008604448006820F0F000A1680843414907
:105F60000860207800F00100A8B36068012807D11C
:105F70003C4808380068C0F34040B8B90120BCE78D
:105F80006068022802D06068032807D135480838C5
:105F90000068C0F3406048B90120AEE731480838D6
:105FA0000068C0F3400008B90120A6E72D4800684A
:105FB00020F00300616808432A490860FFF79AFE51
:105FC000064609E0FFF796FE801B41F288318842C1
:105FD00002D9032091E707E02248006800F00C0096
:105FE0006168B0EB810FEDD11D48006800F007003B
:105FF000A84209D91A490D700846006800F0070048
:10600000A84201D0012078E7207800F0040004289D
:1060100007D11448006820F4E050E16808431149B2
:106020000860207800F00800082808D10D480068B2
:1060300020F46040216940EAC1000A49086000F08C
:106040001FF808490968C1F30311074A515CC840A9
:106050000649086006480068FFF77CFE00204CE710
:10606000003C024008380240D67B0008780000203F
:106070007000002001480068704700007800002090
:106080002DE9F047002400250026A1462548006898
:1060900000F00C0020B1042805D008283AD105E012
:1060A000DFF8849039E0DFF8849036E01D48001F67
:1060B000006800F03F041B48001F006800F48000E7
:1060C00078B11A481749091F0968C1F38811A0FB64
:1060D00001700146224600233846FEF7C5F8054602
:1060E0000EE011480F49091F0968C1F38811A0FB90
:1060F00001700146224600233846FEF7B5F80546F2
:106100000848001F0068C0F30140401C4600B5FB72
:10611000F6F902E0DFF8109000BF00BF4846BDE886
:10612000F0870000083802400024F40040787D0128
:10613000F8B504460CB90120F8BD207800F0010044
:10614000002874D0F948006800F00C0004280DD035
:10615000F648006800F00C00082813D1F348001F2F
:10616000006800F48000B0F5800F0BD1EF480838CC
:106170000068C0F34040002859D06068002856D11C
:106180000120D9E700BF6068B0F5803F08D1E7483B
:106190000838006840F48030E449083908601EE09F
:1061A0006068B0F5A02F0DD1E0480838006840F4D1
:1061B0008020DE49083908600846006840F48030D5
:1061C00008600CE0D9480838006820F48030D749CE
:1061D000083908600846006820F48020086000BF85
:1061E000606890B1FFF786FD054606E0FFF782FD87
:1061F000401B642801D903209EE7CC48083800687A
:10620000C0F340400028F1D011E0FFF773FD0546D0
:1062100006E0FFF76FFD401B642801D903208BE7E0
:10622000C24808380068C0F340400028F1D1207807
:1062300000F0020002285FD1BC48006800F00C00AA
:1062400058B1BA48006800F00C0008281CD1B748C3
:10625000001F006800F48000B0B9B4480838006836
:10626000C0F3400020B1E068012801D0012063E7BD
:10627000AE480838006820F0F800216940EAC10003
:10628000AA490839086037E0E06800B30120A8494E
:106290000860FFF72FFD054606E0FFF72BFD401BCA
:1062A000022801D9032047E7A04808380068C0F356
:1062B00040000028F1D09D480838006820F0F80020
:1062C000216940EAC10099490839086014E00020BA
:1062D00097490860FFF70EFD054606E0FFF70AFD47
:1062E000401B022801D9032026E79048083800689F
:1062F000C0F340000028F1D1207800F00800082801
:106300002CD16069A8B101208A490860FFF7F2FC2E
:10631000054606E0FFF7EEFC401B022801D90320EA
:106320000AE782486C300068C0F340000028F1D0D2
:1063300014E000207F490860FFF7DCFC054606E01A
:10634000FFF7D8FC401B022801D90320F4E6774868
:106350006C300068C0F340000028F1D1207800F0D4
:106360000400042870D1002770483830006800F01D
:10637000805090B900BF002000906C483830006811
:1063800040F080506949383108600846006800F0E4
:106390008050009000BF00BF01276748006800F4EC
:1063A0008070B0B96448006840F480706249086049
:1063B000FFF7A0FC054606E0FFF79CFC401B022807
:1063C00001D90320B8E65C48006800F4807000281A
:1063D000F2D000BFA068012808D154486830006896
:1063E00040F001005149683108601DE0A0680528AF
:1063F0000DD14E486830006840F004004B496831C8
:1064000008600846006840F0010008600CE047485A
:106410006830006820F0010044496831086008468F
:10642000006820F00400086000BFA068A8B1FFF772
:1064300061FC054609E0FFF75DFC401B41F2883135
:10644000884202D9032077E626E0384868300068A1
:10645000C0F340000028EED013E0FFF74BFC0546E8
:1064600008E0FFF747FC401B41F28831884201D920
:10647000032061E62D4868300068C0F34000002822
:10648000EFD1012F07D129483830006820F0805023
:1064900026493831086000BFA069002845D023484C
:1064A000006800F00C0008285DD0A069022845D1E2
:1064B00000201F490866FFF71DFC054606E0FFF7B0
:1064C00019FC401B022801D9032035E6174808387B
:1064D0000068C0F340600028F1D1D4E90701084307
:1064E000616A40EA81110122A06AC2EB500041EAD0
:1064F00000412C20005D41EA00600C49091F086042
:1065000001200B490866FFF7F5FB054606E0FFF79B
:10651000F1FB401B022801D903200DE6034808388F
:106520000068C0F340600028F1D049E0083802401C
:1065300000004742800E4742007000400020214981
:106540000866FFF7D7FB054606E0FFF7D3FB401BC5
:10655000022801D90320EFE51B480068C0F3406022
:106560000028F2D12CE0A069012800D1E4E516480A
:10657000001D0668A069012820D006F48001E069AA
:1065800081421BD106F03F01206A814216D147F6B5
:10659000C0703040616AB0EB811F0FD106F440310A
:1065A0000122A06AC2EB5000B1EB004F06D106F009
:1065B00070612C20005DB1EB006F01D00120BBE5C4
:1065C0000020B9E50000474200380240042808D105
:1065D0004FF0E021096941F004014FF0E022116120
:1065E00007E04FF0E021096921F004014FF0E022BB
:1065F0001161704770B504462546681EB0F1807F72
:1066000001D301200FE0681E4FF0E02148610F2107
:106610004FF0FF3000F05AFF00204FF0E02188617A
:1066200007200861002070BD7047704730B50246F2
:106630000B4600BF92F83C00012801D1022030BD7A
:10664000012082F83C0000BF022082F83D00106863
:1066500044681068816824F0700418680443106866
:106660004460184D1068A8421BD01068B0F1804FEC
:1066700017D0154D1068A84213D0144D1068A842C9
:106680000FD0134D1068A8420BD0124D1068A842CD
:1066900007D0114D1068A84203D0104D1068A842D1
:1066A00005D121F080015868014310688160012004
:1066B00082F83D0000BF002082F83C0000BF00BF10
:1066C000BDE7000000000140000400400008004059
:1066D000000C004000040140004001400018004050
:1066E00010B504460CB9012010BD94F83D0028B93E
:1066F000002084F83C00204600F025F8022084F8B1
:106700003D00211D206800F02BFD012084F846008B
:1067100000BF84F83E0001213F2001554020015573
:106720004120015500BF00BF012084F842004320F2
:106730000155442001554520015500BF012084F832
:106740003D000020D0E77047014691F83D00012848
:1067500001D001207047022081F83D000868C06820
:1067600040F001000B68D8601A4B086898421BD0B3
:106770000868B0F1804F17D0174B0868984213D0C3
:10678000164B086898420FD0154B086898420BD0FA
:10679000144B0868984207D0134B0868984203D0FE
:1067A000124B086898420CD10868806800F0070214
:1067B000062A0CD00868006840F001000B681860D9
:1067C00005E00868006840F001000B6818600020D0
:1067D000C0E7000000000140000400400008004045
:1067E000000C00400004014000400140001800403F
:1067F000704710B5044620680069C0F34000D8B166
:106800002068C068C0F34000B0B16FF0020021689A
:106810000861012020772068806900F0030018B12A
:106820002046FFF7E5FF05E0204600F0ADF82046E2
:1068300000F0ABF80020207720680069C0F38000EA
:10684000D8B12068C068C0F38000B0B16FF0040018
:1068500021680861022020772068806900F4407078
:1068600018B12046FFF7C4FF05E0204600F08CF881
:10687000204600F08AF80020207720680069C0F3E5
:10688000C000D8B12068C068C0F3C000B0B16FF0DC
:10689000080021680861042020772068C06900F0A2
:1068A000030018B12046FFF7A3FF05E0204600F0E3
:1068B0006BF8204600F069F8002020772068006916
:1068C000C0F30010D8B12068C068C0F30010B0B1A8
:1068D0006FF0100021680861082020772068C069E7
:1068E00000F4407018B12046FFF782FF05E0204613
:1068F00000F04AF8204600F048F800202077206891
:10690000006900F0010058B12068C06800F0010083
:1069100030B16FF0010021680861204600F036F8C0
:1069200020680069C0F3C01058B12068C068C0F387
:10693000C01030B16FF08000216808612046FFF779
:1069400073FE20680069C0F3801058B12068C068E9
:10695000C0F3801030B16FF040002168086120461C
:1069600000F050F820680069C0F3401058B120686A
:10697000C068C0F3401030B16FF02000216808619A
:106980002046FFF752FE10BD7047704710B5044611
:106990001648844229D116480068401C14490860F2
:1069A00014480068401C1349086013480068401CE4
:1069B000114908601148006811280BD10D48006882
:1069C000322807D900200B4908604FF480510C4849
:1069D000FFF780F906480068322806D900200449EC
:1069E000086040210648FFF775F910BD44010020FA
:1069F000600000206400002020000020DC00002057
:106A00000004024070477047704700002DE9F84FBE
:106A10000446206805682068C668206847694FF00A
:106A20000009CA4605F00F09B9F1000F0AD105F0B7
:106A3000200038B106F0200020B1204600F04CFCC8
:106A4000BDE8F88FB9F1000F7CD007F0010018B94C
:106A500006F49070002875D005F0010030B106F4FE
:106A6000807018B1206C40F00100206405F0040033
:106A700030B107F0010018B1206C40F00200206432
:106A800005F0020030B107F0010018B1206C40F0B1
:106A90000400206405F0080048B106F0200010B999
:106AA00007F0010018B1206C40F008002064206C51
:106AB000002846D005F0200028B106F0200010B1D3
:106AC000204600F009FC20684069C0F3801A206C61
:106AD00000F0080010B9BAF1000F2DD0204600F0E8
:106AE000B5FB2068406900F04000402820D100BF7D
:106AF00000BF2168143151E8001F21F040002168D7
:106B0000143141E80002002AF3D100BFA06B50B15C
:106B10007548A16B0865A06BFEF7F1FE88B1A06B0C
:106B2000016D88470DE02046FFF76EFF09E009E0A0
:106B30002046FFF769FF04E02046FFF765FF0020CD
:106B400020647DE7206B012876D105F01000002835
:106B500072D006F010000028FAD000BF002000908C
:106B600020680068009020684068009000BF00BF67
:106B70002068406900F0400040285ED1A06B0068AA
:106B800040681FFA80F8B8F1000F54D0A08D40453E
:106B900051DDA4F82E80A06BC069B0F5807F43D092
:106BA00000BF00BF21680C3151E8001F21F4807044
:106BB00021680C3141E80002002AF3D100BF00BF78
:106BC00000BF2168143151E8001F21F00100216845
:106BD000143141E80002002AF3D100BF00BF00BF1A
:106BE0002168143151E8001F21F040002168143160
:106BF00041E80002002AF3D100BF202084F83E00C3
:106C00000020206300BF00BF21680C3151E8001F45
:106C100021F0100021680C3141E80002002AF3D174
:106C200000BFA06BFEF715FEA08DE28D801A81B229
:106C30002046FFF7E8FE03E740E0A08DE18D401A13
:106C40001FFA80F8E08DC0B3B8F1000F35D000BF57
:106C500000BF21680C3151E8001F21F490702168B9
:106C60000C3141E80002002AF3D100BF00BF00BF91
:106C70002168143151E8001F21F00100216814310E
:106C800041E80002002AF3D100BF202084F83E0032
:106C90000020206300BF00BF21680C3151E8001FB5
:106CA00021F0100021680C3141E80002002AF3D1E4
:106CB00000BF41462046FFF7A6FEC1E605F0800072
:106CC00030B106F0800018B1204600F081FBB7E635
:106CD00005F0400030B106F0400018B1204600F049
:106CE000EBFAADE600BFABE63972000870477047BB
:106CF00000BFFEE710B504464FF0E020006920F029
:106D000001004FF0E0210861206812490840B0F10D
:106D1000005F1AD1606810490860084600680F4992
:106D20000860012080F3108800BF72B64FF0FF307A
:106D3000FFF75AF84020FFF757F8206880F30888DB
:106D400000BF06480068804701E0002010BD002019
:106D5000FCE700000000FE2F0400002000000020DF
:106D600000B58BB02D482E4908602E4808632E4888
:106D7000486307204860002129488160C1604FF4C2
:106D8000102101610021416181610121C161016224
:106D9000002141628162C162FEF7C8F808B1FDF7C7
:106DA000EFFC0E20069000200790012008904FF481
:106DB00038700190002002904FF61F7003904FF63C
:106DC000FF700490002005900D200A90012009908A
:106DD00001A91348FDF7FAFE08B1FDF7D1FC0F2019
:106DE00006900120079008904CF24000019000208E
:106DF00002904CF2400003904FF6FF700490002088
:106E000005900D200A900120099001A90448FDF782
:106E1000DDFE08B1FDF7B4FC0BB000BD006800401A
:106E20007C000020C0000020DC00002000B587B0FE
:106E3000142102A8FDF78FFA00BF002001903E4800
:106E4000006840F080003C4908600846006800F097
:106E50008000019000BF00BF00BF002001900846E5
:106E6000006840F0020008600846006800F0020078
:106E7000019000BF00BF00BF0020019008460068DD
:106E800040F0010008600846006800F00100019031
:106E900000BF00BF00BF002001900846006840F01E
:106EA000040008600846006800F00400019000BF7C
:106EB00000BF00BF002001900846006840F01000AD
:106EC00008600846006800F01000019000BF00BF95
:106ED000881402900120039000200490059002A9DC
:106EE0001648FEF7FFFD012211031448FEF7FCFED1
:106EF0004FF48050029001200390002004900590F0
:106F000002A90F48FEF7EEFD012211030C48FEF71F
:106F1000EBFE402002900120039000200490059099
:106F200002A90648FEF7DEFD012240210348FEF7D4
:106F3000DBFE07B000BD0000303802400004024014
:106F4000000002400EB500200190029000BF0090AA
:106F50001848006840F0200016490860084600689C
:106F600000F02000009000BF00BF134813490860E4
:106F7000532048600021114881604FF47A71C1604C
:106F800000218161FFF7ACFB08B1FDF7F9FB0020A0
:106F90000190029001A90948FFF748FB08B1FDF7ED
:106FA000EFFB002211463720FEF750FF3720FEF797
:106FB0003DFF0EBD40380240001400404401002057
:106FC00000BFFEE700BFFEE77047704738B50446D4
:106FD0000D46FEF78FFE0B490968401AB0F5FA6FAF
:106FE0000ED98DF800408DF8015002236A46FF212A
:106FF0000548FDF761FBFEF77DFE0249086000BF12
:1070000038BD0000680000207C000020012080F3D3
:10701000138800BF00BF00BF00BF00BF00BFBFF3A9
:107020004F8F00BF00BF00BF0948006800F4E06058
:1070300008490843001D0649086000BF00BF00BFA3
:10704000BFF34F8F00BF00BF00BF00BF00BFFDE711
:107050000CED00E00000FA0510B5FEF751FE10BD82
:1070600010B592B0302106A8FDF775F9142101A8DA
:10707000FDF771F900BF002000902E48006840F035
:1070800080502C4908600846006800F0805000904D
:1070900000BF00BF00BF002000902748006840F4F8
:1070A0008040254908600846006800F48040009050
:1070B00000BF00BF022006900120099010200A9016
:1070C00002200C9000210D9110210E914FF4A87117
:1070D0000F91022110910421119106A8FFF728F8C1
:1070E00008B1FDF74DFB0F20019002200290002017
:1070F00003904FF4A05004904FF480500590052168
:1071000001A8FEF7F5FE08B1FDF73AFBFEF7B2FF66
:107110004FF4FA61B0FBF1F42046FFF76BFA04205C
:10712000FFF754FA00221146501EFEF78FFE12B0F0
:1071300010BD000040380240007000400348006865
:1071400040F47000014908607047000088ED00E0DD
:1071500010B50248FFF74DFB10BD000044010020B0
:1071600010B50268294B98420ED0B0F1804F0BD079
:10717000274B984208D0274B984205D0264B98427F
:1071800002D0264B984203D122F070024B681A437A
:107190001E4B984220D0B0F1804F1DD01C4B98421E
:1071A0001AD01C4B984217D01B4B984214D01B4B43
:1071B000984211D01A4B98420ED01A4B98420BD0DD
:1071C000194B984208D0194B984205D0184B984259
:1071D00002D0184B984203D122F44072CB681A4374
:1071E00022F080034C6943EA040202608B68C362A8
:1071F0000B688362054B984202D0084B984201D13C
:107200000B6903630123436110BD000000000140CE
:107210000004004000080040000C00400004014051
:107220000040014000440140004801400018004077
:10723000001C00400020004070B50546AC6B0020EB
:10724000E085E0842046FFF7DFFB70BD00BF00BF94
:1072500002680C3252E8002F22F4907102680C325E
:1072600042E80013002BF3D100BF00BF00BF02684B
:10727000143252E8002F22F001010268143242E871
:107280000013002BF3D100BF016B01290ED100BF09
:1072900000BF02680C3252E8002F22F01001026891
:1072A0000C3242E80013002BF3D100BF202180F8FC
:1072B0003E1000210163704710B504462068C06885
:1072C00020F040002168C860202084F83D0020465E
:1072D000FFF70DFD002010BDF8B5044694F83E0000
:1072E000222873D1A068B0F5805F0CD1206950B915
:1072F0000025A66A20684068C0F308003080A06AB4
:10730000801CA06215E0A56A0026A068B0F5805F29
:1073100003D0A06828B9206918B92068406828708F
:1073200004E02068406800F07F002870A06A401CDC
:10733000A062E08D401E80B2E085002844D1206824
:10734000C06820F020002168C8602068C06820F470
:1073500080702168C8602068406920F001002168C1
:107360004861202084F83E00206B012826D10020AF
:10737000206300BF00BF21680C3151E8001F21F0DD
:10738000100021680C3141E80002002AF3D100BF4F
:107390002068006800F0100010280AD100BF00200B
:1073A000009020680068009020684068009000BF4E
:1073B00000BFA18D2046FFF726FB02E02046FFF725
:1073C00095FC0020F8BD01E00020FBE70220F9E772
:1073D000014691F83D00212828D18868B0F5805FEA
:1073E0000BD1086948B90A6A1088C0F308000B6815
:1073F0005860086A801C086205E00B6A581C086225
:1074000018780B685860C88C401E80B2C88458B980
:107410000868C06820F080000B68D8600868C06801
:1074200040F040000B68D860002070470220FCE765
:1074300010B50248FFF7EAFA10BD00000001002075
:1074400000BFFEE72DE9F04104460E461546002731
:1074500000BF0FE094F800C062460023294618469A
:10746000FEF7DAFA10B96D1C641C02E00020BDE8DA
:10747000F0817F1CB742EDD30120F8E72DE9F04100
:1074800004460E461546FEF713FB002700BF0FE02B
:10749000D4F800C06246002329460220FEF7BCFA59
:1074A00010B96D1C241D02E00020BDE8F0817F1C96
:1074B000B742EDD3FEF7A6FA0120F6E702480068CE
:1074C000C0F30220704700000CED00E010B500286A
:1074D00004DB0A07130E054A135406E00A07140ECC
:1074E000034A00F00F031B1FD45410BD00E400E05A
:1074F00018ED00E070B502460C46FF25FF2309E0B9
:1075000012F8010B80EA05010648405C80EA030599
:107510000548435C201EA4F10106B4B2F0D143EA51
:10752000052070BDD6790008D67A0008FD48FE49CE
:1075300008600024FEF7F0FBFFF792FDFFF776FCF2
:10754000FFF70EFCFFF7FEFC0122F849F848FDF7B3
:1075500094FA62B6F748FFF7F7F80021F648FDF70E
:107560001FFEF6480068F6490860F4484068486025
:10757000F2488068F3490860F048C0684860E2203B
:10758000F1490870012048700220F049087019E2A2
:10759000EF48006841F66411884268DD0020EC493C
:1075A000086007210846FFF711FD01210320FDF7C0
:1075B00043FA0320E7490860E74A0121E548FFF75D
:1075C0005DFFE648007802280FDB00200AE0E3496F
:1075D0000978891E082212FB0101E14A515CE14A47
:1075E0001154401C1028F2DB19E0DC480078022816
:1075F00015DA002006E0DC490A5C00F10801D94BED
:107600005A54401C0228F6DB002006E000F57E718B
:10761000D34A515CD34A1154401C0828F6DBD348A6
:107620000078D0490874CD4800784874CB48007879
:10763000012807DBCD4800788874C8480078401ED0
:10764000C87406E0C9480078401EC6498874802086
:10765000C8741421C648FDF761F8012804D114222A
:10766000C049C348FDF716FA0020B8490870B7486A
:107670000078052834D2DFE800F00334C7FEFD00AF
:10768000FEF738FB41F28831884229D90122B949F5
:10769000B948FDF7F2F90122A449A548FDF7EDF933
:1076A000A2480068FF2803D0A0480068401CA8B981
:1076B000B0480068B149884210D1B148B14908606A
:1076C00008460068FFF716FB50B94FF47A70FEF7D2
:1076D0002BF901210520FFF779FC01E0FFF796FC6B
:1076E0006FE1A948407880B301210420FDF7A4F997
:1076F00003208E4908608E4A01218C48FFF7BEFEA8
:10770000A14801699F480068FDF708F8012815D1D4
:1077100096480078401C95490870084600788A49C8
:1077200008708E480078487002230A46212182485A
:10773000FCF7C2FF01209449887003E00221012078
:10774000FFF744FC0020904948708F48C07870B320
:107750008D48807801282AD18B490A898349097884
:10776000491E884B1B6803EB81207D49FDF792F988
:10777000012815D10020794908707C480078401C08
:107780007A490870084600786F4908707348007895
:10779000487002230A4621216748FCF78DFF03E069
:1077A00003210220FFF712FC00207749C8707648B9
:1077B0000079012827D174484079012823D17348E2
:1077C0000078012810D101215948FCF7A7FF0121B9
:1077D0000320FDF731F906205E4908605E4A012169
:1077E0005C48FFF74BFE0BE001210320FDF724F975
:1077F000072058490860584A01215648FFF73EFEC5
:10780000002052490870DCE04848006803284AD04C
:107810004FF400305C4948610846808AC0F3090093
:1078200028B908464069C0F38F20488106E05648D1
:107830004069012101EB9020534948810121042036
:10784000FDF7FAF8022039490860394A0121374822
:10785000FFF714FE01210320FDF7EEF804203D4957
:1078600008603D4A01213B48FFF708FE4648837AFD
:10787000474901E0A4E024E042694148FCF7D0FD1B
:1078800001281DD140490871E4202F4908700120CA
:10789000487002230A4620212748FCF70DFF0120EB
:1078A0002A4908700CE00820274908704870022314
:1078B0000A46FF212048FCF7FFFE002023490870FC
:1078C0007FE04FF400301F49486008468088C0F3CD
:1078D000090020B908464068C0F3872405E019482C
:1078E0004068012101EB9020C4B2012221492948BE
:1078F000FDF7C3F81F4800682049884258D1114855
:1079000023461F4942682248FCF78AFD012856D1C8
:1079100001210748FCF702FF19481A490860084688
:10792000006839E00040000808ED00E01800002081
:1079300000000108440100207C00002000800008B5
:1079400030000020380000200C000020080000203B
:10795000200000204800002000C00008290000206E
:10796000A4010020A4050020F00000202800002031
:10797000000006084000002000020208483441418F
:10798000000002082C0000208C0100204400002090
:107990000000040800020408FFF7ACF938B94FF4FE
:1079A0007A70FDF7C1FF01210520FFF70FFB06E00C
:1079B00004210220FFF70AFB00200349087000E0C1
:1079C00000BF00BFE4E50000080000204FF0407059
:1079D000E1EE100A704700C1814001C0804101C042
:1079E000804100C1814001C0804100C1814000C18F
:1079F000814001C0804101C0804100C1814000C17F
:107A0000814001C0804100C1814001C0804101C06E
:107A1000804100C1814001C0804100C1814000C15E
:107A2000814001C0804100C1814001C0804101C04E
:107A3000804100C1814000C1814001C0804101C03E
:107A4000804100C1814001C0804100C1814000C12E
:107A5000814001C0804101C0804100C1814000C11E
:107A6000814001C0804100C1814001C0804101C00E
:107A7000804100C1814000C1814001C0804101C0FE
:107A8000804100C1814001C0804100C1814000C1EE
:107A9000814001C0804100C1814001C0804101C0DE
:107AA000804100C1814001C0804100C1814000C1CE
:107AB000814001C0804101C0804100C1814000C1BE
:107AC000814001C0804100C1814001C0804101C0AE
:107AD000804100C1814000C0C101C30302C2C6068B
:107AE00007C705C5C404CC0C0DCD0FCFCE0E0ACAF6
:107AF000CB0BC90908C8D81819D91BDBDA1A1EDE46
:107B0000DF1FDD1D1CDC14D4D515D71716D6D212F5
:107B100013D311D1D010F03031F133F3F23236F605
:107B2000F737F53534F43CFCFD3DFF3F3EFEFA3AB5
:107B30003BFB39F9F83828E8E929EB2B2AEAEE2E45
:107B40002FEF2DEDEC2CE42425E527E7E62622E2B5
:107B5000E323E12120E0A06061A163A3A26266A605
:107B6000A767A56564A46CACAD6DAF6F6EAEAA6A75
:107B70006BAB69A9A86878B8B979BB7B7ABABE7EC5
:107B80007FBF7DBDBC7CB47475B577B7B67672B275
:107B9000B373B17170B05090915193535292965605
:107BA0005797559594549C5C5D9D5F9F9E5E5A9A35
:107BB0009B5B99595898884849894B8B8A4A4E8EC5
:107BC0008F4F8D4D4C8C4484854587474686824235
:107BD000438341818040000000000000000001025A
:107BE0000304060708090000000001020304000066
:107BF000107C0008000000207C000000C441000848
:107C00008C7C00087C000020AC190000E0410008DA
:107C10000000000000000000000000000000000064
:107C20000000000000000000020000000000000052
:107C3000000000000000000000000000000002083A
:107C40000000000000000000000000000000000034
:107C50000000000000000000000000000000000024
:107C60000000000000000000000000000000000014
:107C70000000000000000000000000000000000004
:0C7C800010000000010000000024F400CF
:040000050800418925
:00000001FF
