:020000040802F0
:10000000A06200209D0102083D6F0208E55602082B
:100010001D6A0208FF010208F5B602080000000090
:100020000000000000000000000000001B9F02080C
:1000300063140208000000002D86020847AD020884
:10004000B7010208B7010208B7010208B7010208A8
:10005000B7010208B7010208BD180208F11802082A
:10006000F7180208FD18020803190208B701020870
:10007000B7010208B7010208B7010208B701020878
:10008000B7010208B7010208F1050208B70102082A
:10009000B7010208B7010208B701020809190208EE
:1000A00091AE0208ADAE0208B7010208B70102081E
:1000B000B7010208B7010208B7010208B701020838
:1000C000B7010208B7010208B7010208B701020828
:1000D000B7010208B7010208B701020899B6020881
:1000E000C3180208B7010208B7010208B7010208E5
:1000F000B7010208B7010208B7010208B7010208F8
:10010000B7010208B7010208B7010208B7010208E7
:10011000B7010208B7010208C9AE020851AF0208D0
:1001200089130208B7010208B7010208B7010208E3
:10013000B7010208B7010208B7010208B7010208B7
:10014000810F0208B7010208B7010208B7010208CF
:10015000B7010208B7010208B7010208B701020897
:10016000B7010208B7010208B7010208B701020887
:10017000B7010208B7010208B70102080000000039
:10018000B7010208B7010208DFF80CD000F0B4F99B
:1001900000480047B9C90208A0620020064880470D
:1001A00006480047FEE7FEE7FEE7FEE7FEE7FEE75C
:1001B000FEE7FEE7FEE7FEE775AE020889010208EA
:1001C00040EA01039B0703D009E008C9121F08C0D9
:1001D000042AFAD203E011F8013B00F8013B521E59
:1001E000F9D2704730B504460020034600E05B1C9E
:1001F000934203D2E05CCD5C401BF8D030BDFEE7FB
:1002000048344141333000002DE9F05F05460020BD
:1002100092469B4688460646814640241BE0284677
:1002200041464746224600F0F9F853465A46C01A5E
:10023000914110D311461846224600F0E0F82D1ADD
:1002400067EB01084F4622460120002100F0D7F855
:1002500017EB00094E41201EA4F10104DFDC4846E3
:1002600031462A464346BDE8F09FD2B201E000F88D
:10027000012B491EFBD270470022F6E710B513464A
:100280000A4604461946FFF7F0FF204610BD2DE947
:10029000FE4F81EA030404F0004421F00041009481
:1002A0004FF0000B23F0004350EA01045ED052EA05
:1002B00003045BD0C3F30A54C1F30A552C44A4F2DF
:1002C000F3340194A0FB0254C1F3130141F48011F3
:1002D000C3F3130343F4801301FB024400FB034EFA
:1002E000840A970A44EA815447EA8357A4FB0768C3
:1002F00002958D0A05FB07854FEA932C04FB0C54ED
:100300002705029D4FEA065847EA1637B5EB080560
:100310006EEB070C870E920E47EA811742EA8312B2
:10032000A7FB0201B6EB0B0164EB00042B0D43EAC3
:100330000C335E1844EB1C50DA465146E7FB0201D1
:10034000C5F313044FEA0B3343EA14534FEA043264
:10035000019C43EA0603A4F10C040294009CCDE93D
:1003600000B400F07AF803B0BDE8F08F0020014639
:10037000F9E70EB5C10F80EAE0700844CA07002112
:1003800040F233438DE80E000A460B4600F065F854
:1003900003B000BD70B5C1F30A5201F0004500245E
:1003A000C1F3130140F2FF3341F480119A4201DAA4
:1003B000002070BD40F233439A42A2F2334203DC84
:1003C000524200F02BF800E090402C43F1D0404224
:1003D00070BD30B50B46014600202022012409E003
:1003E00021FA02F59D4205D303FA02F5491B04FAEE
:1003F00002F52844151EA2F10102F1DC30BD202ACD
:1004000004DB203A00FA02F1002070479140C2F16B
:10041000200320FA03F3194390407047202A04DB9D
:10042000203A21FA02F00021704721FA02F3D0406D
:10043000C2F12002914008431946704710B5141EBE
:1004400073F1000408DA401C41F1000192185B418D
:100450001A4301D120F0010010BD2DE9F04D924664
:100460009B4611B1B1FA81F202E0B0FA80F220327B
:100470009046FFF7C4FF04460F4640EA0A0041EAEF
:100480000B0153465A46084313D0114653EA010064
:1004900019D0C8F140025046FFF7C0FF05460E468E
:1004A000504659464246FFF7AAFF084305D00120AF
:1004B00004E020463946BDE8F08D0020054346EAB9
:1004C000E0762C4337430A986305E40AA0EB080062
:1004D0000022FD0A44EA47540A3002D500200146B2
:1004E000E9E7010510196941DDE90845001969418D
:1004F000BDE8F04DA2E70000064C074D06E0E068BD
:1005000040F0010394E8070098471034AC42F6D35A
:10051000FFF73EFEFCE402081CE5020870B58C18EB
:1005200010F8015B15F0070301D110F8013B2A1107
:1005300006D110F8012B03E010F8016B01F8016BF4
:100540005B1EF9D12B0705D40023521E0DD401F8F0
:10055000013BFAE710F8013BCB1A921C03E013F8B9
:10056000015B01F8015B521EF9D5A142D8D30020EE
:1005700070BD0146886B026C12F0500F04D0026C03
:10058000D20624D5416D0847016C41F40071016425
:1005900001688A6812F0405F17D1027EAAB9CA6A60
:1005A00012F4700F02D08A6852050ED44A6822F005
:1005B00020024A60016C21F480710164016CC9045D
:1005C00003D4016C41F001010164816C0847806B28
:1005D000C26C08461047806B40210164416C41F0B9
:1005E00004014164416D0847806BC16C08470000FD
:1005F000014801F0AEBC0000E03500204A494A68DD
:1006000022F440324A604A6843681A434A600168EB
:100610004A6822F480724A6001684A68036942EAC3
:1006200003224A6001684A6822F040724A60016809
:100630004A6883681A434A6001688A6822F4006243
:100640008A6001688A68C3681A438A60816A6FF0A9
:100650007062D14214D001688A6822F070628A60A8
:1006600001688A68836A1A438A6001688A6822F08E
:1006700040528A6001688A68C36A1A438A6009E046
:1006800001688A6822F070628A6001688A6822F0D4
:1006900040528A6001688A6822F002028A6001681A
:1006A0008A68037E42EA43028A6090F8201089B18A
:1006B00001684A6842F400624A6001684A6822F4AC
:1006C00060424A6001684B68426A521E43EA423205
:1006D0004A6004E001684A6822F400624A600168E6
:1006E000CA6A22F47002CA620168CB6A828B521E07
:1006F00043EA0252CA6201688A6822F400728A6080
:1007000001688A6890F8303042EA43228A600168C2
:100710008A6822F480628A6001688A68406942EAD5
:100720008020886070470000002301402DE9F041DF
:100730001C4C5A20207003266670A4F1C805AB78C3
:10074000A370012016E02918897801EB41021649AF
:1007500001EB8201421E896804EB82020F78D77098
:100760000F883F0A17710F683F0C57710968090E0F
:100770009171401C8342E6DA06EB8300C1B209485E
:1007800000F006FDA97804EB8102D070BDE8F041CD
:10079000042000EB81024FF47A730249034804F00D
:1007A00070BE0000F449002044D9020884380020BB
:1007B00070B51D4C5A202070EF206070A4F1C80560
:1007C000AB78A370012016E02918897801EB41026B
:1007D000164901EB8201421E896804EB82020E7801
:1007E000D6700E88360A16710E68360C5671096876
:1007F000090E9171401C8342E6DA032000EB83006E
:10080000C1B2094800F0C4FCA97804EB8102D070A1
:100810000420BDE8704000EB81024FF4FA730249F6
:10082000034804F02EBE0000F449002044D9020819
:100830008438002070B5174C5A202070F120607069
:100840000120154DA4F1C8031918421E497804EB84
:10085000820201EB410105EB810189680E789670F7
:100860000E88360AD6700E68360C16710968090EA5
:100870005171401C0128E7DD0621064800F088FC84
:10088000A071BDE87040C82307220249034804F064
:10089000F8BD0000F449002044D902088438002043
:1008A00070B5174C5A202070F22060700120154D51
:1008B000A4F1C8031918421E497804EB820201EB27
:1008C000410105EB810189680E7896700E88360A21
:1008D000D6700E68360C16710968090E5171401CED
:1008E0000228E7DD0A21064800F052FCA072BDE8AC
:1008F0007040C8230B220249034804F0C2BD000027
:10090000F449002044D902088438002070B5174CFF
:100910005A202070F32060700120154DA4F1C80307
:100920001918421E497804EB820201EB410105EBE4
:10093000810189680E7896700E88360AD6700E6826
:10094000360C16710968090E5171401C0328E7DD49
:100950000E21064800F01CFCA073BDE87040C823BF
:100960000F220249034804F08CBD0000F449002026
:1009700044D902088438002070B5174C5A202070E2
:10098000F42060700120154DA4F1C8031918421E0F
:10099000497804EB820201EB410105EB8101896892
:1009A0000E7896700E88360AD6700E68360C167160
:1009B0000968090E5171401C0428E7DD1221064820
:1009C00000F0E6FBA074BDE87040C8231322024982
:1009D000034804F056BD0000F449002044D9020841
:1009E00084380020F0B4204A1E4E0027138BB6F93D
:1009F000C002591C8DB231460028D1F8C41201DD65
:100A0000002903DB002803DA002901DD158319E042
:100A10004FF4FA7C40B9B6F9BC42002C00DAE4434A
:100A2000644501DA17830DE0002900DAC943002884
:100A300000DAC043081A604501DD158302E00BB1FE
:100A40005B1E1383108BB0F5FA6F09D91783012051
:100A500086F8D40286F8DA72F0BC800405F012BA87
:100A6000F0BC7047B83C00206800002070B5002939
:100A700001DA494209B2002815D0364D364A41F212
:100A80009414AE7A42F2D00386420DD1A14203DA29
:100A900043F69840106202E043F6D8401062936338
:100AA0005363D363916370BDEE7A86420DD1A14248
:100AB00003DA43F69C00106202E043F6DC001062A9
:100AC00093635363D363916370BDAE7986420DD156
:100AD000A14203DA43F68C10106202E043F68C5018
:100AE000106293635363D363D16370BDEE79864222
:100AF0000DD1A14203DA43F6C810106202E043F6BA
:100B0000C850106293635363D363D16370BD2E7A70
:100B100086420DD1A14203DA43F6C900106202E019
:100B200043F6CD00106293635363D363516370BD8A
:100B30006D7A8542FBD1A14203DA43F68940106207
:100B400002E043F68D40106293635363D3635163B5
:100B500070BD00006044002000000140F0B4204A55
:100B60001E4E0027538BB6F94C03591C8DB23146EB
:100B70000028D1F8501301DD002903DB002803DA37
:100B8000002901DD558319E04FF4FA7C40B9B6F92C
:100B90004843002C00DAE443644501DA57830DE052
:100BA000002900DAC943002800DAC043081A60456A
:100BB00001DD558302E00BB15B1E5383508BB0F512
:100BC000FA6F09D95783012086F8600386F86673A7
:100BD000F0BCC00405F056B9F0BC7047B83C00202A
:100BE000680000202DE9F041002901DA494209B2EC
:100BF00000281BD0DFF8ECC03B4C3B4A18349CF873
:100C00001C80251F261D41F2941742F2D003804517
:100C10000ED1B94203DA43F69840106002E043F681
:100C2000D840106023602B6033602160BDE8F08104
:100C30009CF81D8080450DD1B94203DA43F69C0033
:100C4000106002E043F6DC00106023602B6033602C
:100C50002160EBE79CF8188080450DD1B94203DA9A
:100C600043F68C10106002E043F68C501060236055
:100C70002B6033603160D9E79CF8198080450DD135
:100C8000B94203DA43F6C810106002E043F6C850D8
:100C9000106023602B6033603160C7E79CF81A80D6
:100CA00080450DD1B94203DA43F6C900106002E075
:100CB00043F6CD00106023602B6033602960B5E7F8
:100CC0009CF81BC08445B1D1B94203DA43F6894090
:100CD000106002E043F68D40106023602B603360AB
:100CE0002960A3E7604400202004014010B5164BA2
:100CF000B3F8D002002818D0144A93F9D81290788B
:100D00004C1C13D0012911D0401CC0B290700A288D
:100D10000BD90A209070002083F8DA024FF40050BB
:100D200005F0B0F8012083F8D40210BDB3F9BC126D
:100D3000D3F8C432C91A00D5C9431429F5DA0028FA
:100D4000F3D0401E907010BDB83C00206800002019
:100D500010B5164BB3F85C03002818D0144C93F967
:100D60006413E0784A1C13D0012911D0401CC0B292
:100D7000E0703C280BD94FF4804005F083F8142034
:100D8000E070002083F86603012083F8600310BD43
:100D9000B3F94813D3F85023891A00D5C94332292F
:100DA000F5DA0028F3D0401EE07010BDB83C0020FA
:100DB000680000202DE9F041062000F0F1FE264CED
:100DC00060B9264BB3F95C03002800DAC043B0F5E4
:100DD0007A6F03DD93F8660301280AD0A08A08B170
:100DE000401EA082E08A002801D0401EE082BDE8BB
:100DF000F0811B49D3F87403884203DAA08A401CAF
:100E0000A08207E0B3F96C03B0F52F7F02DDE08A22
:100E1000401CE082A08A41F2883700250126B842B2
:100E200009D9C3F8C403B00505F02CF8A78283F8EC
:100E3000606383F86653E08A40F6B837B842D6D983
:100E400003F5587398664FF4804005F01BF8E7826D
:100E50001E709D71CBE7000068000020B83C0020A8
:100E60000000204100B5114B184693F8A513D0F8A7
:100E7000D003002907D0072905D0002802DD401E35
:100E8000C3F8D00300BD0A4991F900100229F9DA2C
:100E9000401CC3F8D0030328F4DD4FF4004004F0F5
:100EA000F1FF002083F8660300BD0000B83C00207D
:100EB0004401002010B504460023F7EE000A30EE8E
:100EC000601A18E0BCEEC10A10EE102A10E0501EA5
:100ED00004EB800004EB820190ED000AD1ED000AE2
:100EE000B4EEE00AF1EE10FA01DD0CF009FA521E40
:100EF0009A42ECD85B1C00EE103AB8EE400AB4EE11
:100F0000C01AF1EE10FADDDC10BD00002DE9F04151
:100F1000069D0024184E376B3860376B40F6FF7023
:100F20007860306B8160306BC260306B056106E0C9
:100F3000326B04F11400195D1154641CA4B2AC426C
:100F4000F6D3002401E0641CA4B20A210A4801F08F
:100F500029FD08B1032CF6D3326B08482F23126900
:100F6000416803EBC20211444160032C02D000200F
:100F7000BDE8F0810120FBE75C350020C045002082
:100F8000014801F063BA00005C35002010B500296B
:100F900059D0826B4FF4D873046803EB0113E45803
:100FA00004F004049460002C4FD00468E458E40872
:100FB00054600468E35803F00203D3604FF4DA731B
:100FC000046803EB0113E45804F00F041461116288
:100FD0000468E358C3F30723D3614FF4DC73046858
:100FE00003EB0113E45814750468E458240A54759B
:100FF0000468E458240C94750468E3581B0ED375F8
:101000004FF4DE73046803EB0113E45814760468AC
:10101000E458240A54760468E458240C947604684E
:10102000E3581B0ED3762022A1B103681A6102682F
:10103000536923F05003536190F83C20222A0CD0CE
:10104000322A0AD00EE0426BA4E70468E458640D2B
:101050001460AEE70368DA60EEE70268536923F4D0
:101060000F4353611222012369B190F83C105229B9
:101070001FD0622920D0722922D080F83C3001F0A4
:1010800069FC002010BD90F83C10422906D062296E
:1010900007D0722909D080F83C30F0E780F83C2076
:1010A000EDE7322180F83C10E9E7522180F83C104E
:1010B000E5E780F83C20E2E7222180F83C10DEE7FB
:1010C000422180F83C10DAE710B501684A6922F045
:1010D00001024A6190F83C10122904D101684A6962
:1010E00022F40F424A6190F83C1042290AD052295A
:1010F0000CD072290ED0012180F83C1001F054FD73
:10110000002010BD222180F83C10F7E7322180F842
:101110003C10F3E7622180F83C10EFE73EB505464E
:10112000184C55202070662060708820A07099208F
:10113000E0701548E06015481121017022214170CE
:10114000332181704421C17000210122CDE90121A8
:101150005038009002220D4B110304F1B0000AF048
:1011600021FE217904F1B00009F014FC0F20A860E1
:10117000A069686003B02846BDE83040002109F04E
:1011800093BC000098020020443322118C450020BB
:10119000002203E010F8013B1A4492B2491EC9B282
:1011A000F8D2D0B2704730B40A46016B51F8221021
:1011B000C1F30741446B4FF0FF3324F81230012292
:1011C000431883F83820026C30BC10472DE9F04FEB
:1011D000DDE90A48099E4FF0FF3C3FE0A51AEDB259
:1011E000002D03D00F7807FA05F700E00F7807F01D
:1011F000FF0902D0C4F1080501E0C2F10805EDB213
:10120000854200D9054604EB050A4FF0FF0B0BFAA7
:101210000AF7C4F108042BFA04FB47EA0B0729EA92
:10122000070934783C4044EA090434702A44D2B2B5
:10123000072A05D900220BB1644600E001242144AD
:101240000AF0FF04072C07D90024B8F1000F01D0E1
:10125000674600E001273E44401BC0B20028BDD1D4
:10126000BDE8F08F2DE9F0410646C6EBC60000EB65
:101270008001444800EB8104B4F92410E28EB4F8F4
:101280004000914264DD401CA4F84000208F814260
:1012900056DD34F8420F401C80B220802189423C48
:1012A000012707FA06F54FF00008884208D93046B2
:1012B00009F0A0FA284604F0E5FD2776A4F842805C
:1012C000B4F92400618F884232DD34F8440F401CA9
:1012D00080B220802189443C884208D9304609F0F8
:1012E00089FA284604F0CEFD2776A4F84480B4F9A4
:1012F0002400A18F884213DD34F8460F401C80B2D1
:1013000020802189463C884208D9304609F072FA8B
:10131000284604F0B7FD2776A4F84680BDE8F081A2
:10132000B4F846000028F9D0401EA4F84600F5E7BE
:10133000B4F844000028F1D0401EA4F84400EDE7C2
:10134000B4F842000028E9D0401EA4F84200E5E7C6
:101350000028E3D0401EA4F84000B4F8420010B1C9
:10136000401EA4F84200B4F8440010B1401EA4F896
:101370004400B4F846000028D0D0401EA4F846002F
:10138000CCE70000B83C0020014801F00FBC000091
:101390009C3900200168CAB2103A1823B2FBF3F25C
:1013A000064B9B5CC3656FF30901032A02D9091D33
:1013B000816500E08165806D704700005AD30208A6
:1013C00010B5014600208A6A8B694FF0C074002B6B
:1013D0000ED0B3F5005F1AD062B3012A2AD0022AD8
:1013E00028D0032A03D1C96AC90100D5012010BD44
:1013F0001AB1012A06D0022AF9D1C96AC901F6D563
:10140000012010BDC96AA142FBD1012010BD52B11B
:10141000012A0AD0022A06D0032AF7D1C96AA142BA
:10142000F4D1012010BD012010BDC96AC901FBD54E
:10143000012010BD012010BD30B50468256825F4D9
:1014400080252560046863608368402B04D00368AE
:1014500099600068C26030BD03689A600068C1602E
:1014600030BD7047411C0CD0074AB2F900108842C9
:1014700001D1491E1180054A00EB4000002102F80D
:1014800030104FF0FF3070470C3500202C48002002
:101490002DE9F84FFE4C6078401CC2B26270FD4FDF
:1014A0000025BE14642A04D93146384602F03FF9BB
:1014B0006570606A401C6062DFF8DC83206E60B992
:1014C00001224021384602F03BF9012231464046D4
:1014D00002F036F96566E5612562E2691423282089
:1014E0004FF400214FF4801C4FF400194FF4800A90
:1014F000B2F5004F79D02DDC802A77D013DC082A92
:1015000075D009DCB2F1004F72D0012A65D0022AF1
:1015100072D0042A55D177E0102A6BD0202A6AD0E5
:10152000402A4ED190E0B2F5006F75D009DCB2F5DB
:10153000807F72D0B2F5007F73D0B2F5806F40D15A
:101540009DE0B2426BD0B2F5005F69D0B2F5804F3A
:1015500037D1F1E0B2F5000F1AD01BDC8A4270D00F
:1015600009DCB2F5803F6DD0B2F5003F6BD0B2F52B
:10157000802F26D110E1624576D04A4575D052457C
:101580001FD10093012100230322084604F0BAFB77
:10159000BDE8F88FB2F1006F68D009DCB2F1807F4E
:1015A00075D0B2F1007F73D0B2F1806F09D1A3E0A2
:1015B000B2F1805F6DD0B2F1005F6BD0B2F1804FBD
:1015C00069D001224021384602F0BAF8314640463F
:1015D000BDE8F84F012202F0B3B8009300230122C6
:1015E0001146184604F08EFBD2E755E05CE033E08C
:1015F0002EE101E03BE01CE00093002302220121E8
:10160000184604F07FFBC3E7009300230322012167
:10161000184604F077FBBBE7AEE051E001E0FBE0E9
:1016200082E00093002304220121184604F06AFBA3
:10163000AEE70093002305220121184604F062FB67
:10164000A6E7B1E0A0E0F5E0009300230622012127
:10165000184604F057FB9BE7009300230722012163
:10166000184604F04FFB93E76EE075E04CE0009302
:10167000002308220121184604F044FB88E70123D7
:1016800000901A460021184604F03CFB80E793E0E6
:101690006AE041E020E027E0012300901A46194665
:1016A000002004F02FFB73E700224021384602F0AF
:1016B00047F800223146404602F042F8656267E78B
:1016C00000224021384602F03BF8012231464046D4
:1016D00002F036F865625BE70093002301221946A9
:1016E000104604F00FFB53E7009300230222194633
:1016F000012004F007FB4BE7009300230322194667
:10170000012004F0FFFA43E7009300230422194666
:10171000012004F0F7FA3BE7009300230522194665
:10172000012004F0EFFA33E7009300230722194663
:10173000012004F0E7FA2BE7009300230822194662
:10174000012004F0DFFA23E7012200930023114671
:10175000104604F0D7FA1BE7009301210023022270
:10176000084604F0CFFA13E7009301210023042276
:10177000084604F0C7FA0BE7009301210023052275
:10178000084604F0BFFA03E7009301210023062274
:10179000084604F0B7FAFBE6009301210023072274
:1017A000084604F0AFFAF3E6009301210023082273
:1017B000084604F0A7FAEBE6216A102906D0202992
:1017C0000CD0402912D080291FD117E000930121AD
:1017D00000230522084604F095FA16E00093012143
:1017E00000230622084604F08DFA0EE00093012142
:1017F00000230722084604F085FA06E00093012141
:1018000000230822084604F07DFA3846BDE8F84F68
:101810000022402101F094BF0122009300231146D1
:10182000104604F06FFA31464046BDE8F84F0022FA
:1018300001F086BF0093012100230222084604F034
:1018400061FA31464046BDE8F84F002201F078BF0A
:10185000206A884213D0604520D0484526D05045A4
:1018600006D10093012100230922084604F04AFA18
:1018700031464046BDE8F84F002201F061BF0093B9
:10188000012100230622084604F03CFAF0E700009C
:101890006800002000040240000002400093012183
:1018A00000230722084604F02DFAE1E70093012106
:1018B00000230822084604F025FAD9E7012001F0A8
:1018C00049BE10B54FF4806001F044FE4FF4006053
:1018D00001F040FE4FF4005001F03CFE4FF4804018
:1018E00001F038FEBDE810404FF4004001F032BE78
:1018F000022001F02FBE042001F02CBE082001F0D0
:1019000029BE102001F026BE10B5202001F022FED5
:10191000402001F01FFE802001F01CFEBDE81040B9
:101920004FF4007001F016BE72B6FEE700220029E7
:1019300005D001291AD002291BD04FF440720E495C
:101940000B6823F440730B600B6813430B600A6849
:1019500022F0F8020A600A68022303EBC000024387
:101960000A60086840F48030086070474FF4807265
:10197000E5E74FF40072E2E7103C024013480168CB
:1019800089050FD5016821F400710160016841F4F7
:1019900000610160016821F400610160016841F4A7
:1019A00000710160016849050FD5016821F480616B
:1019B0000160016841F480510160016821F48051A7
:1019C0000160016841F4806101607047003C0240A1
:1019D00008490A6822F440720A600A6842F0040268
:1019E0000A600A684FF4803343EA002002430A6029
:1019F00070470000103C0240064A136823F440730D
:101A0000136013681360136843F0010313600170DF
:101A100070470000103C024010B509490C6824F4DE
:101A200040740C600C6844F440740C600C6844F022
:101A300001040C600260BFF36F8F436010BD0000B3
:101A4000103C0240074A136823F440731360136884
:101A500043F480731360136843F001031360018043
:101A600070470000103C0240074A136823F440739B
:101A70001360136843F400731360136843F00103A9
:101A80001360016070470000103C0240174908686D
:101A9000C206174805D5C26942F01002C261102281
:101AA0000A600A68920605D5C26942F00802C2615E
:101AB00020220A600A68520605D5C26942F0040273
:101AC000C26140220A600A68120605D5C26942F066
:101AD0000202C26180220A600A68920705D5C269C3
:101AE00042F02002C2610220086070470C3C0240B4
:101AF000FC39002070B5044611490020C86101F08E
:101B000027FE05460F4E09E0601C07D024B101F006
:101B10001FFE401BA04201D9032070BD3068C003E6
:101B2000F2D43068C00701D001203060306810F076
:101B3000F20F03D0FFF7AAFF012070BD002070BD97
:101B4000FC3900200C3C024007485A210170E22178
:101B5000417000218170F021C17001464FF47A7309
:101B60000422024803F08DBC2A350020843800206E
:101B700030B5094A0021094C0AE001EB410304EBAE
:101B800083035D7915B99B6820CA1D60491C89B221
:101B90008142F2D330BD00000000040844D902089D
:101BA000C0EBC00000EB80010D4800EB810090F914
:101BB0001C10012901D04A1C0FD1C38AC26E5A439E
:101BC000084B93FBF2F24A438260074A816E126827
:101BD000511A022901D900218160008900B27047A1
:101BE000B83C0020008793035000002001460020ED
:101BF000A1F100624FF480439A4204D32048084484
:101C0000984201D2012070471E480844984201D2F0
:101C1000022070471C480844984201D203207047B4
:101C20001A480844B0F5803F01D204207047184894
:101C30004FF400320844904201D205207047154805
:101C40000844904201D2062070471348084490424D
:101C500001D20720704711480844904201D2082061
:101C600070470F480844904201D2092070470D4840
:101C70000844904201D20A2070470B2070470000B0
:101C800000C0FFF70080FFF70040FFF70000FFF7FC
:101C90000000FEF70000FCF70000FAF70000F8F77C
:101CA0000000F6F70000F4F71049072808D2DFE833
:101CB00000F007101814080C040043F69C4008625A
:101CC000704743F69C100862704743F6CC100862D8
:101CD000704743F6C9100862704743F6C94008626E
:101CE000704743F6994008627047000000000140C9
:101CF00014494FF4004208280BD2DFE800F0041327
:101D00001B170B0F071F104604F0BCB843F69C408E
:101D10000860704743F69C100860704743F6CC108B
:101D20000860704743F6C9100860704743F6C94021
:101D30000860704743F6994008607047104604F009
:101D4000A1B800002004014070B50B4D4FF40041D4
:101D5000284601F0E5FC44004FF48041284601F09C
:101D6000DFFC204344004FF40051284601F0D8FC2A
:101D7000204300F0070070BD0008024070470000DB
:101D800010B590F83C20012A2AD0012280F83C208E
:101D90000A7C012A26D00268536823F0400353606E
:101DA00002685368124C23405360026853680C6801
:101DB0002343536003684A685A6203688A689A62D8
:101DC0000268536823F01F035360026853688989CF
:101DD00089B20B435360002180F83C10002010BDF5
:101DE000022010BD0268536843F040035360D7E7F8
:101DF000FFFD3FFF78B50024009490F83C20012AB5
:101E000019D0012280F83C200A680725092A14D934
:101E10000368DE680A3A02EB42029540AE43DE6098
:101E20000A788B680A3A02EB420293400268D5684E
:101E30002B43D36011E0022078BD03681E6902EBDA
:101E400042029540AE431E610A788B6802EB420263
:101E50009340026815692B4313614A681F25072ABE
:101E600013D203685E6B521E02EB82029540AE43B2
:101E70005E630A8893B20A79521E02EB8202934093
:101E80000268556B2B43536328E00D2A13D2036875
:101E90001E6BD21F02EB82029540AE431E630A887E
:101EA00093B20A79D21F02EB820293400268156B4B
:101EB0002B43136312E00368DE6A0D3A02EB8202E1
:101EC0009540AE43DE620A8893B20A790D3A02EB7E
:101ED000820293400268D56A2B43D362174A184B9B
:101EE00005689D4206D10D68122D03D1556845F451
:101EF0008005556005689D421BD10B68102B01D0F1
:101F0000112B16D1536843F400035360096810295C
:101F10000FD10C490C4A0968B1FBF2F101EB8101C8
:101F20004900009102E00099491E009100990029A2
:101F3000F9D180F83C40002078BD0000002301402A
:101F4000002001406400002040420F0070477047AD
:101F5000704770B5044620680168C1F340014268CB
:101F6000C2F3401200292AD04AB3216CC90603D417
:101F7000216C41F400712164816811F0405F17D138
:101F8000217EA9B9C16A11F4700F02D08168490598
:101F90000ED4416821F020014160206C20F4807053
:101FA0002064206CC00403D4206C40F00100206445
:101FB000A16C2046884721686FF0120008602068F5
:101FC0000168C1F380014268C2F3C01289B382B3D1
:101FD000216CC90603D4216C41F40051216481684D
:101FE00011F4401F1ED1816B11F4401F02D0816893
:101FF000490517D44168490514D4816811F0405F40
:1020000010D1217E71B9416821F080014160206CBE
:1020100020F480502064206CC00503D4206C40F074
:1020200001002064A16D2046884721686FF00C00F4
:10203000086020680168C1F300014268C2F38012A1
:1020400071B16AB10068C0070AD0206C40F48030DA
:102050002064216D2046884721686FF001000860E8
:1020600020680168C1F340114268C2F38062002910
:102070000DD0002A0BD0616C41F0020161646FF059
:1020800020050560616D204688472068056070BDA9
:1020900070B504460026002C03D0206C002510B13A
:1020A00015E0012070BD1648A0641648E06416488B
:1020B0002065164860651648A065E06D08B91548AA
:1020C000E065E16D20468847656484F83C50206CEB
:1020D000C00610D4206C20F4885040F00200206428
:1020E0002046FEF78BFA6564206C20F0020040F079
:1020F0000100206400E0012684F83C50304670BDA9
:102100004D1F02084F1F020819210208511F020823
:102110007D1D020845210208094908680268D207A6
:1021200007D0426822F0400242600A686FF0010066
:1021300010600868416841F040014160704700004C
:10214000E035002070B586B00646142101A8FEF7E0
:1021500093F826493068884246D100252448016812
:1021600041F480710160006800F4807000902049A3
:102170001439086840F004000860086800F00400A2
:102180000090086840F001000860086800F0010055
:1021900000903F20019003240294039501A9154863
:1021A00001F0E4F95F2001900294039501A912481F
:1021B00001F0DCF9124C114820606560A560E56013
:1021C00000152061800060618000A0618011E061E5
:1021D0004FF4403020626562204600F0CFFD08B128
:1021E000FFF7A2FBB463A66306B070BD00200140F8
:1021F00044380240000802400000024010640240DF
:102200009C390020F8B5044613460022009294F849
:102210003C00012807D0012084F83C002068856834
:10222000ED0702D014E00220F8BD856845F00105F5
:1022300085603E483E4D0068B0FBF5F000EB400085
:10224000009002E00098401E009000980028F9D10C
:1022500020688568ED0766D0256C40F20166B543BD
:1022600045F4807525644068400505D5206C20F450
:10227000005040F480502064206CC00404D5606C91
:1022800020F00600606400E0626484F83C20294E7F
:10229000A26B2948D063A26B28481064A26B28481F
:1022A000D06422686FF0220010602068426842F01B
:1022B000806242602068826842F480728260206896
:1022C0000A464C30A56B0146284600F0C1FD7068F7
:1022D0001C49C00607D02068884224D1816811F0CB
:1022E000405F1CD01FE0206888420FD0164A904201
:1022F00003D1D1F80423D20608D0144A904212D157
:10230000D1F8041301F01F0110290CD2816811F0DB
:10231000405F08D1816841F08041816003E08168BD
:1023200041F0804181600020F8BD00006400002081
:1023300040420F000023014073050208E90502082E
:10234000D705020800200140002101400022014081
:1023500010B5087D012282403A4800F500700368FC
:1023600043F001030360036823F47C5303600368B4
:102370004C6A43EA04230360C3699343C361A0F535
:102380000070CB69002B16D1D0F80C329343C0F803
:102390000C328C894B6864F31F434C6900EBC40416
:1023A000C4F840320C890B6864F31F434C6900EB9E
:1023B000C404C4F84432CB69012B16D1D0F80C32D6
:1023C0001343C0F80C320C884B6864F31F434C690C
:1023D00000EBC404C4F840320C89CB6864F31F439B
:1023E0004C6900EBC404C4F844328B693BB1D0F8AB
:1023F00004321343C0F804320B6933B10AE0D0F859
:1024000004329343C0F80432F6E7D0F81432934311
:10241000C0F814320B69012B04D1D0F814321343E5
:10242000C0F81432096A012904D1D0F81C121143F2
:10243000C0F81C12D0F8001221F00101C0F80012FF
:10244000002010BD006400407047000070B50446D5
:1024500000252068C168C1F300114269C2F3C002BF
:102460001023002902D00AB15D01C3602068016910
:10247000C1F300114269C2F3801219B112B145F4DF
:102480008065036120684169C943C9072ED182680C
:10249000694991431DD000218368684A9A431AD044
:1024A00000228668664BB34317D0002311431943BB
:1024B0001CD08168C1F340018268C2F34022806869
:1024C000C0F340401143014309D02046FEF7FCFD14
:1024D00007E00121E0E70122E3E70123E6E745F415
:1024E000006520688168574A114381602068C1688F
:1024F00001F003014069C0F3400021B118B100218F
:102500002046FEF743FD2068016901F003014069A0
:10251000C0F3001021B118B101212046FEF736FDAD
:10252000206C2843206420688169C1F3000241695E
:10253000C1F300214369C3F3C0332AB121B11BB1F8
:10254000216C41F0010121648169C1F340014269BC
:10255000C2F340224369C3F3C03329B122B11BB196
:10256000216C41F0020121648169C1F3800142695B
:10257000C2F380224369C3F3C03329B122B11BB136
:10258000216C41F004012164816911F0700F08D0C1
:1025900000214269C2F3C0224369C3F3C03311B1C1
:1025A00036E00121F5E79AB393B3816901F0700138
:1025B00040291BD006DC102909D020290CD0302955
:1025C00022D10EE0502916D060291DD118E0216CCF
:1025D00041F00801216417E0216C41F010012164F1
:1025E00012E0216C41F0200121640DE0216C41F0EA
:1025F0004001216408E0216C41F08001216403E086
:10260000216C41F480712164816921F07001816144
:10261000206C00280ED0216804204860012084F836
:102620003C002068416948F651729143416120465F
:10263000FFF70AFF70BD000003000004000300085C
:1026400000000310190501002DE9F04104460026A1
:10265000002C04D094F83C00002718B107E00120BA
:10266000BDE8F08184F83D70204600F0AFF802200C
:1026700084F83C002068016821F0020101602068B4
:10268000016841F00101016001F062F805464FF078
:1026900003080AE001F05CF8401B0A2805D984F819
:1026A0003C8084F83D700320DAE720684068C0076A
:1026B000F0D020684168C9077BD0A169012940D0CA
:1026C000016821F080010160E06901283ED02068A6
:1026D000016821F040010160206A01283CD0206897
:1026E000016821F020010160606A01283AD0206869
:1026F000016821F010010160A06A012838D020682B
:10270000016821F008010160E06A012836D02068E4
:10271000016821F004010160D4E902010843D4E911
:102720000412114308436168491E08432168C861C7
:102730002068016821F00101016001F009F80546F7
:102740002EE0016841F080010160BDE7206801686A
:1027500041F040010160BFE72068016841F02001BD
:102760000160C1E72068016841F010010160C3E722
:102770002068016841F008010160C5E72068016830
:1027800041F004010160C7E700F0E2FF401B0A28A6
:1027900006D984F83C8084F83D70032060E708E0A7
:1027A00020684068C007EFD120684068C00700D1AA
:1027B0000126012E04D0042084F83C0001204FE7BC
:1027C0002764012084F83C00002049E710B586B05A
:1027D0000446142101A8FDF74FFD1C4920688842DA
:1027E00031D100211A48026842F00072026002688A
:1027F00002F000720092026842F08062026000689B
:1028000000F08060009012481038026842F0020226
:102810000260006800F00200009042F22000019087
:10282000022002900391012004900920059001A943
:10283000084800F09BFE084908484A6BC0F84C2243
:10284000096BC0F8501206B010BD000000680040CF
:1028500040380240000402405C350020480300205C
:1028600030B500290FD190F83C20222A0ED090F8E4
:102870003C20422A0AD090F83C20622A06D090F8E8
:102880003C20722A02D0012902D011E0022030BD82
:1028900090F83C20322A32D090F83C20522A2ED098
:1028A00090F83C20622A2AD090F83C20722A26D048
:1028B00090F83D20012A24D0012280F83D20622397
:1028C000722401B390F83C20122A32D0222A34D04C
:1028D000422A35D0322280F83C200023036402686B
:1028E000546940F601752C43546180F83D3051B372
:1028F0000068416941F050014161002030BD022073
:1029000030BD022030BD90F83C20122A07D0322A78
:1029100009D0522A0AD0222280F83C20DDE7422248
:1029200080F83C20D9E780F83C30D6E780F83C407E
:10293000D3E7522280F83C20CFE780F83C30CCE748
:1029400080F83C40C9E70068416941F00A014161F3
:10295000D3E7000070B504460F490868C00602D5E9
:102960000868002008600D48D0F84C12886860B9EB
:102970000B480B692F25426805EBC3031A444260DC
:102980000A7B0968054804F04BF82046BDE8704012
:102990000021FFF765BF00000C68004048030020DD
:1029A000C04500202DE9F05F04460E46226890687D
:1029B000400105D49068000102D49068C00075D52C
:1029C00094F83D00012812D0012784F83D7094F856
:1029D0003C0022280ED0322810D0622812D01220BB
:1029E00084F83C009068400110D5002514E00220D6
:1029F000BDE8F09F422084F83C00F3E7522084F8C1
:102A00003C00EFE7722084F83C00EBE7906800019F
:102A100001D5012500E002254FF4C07000EB051040
:102A2000115801F001011150216B8A68EAB3236843
:102A300053F800C04CEA020CCA68496842EAC10176
:102A40004CEA010C43F800C0216B0A7C02F00F0233
:102A50000A614FF4C271226801EB0511535823F04B
:102A60000F03535022685358D4F830C0DCF810C01C
:102A700043EA0C035350216B0A7DCB7D42EA03628B
:102A80008B7D497D1B0443EA01210A434FF4C47343
:102A9000216803EB0513CA50216B0A7ECB7E42EA04
:102AA00003628B7E497E1B0401E018E070E043EA7C
:102AB00001210A434FF4C673216803EB0513CA5082
:102AC00021680A5842F001020A5000F041FE804697
:102AD0004FF00009DFF8C4A0DFF8C4B02AE0226894
:102AE0001358D1F80CC0098843EA0C0343EA41515A
:102AF0001150A9E7701C1DD02EB100F029FEA0EBEB
:102B00000800B04216D9032084F83C004DB1012DD5
:102B10000BD021684FF40000886084F83D900320BA
:102B200066E7216880208860F7E721684FF400405D
:102B30008860F2E7A5B1012D18D020688168194896
:102B40008843D7D194F83C00422815D0522817D09A
:102B5000722819D084F83C7084F83D90002047E733
:102B6000206880683AEA0000ECD0C3E720688068FB
:102B70003BEA0000E6D0BDE7222084F83C00EBE70A
:102B8000322084F83C00E7E7622084F83C00E3E769
:102B9000042084F83C0001202AE700000300000420
:102BA0000003000800000310704700002DE9F843FF
:102BB00004464FF00009CDF800906F484FF41651CD
:102BC0000068B0FBF1F7A56D2E6894F85C00082250
:102BD00002FA00F1314210D02068016849070CD593
:102BE000016821F00401016094F85C0002FA00F130
:102BF000A960606D40F00100606594F85C104FF0D2
:102C0000010808FA01F0304208D021684969090634
:102C100004D5A860606D40F00200606594F85C1017
:102C200004208840304208D021680968890704D50B
:102C3000A860606D40F00400606594F85C1010209E
:102C40008840304220D02168096809071CD5A86057
:102C50002068016849030CD50068000304D4216C86
:102C600091B1204688470FE0A16C69B120468847A2
:102C70000AE00168C90503D4016821F00801016078
:102C8000216C09B12046884794F85C1020208840C8
:102C900030424CD021680968C90648D5A86094F82C
:102CA000350005280BD020680168490330D500683D
:102CB000000328D4616C51B32046884737E0206870
:102CC000016821F0160101602068416921F080014E
:102CD0004161206C08B9A06C20B12068016821F026
:102CE0000801016094F85C103F208840A86084F8D7
:102CF000349084F83580216D00293BD001B0204606
:102D0000BDE8F0430847E16B09B1204688470EE073
:102D10000168C90507D4016821F01001016084F839
:102D2000349084F83580E16B09B120468847606DA6
:102D300000281FD0606DC00714D0052084F835002E
:102D40002068016821F0010101600098401C00909A
:102D5000B84203D820680068C007F6D184F83490E0
:102D600084F83580E16C002904D001B02046BDE82C
:102D7000F0430847BDE8F883640000202DE9F041E6
:102D8000044600F0E5FC05465CB1002684F834609A
:102D9000022084F835002068016821F001010160FB
:102DA0000DE00120BDE8F08100F0D2FC401B0528B9
:102DB00005D920206065032084F83500F2E72068FB
:102DC0000068C007F0D121680A6820480240D4E9B1
:102DD00001031843D4E903352B43184363691843AF
:102DE000A3691843E3691843236A18431043626ACE
:102DF000042A03D1D4E90B231A4310430860206846
:102E0000406920F00700656A294605430127042927
:102E10000DD1A06A0543E06A48B12046FEF7D0FA1A
:102E200028B14020606584F835700120BAE7206839
:102E300045612046FEF7AEFA94F85C203F219140B0
:102E40008160666584F835700020ABE73F8010F044
:102E50002DE9F04104460025A66D94F834000128C0
:102E60000DD0012084F8340094F835700020012F33
:102E700007D084F8340002252846BDE8F0810220FE
:102E8000FBE7022784F8357060652046FEF7D4FA28
:102E900094F85C103F208840B0602068016841F0E1
:102EA00016010160206C20B12068016841F0080122
:102EB00001602068016841F001010160DCE7000069
:102EC0002DE9F04704460E46DFF88C8098F818008C
:102ED00001280BD0012088F818004CF250394846E0
:102EE000FEF708FE0246100003D02FE00220BDE8E6
:102EF000F0874FF0FF3030602068184F012801D074
:102F0000A5681CE0207C6168FEF762FD4846FEF77C
:102F1000F1FD0246386820F00400386014E0217C9E
:102F20002846FEF703FD4846FEF7E4FD02463868F2
:102F300020F0FA0038600AB1356005E06D1CD4E974
:102F400002100844A842EAD8FEF718FD002088F8CD
:102F500018001046CBE70000FC390020103C02406E
:102F60000348016841F00041016000207047000003
:102F7000103C02402DE9F0470646894614461D469E
:102F8000194F387E012808D0012038764CF250388D
:102F90004046FEF7AFFD18B114E00220BDE8F0870F
:102FA0009EB1012E16D0022E19D022462B4648463D
:102FB000FEF732FD4046FEF79DFD0C490A6822F0FF
:102FC00001020A6000213976E8E7E1B24846FEF7DF
:102FD00013FDEFE7A1B24846FEF734FDEAE72146CC
:102FE0004846FEF741FDE5E7FC390020103C024071
:102FF000002007490A68002A09DA054A054B0C3AFD
:103000001360054B13600968002900DA012070473E
:10301000103C024023016745AB89EFCD2DE9F05FFD
:103020000446DFF8F883DFF8F8A3DFF8F8B3FE4FC3
:10303000FE4DFF4EB946202C03D0402C01D0802CF1
:103040006FD196F8191386F81A13FA480068C0F37E
:10305000421086F8190340EAC101CAB286F81B2360
:1030600097F9001018F8022011FB02F252B286F80C
:10307000D8229AF80030082B04D0012A23D0521C01
:1030800021D04EE0431E062B18D22B7B012B0AD0F9
:10309000022B0AD0032B0AD0042B0AD0052B0AD00E
:1030A000062B0AD00AE0A87108E0E87106E0287251
:1030B00004E0687202E0A87200E0E872002A30DAE8
:1030C000484238702DE0FDF711FE96F819030128EB
:1030D00015D1DBF8001089B2A6F81E13B6F820232C
:1030E000B6F824C38B1AD9F80420A2EB0C0C03EB1E
:1030F0000C43C6F82833A6F82013C6F8242396F804
:10310000D41271B9B6F9D012002906DA80F007009E
:1031100086F81C03FDF7AAFC03E086F81D03FDF703
:10312000A5FCB4F5005F05D0B4F5804F02D0B4F52E
:10313000004F78D106F2A53630787070FEF704FEA5
:103140003070717840EAC100C0B2B070797818F878
:10315000000011FB00F006F8410CA6F2A536FDF7C1
:1031600081FE9AF80000092806D096F96403012828
:103170002DD0401C2BD056E096F8A503411E062901
:1031800019D2A97F01290AD002290AD003290AD01D
:1031900004290AD005290AD006290AD00FE028768A
:1031A0000DE068760BE0A87609E0E87607E028777E
:1031B00005E0687703E04FF4004002F063FE96F903
:1031C000640300282FDA7878404278702BE0FDF70E
:1031D000BFFD96F8A503012813D1DBF8001006F512
:1031E0006B7689B226F8021C3288B5888B1AD9F81A
:1031F0000420551B03EB0543B36031807260A6F5D4
:103200006B7696F8601371B9B6F95C13002906DA8B
:1032100080F0070086F8A803FDF7E4FC03E086F8D9
:10322000A903FDF7DFFC012C12D1B6F9120000282A
:1032300007DDB6F8620058B1A0F10100A6F86200FF
:1032400006E005DAB6F8620000F10100A6F86200B7
:10325000022C26D1B6F99E00002807DDB6F8EE0054
:10326000F8B1A0F10100A6F8EE001AE006DAB6F80F
:10327000EE0000F10100A6F8EE0012E096F8FC0066
:10328000012802D0022807D00BE0B6F8EE0040B1CA
:10329000401EA6F8EE0004E0B6F8EE00401CA6F8CA
:1032A000EE00042C12D1B6F92A01002807DDB6F889
:1032B0007A0158B1A0F10100A6F87A0106E005DA1A
:1032C000B6F87A0100F10100A6F87A01082C12D1B3
:1032D000B6F9FE04002807DDB6F84E0558B1A0F196
:1032E0000100A6F84E0506E005DAB6F84E0500F135
:1032F0000100A6F84E05DFF840B14FF080484FF0CE
:1033000000054FF00107102C2BD14A480068000936
:10331000C00704D0D9F8080001281ED021E0474991
:103320000878401CC0B20870C9F8087086F8665367
:10333000052816D3404820300560001D0560056053
:10334000CBF80070404602F09DFD86F8665386F883
:1033500060730220C9F8080003E086F86673C9F8B4
:103360000850DFF8DC90DFF8DCA0B4F5006F26D160
:10337000DAF81000C00AC00721D1DAF81000C00A3C
:10338000C0071CD1304944F2A21008602F490860E0
:103390002D48203807602D4820380760A6F8B8511E
:1033A000A6F8445286F8C25186F84E5286F8BC718F
:1033B00086F8487299F80200401C89F80200B4F5BA
:1033C000806F7CD1DAF81000800AC0077DD1DAF86E
:1033D0001000800AC00778D1C8F83450C8F83850B7
:1033E000144801221146103800F0AAF911480122B0
:1033F0000221103800F0A4F9B582C8F83C50C8F892
:1034000040500C4801220421103800F099F9094875
:1034100001220821103800F093F919E01AD30208AC
:103420000A000020241400404C00002060440020CA
:10343000B83C0020100C024014040140070000209A
:10344000450000200000024034440140344801405F
:10345000A6F8A0503A480560001D056081150122BC
:10346000384800F06DF901225102364800F068F941
:10347000A6F82C51324808300560001D0560011582
:103480000122304800F05CF90122D1022D4800F001
:1034900057F9A6F80055C8F8147029482038076075
:1034A000B57786F8AA5086F8365186F80A553776E9
:1034B00086F8A47086F8307186F8047500E004E0A0
:1034C00099F80300401C89F80300B4F5007F35D15A
:1034D000DAF81000400AC00730D1DAF81000400ACC
:1034E000C0072BD1184942F2D1000860091D0860BD
:1034F0001648056016480564476113482038076080
:10350000CBF8007006F28C563580A6F88C50A6F8E1
:103510001851A6F8A451B57286F8965086F8225133
:1035200086F8AE51377186F8907086F81C7186F86F
:10353000A87199F80400401C89F80400BDE8F09FC8
:1035400034080040000C02403404004040040140B4
:103550000000014010B504490A68024202D0086028
:10356000FFF75CFD10BD0000143C01402DE9F84F51
:103570000022DFF880A14FF003084FF00F090AF195
:10358000040B012595400B682B40AB4272D14C686F
:10359000012C05D0022C03D0112C01D0122C10D1FB
:1035A0008668540008FA04F7BE43CF68A740374343
:1035B00087604468AC430D79C5F3001595402543F9
:1035C0004560C468570008FA07F5AC438E68BE40F2
:1035D0002643C6604C68022C01D0122C12D1D408AC
:1035E00000EB840CDCF820605407E40E09FA04FEBA
:1035F00026EA0E06D1F810E00EFA04FE4EEA060E98
:10360000CCF820E00468AC430D7905F00305BD401B
:10361000254305604C68E40065D5374C256845F4C2
:1036200080452560246804F480440094334C22F0E3
:1036300003052544D5F808789407260F09FA06F4FF
:10364000A7432F4CA04201D1002424E02D4CA042DE
:1036500001D101241FE02C4CA04201D102241AE028
:103660002A4CA04201D1032415E0294CA04202D1EA
:10367000042410E037E0274CA04201D105240AE0E1
:10368000254CA04201D1062405E0244CA04201D1E2
:10369000072400E00824B4403C43C5F80848DAF8A1
:1036A00000409C434D68ED0300D51C43CAF8004020
:1036B000DBF800409C434D68AD0300D51C43CBF8BC
:1036C00000400C4D08352C689C434E68F60200D52E
:1036D0001C432C60074D0C352C689C434E68B60289
:1036E00000D51C432C60521C102AFFF44AAFBDE8E1
:1036F000F88F0000003C0140443802400030014097
:10370000000002400004024000080240000C024099
:10371000001002400014024000180240001C024049
:103720000069084201D001207047002070474269BB
:1037300031EA020201D0816170470904816170475A
:10374000002A01D08161704709048161704700003F
:1037500001488068704700005800002070B504469A
:10376000002C11D021684CF6CC400860216845F24D
:1037700055500860D4E9001048602168A06888604E
:10378000FFF7E6FF054608E0012070BDFFF7E0FF08
:10379000401B302801D9032070BD2068C068002874
:1037A000F4D121684AF6AA200860002070BD0068A4
:1037B0004AF6AA2101600020704700000248816893
:1037C00002781144816070475800002010B50B4802
:1037D000016841F400710160016841F48061016099
:1037E000016841F480710160032000F083F800203B
:1037F00000F006F800F026F8002010BD003C024062
:1038000070B504460D4D4FF47A712878B1FBF0F095
:103810000B490968B1FBF0F000F022FD08B101206E
:1038200070BD102C07D200222146501E00F042F835
:103830006C60002070BD012070BD000058000020A9
:103840006400002082B00B48016841F480410160AF
:10385000006800F4804001900648001F016841F0B4
:1038600080510160006800F080500190052002B096
:1038700000F040B84438024000280DDB00F01F0281
:10388000012191404009800000F1E020C0F8801142
:10389000BFF34F8FBFF36F8F7047002809DB00F035
:1038A0001F02012191404009800000F1E020C0F892
:1038B00000117047F0B40D460D4B1B68C3F3022393
:1038C000C3F10704042C00D90424191D072901D2CF
:1038D000002300E0DB1E012606FA04F1491E294000
:1038E00099409E40761E16403143F0BC08F018B84F
:1038F0000CED00E000F00701054A10684FF6FF03E9
:10390000184040EA01200349084310607047000056
:103910000CED00E00000FA052DE9F04704460D46E5
:10392000002C13D0DFF82891D9F80000EFB200F096
:103930000F00A8420CD289F80070D9F8000000F0FE
:103940000F00A84204D00120BDE8F0870120FBE76A
:103950002068404E810712D5400703D5306840F4F7
:10396000E05030602078000703D5306840F46040B4
:1039700030603068A16820F0F000084330602078A3
:10398000C00731D0334960680839012808D00228BF
:103990000BD0032809D0096889070BD40120D3E78D
:1039A0000968890306D40120CEE70968890101D49A
:1039B0000120C9E7316821F0030101433160FFF7BD
:1039C000C7FE804641F2883A07E0FFF7C1FEA0EB50
:1039D0000800504501D90320B6E73068616800F05F
:1039E0000C00B0EB810FF0D1D9F8000000F00F000F
:1039F000A84209D989F80070D9F8000000F00F003A
:103A0000A84201D001209FE72078400705D5306803
:103A1000E16820F4E050084330602078000706D5C4
:103A20003068216920F4604040EAC100306000F055
:103A30003FF83168084AC1F30311515CC840074997
:103A4000086007480068FFF7DBFE00207CE7000005
:103A5000003C02400838024062D3020864000020A3
:103A60005C000020014800687047000064000020EE
:103A700000B5FFF7F7FF04490968044AC1F3822142
:103A8000515CC84000BD00000838024072D30208F3
:103A900000B5FFF7E7FF04490968044AC1F3423162
:103AA000515CC84000BD00000838024072D30208D3
:103AB00010B51748006810F00C01164816D0164BC8
:103AC000042912D0082911D1114C241F216801F0BA
:103AD0003F02216849020AD52068C0F38810A0FB84
:103AE00003010023FCF790FB09E0184610BD216894
:103AF0000023C1F38811A1FB0001FCF785FB2168BD
:103B0000C1F30141491C4900B0FBF1F010BD0000B8
:103B1000083802400024F40040787D012DE9F84F78
:103B20000446002C13D02078DFF8AC83C007A8F13E
:103B3000040556D008F104000168C1F38101012990
:103B40000CD00068C0F38100022803D00DE00120F2
:103B5000BDE8F88FD8F80000400206D52868800339
:103B60003FD5606870BB0120F2E76068B0F5803F28
:103B700010D0B0F5A02F12D0286820F48030286033
:103B8000286820F4802028606068E0B1FFF7E0FD3D
:103B9000064614E0286840F480302860F4E728687E
:103BA00040F480202860286840F480302860EBE7EB
:103BB000FFF7CEFD801B642801D90320C8E72868E1
:103BC0008003F5D50DE0FFF7C3FD064606E0FFF7DD
:103BD000BFFD801B642801D90320B9E72868800352
:103BE000F5D42078BD4F80074FF0000948D5BA487A
:103BF000001D016811F00C0F08D00068C0F38100AF
:103C0000022813D1D8F8000040020FD4286880079A
:103C100004D5E068012801D0012099E728682169CE
:103C200020F0F80040EAC100286029E0E068B8B15F
:103C300001203860FFF78CFD064606E0FFF788FD9F
:103C4000801B022801D9032082E728688007F5D568
:103C50002868216920F0F80040EAC10028600FE0E0
:103C6000C7F80090FFF774FD064606E0FFF770FD09
:103C7000801B022801D903206AE728688007F5D451
:103C80002078000729D5DFF850A2954861690AF12C
:103C9000700A89B101210160FFF75AFD064606E06E
:103CA000FFF756FD801B022801D9032050E7DAF800
:103CB00000008007F4D510E0C0F80090FFF748FD41
:103CC000064606E0FFF744FD801B022801D90320C9
:103CD0003EE7DAF800008007F4D4207840076ED57C
:103CE00000267D483C300068C0000AD47A483C3049
:103CF000016841F080510160006800F08050009040
:103D00000126DFF8E0B1DBF80000C00515D4DBF8D0
:103D1000000040F48070CBF80000FFF719FD8246E8
:103D200007E0FFF715FDA0EB0A00022801D90320E8
:103D30000EE7DBF80000C005F3D5DFF89CB1A06802
:103D40000BF16C0B012813D0052818D0DBF800000C
:103D500020F00100CBF80000DBF8000020F00400A8
:103D6000CBF80000A06830B3FFF7F2FC82461DE0FC
:103D7000DBF8000040F00100CBF80000F2E7DBF8D0
:103D8000000040F00400CBF80000DBF8000040F039
:103D90000100CBF80000E5E7FFF7DAFCA0EB0A0131
:103DA00041F28830814201D90320D1E6DBF80000DE
:103DB0008007F1D512E0FFF7CBFC82460AE015E060
:103DC000FFF7C6FCA0EB0A0141F28830814201D91D
:103DD0000320BDE6DBF800008007F1D4012E05D1F9
:103DE0003D483C30016821F080510160A069B8B3C2
:103DF0003949091D0968C1F38101022947D0022808
:103E000005D0C7F86090FFF7A3FC04463BE0C7F875
:103E10006090FFF79DFC064606E0FFF799FC801BCB
:103E2000022801D9032093E628688001F5D4D4E95B
:103E300007010843616AA26A4FF0FF33890103EB6F
:103E4000520241EA0241084394F82C1040EA016012
:103E5000C8F8000001203866FFF77AFC044607E046
:103E600037E0FFF775FC001B022801D903206FE63D
:103E700028688001F5D52CE0FFF76AFC001B0228BA
:103E800001D9032064E628688001F5D421E00128E7
:103E90001DD0D8F80000E26900F48001914214D1ED
:103EA000226A00F03F0191420FD147F6C071626A69
:103EB0000140914209D1A26A00F44031914204D1FB
:103EC000E16A00F07060884203D0012040E60120E2
:103ED0003EE600203CE60000043802400000474275
:103EE000800E4742007000404FF0E021042804D0CB
:103EF000086920F0040008617047086940F0040078
:103F0000086170472DE9FC5FFFF722FCCB4FC0072B
:103F10004FF0000615D1F87950B1388A401C80B2B4
:103F2000388241F28831884203D9FE713E8200E036
:103F30003E82FCF73FFFC1484030017841F001016B
:103F40000170FFF705FC80074FF0010816D1B87A21
:103F50000324BB4DDFF8EC9242F210710A280DD217
:103F6000DFE800F00C050D0FE70C0CEAF0EE04F0B2
:103F70008FFB38780128E9D10220B8723CE1BC728D
:103F80003AE10025DFF8B492DFF8BCA2DFF8BCB25A
:103F900009F14509C5EBC50000EB80000AEB800480
:103FA000A07F012802D0002872D095E00E2D7DD28E
:103FB000DFE805F04A4A4A3232071C7C7C4A6262DA
:103FC0006262052005F094F90520FDF7E9FDCAF8C5
:103FD000C402FCF707FDBAF8C4029D4A01B2BAF95F
:103FE000C00204F0E3FAAAF8EC0275E0062005F03E
:103FF0007FF90620FDF7D4FDCAF85003FCF7AEFDAB
:10400000BAF85003924A01B2BAF94C03383204F0BC
:10401000CDFAAAF878035FE0207E48B999F902004A
:10402000012805DAB4F91410284606F009F853E01F
:1040300099F90200012805DB4FF0806001F022FFB2
:10404000A67749E0A67747E0207E48B999F90300B2
:10405000012805DAB4F91410284605F0F1FF3BE019
:1040600099F90300012805DB4FF0006001F00AFF19
:10407000A67731E0A6772FE0207E58B999F90400A1
:10408000012807DAB4F91410284605F0D9FF23E017
:1040900016E00BE099F90400012805DB4FF0805091
:1040A00001F0F0FEA67717E0A67715E0207E08B1B4
:1040B000A67711E0B4F91410284605F0C1FF0BE013
:1040C000284606F097FB15B1012D03D004E08BF8CC
:1040D000006001E08BF801606D1CEDB20E2DFFF465
:1040E00059AFFFF735FB1421B0FBF1F201FB1200D1
:1040F00018B9387808B104F0EFFEFFF729FB1E214C
:10410000B0FBF1F201FB120030B905234FF4167237
:104110000121062004F03CFEFFF71AFBC821B0FB8A
:10412000F1F201FB120098BB02F002FE02F024FE45
:1041300062E00620B8725FE0286848BBBE725BE0B0
:104140002CE0FFE7F878DFF80CA101280BD1CAF8C2
:104150003460CAF83860CAF83C600020401C80B265
:104160008842FBD3FE7001F0F5F999F8100003289E
:1041700042D189F8106089F80060CAF83460CAF842
:104180003860CAF83C602888400502D4BC7202E05E
:1041900032E00720B87287F803802DE03879DFF825
:1041A000B8A001280AF1040B0CD1CAF80060CBF8C2
:1041B00000600BF1040006600020401C80B28842C1
:1041C000FBD33E7101F026FA99F82200032813D19F
:1041D00089F8226089F81260CAF80060CBF80060A4
:1041E0001D48083006602888000401D4BC7201E034
:1041F0000720B87287F80480FFF7AAFA1421B0FBF1
:10420000F1F201FB120008B904F07EF8FFF7A0FA02
:104210004FF47A71B0FBF1F201FB120000280BD1D0
:104220000E48FFF7C4FA0A20CDE9008003460122B8
:104230000146104604F0A6FEBDE8FC9F00000020E9
:10424000C800002060440020B83C0020D4000020BA
:10425000603B002000000140340401408444002001
:1042600010B5401EB0F1807F01D3012010BD4FF08A
:10427000E02460610F21601707F052FB0020A0616D
:1042800007202061002010BD10B5FFF73BFE10BDD8
:1042900010B5124988421FD111490868401C0860B6
:1042A00010480069C00BC00716D10F4948638863E6
:1042B000C86301224A610D4981F8DA020C4B9879F2
:1042C000401C987181F8D422500701F0DBFD0848AA
:1042D00045300178491C017010BD000044360020B3
:1042E000C04500200010024000000140B83C002002
:1042F00000000020704710B590F83C20012A22D021
:10430000012280F83C20CA6800238C6822F44072A5
:1043100022434C6822F4806222430C6822F400623B
:1043200022430C6922F4805222434C6922F4005249
:104330002243C96922F480420A4301684A6480F832
:104340003C30002010BD022010BD000070B590F878
:104350003C20012A31D0012680F83C60022280F8FE
:104360003D2002685468936824F070050C682C4363
:104370005460134C0268A24214D0B2F1804F11D0A5
:10438000104CA2420ED0104CA2420BD00F4CA242B5
:1043900008D00F4CA24205D00E4CA24202D00E4CC7
:1043A000A24204D123F080034968194391603C3054
:1043B000467000210170002070BD022070BD000019
:1043C000000001400004004000080040000C0040D4
:1043D00000040140004001400018004010B50446B0
:1043E0000422206806F02DFE2068416C41F4004153
:1043F00041642068816801F00701062903D0016843
:1044000041F001010160002010BD10B50446002CF0
:1044100003D094F83D0010B107E0012010BD00204A
:1044200084F83C00204600F00DF8022084F83D009E
:10443000211D206806F092FD012084F83D00002037
:1044400010BD0000F0B587B00446142102A8FBF7A8
:1044500013FF2168664C65480023654A143C022519
:1044600081422CD1106840F001001060106800F00B
:1044700001000190206840F010002060206800F0EA
:1044800010000190A8030290039501200490059369
:10449000069002A95748FFF769F800221146182034
:1044A000FFF708FA1820FFF7F8F900221146192043
:1044B000FFF700FA1920FFF7F0F907B0F0BD4C48FC
:1044C000001FB1F1804F0BD04B4EB14211D10168AA
:1044D00041F002010160006800F002000190ECE789
:1044E000016841F001010160006800F001000190E5
:1044F000E3E7424EB14208D1016841F00401016096
:10450000006800F004000190D7E73D4EB14208D1A9
:10451000016841F010010160006800F01000019096
:10452000CBE7384EB14210D1016841F02001016063
:10453000006800F020000190002211463720FFF7AC
:10454000B9F93720FFF7A9F9B7E72F48814208D119
:10455000106840F002001060106800F00200019046
:10456000ABE72A4F03262A48B94221D1116841F40A
:1045700000311160116801F400310191216841F0AE
:1045800002012160216801F002010191811502916F
:10459000039504930593069602A9FEF7E7FF002210
:1045A00011461920FFF786F91920FFF776F984E7FD
:1045B000184FB94281D1116841F48021116011680E
:1045C00001F480210191216841F0020121602168FC
:1045D00001F002010191791502910395049305936D
:1045E000069602A9FEF7C2FF67E70000000001403F
:1045F000443802400010024000040040000800401F
:10460000001000400014004000040140004401403C
:1046100000040240004801400168CA6842F00102FB
:10462000CA600068816801F00701062903D00168AB
:1046300041F0010101600020704770B5044694F814
:104640003C00012817D0012584F83C50022084F852
:104650003D002068826822F0770222F47F42826067
:104660000868502831D00DDC20284DD005DCB0B3CF
:1046700010284ED148E0022070BD302844D0402898
:1046800047D137E060282BD0702806D0B0F5805F86
:104690003FD0B0F5005F3CD10BE0CB68D1E9012100
:1046A000206806F0DBFC2068816841F077018160BA
:1046B0002FE0CB68D1E90121206806F0CFFC20680B
:1046C000816841F48041816023E0CA6849682068BC
:1046D00006F0A6FD5021206806F0CAFC19E013E0A0
:1046E000CA684968206806F0EDFD6021206806F080
:1046F000BFFC0EE0CA684968206806F091FD4021C1
:10470000206806F0B5FC04E022680146104606F079
:10471000AFFC3C3465700020207070BD70B504465D
:104720000C48844214D1207F0B4D012806D1002172
:10473000204600F0F3FDA869401CA861207F0228F4
:1047400006D10421204600F0E9FDE869401CE8613B
:1047500070BD0000C43700200000002070B5044682
:104760000D4694F83C00012820D0012684F83C60D6
:10477000022084F83D00DAB1042A2AD0082A3AD06F
:10478000D5E90012EB68206806F0E2FD2068C169F7
:1047900021F44061C1612068C169AA6841EA02212F
:1047A000C1613C3466700020207070BD022070BD75
:1047B000D5E90012EB68206806F044FD20688169A5
:1047C00021F00C01816120688169AA68114381612F
:1047D000E7E7D5E90012EB68206806F085FD206860
:1047E000816921F44061816120688169AA6841EA98
:1047F00002218161D5E7D5E90012EB68206806F057
:104800008EFD2068C16921F00C01C1612068C16979
:10481000AA681143C161C4E710B50446002C03D057
:1048200094F83D0010B107E0012010BD002084F88D
:104830003C00204600F00CF8022084F83D00211DC9
:10484000206806F08BFB012084F83D00002010BD9D
:1048500010B586B00446142101A8FBF70DFD1749D9
:104860002068884228D100211548026842F480322D
:104870000260006800F4803000901148143802682B
:1048800042F010020260006800F01000009060200A
:1048900001900220029001200390049103200590D2
:1048A00001A90848FEF762FE002211461820FFF712
:1048B00001F81820FEF7F1FF06B010BD00400140DE
:1048C000443802400010024010B504460029226816
:1048D00006D0042909D008290CD00C2913D10EE0E8
:1048E000D06840F00200D0600DE0D06840F00400D5
:1048F000D06008E0D06840F00800D06003E0D068E5
:1049000040F01000D0600122206806F08DFB206886
:10491000816801F00701062903D0016841F0010117
:104920000160002010BD70B50446206801694FF099
:104930000005C943890716D4C168C943890712D441
:10494000E91E01610120207720688069800703D07B
:104950002046FFF7E3FE05E0204600F0DFF92046A1
:1049600000F084FA257720680169C943490718D403
:10497000C168C943490714D46FF0040101610220E2
:1049800020772068806910F4407F03D02046FFF72D
:10499000C5FE05E0204600F0C1F9204600F066FAA9
:1049A000257720680169C943090717D4C168C9433D
:1049B000090713D46FF008010161042020772068F3
:1049C000C069800703D02046FFF7A8FE05E0204617
:1049D00000F0A4F9204600F049FA25772068016923
:1049E000C943C90618D4C168C943C90614D46FF0B5
:1049F00010010161082020772068C06910F4407F11
:104A000003D02046FFF78AFE05E0204600F086F935
:104A1000204600F02BFA257720680169C943C907B1
:104A200008D1C168C943C90704D1891E0161204664
:104A300000F040FA20680169C943090609D4C16839
:104A4000C943090605D46FF0800101612046FFF7D4
:104A50001FFC20680169C943490609D4C168C943DC
:104A6000490605D46FF040010161204600F06CFC5E
:104A700020680169C94389060BD4C168C943890606
:104A800007D46FF0200101612046BDE87040FFF7B8
:104A900031BC70BD2DE9F04186B00446142101A857
:104AA000FBF7EAFB7C48216800247C4A02250126AA
:104AB00081421DD1106840F010001060106800F0B5
:104AC000100000904FF4FE4001900295039404946E
:104AD0000596734C01A92046FEF748FD6903019134
:104AE000039501A92046FEF741FD06B0BDE8F0811F
:104AF0006C4FDFF8B481B1F1804F27D06B48814211
:104B00004BD1106840F001001060106800F0010007
:104B10000090106840F002001060106800F0020081
:104B2000009080200190029503940494059501A9BA
:104B30004046FEF71BFD1320019002950394049458
:104B4000059501A93846FEF711FDCEE7106840F043
:104B500002001060106800F002000090106840F041
:104B600001001060106800F00100009040F608405D
:104B70000190029503940494059601A93846FEF726
:104B8000F5FC4FF4004001900295039404940596BF
:104B900001A94046FEF7EAFCA7E74548814213D148
:104BA000106840F008001060106800F008000090E5
:104BB0004FF470400190029503940494059501A967
:104BC0003C48FEF7D3FC90E73B480326814237D1AF
:104BD000106840F001001060106800F001000090C3
:104BE000106840F002001060106800F002000090B1
:104BF000106840F004001060106800F0040000909D
:104C000020200190029503940494059601A9404642
:104C1000FEF7ACFCB0030190029503940494059652
:104C200001A93846FEF7A2FC4FF47070019002957E
:104C300003940494059601A92048FEF797FC54E7D5
:104C40001F48814212D1106840F0020010601068C5
:104C500000F00200009088150190029503940494DE
:104C6000059601A93846FEF781FC3EE715488142CA
:104C700092D1106840F002001060106800F002004D
:104C8000009048150190029503940494059601A99B
:104C90003846FEF76BFC28E7000001403038024040
:104CA00000100240000402400000024000040040E6
:104CB00000080040000C02400004014000080240CF
:104CC000004401400048014070B5044694F83C009F
:104CD00001280DD0012584F83C50022084F83D00C5
:104CE00042B1042A0AD0082A0CD00C2A11D10DE0B6
:104CF000022070BD206806F0C3F90AE0206806F0C3
:104D0000F3F906E0206806F029FA02E0206806F0D0
:104D10005DFA3C3465700020207070BD704710B59E
:104D20000446002C03D094F83D0010B107E00120A8
:104D300010BD002084F83C00204600F00CF8022052
:104D400084F83D00211D206806F008F9012084F850
:104D50003D00002010BD704770B504460D4694F824
:104D60003C0001280DD0012684F83C60022084F824
:104D70003D0042B1042A1AD0082A2DD00C2A53D162
:104D80003EE0022070BD2946206806F079F92068CF
:104D9000816941F0080181612068816921F0040185
:104DA0008161206881692A69114381613CE029465B
:104DB000206806F099F92068816941F400618161F9
:104DC0002068816921F480618161206881692A6994
:104DD00041EA0221816127E02946206806F0BEF9F8
:104DE0002068C16941F00801C1612068C16921F0F2
:104DF0000401C1612068C1692A691143C16113E0DE
:104E00002946206806F0E2F92068C16941F4006192
:104E1000C1612068C16921F48061C1612068C169F4
:104E20002A6941EA0221C1613C3466700020207089
:104E300070BD10B50446002C03D094F83D0010B1AD
:104E400007E0012010BD002084F83C00204600F05F
:104E50000CF8022084F83D00211D206806F07EF841
:104E6000012084F83D00002010BD7047704700000D
:104E700010B504460122206806F0D6F80B482168D8
:104E8000814202D00A48814203D1486C40F400407C
:104E900048642068816801F00701062903D0016891
:104EA00041F001010160002010BD00000000014040
:104EB000000401402DE9F04705462DED028BF84F27
:104EC0007869401C7861F7480168491C0160F64820
:104ED0000024F64E85427DD1786A401C7862F86BDA
:104EE000012803D1786AB8627C62FC63F0490868E3
:104EF000C20707D020F0010008600122ED49EE480A
:104F000006F05CFC03F00AFD01F056FF01F0C0FD65
:104F100001F050FE386A401C3862E84A0021101A3D
:104F2000A14100DA3C62E64BB6F85810188B401AE3
:104F300000B23084002800DA3484B6F92010B6F9C3
:104F40002400091A09110844B084988BB6F8E410BB
:104F5000401A00B2A6F8AC00002801DAA6F8AC406E
:104F600036F9AC1FB6F90400091A09110844B080DB
:104F7000188CB6F8C410401A00B2A6F88C00AC3EEB
:104F8000002801DAA6F83841B6F93811B6F93C0123
:104F9000091A09110844A6F83C011888B6F8FC1152
:104FA000401A00B2A6F8C401002801DAA6F8C441EC
:104FB000B6F9C411B6F9C801091A09110844A6F8CE
:104FC000C8019888B6F88812401A00B2A6F85002B4
:104FD000002800E00EE101DAA6F85042B6F95012BE
:104FE000B6F95402091A09110844A6F8540218899E
:104FF000B6F81413401A00B2A6F8DC02002801DA51
:10500000A6F8DC42B6F9DC12B6F9E002091A091179
:10501000084401B2A6F8E012188AB6F8A023801A54
:1050200000B2A6F86803002801DAA6F86843B6F9CA
:105030006823B6F96C03121A1211104402B2A6F8D2
:105040006C239889A6F86A03988CB6F844C5A0EB3F
:105050000C0000B2A6F80C05002801DAA6F80C45F1
:10506000B6F90C85B6F910C53046A8EB0C084FEA26
:105070002818C444A0F810C500EE101AB8EEC00AF3
:10508000DFED900AD0EDB91A20EE200A9FED8E1ABE
:1050900001EE810A80EDBA0A01EE902AF8EEE11ADB
:1050A00061EEA00AD0EDDC1A41EE810AC0EDDD0A06
:1050B00080EDB90AC0EDDC0ABDEEC00A10EE100AA0
:1050C000B881BDEEE00A10EE100AF881188D7F4A13
:1050D00080B21080D188401A00110844D0807869CD
:1050E00047F23051884203D9B87A08B906F004FB78
:1050F000B87A03287ED1B6F9C002DFF8D491DFF880
:10510000D4A1002803DAB6F9D012002928DC00283F
:1051100003DDB6F9D012002922DB08B3D6F8C402A9
:10512000002805DA96EDBA0AB1EE400A86EDBA0A11
:1051300096EDBA0A674ABDEEC00A10EE100A01B237
:10514000B6F9EC0203F032FAA6F8D00296F8DA02C9
:10515000DFF84C81012808F1450808D010B324E09D
:10516000C9F81440CAF81440A6F8D042EEE796F801
:10517000D40248B998F90000012805DAB6F9D0122E
:10518000052004F05DFF10E098F90000012806DB1F
:1051900086F8DA424FF0005000F074FE05E086F821
:1051A000DA4202E0052005F025FBB6F94C030028A1
:1051B00003DAB6F95C13002927DC002803DDB6F911
:1051C0005C13002921DB00B3D6F85003002805DA70
:1051D00096EDDD0AB1EE400A86EDDD0A96EDDD0AB8
:1051E0003C4ABDEEC00A383210EE100A01B2B6F9E0
:1051F000780300E02EE003F0D9F9A6F85C0396F8F6
:105200006603012808D010B324E0C9F84C40CAF85E
:105210004C40A6F85C43F2E796F8600348B998F969
:105220000100012805DAB6F95C13062004F008FF36
:1052300010E098F90100012806DB86F866434FF07C
:10524000804000F01FFE05E086F8664302E006207D
:1052500005F0D0FA2048854252D120490868401C08
:10526000086080074CD196F87E049FED1D8B0128C5
:1052700006D1B869052808DC38B1C6F86844BC61B5
:1052800096F8F20301282FD03AE0FBF772F853ECBE
:10529000182BFAF7FCFFFBF77DF8C6F86804EEE779
:1052A00000000020C045002044360020B83C00200B
:1052B000500100206C4600204803002000286BEEBF
:1052C000C43800200AD7A33B52B87E3F243B0020BD
:1052D000603B0020D03B00204437002050000020DD
:1052E0005C8FC2F5289C6C40F869FBF742F853ECE0
:1052F000182BFAF7CCFFFBF74DF8C6F8DC03FC617E
:105300000548854204D1A0F51D708188491C818023
:10531000BDEC028BBDE8F087C437002002460020B8
:10532000002908D0042909D008290AD00C2901D164
:105330001068006C70471068406B70471068806B95
:1053400070471068C06B7047704770B50446002CFA
:1053500004D094F83900002510B106E0012070BD9A
:1053600084F83850204600F023F8242084F83900CF
:105370002068C16821F40051C160204606F06AF837
:105380002068016921F4904101612068416921F0A0
:105390002A0141612068C16841F40051C160E563A0
:1053A000202084F8390084F83A00002070BD000005
:1053B00010B586B00446142101A8FAF75DFF18491C
:1053C0002068884229D100211648026842F48022D0
:1053D0000260006800F480200090124810380268D3
:1053E00042F004020260006800F0040000904FF4F4
:1053F0004060019002200290039103200490072056
:10540000059001A90848FEF7B1F8002211462720AF
:10541000FEF750FA2720FEF740FA06B010BD000054
:1054200000480040403802400008024090F83A30FE
:10543000202B01D002207047F9B1F2B190F838303A
:10544000012B1CD081628285C2850021C16322228A
:1054500080F83A2080F838100168CA6842F48072F7
:10546000CA6001684A6942F001024A610068C16885
:1054700041F02001C16000207047012070470220E8
:1054800070472DE9F84304460D4690461E4694F8B1
:105490003900202802D00220BDE8F883D5B1B8F148
:1054A000000F17D094F83800012815D0012084F897
:1054B00038004FF00009C4F83C90212084F83900EE
:1054C000FEF746F90746A4F82480A4F8268084F85D
:1054D00038902DE00120DFE70220DDE7E08C401E60
:1054E000E084A068B0F5805F09D03B4600228021AF
:1054F0002046009606F09EF8B0B10320CCE73B466C
:10550000002280212046009606F094F808B103207E
:10551000C2E728882168C0F308004860206908B104
:105520006D1C05E0AD1C03E0216815F8010B486017
:10553000E08C0028D2D13B46002240212046009634
:1055400006F078F808B10320A6E7202084F8390097
:105550000020A1E770B52D4C207C002806D0032543
:10556000012839D0022800D1257470BD227801238A
:105570000C2A2FD200206188491C89B26180A5883D
:10558000A942F2D900216180217B491CC9B2217353
:10559000062900D92373217B012900D10620022985
:1055A00000D10420032900D10520042900D10120C5
:1055B000052900D10320062900D10220521C2270A7
:1055C000134AB4F90E1051639163D163BDE8704082
:1055D000FCF76ABB237470BDA079E179884211D0D1
:1055E000207A81420ED0617A88420BD0A07A814223
:1055F00008D0E17A884205D04FF4806000F030FC9A
:10560000257470BD0220207470BD0000604400202D
:105610000000014070B5314C94F8221000290BD0E5
:1056200003254FF4004001293ED0022903D100F0A8
:1056300029FC84F8225070BDA27C01230C2A30D2B0
:105640000020A18A491C89B2A182E58AA942F2D927
:105650000021A182A17F491CC9B2A177062900D9E6
:10566000A377A17F012900D10620022900D10420BF
:10567000032900D10520042900D10120052900D1EA
:105680000320062900D10220521CA274FCF730FB33
:105690001349B4F920000860091D0860091D08605D
:1056A00070BD84F8223070BD217E627E914210D0A0
:1056B000A17E8A420DD0E27E91420AD0217F8A42A9
:1056C00007D0627F914204D000F0CAFB84F82250D8
:1056D00070BD022084F8220070BD000060440020EC
:1056E00034040140FEE710B5029C017242728372DD
:1056F000C472090601EB024101EB03212144C160A0
:1057000010BD000070B52D4E0025012496F9000053
:105710002B4B012806DB600700F0B4FB83F8D44272
:1057200083F8DA5296F90100012807DB4FF0804038
:1057300000F0A8FB83F8604383F8665396F90200F3
:1057400001280BDB4FF0806000F09CFB83F8C25116
:1057500083F8BC4183F84E5283F8484296F903001F
:10576000012811DB4FF0006000F08CFB9D7783F87F
:10577000AA5083F8365183F80A551C7683F8A44062
:1057800083F8304183F8044596F90400012813DBBF
:105790004FF0805000F076FB83F8965583F8225640
:1057A00083F8AE5683F83A5783F8904583F81C4641
:1057B00083F8A84683F8344770BD000045000020F8
:1057C000B83C00202DE9F04188B00546087800F08B
:1057D0007F06C8684FF00008022814D0087D00F04A
:1057E0007F04AF1997F83800A04206D06B6C2246B0
:1057F00031462846984787F8384097F838000F28F0
:1058000020D000243BE02878B0421BD100F5E060B6
:10581000019001210591CDF81080287B8DF81800AA
:10582000194A937A33B140F080008DF8180082F85D
:105830000A8000E09172009106AB0021049A019861
:10584000FBF764FB08B0BDE8F081286B50F824003A
:10585000C0F307418E4210D187B2686B30F9140053
:10586000FBF700FE3B46094A21462846CDF800805A
:1058700004F0A2FB696B21F81400641CE4B2E86A2E
:105880000078A042E1D8DDE7DC340020A71102084F
:105890002DE9F047CC48C8258581458240F6CE01E8
:1058A000C18140F2E9310181C84CC2202080400012
:1058B000608040F24620A0804FF44270E080658214
:1058C00047F23050A08242F21070E0822583C2205D
:1058D000A4F88C004000A4F88E0040F24620A4F802
:1058E00090004FF44270A4F89200A4F89E5047F242
:1058F0003050A4F8A00042F21070A4F8A200A4F85E
:10590000A450C220A4F81801A4F81A014000A4F879
:105910001C0140F24620A4F81E01A4F82A5144F6C6
:105920002060A4F82C014FF4FA50A4F82E010011C5
:10593000A4F8300140F24620A4F8EC044FF4427081
:10594000A4F8EE0440F2CA30A4F8F00440F28C400F
:10595000A4F8F204A4F8FE541420A4F800050820CA
:10596000A4F802050520A4F8040540F2F730A4F8D5
:10597000A4014FF49160A4F8A60140F21951A4F8D3
:10598000A81140F2AA51A4F8AA11A4F8B651142102
:10599000A4F8B8110821A4F8BA110521A4F8BC1183
:1059A00040F2F731A4F83012A4F8320240F2195153
:1059B000A4F8341240F2AA51A4F83612A4F84252C4
:1059C0001421A4F844120821A4F846120521A4F8D1
:1059D0004812A4F8BC024FF4CB61A4F8BE12A4F89C
:1059E000C012A4F8C2121E2184F8BA1241F28836FD
:1059F000A4F8CE62A4F8D0522821A4F8D21214211F
:105A0000A4F8D4124FF00409A4F89C920521A4F83C
:105A10009212A4F894124FF44B71A4F8481340F278
:105A20001441A4F84A13A4F84C0340F2FC40A4F833
:105A30004E03142084F84603A4F85A6347F230500A
:105A4000A4F85C037000A4F85E034FF4FA60A4F8B5
:105A50006003A4F828930520A4F81E03A4F82003EB
:105A60005B495C4802F046FD59495A4838313830A4
:105A700002F040FD584802F079FD142024F82A0C69
:105A800024F8280C022704F8197C7000A0853C201B
:105A9000A4F86200A4F8640084F873707000A4F89D
:105AA000B8006420A4F8EE00A4F8F00084F8FF70B9
:105AB0007000A4F844014FF00308A4F87A81A4F818
:105AC0007C81A4F80682A4F808820A20A4F8AA031C
:105AD000A4F8AC03A4F83604A4F83804A4F8C2046B
